{
  "address": "0x160E10d118a02DAfa1883f171A4c7aA257C41Ca2",
  "abi": [
    {
      "inputs": [
        {
          "internalType": "bytes32",
          "name": "merkleRoot_",
          "type": "bytes32"
        }
      ],
      "stateMutability": "nonpayable",
      "type": "constructor"
    },
    {
      "anonymous": false,
      "inputs": [
        {
          "indexed": false,
          "internalType": "bytes32",
          "name": "merkleRoot",
          "type": "bytes32"
        }
      ],
      "name": "NewMerkleRoot",
      "type": "event"
    },
    {
      "anonymous": false,
      "inputs": [
        {
          "indexed": true,
          "internalType": "address",
          "name": "previousOwner",
          "type": "address"
        },
        {
          "indexed": true,
          "internalType": "address",
          "name": "newOwner",
          "type": "address"
        }
      ],
      "name": "OwnershipTransferred",
      "type": "event"
    },
    {
      "anonymous": false,
      "inputs": [
        {
          "indexed": true,
          "internalType": "address",
          "name": "poolAddress",
          "type": "address"
        },
        {
          "indexed": false,
          "internalType": "uint256",
          "name": "accountLimit",
          "type": "uint256"
        }
      ],
      "name": "PoolAccountLimit",
      "type": "event"
    },
    {
      "anonymous": false,
      "inputs": [
        {
          "indexed": true,
          "internalType": "address",
          "name": "poolAddress",
          "type": "address"
        },
        {
          "indexed": false,
          "internalType": "uint256",
          "name": "poolCap",
          "type": "uint256"
        }
      ],
      "name": "PoolCap",
      "type": "event"
    },
    {
      "inputs": [
        {
          "internalType": "address",
          "name": "poolAddress",
          "type": "address"
        }
      ],
      "name": "getPoolAccountLimit",
      "outputs": [
        {
          "internalType": "uint256",
          "name": "",
          "type": "uint256"
        }
      ],
      "stateMutability": "view",
      "type": "function"
    },
    {
      "inputs": [
        {
          "internalType": "address",
          "name": "poolAddress",
          "type": "address"
        }
      ],
      "name": "getPoolCap",
      "outputs": [
        {
          "internalType": "uint256",
          "name": "",
          "type": "uint256"
        }
      ],
      "stateMutability": "view",
      "type": "function"
    },
    {
      "inputs": [
        {
          "internalType": "address",
          "name": "account",
          "type": "address"
        }
      ],
      "name": "isAccountVerified",
      "outputs": [
        {
          "internalType": "bool",
          "name": "",
          "type": "bool"
        }
      ],
      "stateMutability": "view",
      "type": "function"
    },
    {
      "inputs": [],
      "name": "merkleRoot",
      "outputs": [
        {
          "internalType": "bytes32",
          "name": "",
          "type": "bytes32"
        }
      ],
      "stateMutability": "view",
      "type": "function"
    },
    {
      "inputs": [],
      "name": "owner",
      "outputs": [
        {
          "internalType": "address",
          "name": "",
          "type": "address"
        }
      ],
      "stateMutability": "view",
      "type": "function"
    },
    {
      "inputs": [],
      "name": "renounceOwnership",
      "outputs": [],
      "stateMutability": "nonpayable",
      "type": "function"
    },
    {
      "inputs": [
        {
          "internalType": "address",
          "name": "poolAddress",
          "type": "address"
        },
        {
          "internalType": "uint256",
          "name": "accountLimit",
          "type": "uint256"
        }
      ],
      "name": "setPoolAccountLimit",
      "outputs": [],
      "stateMutability": "nonpayable",
      "type": "function"
    },
    {
      "inputs": [
        {
          "internalType": "address",
          "name": "poolAddress",
          "type": "address"
        },
        {
          "internalType": "uint256",
          "name": "poolCap",
          "type": "uint256"
        }
      ],
      "name": "setPoolCap",
      "outputs": [],
      "stateMutability": "nonpayable",
      "type": "function"
    },
    {
      "inputs": [
        {
          "internalType": "address",
          "name": "newOwner",
          "type": "address"
        }
      ],
      "name": "transferOwnership",
      "outputs": [],
      "stateMutability": "nonpayable",
      "type": "function"
    },
    {
      "inputs": [
        {
          "internalType": "bytes32",
          "name": "merkleRoot_",
          "type": "bytes32"
        }
      ],
      "name": "updateMerkleRoot",
      "outputs": [],
      "stateMutability": "nonpayable",
      "type": "function"
    },
    {
      "inputs": [
        {
          "internalType": "address",
          "name": "account",
          "type": "address"
        },
        {
          "internalType": "bytes32[]",
          "name": "merkleProof",
          "type": "bytes32[]"
        }
      ],
      "name": "verifyAddress",
      "outputs": [
        {
          "internalType": "bool",
          "name": "",
          "type": "bool"
        }
      ],
      "stateMutability": "nonpayable",
      "type": "function"
    }
  ],
  "transactionHash": "0x26daa018d5c710676f63edd5cf685a16bf58a9838d99bdde186ee0c95b6ce2e3",
  "args": [
    "0xca0f8c7ee1addcc5fce6a7c989ba3f210db065c36c276b71b8c8253a339318a3"
  ],
  "numDeployments": 1,
  "solcInputHash": "8ca980d51c658bcb6e0b1d5c9f9ee0b7",
  "bytecode": "0x608060405234801561001057600080fd5b50604051610aa8380380610aa88339818101604052602081101561003357600080fd5b5051600061003f61012e565b600080546001600160a01b0319166001600160a01b0383169081178255604051929350917f8be0079c531659141344cd1fd0a4f28419497f9722a3daafe3b4186f6b6457e0908290a35060018190556000808052600260209081526254dd1e7fac33ff75c19e70fe83507db0d683fd3465c996598dc972688b7ace676c89077b81905560408051918252517f87a8ed40e9bdf0609701a63c1db365301c953ffa230215ac92903d4af963e7cd929181900390910190a26040805182815290517f2f4f633f2174c8fce0ce6b22ea3cc69675584063adfd3d25e4dc3fd50cb631fc9181900360200190a150610132565b3390565b610967806101416000396000f3fe608060405234801561001057600080fd5b50600436106100a95760003560e01c80638da5cb5b116100715780638da5cb5b14610155578063945f1838146101795780639c8d8dea1461019f578063aed59dcc1461021f578063eb88f73e1461024b578063f2fde38b14610271576100a9565b80632eb4a7ab146100ae5780634783f0ef146100c85780634a982176146100e7578063715018a6146101135780638ba209b61461011b575b600080fd5b6100b6610297565b60408051918252519081900360200190f35b6100e5600480360360208110156100de57600080fd5b503561029d565b005b6100e5600480360360408110156100fd57600080fd5b506001600160a01b03813516906020013561033a565b6100e5610447565b6101416004803603602081101561013157600080fd5b50356001600160a01b03166104f3565b604080519115158252519081900360200190f35b61015d610511565b604080516001600160a01b039092168252519081900360200190f35b6100b66004803603602081101561018f57600080fd5b50356001600160a01b0316610520565b610141600480360360408110156101b557600080fd5b6001600160a01b0382351691908101906040810160208201356401000000008111156101e057600080fd5b8201836020820111156101f257600080fd5b8035906020019184602083028401116401000000008311171561021457600080fd5b50909250905061053b565b6100e56004803603604081101561023557600080fd5b506001600160a01b038135169060200135610614565b6100b66004803603602081101561026157600080fd5b50356001600160a01b0316610721565b6100e56004803603602081101561028757600080fd5b50356001600160a01b031661073c565b60015481565b6102a561083e565b6001600160a01b03166102b6610511565b6001600160a01b0316146102ff576040805162461bcd60e51b81526020600482018190526024820152600080516020610912833981519152604482015290519081900360640190fd5b60018190556040805182815290517f2f4f633f2174c8fce0ce6b22ea3cc69675584063adfd3d25e4dc3fd50cb631fc9181900360200190a150565b61034261083e565b6001600160a01b0316610353610511565b6001600160a01b03161461039c576040805162461bcd60e51b81526020600482018190526024820152600080516020610912833981519152604482015290519081900360640190fd5b6001600160a01b0382166103f3576040805162461bcd60e51b8152602060048201526019602482015278307830206973206e6f74206120706f6f6c206164647265737360381b604482015290519081900360640190fd5b6001600160a01b038216600081815260036020908152604091829020849055815184815291517ff30f0cdb7dc669285a3f39e2b5869ad68e12f7e2dc2234f6976f090e92031f9e9281900390910190a25050565b61044f61083e565b6001600160a01b0316610460610511565b6001600160a01b0316146104a9576040805162461bcd60e51b81526020600482018190526024820152600080516020610912833981519152604482015290519081900360640190fd5b600080546040516001600160a01b03909116907f8be0079c531659141344cd1fd0a4f28419497f9722a3daafe3b4186f6b6457e0908390a3600080546001600160a01b0319169055565b6001600160a01b031660009081526004602052604090205460ff1690565b6000546001600160a01b031690565b6001600160a01b031660009081526002602052604090205490565b600081156105ef5760008460405160200180826001600160a01b031660601b81526014019150506040516020818303038152906040528051906020012090506105bb848480806020026020016040519081016040528093929190818152602001838360200280828437600092019190915250506001549150849050610842565b156105ed5750506001600160a01b0383166000908152600460205260409020805460ff1916600190811790915561060d565b505b506001600160a01b03831660009081526004602052604090205460ff165b9392505050565b61061c61083e565b6001600160a01b031661062d610511565b6001600160a01b031614610676576040805162461bcd60e51b81526020600482018190526024820152600080516020610912833981519152604482015290519081900360640190fd5b6001600160a01b0382166106cd576040805162461bcd60e51b8152602060048201526019602482015278307830206973206e6f74206120706f6f6c206164647265737360381b604482015290519081900360640190fd5b6001600160a01b038216600081815260026020908152604091829020849055815184815291517f87a8ed40e9bdf0609701a63c1db365301c953ffa230215ac92903d4af963e7cd9281900390910190a25050565b6001600160a01b031660009081526003602052604090205490565b61074461083e565b6001600160a01b0316610755610511565b6001600160a01b03161461079e576040805162461bcd60e51b81526020600482018190526024820152600080516020610912833981519152604482015290519081900360640190fd5b6001600160a01b0381166107e35760405162461bcd60e51b81526004018080602001828103825260268152602001806108ec6026913960400191505060405180910390fd5b600080546040516001600160a01b03808516939216917f8be0079c531659141344cd1fd0a4f28419497f9722a3daafe3b4186f6b6457e091a3600080546001600160a01b0319166001600160a01b0392909216919091179055565b3390565b600081815b85518110156108e057600086828151811061085e57fe5b602002602001015190508083116108a557828160405160200180838152602001828152602001925050506040516020818303038152906040528051906020012092506108d7565b808360405160200180838152602001828152602001925050506040516020818303038152906040528051906020012092505b50600101610847565b50909214939250505056fe4f776e61626c653a206e6577206f776e657220697320746865207a65726f20616464726573734f776e61626c653a2063616c6c6572206973206e6f7420746865206f776e6572a264697066735822122001b746f6a5ccddeb48d44fec951c59c2ce89cab7c3b403456d68f2a31818d06864736f6c634300060c0033",
  "devdoc": {
    "kind": "dev",
    "methods": {
      "constructor": {
        "params": {
          "merkleRoot_": "bytes32 that represent a merkle root node. This is generated off chain with the list of qualifying addresses."
        }
      },
      "getPoolAccountLimit(address)": {
        "params": {
          "poolAddress": "address of the pool"
        },
        "returns": {
          "_0": "max mintable amount of the lp token per account"
        }
      },
      "getPoolCap(address)": {
        "params": {
          "poolAddress": "address of the pool"
        }
      },
      "isAccountVerified(address)": {
        "params": {
          "account": "the address to check if it has been verified"
        },
        "returns": {
          "_0": "a boolean value representing whether the account has been verified in the past or the present merkle tree"
        }
      },
      "owner()": {
        "details": "Returns the address of the current owner."
      },
      "renounceOwnership()": {
        "details": "Leaves the contract without owner. It will not be possible to call `onlyOwner` functions anymore. Can only be called by the current owner. NOTE: Renouncing ownership will leave the contract without an owner, thereby removing any functionality that is only available to the owner."
      },
      "setPoolAccountLimit(address,uint256)": {
        "params": {
          "accountLimit": "the max number of the pool token a single user can mint",
          "poolAddress": "address of the pool"
        }
      },
      "setPoolCap(address,uint256)": {
        "params": {
          "poolAddress": "address of the pool",
          "poolCap": "the max total supply of the pool token"
        }
      },
      "transferOwnership(address)": {
        "details": "Transfers ownership of the contract to a new account (`newOwner`). Can only be called by the current owner."
      },
      "updateMerkleRoot(bytes32)": {
        "params": {
          "merkleRoot_": "a new merkle root node that contains a list of deposit allowed addresses"
        }
      },
      "verifyAddress(address,bytes32[])": {
        "params": {
          "account": "address to confirm its existence in the merkle tree",
          "merkleProof": "data that is used to prove the existence of given parameters. This is generated during the creation of the merkle tree. Users should retrieve this data off-chain."
        },
        "returns": {
          "_0": "a boolean value that corresponds to whether the address with the proof has been verified in the past or if they exist in the current merkle tree."
        }
      }
    },
    "title": "Allowlist",
    "version": 1
  },
  "userdoc": {
    "kind": "user",
    "methods": {
      "constructor": "Creates this contract and sets the PoolCap of 0x0 with uint256(0x54dd1e) for crude checking whether an address holds this contract.",
      "getPoolAccountLimit(address)": {
        "notice": "Returns the max mintable amount of the lp token per account in given pool address."
      },
      "getPoolCap(address)": {
        "notice": "Returns the maximum total supply of the pool token for the given pool address."
      },
      "isAccountVerified(address)": {
        "notice": "Returns true if the given account's existence has been verified against any of the past or the present merkle tree. Note that if it has been verified in the past, this function will return true even if the current merkle tree does not contain the account."
      },
      "setPoolAccountLimit(address,uint256)": {
        "notice": "Sets the account limit of allowed deposit amounts for the given pool"
      },
      "setPoolCap(address,uint256)": {
        "notice": "Sets the max total supply of LPToken for the given pool address"
      },
      "updateMerkleRoot(bytes32)": {
        "notice": "Updates the merkle root that is stored in this contract. This can only be called by the owner. If more addresses are added to the list, a new merkle tree and a merkle root node should be generated, and merkleRoot should be updated accordingly."
      },
      "verifyAddress(address,bytes32[])": {
        "notice": "Checks the existence of keccak256(account) as a node in the merkle tree inferred by the merkle root node stored in this contract. Pools should use this function to check if the given address qualifies for depositing. If the given account has already been verified with the correct merkleProof, this function will return true when merkleProof is empty. The verified status will be overwritten if the previously verified user calls this function with an incorrect merkleProof."
      }
    },
    "notice": "This contract is a registry holding information about how much each swap contract should contain upto. Swap.sol will rely on this contract to determine whether the pool cap is reached and also whether a user's deposit limit is reached.",
    "version": 1
  },
  "storageLayout": {
    "storage": [
      {
        "astId": 4512,
        "contract": "contracts/stable_swap/guarded/Allowlist.sol:Allowlist",
        "label": "_owner",
        "offset": 0,
        "slot": "0",
        "type": "t_address"
      },
      {
        "astId": 29704,
        "contract": "contracts/stable_swap/guarded/Allowlist.sol:Allowlist",
        "label": "merkleRoot",
        "offset": 0,
        "slot": "1",
        "type": "t_bytes32"
      },
      {
        "astId": 29708,
        "contract": "contracts/stable_swap/guarded/Allowlist.sol:Allowlist",
        "label": "poolCaps",
        "offset": 0,
        "slot": "2",
        "type": "t_mapping(t_address,t_uint256)"
      },
      {
        "astId": 29712,
        "contract": "contracts/stable_swap/guarded/Allowlist.sol:Allowlist",
        "label": "accountLimits",
        "offset": 0,
        "slot": "3",
        "type": "t_mapping(t_address,t_uint256)"
      },
      {
        "astId": 29716,
        "contract": "contracts/stable_swap/guarded/Allowlist.sol:Allowlist",
        "label": "verified",
        "offset": 0,
        "slot": "4",
        "type": "t_mapping(t_address,t_bool)"
      }
    ],
    "types": {
      "t_address": {
        "encoding": "inplace",
        "label": "address",
        "numberOfBytes": "20"
      },
      "t_bool": {
        "encoding": "inplace",
        "label": "bool",
        "numberOfBytes": "1"
      },
      "t_bytes32": {
        "encoding": "inplace",
        "label": "bytes32",
        "numberOfBytes": "32"
      },
      "t_mapping(t_address,t_bool)": {
        "encoding": "mapping",
        "key": "t_address",
        "label": "mapping(address => bool)",
        "numberOfBytes": "32",
        "value": "t_bool"
      },
      "t_mapping(t_address,t_uint256)": {
        "encoding": "mapping",
        "key": "t_address",
        "label": "mapping(address => uint256)",
        "numberOfBytes": "32",
        "value": "t_uint256"
      },
      "t_uint256": {
        "encoding": "inplace",
        "label": "uint256",
        "numberOfBytes": "32"
      }
    }
  }
}