{
  "address": "0x2B267A3e49b351DEdac892400a530ABb2f899d23",
  "abi": [
    {
      "inputs": [],
      "stateMutability": "payable",
      "type": "constructor"
    },
    {
      "anonymous": false,
      "inputs": [
        {
          "indexed": true,
          "internalType": "address",
          "name": "previousOwner",
          "type": "address"
        },
        {
          "indexed": true,
          "internalType": "address",
          "name": "newOwner",
          "type": "address"
        }
      ],
      "name": "OwnershipTransferred",
      "type": "event"
    },
    {
      "stateMutability": "payable",
      "type": "fallback"
    },
    {
      "inputs": [],
      "name": "MINT_AMOUNT_ETH",
      "outputs": [
        {
          "internalType": "uint256",
          "name": "",
          "type": "uint256"
        }
      ],
      "stateMutability": "view",
      "type": "function"
    },
    {
      "inputs": [
        {
          "internalType": "address payable",
          "name": "receiver",
          "type": "address"
        }
      ],
      "name": "mint",
      "outputs": [],
      "stateMutability": "nonpayable",
      "type": "function"
    },
    {
      "inputs": [],
      "name": "owner",
      "outputs": [
        {
          "internalType": "address",
          "name": "",
          "type": "address"
        }
      ],
      "stateMutability": "view",
      "type": "function"
    },
    {
      "inputs": [],
      "name": "renounceOwnership",
      "outputs": [],
      "stateMutability": "nonpayable",
      "type": "function"
    },
    {
      "inputs": [
        {
          "internalType": "address",
          "name": "newOwner",
          "type": "address"
        }
      ],
      "name": "transferOwnership",
      "outputs": [],
      "stateMutability": "nonpayable",
      "type": "function"
    },
    {
      "inputs": [],
      "name": "withdraw",
      "outputs": [],
      "stateMutability": "nonpayable",
      "type": "function"
    },
    {
      "stateMutability": "payable",
      "type": "receive"
    }
  ],
  "transactionHash": "0xee770260458b6d6f5b154b12f34cd7100a5b0919cf54f5082dac0f8c9e4377ba",
  "args": [],
  "numDeployments": 1,
  "solcInputHash": "8ca980d51c658bcb6e0b1d5c9f9ee0b7",
  "bytecode": "0x6080604052600061000e61005d565b600080546001600160a01b0319166001600160a01b0383169081178255604051929350917f8be0079c531659141344cd1fd0a4f28419497f9722a3daafe3b4186f6b6457e0908290a350610061565b3390565b61049b806100706000396000f3fe6080604052600436106100595760003560e01c806323336cc0146100625780633ccfd60b146100895780636a6278421461009e578063715018a6146100d15780638da5cb5b146100e6578063f2fde38b1461011757610060565b3661006057005b005b34801561006e57600080fd5b5061007761014a565b60408051918252519081900360200190f35b34801561009557600080fd5b50610060610156565b3480156100aa57600080fd5b50610060600480360360208110156100c157600080fd5b50356001600160a01b03166101f9565b3480156100dd57600080fd5b5061006061025a565b3480156100f257600080fd5b506100fb610318565b604080516001600160a01b039092168252519081900360200190f35b34801561012357600080fd5b506100606004803603602081101561013a57600080fd5b50356001600160a01b0316610327565b67016345785d8a000081565b61015e61043b565b6001600160a01b031661016f610318565b6001600160a01b0316146101ca576040805162461bcd60e51b815260206004820181905260248201527f4f776e61626c653a2063616c6c6572206973206e6f7420746865206f776e6572604482015290519081900360640190fd5b60405133904780156108fc02916000818181858888f193505050501580156101f6573d6000803e3d6000fd5b50565b6001600160a01b0381163167016345785d8a0000811015610256576040516001600160a01b0383169067016345785d8a000083900380156108fc02916000818181858888f19350505050158015610254573d6000803e3d6000fd5b505b5050565b61026261043b565b6001600160a01b0316610273610318565b6001600160a01b0316146102ce576040805162461bcd60e51b815260206004820181905260248201527f4f776e61626c653a2063616c6c6572206973206e6f7420746865206f776e6572604482015290519081900360640190fd5b600080546040516001600160a01b03909116907f8be0079c531659141344cd1fd0a4f28419497f9722a3daafe3b4186f6b6457e0908390a3600080546001600160a01b0319169055565b6000546001600160a01b031690565b61032f61043b565b6001600160a01b0316610340610318565b6001600160a01b03161461039b576040805162461bcd60e51b815260206004820181905260248201527f4f776e61626c653a2063616c6c6572206973206e6f7420746865206f776e6572604482015290519081900360640190fd5b6001600160a01b0381166103e05760405162461bcd60e51b81526004018080602001828103825260268152602001806104406026913960400191505060405180910390fd5b600080546040516001600160a01b03808516939216917f8be0079c531659141344cd1fd0a4f28419497f9722a3daafe3b4186f6b6457e091a3600080546001600160a01b0319166001600160a01b0392909216919091179055565b339056fe4f776e61626c653a206e6577206f776e657220697320746865207a65726f2061646472657373a2646970667358221220a3c1f7d874fd384928e076f27bec306ebf951c3e6750b05ef84a4ac2578c0d1664736f6c634300060c0033",
  "devdoc": {
    "kind": "dev",
    "methods": {
      "owner()": {
        "details": "Returns the address of the current owner."
      },
      "renounceOwnership()": {
        "details": "Leaves the contract without owner. It will not be possible to call `onlyOwner` functions anymore. Can only be called by the current owner. NOTE: Renouncing ownership will leave the contract without an owner, thereby removing any functionality that is only available to the owner."
      },
      "transferOwnership(address)": {
        "details": "Transfers ownership of the contract to a new account (`newOwner`). Can only be called by the current owner."
      }
    },
    "version": 1
  },
  "userdoc": {
    "kind": "user",
    "methods": {},
    "version": 1
  },
  "storageLayout": {
    "storage": [
      {
        "astId": 4512,
        "contract": "contracts/faucet/FaucetRubyEuropa.sol:FaucetRubyEuropa",
        "label": "_owner",
        "offset": 0,
        "slot": "0",
        "type": "t_address"
      }
    ],
    "types": {
      "t_address": {
        "encoding": "inplace",
        "label": "address",
        "numberOfBytes": "20"
      }
    }
  }
}