{
  "address": "0xB358b40814bee09aD51EF8699c9642aFCe64FC54",
  "abi": [
    {
      "anonymous": false,
      "inputs": [
        {
          "indexed": false,
          "internalType": "uint256",
          "name": "_lotteryId",
          "type": "uint256"
        },
        {
          "indexed": false,
          "internalType": "address",
          "name": "_lottery",
          "type": "address"
        },
        {
          "indexed": false,
          "internalType": "address",
          "name": "_collateral",
          "type": "address"
        },
        {
          "indexed": false,
          "internalType": "address",
          "name": "_nft",
          "type": "address"
        }
      ],
      "name": "LotteryCreated",
      "type": "event"
    },
    {
      "anonymous": false,
      "inputs": [
        {
          "indexed": true,
          "internalType": "address",
          "name": "previousOwner",
          "type": "address"
        },
        {
          "indexed": true,
          "internalType": "address",
          "name": "newOwner",
          "type": "address"
        }
      ],
      "name": "OwnershipTransferred",
      "type": "event"
    },
    {
      "inputs": [
        {
          "internalType": "uint256",
          "name": "_ticketSize",
          "type": "uint256"
        }
      ],
      "name": "costToBuyTickets",
      "outputs": [
        {
          "internalType": "uint256",
          "name": "",
          "type": "uint256"
        }
      ],
      "stateMutability": "view",
      "type": "function"
    },
    {
      "inputs": [
        {
          "internalType": "address",
          "name": "_collateral",
          "type": "address"
        },
        {
          "internalType": "address",
          "name": "_nft",
          "type": "address"
        },
        {
          "internalType": "uint256",
          "name": "_tokenId",
          "type": "uint256"
        },
        {
          "internalType": "uint256",
          "name": "_lotterySize",
          "type": "uint256"
        },
        {
          "internalType": "uint256",
          "name": "_ticketPrice",
          "type": "uint256"
        },
        {
          "internalType": "uint256[]",
          "name": "_distribution",
          "type": "uint256[]"
        },
        {
          "internalType": "uint256",
          "name": "_duration",
          "type": "uint256"
        }
      ],
      "name": "createNewLotto",
      "outputs": [],
      "stateMutability": "nonpayable",
      "type": "function"
    },
    {
      "inputs": [],
      "name": "getBurn",
      "outputs": [
        {
          "internalType": "address",
          "name": "",
          "type": "address"
        }
      ],
      "stateMutability": "view",
      "type": "function"
    },
    {
      "inputs": [],
      "name": "getCurrentLotto",
      "outputs": [
        {
          "internalType": "address",
          "name": "",
          "type": "address"
        }
      ],
      "stateMutability": "view",
      "type": "function"
    },
    {
      "inputs": [],
      "name": "getCurrentLottoryId",
      "outputs": [
        {
          "internalType": "uint256",
          "name": "",
          "type": "uint256"
        }
      ],
      "stateMutability": "view",
      "type": "function"
    },
    {
      "inputs": [
        {
          "internalType": "uint256",
          "name": "_lotteryId",
          "type": "uint256"
        }
      ],
      "name": "getLotto",
      "outputs": [
        {
          "internalType": "address",
          "name": "",
          "type": "address"
        }
      ],
      "stateMutability": "view",
      "type": "function"
    },
    {
      "inputs": [],
      "name": "getRNG",
      "outputs": [
        {
          "internalType": "address",
          "name": "",
          "type": "address"
        }
      ],
      "stateMutability": "view",
      "type": "function"
    },
    {
      "inputs": [],
      "name": "getTreasury",
      "outputs": [
        {
          "internalType": "address",
          "name": "",
          "type": "address"
        }
      ],
      "stateMutability": "view",
      "type": "function"
    },
    {
      "inputs": [],
      "name": "getWinningNumbers",
      "outputs": [
        {
          "internalType": "uint256[]",
          "name": "",
          "type": "uint256[]"
        }
      ],
      "stateMutability": "view",
      "type": "function"
    },
    {
      "inputs": [
        {
          "internalType": "address",
          "name": "_randomNumberGenerator",
          "type": "address"
        },
        {
          "internalType": "address",
          "name": "_treasury",
          "type": "address"
        },
        {
          "internalType": "address",
          "name": "_burn",
          "type": "address"
        }
      ],
      "name": "initialize",
      "outputs": [],
      "stateMutability": "nonpayable",
      "type": "function"
    },
    {
      "inputs": [],
      "name": "owner",
      "outputs": [
        {
          "internalType": "address",
          "name": "",
          "type": "address"
        }
      ],
      "stateMutability": "view",
      "type": "function"
    },
    {
      "inputs": [],
      "name": "renounceOwnership",
      "outputs": [],
      "stateMutability": "nonpayable",
      "type": "function"
    },
    {
      "inputs": [
        {
          "internalType": "address",
          "name": "_burn",
          "type": "address"
        }
      ],
      "name": "setBurn",
      "outputs": [],
      "stateMutability": "nonpayable",
      "type": "function"
    },
    {
      "inputs": [
        {
          "internalType": "address",
          "name": "_RNG",
          "type": "address"
        }
      ],
      "name": "setRNG",
      "outputs": [],
      "stateMutability": "nonpayable",
      "type": "function"
    },
    {
      "inputs": [
        {
          "internalType": "address",
          "name": "_treasury",
          "type": "address"
        }
      ],
      "name": "setTreasury",
      "outputs": [],
      "stateMutability": "nonpayable",
      "type": "function"
    },
    {
      "inputs": [
        {
          "internalType": "address",
          "name": "newOwner",
          "type": "address"
        }
      ],
      "name": "transferOwnership",
      "outputs": [],
      "stateMutability": "nonpayable",
      "type": "function"
    }
  ],
  "transactionHash": "0x58e6b3d62cb91994a14817464872849769122785ca63d81aaf7086dbe32a6fe4",
  "args": [],
  "numDeployments": 1,
  "solcInputHash": "8ca980d51c658bcb6e0b1d5c9f9ee0b7",
  "bytecode": "0x608060405234801561001057600080fd5b506141ad806100206000396000f3fe60806040523480156200001157600080fd5b5060043610620001185760003560e01c8063b661c63711620000a5578063d2941c7f116200006f578063d2941c7f146200029c578063db51ccdb14620002bc578063f0f44260146200035e578063f2fde38b14620003875762000118565b8063b661c6371462000231578063b8ccaedd146200024d578063bb53cdbc1462000257578063c0c53b8b14620002615762000118565b8063715018a611620000e7578063715018a6146200019857806384350e1d14620001a25780638da5cb5b14620001fe578063aced73bd14620002085762000118565b80630c657478146200011d5780633b19e84a14620001595780633b84edbd14620001635780636a8dfd3a146200018e575b600080fd5b6200013d600480360360208110156200013557600080fd5b5035620003b0565b604080516001600160a01b039092168252519081900360200190f35b6200013d620003cb565b6200018c600480360360208110156200017b57600080fd5b50356001600160a01b0316620003da565b005b6200013d620004ab565b6200018c620004c9565b620001ac6200057b565b60408051602080825283518183015283519192839290830191858101910280838360005b83811015620001ea578181015183820152602001620001d0565b505050509050019250505060405180910390f35b6200013d62000695565b6200018c600480360360208110156200022057600080fd5b50356001600160a01b0316620006a4565b6200023b62000775565b60408051918252519081900360200190f35b6200013d6200077b565b6200013d6200078a565b6200018c600480360360608110156200027957600080fd5b506001600160a01b03813581169160208101358216916040909101351662000799565b6200023b60048036036020811015620002b457600080fd5b503562000962565b6200018c600480360360e0811015620002d457600080fd5b6001600160a01b0382358116926020810135909116916040820135916060810135916080820135919081019060c0810160a08201356401000000008111156200031c57600080fd5b8201836020820111156200032f57600080fd5b803590602001918460208302840111640100000000831117156200035257600080fd5b919350915035620009e6565b6200018c600480360360208110156200037657600080fd5b50356001600160a01b031662000e95565b6200018c600480360360208110156200039f57600080fd5b50356001600160a01b031662000f66565b6000908152606860205260409020546001600160a01b031690565b6066546001600160a01b031690565b620003e462001071565b6001600160a01b0316620003f762000695565b6001600160a01b03161462000442576040805162461bcd60e51b81526020600482018190526024820152600080516020620040d1833981519152604482015290519081900360640190fd5b6001600160a01b038116620004895760405162461bcd60e51b8152600401808060200182810382526027815260200180620041186027913960400191505060405180910390fd5b606580546001600160a01b0319166001600160a01b0392909216919091179055565b6069546000908152606860205260409020546001600160a01b031690565b620004d362001071565b6001600160a01b0316620004e662000695565b6001600160a01b03161462000531576040805162461bcd60e51b81526020600482018190526024820152600080516020620040d1833981519152604482015290519081900360640190fd5b6033546040516000916001600160a01b0316907f8be0079c531659141344cd1fd0a4f28419497f9722a3daafe3b4186f6b6457e0908390a3603380546001600160a01b0319169055565b606062000587620004ab565b6001600160a01b03166384350e1d6040518163ffffffff1660e01b815260040160006040518083038186803b158015620005c057600080fd5b505afa158015620005d5573d6000803e3d6000fd5b505050506040513d6000823e601f3d908101601f191682016040526020811015620005ff57600080fd5b81019080805160405193929190846401000000008211156200062057600080fd5b9083019060208201858111156200063657600080fd5b82518660208202830111640100000000821117156200065457600080fd5b82525081516020918201928201910280838360005b838110156200068357818101518382015260200162000669565b50505050905001604052505050905090565b6033546001600160a01b031690565b620006ae62001071565b6001600160a01b0316620006c162000695565b6001600160a01b0316146200070c576040805162461bcd60e51b81526020600482018190526024820152600080516020620040d1833981519152604482015290519081900360640190fd5b6001600160a01b038116620007535760405162461bcd60e51b815260040180806020018281038252602881526020018062003ffd6028913960400191505060405180910390fd5b606780546001600160a01b0319166001600160a01b0392909216919091179055565b60695490565b6067546001600160a01b031690565b6065546001600160a01b031690565b600054610100900460ff1680620007b55750620007b562001075565b80620007c4575060005460ff16155b620008015760405162461bcd60e51b815260040180806020018281038252602e8152602001806200407f602e913960400191505060405180910390fd5b600054610100900460ff161580156200082d576000805460ff1961ff0019909116610100171660011790555b6001600160a01b038416620008745760405162461bcd60e51b81526004018080602001828103825260398152602001806200413f6039913960400191505060405180910390fd5b6001600160a01b038316620008bb5760405162461bcd60e51b815260040180806020018281038252602c81526020018062004053602c913960400191505060405180910390fd5b6001600160a01b038216620009025760405162461bcd60e51b815260040180806020018281038252602881526020018062003ffd6028913960400191505060405180910390fd5b606580546001600160a01b038087166001600160a01b0319928316179092556066805486841690831617905560678054928516929091169190911790556200094962001088565b80156200095c576000805461ff00191690555b50505050565b60006200096e620004ab565b6001600160a01b031663d2941c7f836040518263ffffffff1660e01b81526004018082815260200191505060206040518083038186803b158015620009b257600080fd5b505afa158015620009c7573d6000803e3d6000fd5b505050506040513d6020811015620009de57600080fd5b505192915050565b620009f062001071565b6001600160a01b031662000a0362000695565b6001600160a01b03161462000a4e576040805162461bcd60e51b81526020600482018190526024820152600080516020620040d1833981519152604482015290519081900360640190fd5b6001600160a01b03881662000a955760405162461bcd60e51b815260040180806020018281038252602e81526020018062004025602e913960400191505060405180910390fd5b6002821162000ad65760405162461bcd60e51b8152600401808060200182810382526024815260200180620040ad6024913960400191505060405180910390fd5b600c82111562000b185760405162461bcd60e51b8152600401808060200182810382526024815260200180620040ad6024913960400191505060405180910390fd5b6001600160a01b0387161562000bec57336001600160a01b0316876001600160a01b0316636352211e886040518263ffffffff1660e01b81526004018082815260200191505060206040518083038186803b15801562000b7757600080fd5b505afa15801562000b8c573d6000803e3d6000fd5b505050506040513d602081101562000ba357600080fd5b50516001600160a01b03161462000bec5760405162461bcd60e51b8152600401808060200182810382526027815260200180620040f16027913960400191505060405180910390fd5b60698054600101908190556067546066546065546040518c938c938c938c938c938c938c936001600160a01b0392831693918316928d9291169062000c3190620012f7565b808d81526020018c6001600160a01b031681526020018b6001600160a01b031681526020018a815260200189815260200188815260200180602001866001600160a01b03168152602001856001600160a01b03168152602001848152602001836001600160a01b031681526020018281038252888882818152602001925060200280828437600081840152601f19601f8201169050808301925050509d5050505050505050505050505050604051809103906000f08015801562000cf9573d6000803e3d6000fd5b506069805460009081526068602052604080822080546001600160a01b0319166001600160a01b039586161790559154815220541663f2fde38b62000d3d62000695565b6040518263ffffffff1660e01b815260040180826001600160a01b03168152602001915050600060405180830381600087803b15801562000d7d57600080fd5b505af115801562000d92573d6000803e3d6000fd5b505050506001600160a01b0387161562000e25576069546000908152606860205260408082205481516323b872dd60e01b81523360048201526001600160a01b039182166024820152604481018a90529151908a16926323b872dd926064808201939182900301818387803b15801562000e0b57600080fd5b505af115801562000e20573d6000803e3d6000fd5b505050505b6069546000818152606860209081526040918290205482519384526001600160a01b03908116918401919091528a81168383015289166060830152517f9af3c8bddd47e07e1539a1caf26ebfad47b0dd6ece2b49ef476202718aa9e1fe9181900360800190a15050505050505050565b62000e9f62001071565b6001600160a01b031662000eb262000695565b6001600160a01b03161462000efd576040805162461bcd60e51b81526020600482018190526024820152600080516020620040d1833981519152604482015290519081900360640190fd5b6001600160a01b03811662000f445760405162461bcd60e51b815260040180806020018281038252602c81526020018062004053602c913960400191505060405180910390fd5b606680546001600160a01b0319166001600160a01b0392909216919091179055565b62000f7062001071565b6001600160a01b031662000f8362000695565b6001600160a01b03161462000fce576040805162461bcd60e51b81526020600482018190526024820152600080516020620040d1833981519152604482015290519081900360640190fd5b6001600160a01b038116620010155760405162461bcd60e51b815260040180806020018281038252602681526020018062003fd76026913960400191505060405180910390fd5b6033546040516001600160a01b038084169216907f8be0079c531659141344cd1fd0a4f28419497f9722a3daafe3b4186f6b6457e090600090a3603380546001600160a01b0319166001600160a01b0392909216919091179055565b3390565b6000620010823062001146565b15905090565b600054610100900460ff1680620010a45750620010a462001075565b80620010b3575060005460ff16155b620010f05760405162461bcd60e51b815260040180806020018281038252602e8152602001806200407f602e913960400191505060405180910390fd5b600054610100900460ff161580156200111c576000805460ff1961ff0019909116610100171660011790555b620011266200114c565b62001130620011f4565b801562001143576000805461ff00191690555b50565b3b151590565b600054610100900460ff16806200116857506200116862001075565b8062001177575060005460ff16155b620011b45760405162461bcd60e51b815260040180806020018281038252602e8152602001806200407f602e913960400191505060405180910390fd5b600054610100900460ff1615801562001130576000805460ff1961ff001990911661010017166001179055801562001143576000805461ff001916905550565b600054610100900460ff16806200121057506200121062001075565b806200121f575060005460ff16155b6200125c5760405162461bcd60e51b815260040180806020018281038252602e8152602001806200407f602e913960400191505060405180910390fd5b600054610100900460ff1615801562001288576000805460ff1961ff0019909116610100171660011790555b60006200129462001071565b603380546001600160a01b0319166001600160a01b038316908117909155604051919250906000907f8be0079c531659141344cd1fd0a4f28419497f9722a3daafe3b4186f6b6457e0908290a350801562001143576000805461ff001916905550565b612cd180620013068339019056fe60806040523480156200001157600080fd5b5060405162002cd138038062002cd183398181016040526101608110156200003857600080fd5b815160208301516040808501516060860151608087015160a088015160c089018051955197999698949793969295919483019291846401000000008211156200008057600080fd5b9083019060208201858111156200009657600080fd5b8251866020820283011164010000000082111715620000b457600080fd5b82525081516020918201928201910280838360005b83811015620000e3578181015183820152602001620000c9565b5050505091909101604090815260208301519083015160608401516080909401519195509350905060006200011762000592565b600080546001600160a01b0319166001600160a01b0383169081178255604051929350917f8be0079c531659141344cd1fd0a4f28419497f9722a3daafe3b4186f6b6457e0908290a3506000805460ff60a01b191690556001600160a01b038a16620001b55760405162461bcd60e51b815260040180806020018281038252602181526020018062002cb06021913960400191505060405180910390fd5b6001600160a01b038116620001fc5760405162461bcd60e51b815260040180806020018281038252603481526020018062002c0f6034913960400191505060405180910390fd5b6001600160a01b038316620002435760405162461bcd60e51b815260040180806020018281038252602581526020018062002c646025913960400191505060405180910390fd5b6001600160a01b0384166200028a5760405162461bcd60e51b815260040180806020018281038252602181526020018062002c436021913960400191505060405180910390fd5b600385511015620002e2576040805162461bcd60e51b815260206004820152601d60248201527f4c6f74746572793a20496e76616c696420646973747269627574696f6e000000604482015290519081900360640190fd5b8451600c10156200033a576040805162461bcd60e51b815260206004820152601d60248201527f4c6f74746572793a20496e76616c696420646973747269627574696f6e000000604482015290519081900360640190fd5b845160011901600b556000805b86518110156200038a576200037f8782815181106200036257fe5b6020026020010151836200059660201b62001d291790919060201c565b915060010162000347565b5080606414620003cc5760405162461bcd60e51b815260040180806020018281038252602781526020018062002c896027913960400191505060405180910390fd5b603c831162000422576040805162461bcd60e51b815260206004820152601e60248201527f4c6f74746572793a206d696e206475726174696f6e2031206d696e7574650000604482015290519081900360640190fd5b62278d0083106200047a576040805162461bcd60e51b815260206004820152601d60248201527f4c6f74746572793a206d6178206475726174696f6e2031206d6f6e7468000000604482015290519081900360640190fd5b6005881115620004d1576040805162461bcd60e51b815260206004820152601960248201527f4c6f74746572793a206d6178203130306b207469636b65747300000000000000604482015290519081900360640190fd5b600380546001600160a01b03199081166001600160a01b038e81169190911790925560048054821685841617905560068e90556005805482168d841617905560078b905560018054821687841617905560028054909116918716919091179055600e879055600a88905562000545620005f8565b60088190555062000567836008546200059660201b62001d291790919060201c565b60095585516200057f90600f906020890190620005fc565b5050505050505050505050505062000663565b3390565b600082820183811015620005f1576040805162461bcd60e51b815260206004820152601b60248201527f536166654d6174683a206164646974696f6e206f766572666c6f770000000000604482015290519081900360640190fd5b9392505050565b4290565b8280548282559060005260206000209081019282156200063a579160200282015b828111156200063a5782518255916020019190600101906200061d565b50620006489291506200064c565b5090565b5b808211156200064857600081556001016200064d565b61259c80620006736000396000f3fe608060405234801561001057600080fd5b50600436106102475760003560e01c80636ed01ce21161013b5780639b6a1c40116100b8578063d2941c7f1161007c578063d2941c7f146105c5578063da649e6b146105e2578063e8eedc08146105ea578063eb46260e14610607578063f2fde38b1461062d57610247565b80639b6a1c401461059d578063ab9dbd07146105a5578063b4224371146105ad578063b88a802f146105b5578063c2b6b58c146105bd57610247565b806384350e1d116100ff57806384350e1d146105755780638456cb591461057d57806387bb7ae0146105855780638da5cb5b1461058d578063932eb6781461059557610247565b80636ed01ce2146104e7578063715018a6146104ef5780637420901c146104f757806375329a99146104ff57806376c9772c1461056d57610247565b80633f4ba83a116101c95780635edc958d1161018d5780635edc958d146104a9578063601dd0e5146104b1578063608620aa146104b957806368d90d5e146104c1578063692aa97e146104df57610247565b80633f4ba83a1461046357806344a040f51461046b578063477601b8146104915780635659f582146104995780635c975abb146104a157610247565b80632e1a7d4d116102105780632e1a7d4d1461039f5780632f3f8d23146103bc578063329398e4146103c45780633750c195146103de5780633c2bcadc1461045b57610247565b80621ace931461024c57806307da68f5146102865780630ad182bc146102905780630b2e669114610306578063109885cc1461037b575b600080fd5b6102726004803603602081101561026257600080fd5b50356001600160a01b0316610653565b604080519115158252519081900360200190f35b61028e610706565b005b6102b6600480360360208110156102a657600080fd5b50356001600160a01b0316610775565b60408051602080825283518183015283519192839290830191858101910280838360005b838110156102f25781810151838201526020016102da565b505050509050019250505060405180910390f35b61028e6004803603604081101561031c57600080fd5b81359190810190604081016020820135600160201b81111561033d57600080fd5b82018360208201111561034f57600080fd5b803590602001918460208302840111600160201b8311171561037057600080fd5b5090925090506107e1565b610383610aed565b604080516001600160a01b039092168252519081900360200190f35b61028e600480360360208110156103b557600080fd5b5035610afd565b6102b6610c47565b6103cc610d4e565b60408051918252519081900360200190f35b6103e6610d54565b6040805160208082528351818301528351919283929083019185019080838360005b83811015610420578181015183820152602001610408565b50505050905090810190601f16801561044d5780820380516001836020036101000a031916815260200191505b509250505060405180910390f35b610272610e89565b61028e610e93565b6103cc6004803603602081101561048157600080fd5b50356001600160a01b0316610eff565b6103cc610fea565b6102b6610ff0565b610272611048565b6103cc611058565b6103cc61105e565b61028e611064565b6104c9611477565b6040805160ff9092168252519081900360200190f35b6102726114ed565b6103cc611515565b61028e61151b565b6103cc6115c7565b6102b66004803603602081101561051557600080fd5b810190602081018135600160201b81111561052f57600080fd5b82018360208201111561054157600080fd5b803590602001918460208302840111600160201b8311171561056257600080fd5b5090925090506115cd565b6103e6611691565b6102b6611711565b61028e6117aa565b6103cc611814565b61038361181a565b610383611829565b610272611838565b6103cc611849565b6103e661184f565b61028e6118cf565b610272611bad565b6103cc600480360360208110156105db57600080fd5b5035611bc1565b6103cc611bd1565b6102726004803603602081101561060057600080fd5b5035611bed565b6102726004803603602081101561061d57600080fd5b50356001600160a01b0316611c09565b61028e6004803603602081101561064357600080fd5b50356001600160a01b0316611c27565b600b54600d54600091146106985760405162461bcd60e51b81526004018080602001828103825260278152602001806124576027913960400191505060405180910390fd5b816001600160a01b031660116000600d6000815481106106b457fe5b600091825260208083209091015483528201929092526040019020546001600160a01b03161480156106f057506005546001600160a01b031615155b156106fd57506001610701565b5060005b919050565b61070e611d8a565b6001600160a01b031661071f61181a565b6001600160a01b031614610768576040805162461bcd60e51b8152602060048201819052602482015260008051602061249f833981519152604482015290519081900360640190fd5b610770611d8e565b600955565b6001600160a01b0381166000908152601260209081526040918290208054835181840281018401909452808452606093928301828280156107d557602002820191906000526020600020905b8154815260200190600101908083116107c1575b50505050509050919050565b6008546107ec611d8e565b10156108295760405162461bcd60e51b815260040180806020018281038252602a815260200180612517602a913960400191505060405180910390fd5b600954610834611d8e565b106108705760405162461bcd60e51b81526004018080602001828103825260218152602001806123c16021913960400191505060405180910390fd5b610878611048565b156108bd576040805162461bcd60e51b815260206004820152601060248201526f14185d5cd8589b194e881c185d5cd95960821b604482015290519081900360640190fd5b808314610911576040805162461bcd60e51b815260206004820152601f60248201527f4c6f74746572793a20496e76616c69642063686f73656e206e756d6265727300604482015290519081900360640190fd5b6000805b82811015610a5857600a54600a0a84848381811061092f57fe5b90506020020135106109725760405162461bcd60e51b81526004018080602001828103825260268152602001806125416026913960400191505060405180910390fd5b600060118186868581811061098357fe5b60209081029290920135835250810191909152604001600020546001600160a01b03161415610a505760018201915033601160008686858181106109c357fe5b90506020020135815260200190815260200160002060006101000a8154816001600160a01b0302191690836001600160a01b0316021790555060126000336001600160a01b03166001600160a01b03168152602001908152602001600020848483818110610a2d57fe5b835460018101855560009485526020948590209190940292909201359190920155505b600101610915565b506000610a70600e5483611d9290919063ffffffff16565b600354909150610a8b906001600160a01b0316333084611deb565b600c54610a989082611d29565b600c55601054610aa89083611d29565b601055604080513381526020810184905281517f525b180638b7ca5cfb6b9e8c89581f1b6c731bfd617e813450f4b52c44d07bc5929181900390910190a15050505050565b6003546001600160a01b03165b90565b600954610b08611d8e565b1015610b455760405162461bcd60e51b815260040180806020018281038252602981526020018061242e6029913960400191505060405180910390fd5b610b4d611d8a565b6001600160a01b0316610b5e61181a565b6001600160a01b031614610ba7576040805162461bcd60e51b8152602060048201819052602482015260008051602061249f833981519152604482015290519081900360640190fd5b600354610bbe906001600160a01b03163383611e4b565b6005546001600160a01b031615610c445760055460075460408051632142170760e11b81523060048201523360248201526044810192909252516001600160a01b03909216916342842e0e9160648082019260009290919082900301818387803b158015610c2b57600080fd5b505af1158015610c3f573d6000803e3d6000fd5b505050505b50565b600b54600d5460609114610c8c5760405162461bcd60e51b81526004018080602001828103825260278152602001806124576027913960400191505060405180910390fd5b6060600b5467ffffffffffffffff81118015610ca757600080fd5b50604051908082528060200260200182016040528015610cd1578160200160208202803683370190505b50905060005b600b54811015610d48576000600d8281548110610cf057fe5b6000918252602080832090910154808352601190915260409091205484519192506001600160a01b031690849084908110610d2757fe5b6001600160a01b039092166020928302919091019091015250600101610cd7565b50905090565b60085490565b600354604080516395d89b4160e01b815290516060926001600160a01b0316916395d89b41916004808301926000929190829003018186803b158015610d9957600080fd5b505afa158015610dad573d6000803e3d6000fd5b505050506040513d6000823e601f3d908101601f191682016040526020811015610dd657600080fd5b8101908080516040519392919084600160201b821115610df557600080fd5b908301906020820185811115610e0a57600080fd5b8251600160201b811182820188101715610e2357600080fd5b82525081516020918201929091019080838360005b83811015610e50578181015183820152602001610e38565b50505050905090810190601f168015610e7d5780820380516001836020036101000a031916815260200191505b50604052505050905090565b600b54600d541490565b610e9b611d8a565b6001600160a01b0316610eac61181a565b6001600160a01b031614610ef5576040805162461bcd60e51b8152602060048201819052602482015260008051602061249f833981519152604482015290519081900360640190fd5b610efd611ea2565b565b600b54600d5460009114610f445760405162461bcd60e51b81526004018080602001828103825260278152602001806124576027913960400191505060405180910390fd5b6000805b600b54811015610fe3576000600d8281548110610f6157fe5b600091825260208083209091015480835260119091526040909120549091506001600160a01b03908116908616811415610fd957610fd6610fcf6064610fc9600f8781548110610fad57fe5b9060005260206000200154600c54611d9290919063ffffffff16565b90611f45565b8590611d29565b93505b5050600101610f48565b5092915050565b60095490565b6060600f80548060200260200160405190810160405280929190818152602001828054801561103e57602002820191906000526020600020905b81548152602001906001019080831161102a575b5050505050905090565b600054600160a01b900460ff1690565b600a5490565b600c5490565b60095461106f611d8e565b10156110ac5760405162461bcd60e51b815260040180806020018281038252602981526020018061242e6029913960400191505060405180910390fd5b6110b4611d8a565b6001600160a01b03166110c561181a565b6001600160a01b03161461110e576040805162461bcd60e51b8152602060048201819052602482015260008051602061249f833981519152604482015290519081900360640190fd5b600d541561114d5760405162461bcd60e51b815260040180806020018281038252602e8152602001806124bf602e913960400191505060405180910390fd5b60048054600a54600b54604080516337347e0560e11b8152948501929092526024840152516001600160a01b0390911691636e68fc0a916044808301926000929190829003018186803b1580156111a357600080fd5b505afa1580156111b7573d6000803e3d6000fd5b505050506040513d6000823e601f3d908101601f1916820160405260208110156111e057600080fd5b8101908080516040519392919084600160201b8211156111ff57600080fd5b90830190602082018581111561121457600080fd5b82518660208202830111600160201b8211171561123057600080fd5b82525081516020918201928201910280838360005b8381101561125d578181015183820152602001611245565b50505050919091016040525050825161127e93600d93506020019150612360565b50600f805460009190600019810190811061129557fe5b906000526020600020015411156112e757600154600f80546112e7926001600160a01b0316916112d491606491610fc9916000198101908110610fad57fe5b6003546001600160a01b03169190611e4b565b600f80546000919060011981019081106112fd57fe5b9060005260206000200154111561133c57600254600f805461133c926001600160a01b0316916112d491606491610fc9916001198101908110610fad57fe5b60008060005b600b548110156113c157600060116000600d848154811061135f57fe5b600091825260208083209091015483528201929092526040019020546001600160a01b03169050806113b1576113aa6113a36064610fc9600f8681548110610fad57fe5b8490611d29565b92506113b8565b6001840193505b50600101611342565b506001546003546113df916001600160a01b03918216911683611e4b565b60606113e9610c47565b90507fddd9e4d5b17a0d1fb23297b81c329ba2f6162289d40aaf96cc47ad260230259b60065484836040518084815260200183815260200180602001828103825283818151815260200191508051906020019060200280838360005b8381101561145d578181015183820152602001611445565b5050505090500194505050505060405180910390a1505050565b6003546040805163313ce56760e01b815290516000926001600160a01b03169163313ce567916004808301926020929190829003018186803b1580156114bc57600080fd5b505afa1580156114d0573d6000803e3d6000fd5b505050506040513d60208110156114e657600080fd5b5051905090565b60006008546114fa611d8e565b10158015611510575060095461150e611d8e565b105b905090565b60105490565b611523611d8a565b6001600160a01b031661153461181a565b6001600160a01b03161461157d576040805162461bcd60e51b8152602060048201819052602482015260008051602061249f833981519152604482015290519081900360640190fd5b600080546040516001600160a01b03909116907f8be0079c531659141344cd1fd0a4f28419497f9722a3daafe3b4186f6b6457e0908390a3600080546001600160a01b0319169055565b60075490565b6060808267ffffffffffffffff811180156115e757600080fd5b50604051908082528060200260200182016040528015611611578160200160208202803683370190505b50905060005b8381101561168757600060118187878581811061163057fe5b90506020020135815260200190815260200160002060009054906101000a90046001600160a01b03166001600160a01b03161482828151811061166f57fe5b91151560209283029190910190910152600101611617565b5090505b92915050565b6005546060906001600160a01b03166116c357506040805180820190915260028152617b7d60f01b6020820152610afa565b600560009054906101000a90046001600160a01b03166001600160a01b0316637284e4166040518163ffffffff1660e01b815260040160006040518083038186803b158015610d9957600080fd5b600b54600d54606091146117565760405162461bcd60e51b81526004018080602001828103825260278152602001806124576027913960400191505060405180910390fd5b600d80548060200260200160405190810160405280929190818152602001828054801561103e576020028201919060005260206000209081548152602001906001019080831161102a575050505050905090565b6117b2611d8a565b6001600160a01b03166117c361181a565b6001600160a01b03161461180c576040805162461bcd60e51b8152602060048201819052602482015260008051602061249f833981519152604482015290519081900360640190fd5b610efd611fac565b600e5490565b6000546001600160a01b031690565b6005546001600160a01b031690565b6005546001600160a01b0316151590565b60065490565b6005546060906001600160a01b031661188157506040805180820190915260028152617b7d60f01b6020820152610afa565b600560009054906101000a90046001600160a01b03166001600160a01b031663ab6167d36040518163ffffffff1660e01b815260040160006040518083038186803b158015610d9957600080fd5b6009546118da611d8e565b10156119175760405162461bcd60e51b815260040180806020018281038252602981526020018061242e6029913960400191505060405180910390fd5b600b54600d54146119595760405162461bcd60e51b81526004018080602001828103825260278152602001806124576027913960400191505060405180910390fd5b336000908152601360205260408120548190819060ff16156119c2576040805162461bcd60e51b815260206004820152601860248201527f4c6f74746572793a20416c726561647920436c61696d65640000000000000000604482015290519081900360640190fd5b336001600160a01b031660116000600d6000815481106119de57fe5b600091825260208083209091015483528201929092526040019020546001600160a01b03161415611aa4576005546001600160a01b031615611aa45760055460075460408051632142170760e11b81523060048201523360248201526044810192909252516001600160a01b03909216916342842e0e9160648082019260009290919082900301818387803b158015611a7657600080fd5b505af1158015611a8a573d6000803e3d6000fd5b50506005546007546001600160a01b039091169450925050505b60005b600b54811015611b1c576000600d8281548110611ac057fe5b600091825260208083209091015480835260119091526040909120549091506001600160a01b031633811415611b1257611b0f611b086064610fc9600f8781548110610fad57fe5b8790611d29565b95505b5050600101611aa7565b50600354611b34906001600160a01b03163385611e4b565b33600081815260136020908152604091829020805460ff1916600117905560035482519384529083018690526001600160a01b03908116838301528416606083015260808201839052517f621526067d1dbada68615eb62a8f41998d4c2b8bbc3d25c87efe8e3afa121add9181900360a00190a1505050565b6000600954611bba611d8e565b1015905090565b600e5460009061168b9083611d92565b6000611510601054600a54600a0a61203590919063ffffffff16565b6000908152601160205260409020546001600160a01b03161590565b6001600160a01b031660009081526013602052604090205460ff1690565b611c2f611d8a565b6001600160a01b0316611c4061181a565b6001600160a01b031614611c89576040805162461bcd60e51b8152602060048201819052602482015260008051602061249f833981519152604482015290519081900360640190fd5b6001600160a01b038116611cce5760405162461bcd60e51b81526004018080602001828103825260268152602001806123e26026913960400191505060405180910390fd5b600080546040516001600160a01b03808516939216917f8be0079c531659141344cd1fd0a4f28419497f9722a3daafe3b4186f6b6457e091a3600080546001600160a01b0319166001600160a01b0392909216919091179055565b600082820183811015611d83576040805162461bcd60e51b815260206004820152601b60248201527f536166654d6174683a206164646974696f6e206f766572666c6f770000000000604482015290519081900360640190fd5b9392505050565b3390565b4290565b600082611da15750600061168b565b82820282848281611dae57fe5b0414611d835760405162461bcd60e51b815260040180806020018281038252602181526020018061247e6021913960400191505060405180910390fd5b604080516001600160a01b0380861660248301528416604482015260648082018490528251808303909101815260849091019091526020810180516001600160e01b03166323b872dd60e01b179052611e45908590612092565b50505050565b604080516001600160a01b038416602482015260448082018490528251808303909101815260649091019091526020810180516001600160e01b031663a9059cbb60e01b179052611e9d908490612092565b505050565b611eaa611048565b611ef2576040805162461bcd60e51b815260206004820152601460248201527314185d5cd8589b194e881b9bdd081c185d5cd95960621b604482015290519081900360640190fd5b6000805460ff60a01b191690557f5db9ee0a495bf2e6ff9c91a7834c1ba4fdd244a5e8aa4e537bd38aeae4b073aa611f28611d8a565b604080516001600160a01b039092168252519081900360200190a1565b6000808211611f9b576040805162461bcd60e51b815260206004820152601a60248201527f536166654d6174683a206469766973696f6e206279207a65726f000000000000604482015290519081900360640190fd5b818381611fa457fe5b049392505050565b611fb4611048565b15611ff9576040805162461bcd60e51b815260206004820152601060248201526f14185d5cd8589b194e881c185d5cd95960821b604482015290519081900360640190fd5b6000805460ff60a01b1916600160a01b1790557f62e78cea01bee320cd4e420270b5ea74000d11b0c9f74754ebdbfc544b05a258611f28611d8a565b60008282111561208c576040805162461bcd60e51b815260206004820152601e60248201527f536166654d6174683a207375627472616374696f6e206f766572666c6f770000604482015290519081900360640190fd5b50900390565b60606120e7826040518060400160405280602081526020017f5361666545524332303a206c6f772d6c6576656c2063616c6c206661696c6564815250856001600160a01b03166121439092919063ffffffff16565b805190915015611e9d5780806020019051602081101561210657600080fd5b5051611e9d5760405162461bcd60e51b815260040180806020018281038252602a8152602001806124ed602a913960400191505060405180910390fd5b6060612152848460008561215a565b949350505050565b60608247101561219b5760405162461bcd60e51b81526004018080602001828103825260268152602001806124086026913960400191505060405180910390fd5b6121a4856122b6565b6121f5576040805162461bcd60e51b815260206004820152601d60248201527f416464726573733a2063616c6c20746f206e6f6e2d636f6e7472616374000000604482015290519081900360640190fd5b60006060866001600160a01b031685876040518082805190602001908083835b602083106122345780518252601f199092019160209182019101612215565b6001836020036101000a03801982511681845116808217855250505050505090500191505060006040518083038185875af1925050503d8060008114612296576040519150601f19603f3d011682016040523d82523d6000602084013e61229b565b606091505b50915091506122ab8282866122bc565b979650505050505050565b3b151590565b606083156122cb575081611d83565b8251156122db5782518084602001fd5b8160405162461bcd60e51b81526004018080602001828103825283818151815260200191508051906020019080838360005b8381101561232557818101518382015260200161230d565b50505050905090810190601f1680156123525780820380516001836020036101000a031916815260200191505b509250505060405180910390fd5b82805482825590600052602060002090810192821561239b579160200282015b8281111561239b578251825591602001919060010190612380565b506123a79291506123ab565b5090565b5b808211156123a757600081556001016123ac56fe4c6f74746572793a205469636b65742073656c6c696e6720697320636c6f7365644f776e61626c653a206e6577206f776e657220697320746865207a65726f2061646472657373416464726573733a20696e73756666696369656e742062616c616e636520666f722063616c6c4c6f74746572793a205469636b65742073656c6c696e67206973206e6f742079657420636c6f7365644c6f74746572793a2057696e6e696e67204e756d62657273206e6f742063686f73656e20796574536166654d6174683a206d756c7469706c69636174696f6e206f766572666c6f774f776e61626c653a2063616c6c6572206973206e6f7420746865206f776e65724c6f74746572793a204861766520616c726561647920647261776e207468652077696e6e696e67206e756d6265725361666545524332303a204552433230206f7065726174696f6e20646964206e6f7420737563636565644c6f74746572793a205469636b65742073656c6c696e67206973206e6f742079657420737461727465644c6f74746572793a205469636b6574204e756d626572206973206f7574206f662072616e6765a26469706673582212208ad0fb90cb0701d47c1505b4d08726a5b6a933de90ac01aca3654f96c43bdd6664736f6c634300060c00334c6f74746572793a2052616e646f6d204e756d6265722047656e657261746f722063616e6e6f74206265203020616464726573734c6f74746572793a204275726e2063616e6e6f74206265203020616464726573734c6f74746572793a2054726561737572792063616e6e6f74206265203020616464726573734c6f74746572793a205072697a6520646973747269627574696f6e206973206e6f7420313030254c6f74746572793a20527562792063616e6e6f74206265203020616464726573734f776e61626c653a206e6577206f776e657220697320746865207a65726f20616464726573734c6f7474657279466163746f72793a204275726e2063616e6e6f74206265203020616464726573734c6f7474657279466163746f72793a20436f6c6c61746572616c2063616e6e6f74206265203020616464726573734c6f7474657279466163746f72793a2054726561737572792063616e6e6f7420626520302061646472657373496e697469616c697a61626c653a20636f6e747261637420697320616c726561647920696e697469616c697a65644c6f7474657279466163746f72793a20496e76616c696420646973747269627574696f6e4f776e61626c653a2063616c6c6572206973206e6f7420746865206f776e65724c6f7474657279466163746f72793a204f776e6572206f66204e465420697320696e76616c69644c6f7474657279466163746f72793a20524e472063616e6e6f74206265203020616464726573734c6f7474657279466163746f72793a2072616e646f6d4e756d62657247656e657261746f722063616e6e6f7420626520302061646472657373a2646970667358221220c0404ebbef591a4d5e911e5f43b6f6c2ea8676f0d14dd5989e6fe5d1757799f664736f6c634300060c0033",
  "devdoc": {
    "kind": "dev",
    "methods": {
      "createNewLotto(address,address,uint256,uint256,uint256,uint256[],uint256)": {
        "params": {
          "_collateral": "The ERC20 address for token to buy tickets",
          "_distribution": "An array defining the distribution of the prize pool.",
          "_duration": "The duration until no more tickets will be sold for the lottery from now.",
          "_lotterySize": "Digit count of ticket (e.g. 4 = 10^4 = 10000 tickets)",
          "_nft": "The NFT address for bonus (can be zero for no nft prize)",
          "_ticketPrice": "Cost per ticket in collateral tokens",
          "_tokenId": "The Bonus NFT ID"
        }
      },
      "owner()": {
        "details": "Returns the address of the current owner."
      },
      "renounceOwnership()": {
        "details": "Leaves the contract without owner. It will not be possible to call `onlyOwner` functions anymore. Can only be called by the current owner. NOTE: Renouncing ownership will leave the contract without an owner, thereby removing any functionality that is only available to the owner."
      },
      "transferOwnership(address)": {
        "details": "Transfers ownership of the contract to a new account (`newOwner`). Can only be called by the current owner."
      }
    },
    "version": 1
  },
  "userdoc": {
    "kind": "user",
    "methods": {
      "createNewLotto(address,address,uint256,uint256,uint256,uint256[],uint256)": {
        "notice": "Create a new Lottery instance."
      }
    },
    "version": 1
  },
  "storageLayout": {
    "storage": [
      {
        "astId": 705,
        "contract": "contracts/lottery/LotteryFactory.sol:LotteryFactory",
        "label": "_initialized",
        "offset": 0,
        "slot": "0",
        "type": "t_bool"
      },
      {
        "astId": 708,
        "contract": "contracts/lottery/LotteryFactory.sol:LotteryFactory",
        "label": "_initializing",
        "offset": 1,
        "slot": "0",
        "type": "t_bool"
      },
      {
        "astId": 2910,
        "contract": "contracts/lottery/LotteryFactory.sol:LotteryFactory",
        "label": "__gap",
        "offset": 0,
        "slot": "1",
        "type": "t_array(t_uint256)50_storage"
      },
      {
        "astId": 136,
        "contract": "contracts/lottery/LotteryFactory.sol:LotteryFactory",
        "label": "_owner",
        "offset": 0,
        "slot": "51",
        "type": "t_address"
      },
      {
        "astId": 255,
        "contract": "contracts/lottery/LotteryFactory.sol:LotteryFactory",
        "label": "__gap",
        "offset": 0,
        "slot": "52",
        "type": "t_array(t_uint256)49_storage"
      },
      {
        "astId": 22027,
        "contract": "contracts/lottery/LotteryFactory.sol:LotteryFactory",
        "label": "RNG",
        "offset": 0,
        "slot": "101",
        "type": "t_address"
      },
      {
        "astId": 22029,
        "contract": "contracts/lottery/LotteryFactory.sol:LotteryFactory",
        "label": "treasury",
        "offset": 0,
        "slot": "102",
        "type": "t_address"
      },
      {
        "astId": 22031,
        "contract": "contracts/lottery/LotteryFactory.sol:LotteryFactory",
        "label": "burn",
        "offset": 0,
        "slot": "103",
        "type": "t_address"
      },
      {
        "astId": 22038,
        "contract": "contracts/lottery/LotteryFactory.sol:LotteryFactory",
        "label": "allLotteries",
        "offset": 0,
        "slot": "104",
        "type": "t_mapping(t_uint256,t_contract(Lottery)21918)"
      },
      {
        "astId": 22040,
        "contract": "contracts/lottery/LotteryFactory.sol:LotteryFactory",
        "label": "lotteryId",
        "offset": 0,
        "slot": "105",
        "type": "t_uint256"
      }
    ],
    "types": {
      "t_address": {
        "encoding": "inplace",
        "label": "address",
        "numberOfBytes": "20"
      },
      "t_array(t_uint256)49_storage": {
        "base": "t_uint256",
        "encoding": "inplace",
        "label": "uint256[49]",
        "numberOfBytes": "1568"
      },
      "t_array(t_uint256)50_storage": {
        "base": "t_uint256",
        "encoding": "inplace",
        "label": "uint256[50]",
        "numberOfBytes": "1600"
      },
      "t_bool": {
        "encoding": "inplace",
        "label": "bool",
        "numberOfBytes": "1"
      },
      "t_contract(Lottery)21918": {
        "encoding": "inplace",
        "label": "contract Lottery",
        "numberOfBytes": "20"
      },
      "t_mapping(t_uint256,t_contract(Lottery)21918)": {
        "encoding": "mapping",
        "key": "t_uint256",
        "label": "mapping(uint256 => contract Lottery)",
        "numberOfBytes": "32",
        "value": "t_contract(Lottery)21918"
      },
      "t_uint256": {
        "encoding": "inplace",
        "label": "uint256",
        "numberOfBytes": "32"
      }
    }
  }
}