{
  "address": "0x5B108c8C75ae266F1A66A653f14291d2C80AcCa9",
  "abi": [
    {
      "inputs": [
        {
          "internalType": "contract IERC20",
          "name": "_rewardToken",
          "type": "address"
        },
        {
          "internalType": "contract IERC20",
          "name": "_lpToken",
          "type": "address"
        },
        {
          "internalType": "uint256",
          "name": "_tokenPerSec",
          "type": "uint256"
        },
        {
          "internalType": "contract IRubyMasterChef",
          "name": "_rubyMasterChef",
          "type": "address"
        }
      ],
      "stateMutability": "nonpayable",
      "type": "constructor"
    },
    {
      "anonymous": false,
      "inputs": [
        {
          "indexed": true,
          "internalType": "address",
          "name": "user",
          "type": "address"
        },
        {
          "indexed": false,
          "internalType": "uint256",
          "name": "amount",
          "type": "uint256"
        }
      ],
      "name": "OnReward",
      "type": "event"
    },
    {
      "anonymous": false,
      "inputs": [
        {
          "indexed": true,
          "internalType": "address",
          "name": "previousOwner",
          "type": "address"
        },
        {
          "indexed": true,
          "internalType": "address",
          "name": "newOwner",
          "type": "address"
        }
      ],
      "name": "OwnershipTransferred",
      "type": "event"
    },
    {
      "anonymous": false,
      "inputs": [
        {
          "indexed": false,
          "internalType": "uint256",
          "name": "oldRate",
          "type": "uint256"
        },
        {
          "indexed": false,
          "internalType": "uint256",
          "name": "newRate",
          "type": "uint256"
        }
      ],
      "name": "RewardRateUpdated",
      "type": "event"
    },
    {
      "inputs": [],
      "name": "claimOwnership",
      "outputs": [],
      "stateMutability": "nonpayable",
      "type": "function"
    },
    {
      "inputs": [],
      "name": "emergencyWithdraw",
      "outputs": [],
      "stateMutability": "nonpayable",
      "type": "function"
    },
    {
      "inputs": [],
      "name": "lpToken",
      "outputs": [
        {
          "internalType": "contract IERC20",
          "name": "",
          "type": "address"
        }
      ],
      "stateMutability": "view",
      "type": "function"
    },
    {
      "inputs": [
        {
          "internalType": "address",
          "name": "_user",
          "type": "address"
        },
        {
          "internalType": "uint256",
          "name": "_lpAmount",
          "type": "uint256"
        }
      ],
      "name": "onRubyReward",
      "outputs": [],
      "stateMutability": "nonpayable",
      "type": "function"
    },
    {
      "inputs": [],
      "name": "owner",
      "outputs": [
        {
          "internalType": "address",
          "name": "",
          "type": "address"
        }
      ],
      "stateMutability": "view",
      "type": "function"
    },
    {
      "inputs": [],
      "name": "pendingOwner",
      "outputs": [
        {
          "internalType": "address",
          "name": "",
          "type": "address"
        }
      ],
      "stateMutability": "view",
      "type": "function"
    },
    {
      "inputs": [
        {
          "internalType": "address",
          "name": "_user",
          "type": "address"
        }
      ],
      "name": "pendingTokens",
      "outputs": [
        {
          "internalType": "uint256",
          "name": "pending",
          "type": "uint256"
        }
      ],
      "stateMutability": "view",
      "type": "function"
    },
    {
      "inputs": [],
      "name": "poolInfo",
      "outputs": [
        {
          "internalType": "uint256",
          "name": "accTokenPerShare",
          "type": "uint256"
        },
        {
          "internalType": "uint256",
          "name": "lastRewardTimestamp",
          "type": "uint256"
        }
      ],
      "stateMutability": "view",
      "type": "function"
    },
    {
      "inputs": [],
      "name": "rewardToken",
      "outputs": [
        {
          "internalType": "contract IERC20",
          "name": "",
          "type": "address"
        }
      ],
      "stateMutability": "view",
      "type": "function"
    },
    {
      "inputs": [],
      "name": "rubyMasterChef",
      "outputs": [
        {
          "internalType": "contract IRubyMasterChef",
          "name": "",
          "type": "address"
        }
      ],
      "stateMutability": "view",
      "type": "function"
    },
    {
      "inputs": [
        {
          "internalType": "uint256",
          "name": "_tokenPerSec",
          "type": "uint256"
        }
      ],
      "name": "setRewardRate",
      "outputs": [],
      "stateMutability": "nonpayable",
      "type": "function"
    },
    {
      "inputs": [],
      "name": "tokenPerSec",
      "outputs": [
        {
          "internalType": "uint256",
          "name": "",
          "type": "uint256"
        }
      ],
      "stateMutability": "view",
      "type": "function"
    },
    {
      "inputs": [
        {
          "internalType": "address",
          "name": "newOwner",
          "type": "address"
        },
        {
          "internalType": "bool",
          "name": "direct",
          "type": "bool"
        },
        {
          "internalType": "bool",
          "name": "renounce",
          "type": "bool"
        }
      ],
      "name": "transferOwnership",
      "outputs": [],
      "stateMutability": "nonpayable",
      "type": "function"
    },
    {
      "inputs": [],
      "name": "updatePool",
      "outputs": [
        {
          "components": [
            {
              "internalType": "uint256",
              "name": "accTokenPerShare",
              "type": "uint256"
            },
            {
              "internalType": "uint256",
              "name": "lastRewardTimestamp",
              "type": "uint256"
            }
          ],
          "internalType": "struct SimpleRewarderPerSec.PoolInfo",
          "name": "pool",
          "type": "tuple"
        }
      ],
      "stateMutability": "nonpayable",
      "type": "function"
    },
    {
      "inputs": [
        {
          "internalType": "address",
          "name": "",
          "type": "address"
        }
      ],
      "name": "userInfo",
      "outputs": [
        {
          "internalType": "uint256",
          "name": "amount",
          "type": "uint256"
        },
        {
          "internalType": "uint256",
          "name": "rewardDebt",
          "type": "uint256"
        }
      ],
      "stateMutability": "view",
      "type": "function"
    }
  ],
  "transactionHash": "0x7d51857fa8167f247e9312d482c5483b2f58e133601fe385bbf60e8bc1bee735",
  "args": [
    "0xE0595a049d02b7674572b0d59cd4880Db60EDC50",
    "0xADDf444E06B76044EAE278Bc725e27e61c3A5E38",
    0,
    "0x2BB702e94e094b8Caf7b758960621AE2d296676D"
  ],
  "numDeployments": 1,
  "solcInputHash": "8ca980d51c658bcb6e0b1d5c9f9ee0b7",
  "bytecode": "0x60e06040523480156200001157600080fd5b50604051620013373803806200133783398101604081905262000034916200016d565b600080546001600160a01b0319163390811782556040519091907f8be0079c531659141344cd1fd0a4f28419497f9722a3daafe3b4186f6b6457e0908290a362000089846200016760201b62000aa41760201c565b620000b15760405162461bcd60e51b8152600401620000a890620001c8565b60405180910390fd5b620000c7836200016760201b62000aa41760201c565b620000e65760405162461bcd60e51b8152600401620000a89062000277565b620000fc816200016760201b62000aa41760201c565b6200011b5760405162461bcd60e51b8152600401620000a8906200021a565b6001600160601b0319606094851b811660805292841b831660a05260059190915590911b1660c052604080518082019091526000808252426020909201829052600255600355620002de565b3b151590565b6000806000806080858703121562000183578384fd5b84516200019081620002c5565b6020860151909450620001a381620002c5565b604086015160608701519194509250620001bd81620002c5565b939692955090935050565b60208082526032908201527f636f6e7374727563746f723a2072657761726420746f6b656e206d7573742062604082015271194818481d985b1a590818dbdb9d1c9858dd60721b606082015260800190565b60208082526034908201527f636f6e7374727563746f723a20527562794d617374657243686566206d75737460408201527f20626520612076616c696420636f6e7472616374000000000000000000000000606082015260800190565b6020808252602e908201527f636f6e7374727563746f723a204c5020746f6b656e206d75737420626520612060408201526d1d985b1a590818dbdb9d1c9858dd60921b606082015260800190565b6001600160a01b0381168114620002db57600080fd5b50565b60805160601c60a05160601c60c05160601c610ff162000346600039806102f35280610468528061070a528061098e5250806103b352806106db528061096152508061052552806105d6528061060f528061084252806108e65280610a825250610ff16000f3fe608060405234801561001057600080fd5b50600436106100f55760003560e01c80638da5cb5b11610097578063db2e21bc11610066578063db2e21bc146101bc578063e30c3978146101c4578063e3161ddd146101cc578063f7c618c1146101e1576100f5565b80638da5cb5b1461017b5780639e447fc614610183578063b8735ca314610196578063c031a66f146101a9576100f5565b80634e71e0c8116100d35780634e71e0c81461014e57806350fd1f3e146101565780635a2f3d091461016b5780635fcbd28514610173576100f5565b8063078dfbe7146100fa5780631959a0021461010f57806332503e4414610139575b600080fd5b61010d610108366004610c7b565b6101e9565b005b61012261011d366004610c59565b6102d8565b604051610130929190610f9c565b60405180910390f35b6101416102f1565b6040516101309190610d73565b61010d610315565b61015e6103a2565b6040516101309190610f93565b6101226103a8565b6101416103b1565b6101416103d5565b61010d610191366004610d0a565b6103e4565b61010d6101a4366004610cc4565b61045d565b61015e6101b7366004610c59565b6106a6565b61010d610812565b61014161090f565b6101d461091e565b6040516101309190610f7c565b610141610a80565b6000546001600160a01b0316331461021c5760405162461bcd60e51b815260040161021390610e7e565b60405180910390fd5b81156102b7576001600160a01b0383161515806102365750805b6102525760405162461bcd60e51b815260040161021390610dd7565b600080546040516001600160a01b03808716939216917f8be0079c531659141344cd1fd0a4f28419497f9722a3daafe3b4186f6b6457e091a3600080546001600160a01b0385166001600160a01b0319918216179091556001805490911690556102d3565b600180546001600160a01b0319166001600160a01b0385161790555b505050565b6004602052600090815260409020805460019091015482565b7f000000000000000000000000000000000000000000000000000000000000000081565b6001546001600160a01b03163381146103405760405162461bcd60e51b815260040161021390610eb3565b600080546040516001600160a01b03808516939216917f8be0079c531659141344cd1fd0a4f28419497f9722a3daafe3b4186f6b6457e091a3600080546001600160a01b039092166001600160a01b0319928316179055600180549091169055565b60055481565b60025460035482565b7f000000000000000000000000000000000000000000000000000000000000000081565b6000546001600160a01b031681565b6000546001600160a01b0316331461040e5760405162461bcd60e51b815260040161021390610e7e565b61041661091e565b5060058054908290556040517fc390a98ace15a7bb6bab611eedfdbb2685043b241a869420043cdfb23ccfee50906104519083908590610f9c565b60405180910390a15050565b336001600160a01b037f000000000000000000000000000000000000000000000000000000000000000016146104a55760405162461bcd60e51b815260040161021390610ee8565b6104ad61091e565b506104b6610c28565b5060408051808201825260025481526003546020808301919091526001600160a01b03851660009081526004909152918220805491929091156106385760018201548351835461051f929164e8d4a510009161051191610aaa565b8161051857fe5b0490610aed565b905060007f00000000000000000000000000000000000000000000000000000000000000006001600160a01b03166370a08231306040518263ffffffff1660e01b815260040161056f9190610d73565b60206040518083038186803b15801561058757600080fd5b505afa15801561059b573d6000803e3d6000fd5b505050506040513d601f19601f820116820180604052508101906105bf9190610d22565b905080821115610602576105fd6001600160a01b037f0000000000000000000000000000000000000000000000000000000000000000168783610b15565b610636565b6106366001600160a01b037f0000000000000000000000000000000000000000000000000000000000000000168784610b15565b505b838255825164e8d4a510009061064f908690610aaa565b8161065657fe5b0460018301556040516001600160a01b038616907fd1072bb52c3131d0c96197b73fb8a45637e30f8b6664fc142310cc9b242859b490610697908490610f93565b60405180910390a25050505050565b6001600160a01b03808216600090815260046020819052604080832060025491516370a0823160e01b815293949093919285927f0000000000000000000000000000000000000000000000000000000000000000909216916370a0823191610730917f00000000000000000000000000000000000000000000000000000000000000009101610d73565b60206040518083038186803b15801561074857600080fd5b505afa15801561075c573d6000803e3d6000fd5b505050506040513d601f19601f820116820180604052508101906107809190610d22565b6003549091504211801561079357508015155b156107ec576003546000906107a9904290610aed565b905060006107c260055483610aaa90919063ffffffff16565b90506107e7836107d78364e8d4a51000610aaa565b816107de57fe5b86919004610c03565b935050505b60018301548354610809919064e8d4a51000906105119086610aaa565b95945050505050565b6000546001600160a01b0316331461083c5760405162461bcd60e51b815260040161021390610e7e565b61090d337f00000000000000000000000000000000000000000000000000000000000000006001600160a01b03166370a08231306040518263ffffffff1660e01b815260040161088c9190610d73565b60206040518083038186803b1580156108a457600080fd5b505afa1580156108b8573d6000803e3d6000fd5b505050506040513d601f19601f820116820180604052508101906108dc9190610d22565b6001600160a01b037f0000000000000000000000000000000000000000000000000000000000000000169190610b15565b565b6001546001600160a01b031681565b610926610c28565b5060408051808201909152600254815260035460208201819052421115610a7d576040516370a0823160e01b81526000906001600160a01b037f000000000000000000000000000000000000000000000000000000000000000016906370a08231906109b6907f000000000000000000000000000000000000000000000000000000000000000090600401610d73565b60206040518083038186803b1580156109ce57600080fd5b505afa1580156109e2573d6000803e3d6000fd5b505050506040513d601f19601f82011682018060405250810190610a069190610d22565b90508015610a6b576000610a27836020015142610aed90919063ffffffff16565b90506000610a4060055483610aaa90919063ffffffff16565b9050610a6683610a558364e8d4a51000610aaa565b81610a5c57fe5b8651919004610c03565b845250505b50426020820181905281516002556003555b90565b7f000000000000000000000000000000000000000000000000000000000000000081565b3b151590565b600082610ab957506000610ae7565b82820282848281610ac657fe5b0414610ae45760405162461bcd60e51b815260040161021390610e3d565b90505b92915050565b600082821115610b0f5760405162461bcd60e51b815260040161021390610e06565b50900390565b60006060846001600160a01b031663a9059cbb8585604051602401610b3b929190610d87565b6040516020818303038152906040529060e01b6020820180516001600160e01b038381831617835250505050604051610b749190610d3a565b6000604051808303816000865af19150503d8060008114610bb1576040519150601f19603f3d011682016040523d82523d6000602084013e610bb6565b606091505b5091509150818015610be0575080511580610be0575080806020019051810190610be09190610cee565b610bfc5760405162461bcd60e51b815260040161021390610f45565b5050505050565b600082820183811015610ae45760405162461bcd60e51b815260040161021390610da0565b604051806040016040528060008152602001600081525090565b80356001600160a01b0381168114610ae757600080fd5b600060208284031215610c6a578081fd5b610c748383610c42565b9392505050565b600080600060608486031215610c8f578182fd5b610c998585610c42565b92506020840135610ca981610faa565b91506040840135610cb981610faa565b809150509250925092565b60008060408385031215610cd6578182fd5b610ce08484610c42565b946020939093013593505050565b600060208284031215610cff578081fd5b8151610ae481610faa565b600060208284031215610d1b578081fd5b5035919050565b600060208284031215610d33578081fd5b5051919050565b60008251815b81811015610d5a5760208186018101518583015201610d40565b81811115610d685782828501525b509190910192915050565b6001600160a01b0391909116815260200190565b6001600160a01b03929092168252602082015260400190565b6020808252601b908201527f536166654d6174683a206164646974696f6e206f766572666c6f770000000000604082015260600190565b6020808252601590820152744f776e61626c653a207a65726f206164647265737360581b604082015260600190565b6020808252601e908201527f536166654d6174683a207375627472616374696f6e206f766572666c6f770000604082015260600190565b60208082526021908201527f536166654d6174683a206d756c7469706c69636174696f6e206f766572666c6f6040820152607760f81b606082015260800190565b6020808252818101527f4f776e61626c653a2063616c6c6572206973206e6f7420746865206f776e6572604082015260600190565b6020808252818101527f4f776e61626c653a2063616c6c657220213d2070656e64696e67206f776e6572604082015260600190565b6020808252603e908201527f6f6e6c79527562794d6173746572436865663a206f6e6c7920527562794d617360408201527f746572436865662063616e2063616c6c20746869732066756e6374696f6e0000606082015260800190565b6020808252601a908201527f5361666545524332303a205472616e73666572206661696c6564000000000000604082015260600190565b815181526020918201519181019190915260400190565b90815260200190565b918252602082015260400190565b8015158114610fb857600080fd5b5056fea264697066735822122040b73edc18dce645a6625ac0238f676e84796562458f09d273c0909e2e66dc5864736f6c634300060c0033",
  "devdoc": {
    "kind": "dev",
    "methods": {
      "onRubyReward(address,uint256)": {
        "params": {
          "_lpAmount": "Number of LP tokens the user has",
          "_user": "Address of user"
        }
      },
      "pendingTokens(address)": {
        "params": {
          "_user": "Address of user."
        },
        "returns": {
          "pending": "reward for a given user."
        }
      },
      "setRewardRate(uint256)": {
        "params": {
          "_tokenPerSec": "The number of tokens to distribute per second"
        }
      },
      "updatePool()": {
        "returns": {
          "pool": "Returns the pool that was updated."
        }
      }
    },
    "version": 1
  },
  "userdoc": {
    "kind": "user",
    "methods": {
      "emergencyWithdraw()": {
        "notice": "In case rewarder is stopped before emissions finished, this function allows withdrawal of remaining tokens."
      },
      "onRubyReward(address,uint256)": {
        "notice": "Function called by RubyMasterChef whenever staker claims Ruby harvest.  Allows staker to also receive a 2nd reward token."
      },
      "pendingTokens(address)": {
        "notice": "View function to see pending tokens"
      },
      "poolInfo()": {
        "notice": "Info of the poolInfo."
      },
      "setRewardRate(uint256)": {
        "notice": "Sets the distribution reward rate. This will also update the poolInfo."
      },
      "updatePool()": {
        "notice": "Update reward variables of the given poolInfo."
      },
      "userInfo(address)": {
        "notice": "Info of each user that stakes LP tokens."
      }
    },
    "notice": "This is a sample contract to be used in the RubyMasterChef contract for partners to reward stakers with their native token alongside RUBY. It assumes no minting rights, so requires a set amount of YOUR_TOKEN to be transferred to this contract prior. E.g. say you've allocated 100,000 XYZ to the RUBY-XYZ farm over 30 days. Then you would need to transfer 100,000 XYZ and set the rewards accordingly so it's fully distributed after 30 days.",
    "version": 1
  },
  "storageLayout": {
    "storage": [
      {
        "astId": 3,
        "contract": "contracts/rewarders/SimpleRewarderPerSec.sol:SimpleRewarderPerSec",
        "label": "owner",
        "offset": 0,
        "slot": "0",
        "type": "t_address"
      },
      {
        "astId": 5,
        "contract": "contracts/rewarders/SimpleRewarderPerSec.sol:SimpleRewarderPerSec",
        "label": "pendingOwner",
        "offset": 0,
        "slot": "1",
        "type": "t_address"
      },
      {
        "astId": 23914,
        "contract": "contracts/rewarders/SimpleRewarderPerSec.sol:SimpleRewarderPerSec",
        "label": "poolInfo",
        "offset": 0,
        "slot": "2",
        "type": "t_struct(PoolInfo)23911_storage"
      },
      {
        "astId": 23919,
        "contract": "contracts/rewarders/SimpleRewarderPerSec.sol:SimpleRewarderPerSec",
        "label": "userInfo",
        "offset": 0,
        "slot": "4",
        "type": "t_mapping(t_address,t_struct(UserInfo)23906_storage)"
      },
      {
        "astId": 23921,
        "contract": "contracts/rewarders/SimpleRewarderPerSec.sol:SimpleRewarderPerSec",
        "label": "tokenPerSec",
        "offset": 0,
        "slot": "5",
        "type": "t_uint256"
      }
    ],
    "types": {
      "t_address": {
        "encoding": "inplace",
        "label": "address",
        "numberOfBytes": "20"
      },
      "t_mapping(t_address,t_struct(UserInfo)23906_storage)": {
        "encoding": "mapping",
        "key": "t_address",
        "label": "mapping(address => struct SimpleRewarderPerSec.UserInfo)",
        "numberOfBytes": "32",
        "value": "t_struct(UserInfo)23906_storage"
      },
      "t_struct(PoolInfo)23911_storage": {
        "encoding": "inplace",
        "label": "struct SimpleRewarderPerSec.PoolInfo",
        "members": [
          {
            "astId": 23908,
            "contract": "contracts/rewarders/SimpleRewarderPerSec.sol:SimpleRewarderPerSec",
            "label": "accTokenPerShare",
            "offset": 0,
            "slot": "0",
            "type": "t_uint256"
          },
          {
            "astId": 23910,
            "contract": "contracts/rewarders/SimpleRewarderPerSec.sol:SimpleRewarderPerSec",
            "label": "lastRewardTimestamp",
            "offset": 0,
            "slot": "1",
            "type": "t_uint256"
          }
        ],
        "numberOfBytes": "64"
      },
      "t_struct(UserInfo)23906_storage": {
        "encoding": "inplace",
        "label": "struct SimpleRewarderPerSec.UserInfo",
        "members": [
          {
            "astId": 23903,
            "contract": "contracts/rewarders/SimpleRewarderPerSec.sol:SimpleRewarderPerSec",
            "label": "amount",
            "offset": 0,
            "slot": "0",
            "type": "t_uint256"
          },
          {
            "astId": 23905,
            "contract": "contracts/rewarders/SimpleRewarderPerSec.sol:SimpleRewarderPerSec",
            "label": "rewardDebt",
            "offset": 0,
            "slot": "1",
            "type": "t_uint256"
          }
        ],
        "numberOfBytes": "64"
      },
      "t_uint256": {
        "encoding": "inplace",
        "label": "uint256",
        "numberOfBytes": "32"
      }
    }
  }
}