{
  "address": "0x7777De3672eD0A3d87422426d92eC97b958BFa2c",
  "abi": [
    {
      "anonymous": false,
      "inputs": [
        {
          "indexed": true,
          "internalType": "uint256",
          "name": "pid",
          "type": "uint256"
        },
        {
          "indexed": false,
          "internalType": "uint256",
          "name": "allocPoint",
          "type": "uint256"
        },
        {
          "indexed": true,
          "internalType": "contract IERC20",
          "name": "lpToken",
          "type": "address"
        },
        {
          "indexed": true,
          "internalType": "contract IRubyMasterChefRewarder",
          "name": "rewarder",
          "type": "address"
        }
      ],
      "name": "AddPool",
      "type": "event"
    },
    {
      "anonymous": false,
      "inputs": [
        {
          "indexed": true,
          "internalType": "address",
          "name": "user",
          "type": "address"
        },
        {
          "indexed": true,
          "internalType": "uint256",
          "name": "pid",
          "type": "uint256"
        },
        {
          "indexed": false,
          "internalType": "uint256",
          "name": "amount",
          "type": "uint256"
        }
      ],
      "name": "Deposit",
      "type": "event"
    },
    {
      "anonymous": false,
      "inputs": [
        {
          "indexed": true,
          "internalType": "address",
          "name": "user",
          "type": "address"
        },
        {
          "indexed": true,
          "internalType": "uint256",
          "name": "pid",
          "type": "uint256"
        },
        {
          "indexed": false,
          "internalType": "uint256",
          "name": "amount",
          "type": "uint256"
        }
      ],
      "name": "EmergencyWithdraw",
      "type": "event"
    },
    {
      "anonymous": false,
      "inputs": [
        {
          "indexed": true,
          "internalType": "address",
          "name": "user",
          "type": "address"
        },
        {
          "indexed": true,
          "internalType": "uint256",
          "name": "pid",
          "type": "uint256"
        },
        {
          "indexed": false,
          "internalType": "uint256",
          "name": "amount",
          "type": "uint256"
        }
      ],
      "name": "Harvest",
      "type": "event"
    },
    {
      "anonymous": false,
      "inputs": [
        {
          "indexed": true,
          "internalType": "address",
          "name": "user",
          "type": "address"
        },
        {
          "indexed": false,
          "internalType": "uint256",
          "name": "amount",
          "type": "uint256"
        }
      ],
      "name": "MultiHarvest",
      "type": "event"
    },
    {
      "anonymous": false,
      "inputs": [
        {
          "indexed": true,
          "internalType": "address",
          "name": "previousOwner",
          "type": "address"
        },
        {
          "indexed": true,
          "internalType": "address",
          "name": "newOwner",
          "type": "address"
        }
      ],
      "name": "OwnershipTransferred",
      "type": "event"
    },
    {
      "anonymous": false,
      "inputs": [
        {
          "indexed": true,
          "internalType": "address",
          "name": "to",
          "type": "address"
        },
        {
          "indexed": false,
          "internalType": "uint256",
          "name": "amount",
          "type": "uint256"
        }
      ],
      "name": "RubyTokenEmergencyWithdrawal",
      "type": "event"
    },
    {
      "anonymous": false,
      "inputs": [
        {
          "indexed": true,
          "internalType": "uint256",
          "name": "pid",
          "type": "uint256"
        },
        {
          "indexed": false,
          "internalType": "uint256",
          "name": "allocPoint",
          "type": "uint256"
        },
        {
          "indexed": true,
          "internalType": "contract IRubyMasterChefRewarder",
          "name": "rewarder",
          "type": "address"
        },
        {
          "indexed": false,
          "internalType": "bool",
          "name": "overwrite",
          "type": "bool"
        }
      ],
      "name": "SetPool",
      "type": "event"
    },
    {
      "anonymous": false,
      "inputs": [
        {
          "indexed": true,
          "internalType": "address",
          "name": "newRubyStaker",
          "type": "address"
        }
      ],
      "name": "SetRubyStaker",
      "type": "event"
    },
    {
      "anonymous": false,
      "inputs": [
        {
          "indexed": true,
          "internalType": "address",
          "name": "oldAddress",
          "type": "address"
        },
        {
          "indexed": true,
          "internalType": "address",
          "name": "newAddress",
          "type": "address"
        }
      ],
      "name": "SetTreasuryAddress",
      "type": "event"
    },
    {
      "anonymous": false,
      "inputs": [
        {
          "indexed": false,
          "internalType": "uint256",
          "name": "newPercent",
          "type": "uint256"
        }
      ],
      "name": "SetTreasuryPercent",
      "type": "event"
    },
    {
      "anonymous": false,
      "inputs": [
        {
          "indexed": true,
          "internalType": "address",
          "name": "user",
          "type": "address"
        },
        {
          "indexed": false,
          "internalType": "uint256",
          "name": "_rubyPerSec",
          "type": "uint256"
        }
      ],
      "name": "UpdateEmissionRate",
      "type": "event"
    },
    {
      "anonymous": false,
      "inputs": [
        {
          "indexed": true,
          "internalType": "uint256",
          "name": "pid",
          "type": "uint256"
        },
        {
          "indexed": false,
          "internalType": "uint256",
          "name": "lastRewardTimestamp",
          "type": "uint256"
        },
        {
          "indexed": false,
          "internalType": "uint256",
          "name": "lpSupply",
          "type": "uint256"
        },
        {
          "indexed": false,
          "internalType": "uint256",
          "name": "accRubyPerShare",
          "type": "uint256"
        }
      ],
      "name": "UpdatePool",
      "type": "event"
    },
    {
      "anonymous": false,
      "inputs": [
        {
          "indexed": true,
          "internalType": "address",
          "name": "user",
          "type": "address"
        },
        {
          "indexed": true,
          "internalType": "uint256",
          "name": "pid",
          "type": "uint256"
        },
        {
          "indexed": false,
          "internalType": "uint256",
          "name": "amount",
          "type": "uint256"
        }
      ],
      "name": "Withdraw",
      "type": "event"
    },
    {
      "inputs": [],
      "name": "RUBY",
      "outputs": [
        {
          "internalType": "contract IERC20",
          "name": "",
          "type": "address"
        }
      ],
      "stateMutability": "view",
      "type": "function"
    },
    {
      "inputs": [
        {
          "internalType": "uint256",
          "name": "_allocPoint",
          "type": "uint256"
        },
        {
          "internalType": "contract IERC20",
          "name": "_lpToken",
          "type": "address"
        },
        {
          "internalType": "contract IRubyMasterChefRewarder",
          "name": "_rewarder",
          "type": "address"
        }
      ],
      "name": "add",
      "outputs": [],
      "stateMutability": "nonpayable",
      "type": "function"
    },
    {
      "inputs": [
        {
          "internalType": "uint256[]",
          "name": "_pids",
          "type": "uint256[]"
        }
      ],
      "name": "claim",
      "outputs": [],
      "stateMutability": "nonpayable",
      "type": "function"
    },
    {
      "inputs": [
        {
          "internalType": "uint256",
          "name": "_pid",
          "type": "uint256"
        },
        {
          "internalType": "uint256",
          "name": "_amount",
          "type": "uint256"
        }
      ],
      "name": "deposit",
      "outputs": [],
      "stateMutability": "nonpayable",
      "type": "function"
    },
    {
      "inputs": [
        {
          "internalType": "uint256",
          "name": "_pid",
          "type": "uint256"
        }
      ],
      "name": "emergencyWithdraw",
      "outputs": [],
      "stateMutability": "nonpayable",
      "type": "function"
    },
    {
      "inputs": [
        {
          "internalType": "address",
          "name": "_receiver",
          "type": "address"
        },
        {
          "internalType": "uint256",
          "name": "_amount",
          "type": "uint256"
        }
      ],
      "name": "emergencyWithdrawRubyTokens",
      "outputs": [],
      "stateMutability": "nonpayable",
      "type": "function"
    },
    {
      "inputs": [
        {
          "internalType": "address",
          "name": "_owner",
          "type": "address"
        },
        {
          "internalType": "address",
          "name": "_ruby",
          "type": "address"
        },
        {
          "internalType": "address",
          "name": "_rubyStaker",
          "type": "address"
        },
        {
          "internalType": "address",
          "name": "_treasuryAddr",
          "type": "address"
        },
        {
          "internalType": "uint256",
          "name": "_rubyPerSec",
          "type": "uint256"
        },
        {
          "internalType": "uint256",
          "name": "_startTimestamp",
          "type": "uint256"
        },
        {
          "internalType": "uint256",
          "name": "_treasuryPercent",
          "type": "uint256"
        }
      ],
      "name": "initialize",
      "outputs": [],
      "stateMutability": "nonpayable",
      "type": "function"
    },
    {
      "inputs": [],
      "name": "massUpdatePools",
      "outputs": [],
      "stateMutability": "nonpayable",
      "type": "function"
    },
    {
      "inputs": [],
      "name": "owner",
      "outputs": [
        {
          "internalType": "address",
          "name": "",
          "type": "address"
        }
      ],
      "stateMutability": "view",
      "type": "function"
    },
    {
      "inputs": [
        {
          "internalType": "uint256",
          "name": "_pid",
          "type": "uint256"
        },
        {
          "internalType": "address",
          "name": "_user",
          "type": "address"
        }
      ],
      "name": "pendingTokens",
      "outputs": [
        {
          "internalType": "uint256",
          "name": "pendingRuby",
          "type": "uint256"
        },
        {
          "internalType": "address",
          "name": "bonusTokenAddress",
          "type": "address"
        },
        {
          "internalType": "string",
          "name": "bonusTokenSymbol",
          "type": "string"
        },
        {
          "internalType": "uint256",
          "name": "pendingBonusToken",
          "type": "uint256"
        }
      ],
      "stateMutability": "view",
      "type": "function"
    },
    {
      "inputs": [
        {
          "internalType": "uint256",
          "name": "",
          "type": "uint256"
        }
      ],
      "name": "poolInfo",
      "outputs": [
        {
          "internalType": "contract IERC20",
          "name": "lpToken",
          "type": "address"
        },
        {
          "internalType": "uint256",
          "name": "allocPoint",
          "type": "uint256"
        },
        {
          "internalType": "uint256",
          "name": "lastRewardTimestamp",
          "type": "uint256"
        },
        {
          "internalType": "uint256",
          "name": "accRubyPerShare",
          "type": "uint256"
        },
        {
          "internalType": "contract IRubyMasterChefRewarder",
          "name": "rewarder",
          "type": "address"
        }
      ],
      "stateMutability": "view",
      "type": "function"
    },
    {
      "inputs": [],
      "name": "poolLength",
      "outputs": [
        {
          "internalType": "uint256",
          "name": "",
          "type": "uint256"
        }
      ],
      "stateMutability": "view",
      "type": "function"
    },
    {
      "inputs": [],
      "name": "renounceOwnership",
      "outputs": [],
      "stateMutability": "nonpayable",
      "type": "function"
    },
    {
      "inputs": [
        {
          "internalType": "uint256",
          "name": "_pid",
          "type": "uint256"
        }
      ],
      "name": "rewarderBonusTokenInfo",
      "outputs": [
        {
          "internalType": "address",
          "name": "bonusTokenAddress",
          "type": "address"
        },
        {
          "internalType": "string",
          "name": "bonusTokenSymbol",
          "type": "string"
        }
      ],
      "stateMutability": "view",
      "type": "function"
    },
    {
      "inputs": [],
      "name": "rubyPerSec",
      "outputs": [
        {
          "internalType": "uint256",
          "name": "",
          "type": "uint256"
        }
      ],
      "stateMutability": "view",
      "type": "function"
    },
    {
      "inputs": [],
      "name": "rubyStaker",
      "outputs": [
        {
          "internalType": "contract IRubyStaker",
          "name": "",
          "type": "address"
        }
      ],
      "stateMutability": "view",
      "type": "function"
    },
    {
      "inputs": [
        {
          "internalType": "uint256",
          "name": "_pid",
          "type": "uint256"
        },
        {
          "internalType": "uint256",
          "name": "_allocPoint",
          "type": "uint256"
        },
        {
          "internalType": "contract IRubyMasterChefRewarder",
          "name": "_rewarder",
          "type": "address"
        },
        {
          "internalType": "bool",
          "name": "overwrite",
          "type": "bool"
        }
      ],
      "name": "set",
      "outputs": [],
      "stateMutability": "nonpayable",
      "type": "function"
    },
    {
      "inputs": [
        {
          "internalType": "address",
          "name": "_newRubyStaker",
          "type": "address"
        }
      ],
      "name": "setRubyStaker",
      "outputs": [],
      "stateMutability": "nonpayable",
      "type": "function"
    },
    {
      "inputs": [
        {
          "internalType": "address",
          "name": "_treasuryAddr",
          "type": "address"
        }
      ],
      "name": "setTreasuryAddr",
      "outputs": [],
      "stateMutability": "nonpayable",
      "type": "function"
    },
    {
      "inputs": [
        {
          "internalType": "uint256",
          "name": "_newTreasuryPercent",
          "type": "uint256"
        }
      ],
      "name": "setTreasuryPercent",
      "outputs": [],
      "stateMutability": "nonpayable",
      "type": "function"
    },
    {
      "inputs": [],
      "name": "startTimestamp",
      "outputs": [
        {
          "internalType": "uint256",
          "name": "",
          "type": "uint256"
        }
      ],
      "stateMutability": "view",
      "type": "function"
    },
    {
      "inputs": [],
      "name": "totalAllocPoint",
      "outputs": [
        {
          "internalType": "uint256",
          "name": "",
          "type": "uint256"
        }
      ],
      "stateMutability": "view",
      "type": "function"
    },
    {
      "inputs": [
        {
          "internalType": "address",
          "name": "newOwner",
          "type": "address"
        }
      ],
      "name": "transferOwnership",
      "outputs": [],
      "stateMutability": "nonpayable",
      "type": "function"
    },
    {
      "inputs": [],
      "name": "treasuryAddr",
      "outputs": [
        {
          "internalType": "address",
          "name": "",
          "type": "address"
        }
      ],
      "stateMutability": "view",
      "type": "function"
    },
    {
      "inputs": [],
      "name": "treasuryPercent",
      "outputs": [
        {
          "internalType": "uint256",
          "name": "",
          "type": "uint256"
        }
      ],
      "stateMutability": "view",
      "type": "function"
    },
    {
      "inputs": [
        {
          "internalType": "uint256",
          "name": "_rubyPerSec",
          "type": "uint256"
        }
      ],
      "name": "updateEmissionRate",
      "outputs": [],
      "stateMutability": "nonpayable",
      "type": "function"
    },
    {
      "inputs": [
        {
          "internalType": "uint256",
          "name": "_pid",
          "type": "uint256"
        }
      ],
      "name": "updatePool",
      "outputs": [],
      "stateMutability": "nonpayable",
      "type": "function"
    },
    {
      "inputs": [
        {
          "internalType": "uint256",
          "name": "",
          "type": "uint256"
        },
        {
          "internalType": "address",
          "name": "",
          "type": "address"
        }
      ],
      "name": "userInfo",
      "outputs": [
        {
          "internalType": "uint256",
          "name": "amount",
          "type": "uint256"
        },
        {
          "internalType": "uint256",
          "name": "rewardDebt",
          "type": "uint256"
        }
      ],
      "stateMutability": "view",
      "type": "function"
    },
    {
      "inputs": [
        {
          "internalType": "uint256",
          "name": "_pid",
          "type": "uint256"
        },
        {
          "internalType": "uint256",
          "name": "_amount",
          "type": "uint256"
        }
      ],
      "name": "withdraw",
      "outputs": [],
      "stateMutability": "nonpayable",
      "type": "function"
    }
  ],
  "transactionHash": "0xc101de5374973a6aa8b18572f2997de627b54b9e43137ce7f94bd577a1daaf78",
  "args": [],
  "numDeployments": 1,
  "solcInputHash": "8ca980d51c658bcb6e0b1d5c9f9ee0b7",
  "bytecode": "0x608060405234801561001057600080fd5b50613053806100206000396000f3fe608060405234801561001057600080fd5b50600436106101cf5760003560e01c8063715018a611610104578063af3315fd116100a2578063e6fd48bc11610071578063e6fd48bc14610393578063e77fc7a41461039b578063f2fde38b146103ae578063ffcd4263146103c1576101cf565b8063af3315fd1461034f578063bc70fdbc14610357578063c0a0a5a214610378578063e2bbb15814610380576101cf565b80638da5cb5b116100de5780638da5cb5b1461030057806393f1a40b14610308578063a7e05b9c14610329578063ab7de0981461033c576101cf565b8063715018a6146102d257806388bba42f146102da57806389a2bc25146102ed576101cf565b806330d9a62a1161017157806351eb05a61161014b57806351eb05a6146102915780635312ea8e146102a4578063630b5ba1146102b75780636ba4c138146102bf576101cf565b806330d9a62a1461026357806341c4b4e81461026b578063441a3e701461027e576101cf565b80630cf64bbb116101ad5780630cf64bbb1461020f57806312c09a3a146102245780631526fe271461023757806317caf6f11461025b576101cf565b806304ef9d58146101d4578063081e3eda146101f25780630ba84cd2146101fa575b600080fd5b6101dc6103e4565b6040516101e99190612f52565b60405180910390f35b6101dc6103ea565b61020d61020836600461268e565b6103f0565b005b610217610482565b6040516101e991906127e0565b61020d61023236600461248f565b610491565b61024a61024536600461268e565b610540565b6040516101e9959493929190612855565b6101dc61058b565b610217610591565b61020d610279366004612521565b6105a0565b61020d61028c36600461272e565b61071c565b61020d61029f36600461268e565b610962565b61020d6102b236600461268e565b610b2b565b61020d610bf8565b61020d6102cd36600461254c565b610c1b565b61020d610d70565b61020d6102e836600461274f565b610df9565b61020d6102fb36600461268e565b610fa6565b610217611047565b61031b6103163660046126be565b611056565b6040516101e9929190612fa6565b61020d61033736600461248f565b61107a565b61020d61034a3660046126ed565b6110f0565b6101dc611371565b61036a61036536600461268e565b611377565b6040516101e9929190612831565b6102176114d0565b61020d61038e36600461272e565b6114df565b6101dc6116fa565b61020d6103a93660046124ab565b611700565b61020d6103bc36600461248f565b6118a5565b6103d46103cf3660046126be565b611966565b6040516101e99493929190612f5b565b609b5481565b609c5490565b6103f8611b9f565b6001600160a01b0316610409611047565b6001600160a01b0316146104385760405162461bcd60e51b815260040161042f90612c70565b60405180910390fd5b610440610bf8565b609a81905560405133907fe2492e003bbe8afa53088b406f0c1cb5d9e280370fc72a74cf116ffd343c405390610477908490612f52565b60405180910390a250565b6097546001600160a01b031681565b610499611b9f565b6001600160a01b03166104aa611047565b6001600160a01b0316146104d05760405162461bcd60e51b815260040161042f90612c70565b6001600160a01b0381166104f65760405162461bcd60e51b815260040161042f90612984565b609880546001600160a01b0319166001600160a01b0383169081179091556040517f655a9d8a0fb724de9baabf3565fbf1811d7816028d8ef077381214d907ee9cb190600090a250565b609c818154811061054d57fe5b6000918252602090912060059091020180546001820154600283015460038401546004909401546001600160a01b0393841695509193909290911685565b60a05481565b6099546001600160a01b031681565b6105a8611b9f565b6001600160a01b03166105b9611047565b6001600160a01b0316146105df5760405162461bcd60e51b815260040161042f90612c70565b6001600160a01b0382166106055760405162461bcd60e51b815260040161042f90612b6c565b806106225760405162461bcd60e51b815260040161042f90612d02565b6097546040516370a0823160e01b815282916001600160a01b0316906370a08231906106529030906004016127e0565b60206040518083038186803b15801561066a57600080fd5b505afa15801561067e573d6000803e3d6000fd5b505050506040513d601f19601f820116820180604052508101906106a291906126a6565b10156106c05760405162461bcd60e51b815260040161042f90612ad3565b6097546106d7906001600160a01b03168383611ba3565b816001600160a01b03167f97087e23afd36ddec15b9c40871fd3b322874ec0b2f759287d51f5f9b40d13ec826040516107109190612f52565b60405180910390a25050565b6002606554141561073f5760405162461bcd60e51b815260040161042f90612ecc565b60026065819055506000609c838154811061075657fe5b60009182526020808320868452609f82526040808520338652909252922080546005909202909201925083111561079f5760405162461bcd60e51b815260040161042f90612d92565b6107a884610962565b60006107e282600101546107dc64e8d4a510006107d687600301548760000154611c9990919063ffffffff16565b90611cdc565b90611d0e565b90508015610837576107f43382611d36565b84336001600160a01b03167f71bab65ced2e5750775a0613be067df48ef06cf92a496ebf7663ae06609249548360405161082e9190612f52565b60405180910390a35b81546108439085611d0e565b80835560038401546108609164e8d4a51000916107d69190611c99565b82600101819055506000609c868154811061087757fe5b60009182526020909120600460059092020101546001600160a01b0316905080156108fd57825460405163b8735ca360e01b81526001600160a01b0383169163b8735ca3916108ca9133916004016127f4565b600060405180830381600087803b1580156108e457600080fd5b505af11580156108f8573d6000803e3d6000fd5b505050505b8354610913906001600160a01b03163387611ba3565b85336001600160a01b03167ff279e6a1f5e320cca91135676d9cb6e44ca8a08c0b88342bcdb1144f6511b5688760405161094d9190612f52565b60405180910390a35050600160655550505050565b6000609c828154811061097157fe5b90600052602060002090600502019050806002015442116109925750610b28565b80546040516370a0823160e01b81526000916001600160a01b0316906370a08231906109c29030906004016127e0565b60206040518083038186803b1580156109da57600080fd5b505afa1580156109ee573d6000803e3d6000fd5b505050506040513d601f19601f82011682018060405250810190610a1291906126a6565b905080610a26575042600290910155610b28565b6000610a3f836002015442611d0e90919063ffffffff16565b90506000610a6c60a0546107d68660010154610a66609a5487611c9990919063ffffffff16565b90611c99565b609b546099549192506103e881810392610aae926001600160a01b0390911691610a9b916107d6908790611c99565b6097546001600160a01b03169190611ba3565b610ad7610acc6103e86107d684610a6689838964e8d4a51000611c99565b600387015490611db7565b60038601819055426002870181905560405188927f3be3541fc42237d611b30329040bfa4569541d156560acdbbae57640d20b8f4692610b1a9290918991612fb4565b60405180910390a250505050505b50565b60026065541415610b4e5760405162461bcd60e51b815260040161042f90612ecc565b60026065819055506000609c8281548110610b6557fe5b60009182526020808320858452609f82526040808520338087529352909320805460059093029093018054909450610baa926001600160a01b03919091169190611ba3565b8054604051849133917fbb757047c2b5f3974fe26b7c10f732e7bce710b0952a71082702781e62ae059591610bde91612f52565b60405180910390a360008082556001918201556065555050565b609c5460005b81811015610c1757610c0f81610962565b600101610bfe565b5050565b610c23610bf8565b6000805b82811015610d19576000609c858584818110610c3f57fe5b9050602002013581548110610c5057fe5b906000526020600020906005020190506000609f6000878786818110610c7257fe5b9050602002013581526020019081526020016000206000336001600160a01b03166001600160a01b031681526020019081526020016000209050610ce2610cdb82600101546107dc64e8d4a510006107d687600301548760000154611c9990919063ffffffff16565b8590611db7565b9350610d0864e8d4a510006107d684600301548460000154611c9990919063ffffffff16565b600191820155919091019050610c27565b508015610d2a57610d2a3382611d36565b336001600160a01b03167f351d209c2fc728f2b988517156e6600339c242b0121854aad347682479e0334a82604051610d639190612f52565b60405180910390a2505050565b610d78611b9f565b6001600160a01b0316610d89611047565b6001600160a01b031614610daf5760405162461bcd60e51b815260040161042f90612c70565b6033546040516000916001600160a01b0316907f8be0079c531659141344cd1fd0a4f28419497f9722a3daafe3b4186f6b6457e0908390a3603380546001600160a01b0319169055565b610e01611b9f565b6001600160a01b0316610e12611047565b6001600160a01b031614610e385760405162461bcd60e51b815260040161042f90612c70565b610e4182611ddc565b80610e5357506001600160a01b038216155b610e6f5760405162461bcd60e51b815260040161042f90612dbe565b610e77610bf8565b610eb483610eae609c8781548110610e8b57fe5b90600052602060002090600502016001015460a054611d0e90919063ffffffff16565b90611db7565b60a08190555082609c8581548110610ec857fe5b9060005260206000209060050201600101819055508015610f275781609c8581548110610ef157fe5b906000526020600020906005020160040160006101000a8154816001600160a01b0302191690836001600160a01b031602179055505b80610f5b57609c8481548110610f3957fe5b60009182526020909120600460059092020101546001600160a01b0316610f5d565b815b6001600160a01b0316847f5cc19c778e63c1c2263d75219c925ca41f42f892526d0d814a7d4beb1425ffb78584604051610f98929190612f96565b60405180910390a350505050565b610fae611b9f565b6001600160a01b0316610fbf611047565b6001600160a01b031614610fe55760405162461bcd60e51b815260040161042f90612c70565b6103e88111156110075760405162461bcd60e51b815260040161042f906129ce565b609b8190556040517fcd5bca6a422e5cbcaeb47e746280c12e96040b2991cd5c6c4e98f08e4692c4b09061103c908390612f52565b60405180910390a150565b6033546001600160a01b031690565b609f6020908152600092835260408084209091529082529020805460019091015482565b6099546001600160a01b031633146110a45760405162461bcd60e51b815260040161042f90612ca5565b609980546001600160a01b0319166001600160a01b03831690811790915560405133907f61885cdba916be748ff3e3f6f15e4206153b8ea3b7acabade9d04b4063a8351090600090a350565b6110f8611b9f565b6001600160a01b0316611109611047565b6001600160a01b03161461112f5760405162461bcd60e51b815260040161042f90612c70565b61113882611ddc565b6111545760405162461bcd60e51b815260040161042f90612d4c565b61115d81611ddc565b8061116f57506001600160a01b038116155b61118b5760405162461bcd60e51b815260040161042f90612e04565b611196609d83611de6565b156111b35760405162461bcd60e51b815260040161042f90612c41565b6111bb610bf8565b600060a15442116111ce5760a1546111d0565b425b60a0549091506111e09085611db7565b60a09081556040805191820181526001600160a01b0380861683526020830187815291830184815260006060850181815287841660808701908152609c80546001810182559352955160059092027faf85b9071dfafeac1409d3f1d19bafc9bc7c37974cde8df0ee6168f0086e539c810180549386166001600160a01b031994851617905594517faf85b9071dfafeac1409d3f1d19bafc9bc7c37974cde8df0ee6168f0086e539d86015591517faf85b9071dfafeac1409d3f1d19bafc9bc7c37974cde8df0ee6168f0086e539e85015590517faf85b9071dfafeac1409d3f1d19bafc9bc7c37974cde8df0ee6168f0086e539f84015592517faf85b9071dfafeac1409d3f1d19bafc9bc7c37974cde8df0ee6168f0086e53a090920180549290911691909216179055611315609d84611dfb565b50609c546001600160a01b038084169190851690611334906001611d0e565b7f0621c8de33a230aec1aee0d4f7b6c81d97bd3ce0a2040ca33fbd668e521ecafe876040516113639190612f52565b60405180910390a450505050565b609a5481565b600060606000609c848154811061138a57fe5b6000918252602090912060059091020160048101549091506001600160a01b0316156114ca576004808201546040805163f7c618c160e01b815290516001600160a01b039092169263f7c618c1928282019260209290829003018186803b1580156113f457600080fd5b505afa158015611408573d6000803e3d6000fd5b505050506040513d601f19601f8201168201806040525081019061142c91906125d7565b92506114c78160040160009054906101000a90046001600160a01b03166001600160a01b031663f7c618c16040518163ffffffff1660e01b815260040160206040518083038186803b15801561148157600080fd5b505afa158015611495573d6000803e3d6000fd5b505050506040513d601f19601f820116820180604052508101906114b991906125d7565b6001600160a01b0316611e10565b91505b50915091565b6098546001600160a01b031681565b600260655414156115025760405162461bcd60e51b815260040161042f90612ecc565b60026065819055506000609c838154811061151957fe5b60009182526020808320868452609f8252604080852033865290925292206005909102909101915061154a84610962565b8054156115cf57600061157f82600101546107dc64e8d4a510006107d687600301548760000154611c9990919063ffffffff16565b905061158b3382611d36565b84336001600160a01b03167f71bab65ced2e5750775a0613be067df48ef06cf92a496ebf7663ae0660924954836040516115c59190612f52565b60405180910390a3505b80546115db9084611db7565b80825560038301546115f89164e8d4a51000916107d69190611c99565b81600101819055506000609c858154811061160f57fe5b60009182526020909120600460059092020101546001600160a01b03169050801561169557815460405163b8735ca360e01b81526001600160a01b0383169163b8735ca3916116629133916004016127f4565b600060405180830381600087803b15801561167c57600080fd5b505af1158015611690573d6000803e3d6000fd5b505050505b82546116ac906001600160a01b0316333087611ed3565b84336001600160a01b03167f90890809c654f11d6e72a28fa60149770a0d11ec6c92319d6ceb2bb0a4ea1a15866040516116e69190612f52565b60405180910390a350506001606555505050565b60a15481565b600054610100900460ff16806117195750611719611fcc565b80611727575060005460ff16155b6117435760405162461bcd60e51b815260040161042f90612a85565b600054610100900460ff1615801561176e576000805460ff1961ff0019909116610100171660011790555b6001600160a01b0387166117945760405162461bcd60e51b815260040161042f90612b22565b6001600160a01b0386166117ba5760405162461bcd60e51b815260040161042f90612939565b6001600160a01b0385166117e05760405162461bcd60e51b815260040161042f90612bb7565b836117fd5760405162461bcd60e51b815260040161042f90612e7f565b6103e882111561181f5760405162461bcd60e51b815260040161042f90612f03565b611827611fdd565b61182f61206f565b611838886118a5565b609780546001600160a01b03808a166001600160a01b031992831617909255609880548984169083161790556099805492881692909116919091179055609a84905560a1839055609b829055600060a055801561189b576000805461ff00191690555b5050505050505050565b6118ad611b9f565b6001600160a01b03166118be611047565b6001600160a01b0316146118e45760405162461bcd60e51b815260040161042f90612c70565b6001600160a01b03811661190a5760405162461bcd60e51b815260040161042f906128bc565b6033546040516001600160a01b038084169216907f8be0079c531659141344cd1fd0a4f28419497f9722a3daafe3b4186f6b6457e090600090a3603380546001600160a01b0319166001600160a01b0392909216919091179055565b6000806060600080609c878154811061197b57fe5b600091825260208083208a8452609f825260408085206001600160a01b03808d16875293528085206003600590950290920193840154845491516370a0823160e01b815294965091949193919216906370a08231906119de9030906004016127e0565b60206040518083038186803b1580156119f657600080fd5b505afa158015611a0a573d6000803e3d6000fd5b505050506040513d601f19601f82011682018060405250810190611a2e91906126a6565b9050836002015442118015611a4257508015155b15611ac1576000611a60856002015442611d0e90919063ffffffff16565b90506000609b546103e80390506000611a9c6103e86107d684610a6660a0546107d68d60010154610a66609a548c611c9990919063ffffffff16565b9050611abb611ab4856107d68464e8d4a51000611c99565b8690611db7565b94505050505b611ae983600101546107dc64e8d4a510006107d6868860000154611c9990919063ffffffff16565b60048501549098506001600160a01b031615611b9257611b088a611377565b60048087015460405163c031a66f60e01b8152939a509198506001600160a01b039091169163c031a66f91611b3f918d91016127e0565b60206040518083038186803b158015611b5757600080fd5b505afa158015611b6b573d6000803e3d6000fd5b505050506040513d601f19601f82011682018060405250810190611b8f91906126a6565b94505b5050505092959194509250565b3390565b60006060846001600160a01b031663a9059cbb60e01b8585604051602401611bcc9291906127f4565b60408051601f198184030181529181526020820180516001600160e01b03166001600160e01b0319909416939093179092529051611c0a91906127c4565b6000604051808303816000865af19150503d8060008114611c47576040519150601f19603f3d011682016040523d82523d6000602084013e611c4c565b606091505b5091509150818015611c76575080511580611c76575080806020019051810190611c7691906125bb565b611c925760405162461bcd60e51b815260040161042f90612885565b5050505050565b600082611ca857506000611cd6565b82820282848281611cb557fe5b0414611cd35760405162461bcd60e51b815260040161042f90612c00565b90505b92915050565b6000808211611cfd5760405162461bcd60e51b815260040161042f90612a4e565b818381611d0657fe5b049392505050565b600082821115611d305760405162461bcd60e51b815260040161042f90612a17565b50900390565b6098546040516340c10f1960e01b81526001600160a01b03909116906340c10f1990611d6890859085906004016127f4565b600060405180830381600087803b158015611d8257600080fd5b505af1158015611d96573d6000803e3d6000fd5b5050609854609754610c1793506001600160a01b0390811692501683611ba3565b600082820183811015611cd35760405162461bcd60e51b815260040161042f90612902565b803b15155b919050565b6000611cd3836001600160a01b0384166120e5565b6000611cd3836001600160a01b0384166120fd565b60408051600481526024810182526020810180516001600160e01b03166395d89b4160e01b179052905160609160009183916001600160a01b03861691611e5791906127c4565b600060405180830381855afa9150503d8060008114611e92576040519150601f19603f3d011682016040523d82523d6000602084013e611e97565b606091505b509150915081611ec257604051806040016040528060038152602001623f3f3f60e81b815250611ecb565b611ecb81612147565b949350505050565b60006060856001600160a01b03166323b872dd60e01b868686604051602401611efe9392919061280d565b60408051601f198184030181529181526020820180516001600160e01b03166001600160e01b0319909416939093179092529051611f3c91906127c4565b6000604051808303816000865af19150503d8060008114611f79576040519150601f19603f3d011682016040523d82523d6000602084013e611f7e565b606091505b5091509150818015611fa8575080511580611fa8575080806020019051810190611fa891906125bb565b611fc45760405162461bcd60e51b815260040161042f90612e4a565b505050505050565b6000611fd730611ddc565b15905090565b600054610100900460ff1680611ff65750611ff6611fcc565b80612004575060005460ff16155b6120205760405162461bcd60e51b815260040161042f90612a85565b600054610100900460ff1615801561204b576000805460ff1961ff0019909116610100171660011790555b6120536122ad565b61205b61232e565b8015610b28576000805461ff001916905550565b600054610100900460ff16806120885750612088611fcc565b80612096575060005460ff16155b6120b25760405162461bcd60e51b815260040161042f90612a85565b600054610100900460ff161580156120dd576000805460ff1961ff0019909116610100171660011790555b61205b612408565b60009081526001919091016020526040902054151590565b600061210983836120e5565b61213f57508154600181810184556000848152602080822090930184905584548482528286019093526040902091909155611cd6565b506000611cd6565b6060604082511061216d578180602001905181019061216691906125f3565b9050611de1565b81516020141561228d5760005b60208160ff161080156121a95750828160ff168151811061219757fe5b01602001516001600160f81b03191615155b156121b65760010161217a565b60608160ff1667ffffffffffffffff811180156121d257600080fd5b506040519080825280601f01601f1916602001820160405280156121fd576020820181803683370190505b509050600091505b60208260ff161080156122345750838260ff168151811061222257fe5b01602001516001600160f81b03191615155b1561228457838260ff168151811061224857fe5b602001015160f81c60f81b818360ff168151811061226257fe5b60200101906001600160f81b031916908160001a905350600190910190612205565b9150611de19050565b506040805180820190915260038152623f3f3f60e81b6020820152611de1565b600054610100900460ff16806122c657506122c6611fcc565b806122d4575060005460ff16155b6122f05760405162461bcd60e51b815260040161042f90612a85565b600054610100900460ff1615801561205b576000805460ff1961ff0019909116610100171660011790558015610b28576000805461ff001916905550565b600054610100900460ff16806123475750612347611fcc565b80612355575060005460ff16155b6123715760405162461bcd60e51b815260040161042f90612a85565b600054610100900460ff1615801561239c576000805460ff1961ff0019909116610100171660011790555b60006123a6611b9f565b603380546001600160a01b0319166001600160a01b038316908117909155604051919250906000907f8be0079c531659141344cd1fd0a4f28419497f9722a3daafe3b4186f6b6457e0908290a3508015610b28576000805461ff001916905550565b600054610100900460ff16806124215750612421611fcc565b8061242f575060005460ff16155b61244b5760405162461bcd60e51b815260040161042f90612a85565b600054610100900460ff16158015612476576000805460ff1961ff0019909116610100171660011790555b60016065558015610b28576000805461ff001916905550565b6000602082840312156124a0578081fd5b8135611cd381612ffa565b600080600080600080600060e0888a0312156124c5578283fd5b87356124d081612ffa565b965060208801356124e081612ffa565b955060408801356124f081612ffa565b9450606088013561250081612ffa565b9699959850939660808101359560a0820135955060c0909101359350915050565b60008060408385031215612533578182fd5b823561253e81612ffa565b946020939093013593505050565b6000806020838503121561255e578182fd5b823567ffffffffffffffff80821115612575578384fd5b818501915085601f830112612588578384fd5b813581811115612596578485fd5b86602080830285010111156125a9578485fd5b60209290920196919550909350505050565b6000602082840312156125cc578081fd5b8151611cd38161300f565b6000602082840312156125e8578081fd5b8151611cd381612ffa565b600060208284031215612604578081fd5b815167ffffffffffffffff8082111561261b578283fd5b818401915084601f83011261262e578283fd5b81518181111561263c578384fd5b604051601f8201601f19168101602001838111828210171561265c578586fd5b604052818152838201602001871015612673578485fd5b612684826020830160208701612fca565b9695505050505050565b60006020828403121561269f578081fd5b5035919050565b6000602082840312156126b7578081fd5b5051919050565b600080604083850312156126d0578182fd5b8235915060208301356126e281612ffa565b809150509250929050565b600080600060608486031215612701578283fd5b83359250602084013561271381612ffa565b9150604084013561272381612ffa565b809150509250925092565b60008060408385031215612740578182fd5b50508035926020909101359150565b60008060008060808587031215612764578384fd5b8435935060208501359250604085013561277d81612ffa565b9150606085013561278d8161300f565b939692955090935050565b600081518084526127b0816020860160208601612fca565b601f01601f19169290920160200192915050565b600082516127d6818460208701612fca565b9190910192915050565b6001600160a01b0391909116815260200190565b6001600160a01b03929092168252602082015260400190565b6001600160a01b039384168152919092166020820152604081019190915260600190565b6001600160a01b0383168152604060208201819052600090611ecb90830184612798565b6001600160a01b039586168152602081019490945260408401929092526060830152909116608082015260a00190565b6020808252601c908201527f426f72696e6745524332303a205472616e73666572206661696c656400000000604082015260600190565b60208082526026908201527f4f776e61626c653a206e6577206f776e657220697320746865207a65726f206160408201526564647265737360d01b606082015260800190565b6020808252601b908201527f536166654d6174683a206164646974696f6e206f766572666c6f770000000000604082015260600190565b6020808252602b908201527f527562794d6173746572436865663a20496e76616c696420527562795374616b60408201526a32b91030b2323932b9b99760a91b606082015260800190565b6020808252602a908201527f736574527562795374616b65723a20696e76616c69642072756279206d696e746040820152696572206164647265737360b01b606082015260800190565b60208082526029908201527f736574547265617375727950657263656e743a20696e76616c69642070657263604082015268656e742076616c756560b81b606082015260800190565b6020808252601e908201527f536166654d6174683a207375627472616374696f6e206f766572666c6f770000604082015260600190565b6020808252601a908201527f536166654d6174683a206469766973696f6e206279207a65726f000000000000604082015260600190565b6020808252602e908201527f496e697469616c697a61626c653a20636f6e747261637420697320616c72656160408201526d191e481a5b9a5d1a585b1a5e995960921b606082015260800190565b6020808252602f908201527f527562794d6173746572436865663a204e6f7420656e6f7567682062616c616e60408201526e31b2903a37903bb4ba34323930bb9760891b606082015260800190565b6020808252602a908201527f527562794d6173746572436865663a20496e76616c69642052756279546f6b65604082015269371030b2323932b9b99760b11b606082015260800190565b6020808252602b908201527f527562794d6173746572436865663a20496e76616c696420776974686472617760408201526a30b61030b2323932b9b99760a91b606082015260800190565b60208082526029908201527f527562794d6173746572436865663a20496e76616c69642074726561737572796040820152681030b2323932b9b99760b91b606082015260800190565b60208082526021908201527f536166654d6174683a206d756c7469706c69636174696f6e206f766572666c6f6040820152607760f81b606082015260800190565b6020808252601590820152741859190e88131408185b1c9958591e481859191959605a1b604082015260600190565b6020808252818101527f4f776e61626c653a2063616c6c6572206973206e6f7420746865206f776e6572604082015260600190565b6020808252603e908201527f7365745472656173757279416464723a206e6f7420656e6f756768207065726d60408201527f697373696f6e7320746f2065786563757465207468697320616374696f6e0000606082015260800190565b6020808252602a908201527f527562794d6173746572436865663a20496e76616c696420776974686472617760408201526930b61030b6b7bab73a1760b11b606082015260800190565b60208082526026908201527f6164643a204c5020746f6b656e206d75737420626520612076616c696420636f6040820152651b9d1c9858dd60d21b606082015260800190565b6020808252601290820152711dda5d1a191c985dce881b9bdd0819dbdbd960721b604082015260600190565b60208082526026908201527f7365743a207265776172646572206d75737420626520636f6e7472616374206f60408201526572207a65726f60d01b606082015260800190565b60208082526026908201527f6164643a207265776172646572206d75737420626520636f6e7472616374206f60408201526572207a65726f60d01b606082015260800190565b6020808252818101527f426f72696e6745524332303a205472616e7366657246726f6d206661696c6564604082015260600190565b6020808252602d908201527f527562794d6173746572436865663a20496e76616c696420656d697373696f6e60408201526c103930ba329030b6b7bab73a1760991b606082015260800190565b6020808252601f908201527f5265656e7472616e637947756172643a207265656e7472616e742063616c6c00604082015260600190565b6020808252602f908201527f527562794d6173746572436865663a20696e76616c696420747265617375727960408201526e103832b931b2b73a103b30b63ab29760891b606082015260800190565b90815260200190565b8481526001600160a01b0384166020820152608060408201819052600090612f8590830185612798565b905082606083015295945050505050565b9182521515602082015260400190565b918252602082015260400190565b9283526020830191909152604082015260600190565b60005b83811015612fe5578181015183820152602001612fcd565b83811115612ff4576000848401525b50505050565b6001600160a01b0381168114610b2857600080fd5b8015158114610b2857600080fdfea2646970667358221220f35a6033753a93b33fc0f6d3f3db18cec5356b9c86bdc2c731df10b81bed916b64736f6c634300060c0033",
  "devdoc": {
    "kind": "dev",
    "methods": {
      "owner()": {
        "details": "Returns the address of the current owner."
      },
      "renounceOwnership()": {
        "details": "Leaves the contract without owner. It will not be possible to call `onlyOwner` functions anymore. Can only be called by the current owner. NOTE: Renouncing ownership will leave the contract without an owner, thereby removing any functionality that is only available to the owner."
      },
      "transferOwnership(address)": {
        "details": "Transfers ownership of the contract to a new account (`newOwner`). Can only be called by the current owner."
      }
    },
    "version": 1
  },
  "userdoc": {
    "kind": "user",
    "methods": {
      "emergencyWithdrawRubyTokens(address,uint256)": {
        "notice": "Owner should be able to withdraw all the Reward tokens in case of emergency. The owner should be able to withdraw the tokens to himself or another address The RubyMasterChef contract will be placed behind a timelock, and the owner/deployer will be a multisig, so this should not raise trust concerns. This function is needed because the RubyMasterChef will be pre-fed with all of the reward tokens (RUBY) tokens dedicated for liquidity mining incentives, and in case of unfortunate situation they should be retreived."
      }
    },
    "version": 1
  },
  "storageLayout": {
    "storage": [
      {
        "astId": 705,
        "contract": "contracts/RubyMasterChef.sol:RubyMasterChef",
        "label": "_initialized",
        "offset": 0,
        "slot": "0",
        "type": "t_bool"
      },
      {
        "astId": 708,
        "contract": "contracts/RubyMasterChef.sol:RubyMasterChef",
        "label": "_initializing",
        "offset": 1,
        "slot": "0",
        "type": "t_bool"
      },
      {
        "astId": 2910,
        "contract": "contracts/RubyMasterChef.sol:RubyMasterChef",
        "label": "__gap",
        "offset": 0,
        "slot": "1",
        "type": "t_array(t_uint256)50_storage"
      },
      {
        "astId": 136,
        "contract": "contracts/RubyMasterChef.sol:RubyMasterChef",
        "label": "_owner",
        "offset": 0,
        "slot": "51",
        "type": "t_address"
      },
      {
        "astId": 255,
        "contract": "contracts/RubyMasterChef.sol:RubyMasterChef",
        "label": "__gap",
        "offset": 0,
        "slot": "52",
        "type": "t_array(t_uint256)49_storage"
      },
      {
        "astId": 4090,
        "contract": "contracts/RubyMasterChef.sol:RubyMasterChef",
        "label": "_status",
        "offset": 0,
        "slot": "101",
        "type": "t_uint256"
      },
      {
        "astId": 4133,
        "contract": "contracts/RubyMasterChef.sol:RubyMasterChef",
        "label": "__gap",
        "offset": 0,
        "slot": "102",
        "type": "t_array(t_uint256)49_storage"
      },
      {
        "astId": 10386,
        "contract": "contracts/RubyMasterChef.sol:RubyMasterChef",
        "label": "RUBY",
        "offset": 0,
        "slot": "151",
        "type": "t_contract(IERC20)6417"
      },
      {
        "astId": 10388,
        "contract": "contracts/RubyMasterChef.sol:RubyMasterChef",
        "label": "rubyStaker",
        "offset": 0,
        "slot": "152",
        "type": "t_contract(IRubyStaker)19965"
      },
      {
        "astId": 10390,
        "contract": "contracts/RubyMasterChef.sol:RubyMasterChef",
        "label": "treasuryAddr",
        "offset": 0,
        "slot": "153",
        "type": "t_address"
      },
      {
        "astId": 10392,
        "contract": "contracts/RubyMasterChef.sol:RubyMasterChef",
        "label": "rubyPerSec",
        "offset": 0,
        "slot": "154",
        "type": "t_uint256"
      },
      {
        "astId": 10394,
        "contract": "contracts/RubyMasterChef.sol:RubyMasterChef",
        "label": "treasuryPercent",
        "offset": 0,
        "slot": "155",
        "type": "t_uint256"
      },
      {
        "astId": 10397,
        "contract": "contracts/RubyMasterChef.sol:RubyMasterChef",
        "label": "poolInfo",
        "offset": 0,
        "slot": "156",
        "type": "t_array(t_struct(PoolInfo)10384_storage)dyn_storage"
      },
      {
        "astId": 10399,
        "contract": "contracts/RubyMasterChef.sol:RubyMasterChef",
        "label": "lpTokens",
        "offset": 0,
        "slot": "157",
        "type": "t_struct(AddressSet)9001_storage"
      },
      {
        "astId": 10405,
        "contract": "contracts/RubyMasterChef.sol:RubyMasterChef",
        "label": "userInfo",
        "offset": 0,
        "slot": "159",
        "type": "t_mapping(t_uint256,t_mapping(t_address,t_struct(UserInfo)10373_storage))"
      },
      {
        "astId": 10407,
        "contract": "contracts/RubyMasterChef.sol:RubyMasterChef",
        "label": "totalAllocPoint",
        "offset": 0,
        "slot": "160",
        "type": "t_uint256"
      },
      {
        "astId": 10412,
        "contract": "contracts/RubyMasterChef.sol:RubyMasterChef",
        "label": "startTimestamp",
        "offset": 0,
        "slot": "161",
        "type": "t_uint256"
      }
    ],
    "types": {
      "t_address": {
        "encoding": "inplace",
        "label": "address",
        "numberOfBytes": "20"
      },
      "t_array(t_bytes32)dyn_storage": {
        "base": "t_bytes32",
        "encoding": "dynamic_array",
        "label": "bytes32[]",
        "numberOfBytes": "32"
      },
      "t_array(t_struct(PoolInfo)10384_storage)dyn_storage": {
        "base": "t_struct(PoolInfo)10384_storage",
        "encoding": "dynamic_array",
        "label": "struct RubyMasterChef.PoolInfo[]",
        "numberOfBytes": "32"
      },
      "t_array(t_uint256)49_storage": {
        "base": "t_uint256",
        "encoding": "inplace",
        "label": "uint256[49]",
        "numberOfBytes": "1568"
      },
      "t_array(t_uint256)50_storage": {
        "base": "t_uint256",
        "encoding": "inplace",
        "label": "uint256[50]",
        "numberOfBytes": "1600"
      },
      "t_bool": {
        "encoding": "inplace",
        "label": "bool",
        "numberOfBytes": "1"
      },
      "t_bytes32": {
        "encoding": "inplace",
        "label": "bytes32",
        "numberOfBytes": "32"
      },
      "t_contract(IERC20)6417": {
        "encoding": "inplace",
        "label": "contract IERC20",
        "numberOfBytes": "20"
      },
      "t_contract(IRubyMasterChefRewarder)19819": {
        "encoding": "inplace",
        "label": "contract IRubyMasterChefRewarder",
        "numberOfBytes": "20"
      },
      "t_contract(IRubyStaker)19965": {
        "encoding": "inplace",
        "label": "contract IRubyStaker",
        "numberOfBytes": "20"
      },
      "t_mapping(t_address,t_struct(UserInfo)10373_storage)": {
        "encoding": "mapping",
        "key": "t_address",
        "label": "mapping(address => struct RubyMasterChef.UserInfo)",
        "numberOfBytes": "32",
        "value": "t_struct(UserInfo)10373_storage"
      },
      "t_mapping(t_bytes32,t_uint256)": {
        "encoding": "mapping",
        "key": "t_bytes32",
        "label": "mapping(bytes32 => uint256)",
        "numberOfBytes": "32",
        "value": "t_uint256"
      },
      "t_mapping(t_uint256,t_mapping(t_address,t_struct(UserInfo)10373_storage))": {
        "encoding": "mapping",
        "key": "t_uint256",
        "label": "mapping(uint256 => mapping(address => struct RubyMasterChef.UserInfo))",
        "numberOfBytes": "32",
        "value": "t_mapping(t_address,t_struct(UserInfo)10373_storage)"
      },
      "t_struct(AddressSet)9001_storage": {
        "encoding": "inplace",
        "label": "struct EnumerableSet.AddressSet",
        "members": [
          {
            "astId": 9000,
            "contract": "contracts/RubyMasterChef.sol:RubyMasterChef",
            "label": "_inner",
            "offset": 0,
            "slot": "0",
            "type": "t_struct(Set)8736_storage"
          }
        ],
        "numberOfBytes": "64"
      },
      "t_struct(PoolInfo)10384_storage": {
        "encoding": "inplace",
        "label": "struct RubyMasterChef.PoolInfo",
        "members": [
          {
            "astId": 10375,
            "contract": "contracts/RubyMasterChef.sol:RubyMasterChef",
            "label": "lpToken",
            "offset": 0,
            "slot": "0",
            "type": "t_contract(IERC20)6417"
          },
          {
            "astId": 10377,
            "contract": "contracts/RubyMasterChef.sol:RubyMasterChef",
            "label": "allocPoint",
            "offset": 0,
            "slot": "1",
            "type": "t_uint256"
          },
          {
            "astId": 10379,
            "contract": "contracts/RubyMasterChef.sol:RubyMasterChef",
            "label": "lastRewardTimestamp",
            "offset": 0,
            "slot": "2",
            "type": "t_uint256"
          },
          {
            "astId": 10381,
            "contract": "contracts/RubyMasterChef.sol:RubyMasterChef",
            "label": "accRubyPerShare",
            "offset": 0,
            "slot": "3",
            "type": "t_uint256"
          },
          {
            "astId": 10383,
            "contract": "contracts/RubyMasterChef.sol:RubyMasterChef",
            "label": "rewarder",
            "offset": 0,
            "slot": "4",
            "type": "t_contract(IRubyMasterChefRewarder)19819"
          }
        ],
        "numberOfBytes": "160"
      },
      "t_struct(Set)8736_storage": {
        "encoding": "inplace",
        "label": "struct EnumerableSet.Set",
        "members": [
          {
            "astId": 8731,
            "contract": "contracts/RubyMasterChef.sol:RubyMasterChef",
            "label": "_values",
            "offset": 0,
            "slot": "0",
            "type": "t_array(t_bytes32)dyn_storage"
          },
          {
            "astId": 8735,
            "contract": "contracts/RubyMasterChef.sol:RubyMasterChef",
            "label": "_indexes",
            "offset": 0,
            "slot": "1",
            "type": "t_mapping(t_bytes32,t_uint256)"
          }
        ],
        "numberOfBytes": "64"
      },
      "t_struct(UserInfo)10373_storage": {
        "encoding": "inplace",
        "label": "struct RubyMasterChef.UserInfo",
        "members": [
          {
            "astId": 10370,
            "contract": "contracts/RubyMasterChef.sol:RubyMasterChef",
            "label": "amount",
            "offset": 0,
            "slot": "0",
            "type": "t_uint256"
          },
          {
            "astId": 10372,
            "contract": "contracts/RubyMasterChef.sol:RubyMasterChef",
            "label": "rewardDebt",
            "offset": 0,
            "slot": "1",
            "type": "t_uint256"
          }
        ],
        "numberOfBytes": "64"
      },
      "t_uint256": {
        "encoding": "inplace",
        "label": "uint256",
        "numberOfBytes": "32"
      }
    }
  }
}