{
  "address": "0x7897eD826d5058287194abaeF6d4eEc876fC425c",
  "abi": [
    {
      "anonymous": false,
      "inputs": [
        {
          "indexed": true,
          "internalType": "address",
          "name": "user",
          "type": "address"
        },
        {
          "indexed": false,
          "internalType": "uint256",
          "name": "amount",
          "type": "uint256"
        }
      ],
      "name": "ExpiredLocksWithdrawal",
      "type": "event"
    },
    {
      "anonymous": false,
      "inputs": [
        {
          "indexed": true,
          "internalType": "address",
          "name": "previousOwner",
          "type": "address"
        },
        {
          "indexed": true,
          "internalType": "address",
          "name": "newOwner",
          "type": "address"
        }
      ],
      "name": "OwnershipTransferred",
      "type": "event"
    },
    {
      "anonymous": false,
      "inputs": [
        {
          "indexed": false,
          "internalType": "address",
          "name": "token",
          "type": "address"
        },
        {
          "indexed": false,
          "internalType": "uint256",
          "name": "amount",
          "type": "uint256"
        }
      ],
      "name": "Recovered",
      "type": "event"
    },
    {
      "anonymous": false,
      "inputs": [
        {
          "indexed": false,
          "internalType": "uint256",
          "name": "reward",
          "type": "uint256"
        }
      ],
      "name": "RewardAdded",
      "type": "event"
    },
    {
      "anonymous": false,
      "inputs": [
        {
          "indexed": true,
          "internalType": "address",
          "name": "rewardToken",
          "type": "address"
        },
        {
          "indexed": true,
          "internalType": "address",
          "name": "distributor",
          "type": "address"
        }
      ],
      "name": "RewardDataRegistered",
      "type": "event"
    },
    {
      "anonymous": false,
      "inputs": [
        {
          "indexed": true,
          "internalType": "address",
          "name": "rewardToken",
          "type": "address"
        },
        {
          "indexed": true,
          "internalType": "address",
          "name": "distributor",
          "type": "address"
        },
        {
          "indexed": false,
          "internalType": "bool",
          "name": "approved",
          "type": "bool"
        }
      ],
      "name": "RewardDistributorApproved",
      "type": "event"
    },
    {
      "anonymous": false,
      "inputs": [
        {
          "indexed": true,
          "internalType": "address",
          "name": "rewardDistributor",
          "type": "address"
        }
      ],
      "name": "RewardDistributorSet",
      "type": "event"
    },
    {
      "anonymous": false,
      "inputs": [
        {
          "indexed": true,
          "internalType": "address",
          "name": "newRewardMinter",
          "type": "address"
        }
      ],
      "name": "RewardMinterSet",
      "type": "event"
    },
    {
      "anonymous": false,
      "inputs": [
        {
          "indexed": true,
          "internalType": "address",
          "name": "user",
          "type": "address"
        },
        {
          "indexed": true,
          "internalType": "address",
          "name": "rewardToken",
          "type": "address"
        },
        {
          "indexed": false,
          "internalType": "uint256",
          "name": "reward",
          "type": "uint256"
        }
      ],
      "name": "RewardPaid",
      "type": "event"
    },
    {
      "anonymous": false,
      "inputs": [
        {
          "indexed": false,
          "internalType": "address",
          "name": "token",
          "type": "address"
        },
        {
          "indexed": false,
          "internalType": "uint256",
          "name": "newDuration",
          "type": "uint256"
        }
      ],
      "name": "RewardsDurationUpdated",
      "type": "event"
    },
    {
      "anonymous": false,
      "inputs": [
        {
          "indexed": true,
          "internalType": "address",
          "name": "token",
          "type": "address"
        },
        {
          "indexed": true,
          "internalType": "address",
          "name": "to",
          "type": "address"
        },
        {
          "indexed": false,
          "internalType": "uint256",
          "name": "amount",
          "type": "uint256"
        }
      ],
      "name": "RubyTokenEmergencyWithdrawal",
      "type": "event"
    },
    {
      "anonymous": false,
      "inputs": [
        {
          "indexed": true,
          "internalType": "address",
          "name": "user",
          "type": "address"
        },
        {
          "indexed": false,
          "internalType": "uint256",
          "name": "amount",
          "type": "uint256"
        }
      ],
      "name": "Staked",
      "type": "event"
    },
    {
      "anonymous": false,
      "inputs": [
        {
          "indexed": true,
          "internalType": "address",
          "name": "user",
          "type": "address"
        },
        {
          "indexed": false,
          "internalType": "uint256",
          "name": "amount",
          "type": "uint256"
        }
      ],
      "name": "Withdrawal",
      "type": "event"
    },
    {
      "inputs": [
        {
          "internalType": "address",
          "name": "_rewardsToken",
          "type": "address"
        },
        {
          "internalType": "address",
          "name": "_distributor",
          "type": "address"
        }
      ],
      "name": "addReward",
      "outputs": [],
      "stateMutability": "nonpayable",
      "type": "function"
    },
    {
      "inputs": [
        {
          "internalType": "uint256",
          "name": "_rewardId",
          "type": "uint256"
        },
        {
          "internalType": "address",
          "name": "_distributor",
          "type": "address"
        },
        {
          "internalType": "bool",
          "name": "_approved",
          "type": "bool"
        }
      ],
      "name": "approveRewardDistributor",
      "outputs": [],
      "stateMutability": "nonpayable",
      "type": "function"
    },
    {
      "inputs": [
        {
          "internalType": "address",
          "name": "account",
          "type": "address"
        }
      ],
      "name": "claimableRewards",
      "outputs": [
        {
          "components": [
            {
              "internalType": "address",
              "name": "token",
              "type": "address"
            },
            {
              "internalType": "uint256",
              "name": "amount",
              "type": "uint256"
            }
          ],
          "internalType": "struct RubyStaker.RewardData[]",
          "name": "userRewards",
          "type": "tuple[]"
        }
      ],
      "stateMutability": "view",
      "type": "function"
    },
    {
      "inputs": [
        {
          "internalType": "address",
          "name": "user",
          "type": "address"
        }
      ],
      "name": "earnedBalances",
      "outputs": [
        {
          "internalType": "uint256",
          "name": "total",
          "type": "uint256"
        },
        {
          "components": [
            {
              "internalType": "uint256",
              "name": "amount",
              "type": "uint256"
            },
            {
              "internalType": "uint256",
              "name": "unlockTime",
              "type": "uint256"
            }
          ],
          "internalType": "struct RubyStaker.LockedBalance[]",
          "name": "earningsData",
          "type": "tuple[]"
        }
      ],
      "stateMutability": "view",
      "type": "function"
    },
    {
      "inputs": [],
      "name": "exit",
      "outputs": [],
      "stateMutability": "nonpayable",
      "type": "function"
    },
    {
      "inputs": [],
      "name": "getReward",
      "outputs": [],
      "stateMutability": "nonpayable",
      "type": "function"
    },
    {
      "inputs": [
        {
          "internalType": "uint256",
          "name": "_rewardId",
          "type": "uint256"
        }
      ],
      "name": "getRewardForDuration",
      "outputs": [
        {
          "internalType": "uint256",
          "name": "",
          "type": "uint256"
        }
      ],
      "stateMutability": "view",
      "type": "function"
    },
    {
      "inputs": [
        {
          "internalType": "address",
          "name": "_owner",
          "type": "address"
        },
        {
          "internalType": "address",
          "name": "_rubyToken",
          "type": "address"
        },
        {
          "internalType": "uint256",
          "name": "_maxNumRewards",
          "type": "uint256"
        }
      ],
      "name": "initialize",
      "outputs": [],
      "stateMutability": "nonpayable",
      "type": "function"
    },
    {
      "inputs": [
        {
          "internalType": "uint256",
          "name": "_rewardId",
          "type": "uint256"
        }
      ],
      "name": "lastTimeRewardApplicable",
      "outputs": [
        {
          "internalType": "uint256",
          "name": "",
          "type": "uint256"
        }
      ],
      "stateMutability": "view",
      "type": "function"
    },
    {
      "inputs": [],
      "name": "lockDuration",
      "outputs": [
        {
          "internalType": "uint256",
          "name": "",
          "type": "uint256"
        }
      ],
      "stateMutability": "view",
      "type": "function"
    },
    {
      "inputs": [
        {
          "internalType": "address",
          "name": "user",
          "type": "address"
        }
      ],
      "name": "lockedBalances",
      "outputs": [
        {
          "internalType": "uint256",
          "name": "total",
          "type": "uint256"
        },
        {
          "internalType": "uint256",
          "name": "unlockable",
          "type": "uint256"
        },
        {
          "internalType": "uint256",
          "name": "locked",
          "type": "uint256"
        },
        {
          "components": [
            {
              "internalType": "uint256",
              "name": "amount",
              "type": "uint256"
            },
            {
              "internalType": "uint256",
              "name": "unlockTime",
              "type": "uint256"
            }
          ],
          "internalType": "struct RubyStaker.LockedBalance[]",
          "name": "lockData",
          "type": "tuple[]"
        }
      ],
      "stateMutability": "view",
      "type": "function"
    },
    {
      "inputs": [],
      "name": "lockedSupply",
      "outputs": [
        {
          "internalType": "uint256",
          "name": "",
          "type": "uint256"
        }
      ],
      "stateMutability": "view",
      "type": "function"
    },
    {
      "inputs": [],
      "name": "maxNumRewards",
      "outputs": [
        {
          "internalType": "uint256",
          "name": "",
          "type": "uint256"
        }
      ],
      "stateMutability": "view",
      "type": "function"
    },
    {
      "inputs": [
        {
          "internalType": "address",
          "name": "user",
          "type": "address"
        },
        {
          "internalType": "uint256",
          "name": "amount",
          "type": "uint256"
        }
      ],
      "name": "mint",
      "outputs": [],
      "stateMutability": "nonpayable",
      "type": "function"
    },
    {
      "inputs": [
        {
          "internalType": "uint256",
          "name": "rewardId",
          "type": "uint256"
        },
        {
          "internalType": "uint256",
          "name": "reward",
          "type": "uint256"
        }
      ],
      "name": "notifyRewardAmount",
      "outputs": [],
      "stateMutability": "nonpayable",
      "type": "function"
    },
    {
      "inputs": [],
      "name": "numRewards",
      "outputs": [
        {
          "internalType": "uint256",
          "name": "",
          "type": "uint256"
        }
      ],
      "stateMutability": "view",
      "type": "function"
    },
    {
      "inputs": [],
      "name": "owner",
      "outputs": [
        {
          "internalType": "address",
          "name": "",
          "type": "address"
        }
      ],
      "stateMutability": "view",
      "type": "function"
    },
    {
      "inputs": [
        {
          "internalType": "address",
          "name": "tokenAddress",
          "type": "address"
        },
        {
          "internalType": "uint256",
          "name": "tokenAmount",
          "type": "uint256"
        }
      ],
      "name": "recoverERC20",
      "outputs": [],
      "stateMutability": "nonpayable",
      "type": "function"
    },
    {
      "inputs": [
        {
          "internalType": "address",
          "name": "",
          "type": "address"
        }
      ],
      "name": "registeredRewardTokens",
      "outputs": [
        {
          "internalType": "bool",
          "name": "",
          "type": "bool"
        }
      ],
      "stateMutability": "view",
      "type": "function"
    },
    {
      "inputs": [],
      "name": "renounceOwnership",
      "outputs": [],
      "stateMutability": "nonpayable",
      "type": "function"
    },
    {
      "inputs": [
        {
          "internalType": "uint256",
          "name": "",
          "type": "uint256"
        }
      ],
      "name": "rewardData",
      "outputs": [
        {
          "internalType": "address",
          "name": "rewardToken",
          "type": "address"
        },
        {
          "internalType": "uint256",
          "name": "periodFinish",
          "type": "uint256"
        },
        {
          "internalType": "uint256",
          "name": "rewardRate",
          "type": "uint256"
        },
        {
          "internalType": "uint256",
          "name": "lastUpdateTime",
          "type": "uint256"
        },
        {
          "internalType": "uint256",
          "name": "rewardPerTokenStored",
          "type": "uint256"
        }
      ],
      "stateMutability": "view",
      "type": "function"
    },
    {
      "inputs": [
        {
          "internalType": "uint256",
          "name": "",
          "type": "uint256"
        },
        {
          "internalType": "address",
          "name": "",
          "type": "address"
        }
      ],
      "name": "rewardDistributors",
      "outputs": [
        {
          "internalType": "bool",
          "name": "",
          "type": "bool"
        }
      ],
      "stateMutability": "view",
      "type": "function"
    },
    {
      "inputs": [],
      "name": "rewardMinter",
      "outputs": [
        {
          "internalType": "address",
          "name": "",
          "type": "address"
        }
      ],
      "stateMutability": "view",
      "type": "function"
    },
    {
      "inputs": [
        {
          "internalType": "uint256",
          "name": "_rewardId",
          "type": "uint256"
        }
      ],
      "name": "rewardPerToken",
      "outputs": [
        {
          "internalType": "uint256",
          "name": "",
          "type": "uint256"
        }
      ],
      "stateMutability": "view",
      "type": "function"
    },
    {
      "inputs": [
        {
          "internalType": "address",
          "name": "",
          "type": "address"
        },
        {
          "internalType": "uint256",
          "name": "",
          "type": "uint256"
        }
      ],
      "name": "rewards",
      "outputs": [
        {
          "internalType": "uint256",
          "name": "",
          "type": "uint256"
        }
      ],
      "stateMutability": "view",
      "type": "function"
    },
    {
      "inputs": [],
      "name": "rewardsDuration",
      "outputs": [
        {
          "internalType": "uint256",
          "name": "",
          "type": "uint256"
        }
      ],
      "stateMutability": "view",
      "type": "function"
    },
    {
      "inputs": [],
      "name": "rubyToken",
      "outputs": [
        {
          "internalType": "contract IERC20",
          "name": "",
          "type": "address"
        }
      ],
      "stateMutability": "view",
      "type": "function"
    },
    {
      "inputs": [
        {
          "internalType": "address",
          "name": "_rewardMinter",
          "type": "address"
        }
      ],
      "name": "setRewardMinter",
      "outputs": [],
      "stateMutability": "nonpayable",
      "type": "function"
    },
    {
      "inputs": [
        {
          "internalType": "uint256",
          "name": "amount",
          "type": "uint256"
        },
        {
          "internalType": "bool",
          "name": "lock",
          "type": "bool"
        }
      ],
      "name": "stake",
      "outputs": [],
      "stateMutability": "nonpayable",
      "type": "function"
    },
    {
      "inputs": [
        {
          "internalType": "address",
          "name": "user",
          "type": "address"
        }
      ],
      "name": "totalBalance",
      "outputs": [
        {
          "internalType": "uint256",
          "name": "amount",
          "type": "uint256"
        }
      ],
      "stateMutability": "view",
      "type": "function"
    },
    {
      "inputs": [],
      "name": "totalSupply",
      "outputs": [
        {
          "internalType": "uint256",
          "name": "",
          "type": "uint256"
        }
      ],
      "stateMutability": "view",
      "type": "function"
    },
    {
      "inputs": [
        {
          "internalType": "address",
          "name": "newOwner",
          "type": "address"
        }
      ],
      "name": "transferOwnership",
      "outputs": [],
      "stateMutability": "nonpayable",
      "type": "function"
    },
    {
      "inputs": [
        {
          "internalType": "address",
          "name": "user",
          "type": "address"
        }
      ],
      "name": "unlockedBalance",
      "outputs": [
        {
          "internalType": "uint256",
          "name": "amount",
          "type": "uint256"
        }
      ],
      "stateMutability": "view",
      "type": "function"
    },
    {
      "inputs": [
        {
          "internalType": "address",
          "name": "",
          "type": "address"
        },
        {
          "internalType": "uint256",
          "name": "",
          "type": "uint256"
        }
      ],
      "name": "userRewardPerTokenPaid",
      "outputs": [
        {
          "internalType": "uint256",
          "name": "",
          "type": "uint256"
        }
      ],
      "stateMutability": "view",
      "type": "function"
    },
    {
      "inputs": [
        {
          "internalType": "uint256",
          "name": "amount",
          "type": "uint256"
        }
      ],
      "name": "withdraw",
      "outputs": [],
      "stateMutability": "nonpayable",
      "type": "function"
    },
    {
      "inputs": [],
      "name": "withdrawExpiredLocks",
      "outputs": [],
      "stateMutability": "nonpayable",
      "type": "function"
    },
    {
      "inputs": [
        {
          "internalType": "address",
          "name": "user",
          "type": "address"
        }
      ],
      "name": "withdrawableBalance",
      "outputs": [
        {
          "internalType": "uint256",
          "name": "amount",
          "type": "uint256"
        },
        {
          "internalType": "uint256",
          "name": "penaltyAmount",
          "type": "uint256"
        }
      ],
      "stateMutability": "view",
      "type": "function"
    }
  ],
  "transactionHash": "0x95863e906921ea4a9e245907d4fee21f31f506edbfddec359c08fba9ab5c9ef3",
  "args": [],
  "numDeployments": 1,
  "solcInputHash": "8ca980d51c658bcb6e0b1d5c9f9ee0b7",
  "bytecode": "0x608060405234801561001057600080fd5b50613aaf806100206000396000f3fe608060405234801561001057600080fd5b50600436106102275760003560e01c80636bc9b56111610130578063a7a0b84a116100b8578063df3798761161007c578063df37987614610481578063e9fad8ee146104a2578063eeca1562146104aa578063ef6635da146104bd578063f2fde38b146104c557610227565b8063a7a0b84a14610420578063abe50f1914610433578063b933ceac14610446578063ca5c7b9114610459578063dc01f60d1461046157610227565b8063874c120b116100ff578063874c120b146103e25780638980f11f146103f55780638da5cb5b146104085780639b8e556314610410578063a01c77bc1461041857610227565b80636bc9b561146103ac5780636eacd398146103bf578063715018a6146103d25780637d0d53ea146103da57610227565b8063386a9525116101b357806340b47e1a1161018257806340b47e1a1461034b57806340c10f191461035e5780635e0fac2e14610371578063620db60914610384578063665c545b1461039957610227565b8063386a9525146103045780633c079e281461030c5780633d18b9121461031f5780633e3cc2391461032757610227565b80630e213a3d116101fa5780630e213a3d146102ae5780631794bb3c146102c157806318160ddd146102d6578063246132f9146102de5780632e1a7d4d146102f157610227565b806302b629381461022c57806304554443146102565780630483a7f61461026b578063090b16111461028e575b600080fd5b61023f61023a366004612f20565b6104d8565b60405161024d9291906139ad565b60405180910390f35b61025e610617565b60405161024d919061398b565b61027e610279366004612f20565b61061e565b60405161024d94939291906139bb565b6102a161029c366004612f20565b6107ac565b60405161024d91906131f8565b61025e6102bc366004612ff5565b6107c1565b6102d46102cf366004612f6f565b6107e6565b005b61025e610923565b6102d46102ec36600461309f565b610929565b6102d46102ff366004612ff5565b610b83565b61025e61100b565b6102a161031a36600461300d565b611012565b6102d4611032565b61033a610335366004612ff5565b6112c0565b60405161024d959493929190613172565b6102d4610359366004612f3b565b6112f9565b6102d461036c366004612faf565b61143c565b61025e61037f366004612f20565b61178a565b61038c61181e565b60405161024d9190613121565b6102d46103a7366004613030565b61182d565b61025e6103ba366004612faf565b611937565b61025e6103cd366004612f20565b611954565b6102d461196f565b61025e6119f8565b61025e6103f0366004612ff5565b6119fe565b6102d4610403366004612faf565b611a26565b61038c611b25565b61038c611b34565b6102d4611b43565b6102d461042e366004612f20565b611cc4565b6102d4610441366004613070565b611d79565b61025e610454366004612faf565b61213b565b61025e612158565b61047461046f366004612f20565b61215e565b60405161024d91906131a0565b61049461048f366004612f20565b612296565b60405161024d929190613994565b6102d46123ba565b61025e6104b8366004612ff5565b612601565b61025e61261e565b6102d46104d3366004612f20565b612624565b6001600160a01b038116600090815260a2602052604081206003810154829190156105ea576001600160a01b038416600090815260a46020526040812054815b818110156105c2576001600160a01b038716600090815260a46020526040812080548390811061054457fe5b9060005260206000209060020201600001549050806000141561056757506105ba565b6001600160a01b038816600090815260a46020526040902080544291908490811061058e57fe5b90600052602060002090600202016001015411156105ac57506105c2565b6105b684826126e5565b9350505b600101610518565b506105e560026105df84866003015461270a90919063ffffffff16565b90612732565b935050505b61060f82610609836003015484600101546126e590919063ffffffff16565b9061270a565b925050915091565b6277f88081565b6001600160a01b038116600090815260a3602052604081208190819060609082805b8254811015610784574283828154811061065657fe5b906000526020600020906002020160010154111561075257816106cc57825481900367ffffffffffffffff8111801561068e57600080fd5b506040519080825280602002602001820160405280156106c857816020015b6106b5612e98565b8152602001906001900390816106ad5790505b5093505b8281815481106106d857fe5b90600052602060002090600202016040518060400160405290816000820154815260200160018201548152505084838151811061071157fe5b6020026020010181905250818060010192505061074b83828154811061073357fe5b600091825260209091206002909102015486906126e5565b945061077c565b61077983828154811061076157fe5b600091825260209091206002909102015487906126e5565b95505b600101610640565b5050506001600160a01b038516600090815260a2602052604090206002015493509193509193565b609a6020526000908152604090205460ff1681565b6000818152609d60205260408120600201546107e09062093a80612764565b92915050565b600054610100900460ff16806107ff57506107ff61279e565b8061080d575060005460ff16155b6108325760405162461bcd60e51b815260040161082990613608565b60405180910390fd5b600054610100900460ff1615801561085d576000805460ff1961ff0019909116610100171660011790555b6001600160a01b0383166108835760405162461bcd60e51b8152600401610829906132bc565b600a8211156108a45760405162461bcd60e51b8152600401610829906137e0565b6108ac6127af565b6108b4612842565b6108bd84612624565b609780546001600160a01b0385166001600160a01b03199182168117909255609c80546000908152609d60205260409020805490921690921781554260039091015580546001019055609b829055801561091d576000805461ff00191690555b50505050565b60a05481565b6000828152609960209081526040808320338452909152902054829060ff166109645760405162461bcd60e51b81526004016108299061392e565b60a154600090819061097682826128b8565b6000808052609d602052600080516020613a3a8339815191529190915561099c90612601565b60008052609d602052600080516020613a5a833981519152556001600160a01b03831615610a43576001600160a01b038316600090815260a260205260408120600201546109ec9185918461292f565b6001600160a01b0384166000818152609f60209081526040808320838052825280832094909455600080516020613a3a83398151915254838352609e825284832083805282528483205591815260a2909152205491505b5060a05460015b609c548111610af457610a5d81836128b8565b6000828152609d6020526040902060040155610a7881612601565b6000828152609d60205260409020600301556001600160a01b03841615610aec57610aa58482858561292f565b6001600160a01b0385166000818152609f60209081526040808320868452825280832094909455609d815283822060040154928252609e8152838220858352905291909120555b600101610a4a565b5060008511610b155760405162461bcd60e51b815260040161082990613729565b6000868152609d60205260409020546001600160a01b0316610b398133308961299c565b610b4387876129f4565b7fde88a922e0d3b88b24e9623efeb464919c6bf9f66857a65e2bfcf2ce87a9433d86604051610b72919061398b565b60405180910390a150505050505050565b60026065541415610ba65760405162461bcd60e51b8152600401610829906138af565b600260655560a1543390600090610bbd82826128b8565b6000808052609d602052600080516020613a3a83398151915291909155610be390612601565b60008052609d602052600080516020613a5a833981519152556001600160a01b03831615610c8a576001600160a01b038316600090815260a26020526040812060020154610c339185918461292f565b6001600160a01b0384166000818152609f60209081526040808320838052825280832094909455600080516020613a3a83398151915254838352609e825284832083805282528483205591815260a2909152205491505b5060a05460015b609c548111610d3b57610ca481836128b8565b6000828152609d6020526040902060040155610cbf81612601565b6000828152609d60205260409020600301556001600160a01b03841615610d3357610cec8482858561292f565b6001600160a01b0385166000818152609f60209081526040808320868452825280832094909455609d815283822060040154928252609e8152838220858352905291909120555b600101610c91565b5060008411610d5c5760405162461bcd60e51b815260040161082990613278565b33600090815260a26020526040812060018101549091908611610d92576001820154610d88908761270a565b6001830155610f67565b6000610dab83600101548861270a90919063ffffffff16565b90508083600301541015610dd15760405162461bcd60e51b8152600401610829906135bf565b600060018401556003830154610de7908261270a565b600384015560005b33600090815260a460205260408120805483908110610e0a57fe5b90600052602060002090600202016000015490508060001415610e2d5750610f5c565b83158015610e68575033600090815260a460205260409020805442919084908110610e5457fe5b906000526020600020906002020160010154115b15610eda578293508285600301541015610e945760405162461bcd60e51b815260040161082990613404565b6003850154610ea3908461270a565b60038601819055610ecc5733600090815260a460205260408120610ec691612eb2565b50610f64565b610ed7836002612764565b92505b808311610f1d57610eeb818461270a565b33600090815260a460205260409020805484908110610f0657fe5b600091825260209091206002909102015550610f64565b33600090815260a460205260409020805483908110610f3857fe5b60009182526020822060029091020181815560010155610f58838261270a565b9250505b600101610def565b50505b6000610f7387836126e5565b8354909150610f82908261270a565b835560a054610f91908261270a565b60a055609754610fab906001600160a01b03163389612ad2565b8115610fbc57610fbc6000836129f4565b336001600160a01b03167f7fcf532c15f0a6db0bd6d0e038bea71d30d808c7d98cb3bf7268a95bf5081b6588604051610ff5919061398b565b60405180910390a2505060016065555050505050565b62093a8081565b609960209081526000928352604080842090915290825290205460ff1681565b600260655414156110555760405162461bcd60e51b8152600401610829906138af565b600260655560a154339060009061106c82826128b8565b6000808052609d602052600080516020613a3a8339815191529190915561109290612601565b60008052609d602052600080516020613a5a833981519152556001600160a01b03831615611139576001600160a01b038316600090815260a260205260408120600201546110e29185918461292f565b6001600160a01b0384166000818152609f60209081526040808320838052825280832094909455600080516020613a3a83398151915254838352609e825284832083805282528483205591815260a2909152205491505b5060a05460015b609c5481116111ea5761115381836128b8565b6000828152609d602052604090206004015561116e81612601565b6000828152609d60205260409020600301556001600160a01b038416156111e25761119b8482858561292f565b6001600160a01b0385166000818152609f60209081526040808320868452825280832094909455609d815283822060040154928252609e8152838220858352905291909120555b600101611140565b5060005b609c5481116112b5576000818152609d6020908152604080832054338452609f8352818420858552909252909120546001600160a01b039091169080156112ab57336000818152609f6020908152604080832087845290915281205561125f906001600160a01b0384169083612ad2565b816001600160a01b0316336001600160a01b03167f540798df468d7b23d11f156fdb954cb19ad414d150722a7b6d55ba369dea792e836040516112a2919061398b565b60405180910390a35b50506001016111ee565b505060016065555050565b609d60205260009081526040902080546001820154600283015460038401546004909401546001600160a01b0390931693919290919085565b611301612af6565b6001600160a01b0316611312611b25565b6001600160a01b0316146113385760405162461bcd60e51b8152600401610829906136f4565b6001600160a01b0382166000908152609a602052604090205460ff16156113715760405162461bcd60e51b815260040161082990613498565b609b54609c5411156113955760405162461bcd60e51b815260040161082990613562565b6001600160a01b038281166000818152609a602090815260408083208054600160ff199182168117909255609c8054808752609d865284872042600382018190558186015580546001600160a01b0319168917905560998652848720988a1680885298909552838620805490921683179091558054909101905551909392917f404846f3ec1aee6b703b7f9e49bfd8853de4a93edae98f2acf13e83891694bd191a3505050565b6098546001600160a01b031633146114665760405162461bcd60e51b815260040161082990613656565b60a154829060009061147882826128b8565b6000808052609d602052600080516020613a3a8339815191529190915561149e90612601565b60008052609d602052600080516020613a5a833981519152556001600160a01b03831615611545576001600160a01b038316600090815260a260205260408120600201546114ee9185918461292f565b6001600160a01b0384166000818152609f60209081526040808320838052825280832094909455600080516020613a3a83398151915254838352609e825284832083805282528483205591815260a2909152205491505b5060a05460015b609c5481116115f65761155f81836128b8565b6000828152609d602052604090206004015561157a81612601565b6000828152609d60205260409020600301556001600160a01b038416156115ee576115a78482858561292f565b6001600160a01b0385166000818152609f60209081526040808320868452825280832094909455609d815283822060040154928252609e8152838220858352905291909120555b60010161154c565b5060a05461160490856126e5565b60a0556001600160a01b038516600090815260a260205260409020805461162b90866126e5565b8155600381015461163c90866126e5565b600382015560006116676277f88061166162093a8061165b4282612732565b90612764565b906126e5565b6001600160a01b038816600090815260a4602052604090208054919250908015806116b157508282600183038154811061169d57fe5b906000526020600020906002020160010154105b156116f357604080518082019091528881526020808201858152845460018181018755600087815293909320935160029091029093019283555191015561173e565b61171d8883600184038154811061170657fe5b6000918252602090912060029091020154906126e5565b82600183038154811061172c57fe5b60009182526020909120600290910201555b886001600160a01b03167f9e71bc8eea02a63969f509818f2dafb9254532904319f9dbda79b67bd34a5f3d89604051611777919061398b565b60405180910390a2505050505050505050565b6001600160a01b038116600090815260a2602090815260408083206001015460a4909252822090915b815481101561181757428282815481106117c957fe5b90600052602060002090600202016001015411156117e657611817565b61180d8282815481106117f557fe5b600091825260209091206002909102015484906126e5565b92506001016117b3565b5050919050565b6097546001600160a01b031681565b611835612af6565b6001600160a01b0316611846611b25565b6001600160a01b03161461186c5760405162461bcd60e51b8152600401610829906136f4565b6000831161188c5760405162461bcd60e51b8152600401610829906137a9565b6000838152609d60205260409020600301546118ba5760405162461bcd60e51b815260040161082990613370565b60008381526099602090815260408083206001600160a01b03868116808652918452828520805460ff1916871515179055878552609d909352928190205490519116907fd890240fb430b9ed4ff1d263f43a0a2922d16349b3d2d71015f86a3e1d3e88489061192a9085906131f8565b60405180910390a3505050565b609e60209081526000928352604080842090915290825290205481565b6001600160a01b0316600090815260a2602052604090205490565b611977612af6565b6001600160a01b0316611988611b25565b6001600160a01b0316146119ae5760405162461bcd60e51b8152600401610829906136f4565b6033546040516000916001600160a01b0316907f8be0079c531659141344cd1fd0a4f28419497f9722a3daafe3b4186f6b6457e0908390a3603380546001600160a01b0319169055565b609c5481565b6000808215611a0f5760a054611a13565b60a1545b9050611a1f83826128b8565b9392505050565b611a2e612af6565b6001600160a01b0316611a3f611b25565b6001600160a01b031614611a655760405162461bcd60e51b8152600401610829906136f4565b6097546001600160a01b0383811691161415611a935760405162461bcd60e51b815260040161082990613760565b6001600160a01b0382166000908152609a602052604090205460ff1615611acc5760405162461bcd60e51b8152600401610829906138e6565b611ae8611ad7611b25565b6001600160a01b0384169083612ad2565b7f8c1256b8896378cd5044f80c202f9772b9d77dc85c8a6eb51967210b09bfaa288282604051611b19929190613159565b60405180910390a15050565b6033546001600160a01b031690565b6098546001600160a01b031681565b33600090815260a36020908152604080832060a2909252822081549192909142846000198301838110611b7257fe5b90600052602060002090600202016001015411611baf57600283015433600090815260a360205260408120919350611baa9190612eb2565b611c24565b60005b81811015611c225742858281548110611bc757fe5b9060005260206000209060020201600101541115611be457611c22565b611bf38582815481106117f557fe5b9250848181548110611c0157fe5b60009182526020822060029091020181815560019081019190915501611bb2565b505b6002830154611c33908361270a565b60028401558254611c44908361270a565b835560a054611c53908361270a565b60a05560a154611c63908361270a565b60a155609754611c7d906001600160a01b03163384612ad2565b336001600160a01b03167f9d1e9c3047225903b4713486d5a2f267dcd41d8b979056b275dd20330107c54583604051611cb6919061398b565b60405180910390a250505050565b611ccc612af6565b6001600160a01b0316611cdd611b25565b6001600160a01b031614611d035760405162461bcd60e51b8152600401610829906136f4565b6001600160a01b038116611d295760405162461bcd60e51b8152600401610829906134e5565b609880546001600160a01b0319166001600160a01b0383811691909117918290556040519116907f2ad2d6dc5545aec43acc94f1b5c82f80a64f6c7ffae5eb863a8b3d02d1bf973e90600090a250565b60026065541415611d9c5760405162461bcd60e51b8152600401610829906138af565b600260655560a1543390600090611db382826128b8565b6000808052609d602052600080516020613a3a83398151915291909155611dd990612601565b60008052609d602052600080516020613a5a833981519152556001600160a01b03831615611e80576001600160a01b038316600090815260a26020526040812060020154611e299185918461292f565b6001600160a01b0384166000818152609f60209081526040808320838052825280832094909455600080516020613a3a83398151915254838352609e825284832083805282528483205591815260a2909152205491505b5060a05460015b609c548111611f3157611e9a81836128b8565b6000828152609d6020526040902060040155611eb581612601565b6000828152609d60205260409020600301556001600160a01b03841615611f2957611ee28482858561292f565b6001600160a01b0385166000818152609f60209081526040808320868452825280832094909455609d815283822060040154928252609e8152838220858352905291909120555b600101611e87565b5060008511611f525760405162461bcd60e51b815260040161082990613236565b60a054611f5f90866126e5565b60a05533600090815260a2602052604090208054611f7d90876126e5565b815584156120c05760a154611f9290876126e5565b60a1556002810154611fa490876126e5565b60028201556000611fc36277f88061166162093a8061165b4282612732565b33600090815260a36020526040902054909150801580612014575033600090815260a3602052604090208054839190600019840190811061200057fe5b906000526020600020906002020160010154105b156120635733600090815260a36020908152604080832081518083019092528b8252818301868152815460018181018455928652939094209151600290930290910191825591519101556120b9565b33600090815260a3602052604090208054612088918a91600019850190811061170657fe5b33600090815260a360205260409020805460001984019081106120a757fe5b60009182526020909120600290910201555b50506120d5565b60018101546120cf90876126e5565b60018201555b6097546120ed906001600160a01b031633308961299c565b336001600160a01b03167f9e71bc8eea02a63969f509818f2dafb9254532904319f9dbda79b67bd34a5f3d87604051612126919061398b565b60405180910390a25050600160655550505050565b609f60209081526000928352604080842090915290825290205481565b60a15481565b6060609c5460010167ffffffffffffffff8111801561217c57600080fd5b506040519080825280602002602001820160405280156121b657816020015b6121a3612ed3565b81526020019060019003908161219b5790505b50905060005b609c54811161229057600081156121eb576001600160a01b038416600090815260a26020526040902054612208565b6001600160a01b038416600090815260a260205260409020600201545b90506000821561221a5760a05461221e565b60a1545b6000848152609d602052604090205485519192506001600160a01b03169085908590811061224857fe5b60209081029190910101516001600160a01b03909116905261226c8584848461292f565b84848151811061227857fe5b602090810291909101810151015250506001016121bc565b50919050565b6001600160a01b038116600090815260a46020526040812060609082805b82548110156123b257428382815481106122ca57fe5b90600052602060002090600202016001015411156123aa578161234057825481900367ffffffffffffffff8111801561230257600080fd5b5060405190808252806020026020018201604052801561233c57816020015b612329612e98565b8152602001906001900390816123215790505b5093505b82818154811061234c57fe5b90600052602060002090600202016040518060400160405290816000820154815260200160018201548152505084838151811061238557fe5b602002602001018190525081806001019250506123a783828154811061073357fe5b94505b6001016122b4565b505050915091565b60a15433906000906123cc82826128b8565b6000808052609d602052600080516020613a3a833981519152919091556123f290612601565b60008052609d602052600080516020613a5a833981519152556001600160a01b03831615612499576001600160a01b038316600090815260a260205260408120600201546124429185918461292f565b6001600160a01b0384166000818152609f60209081526040808320838052825280832094909455600080516020613a3a83398151915254838352609e825284832083805282528483205591815260a2909152205491505b5060a05460015b609c54811161254a576124b381836128b8565b6000828152609d60205260409020600401556124ce81612601565b6000828152609d60205260409020600301556001600160a01b03841615612542576124fb8482858561292f565b6001600160a01b0385166000818152609f60209081526040808320868452825280832094909455609d815283822060040154928252609e8152838220858352905291909120555b6001016124a0565b50600080612557336104d8565b33600090815260a4602052604081209294509092506125769190612eb2565b33600090815260a2602052604090206003810154600182015482546125a09291610609919061270a565b815560006001820181905560038201556125c66125bd84846126e5565b60a0549061270a565b60a0556097546125e0906001600160a01b03163385612ad2565b81156125f1576125f16000836129f4565b6125f9611032565b505050505050565b6000818152609d60205260408120600101546107e0904290612afa565b609b5481565b61262c612af6565b6001600160a01b031661263d611b25565b6001600160a01b0316146126635760405162461bcd60e51b8152600401610829906136f4565b6001600160a01b0381166126895760405162461bcd60e51b8152600401610829906132f3565b6033546040516001600160a01b038084169216907f8be0079c531659141344cd1fd0a4f28419497f9722a3daafe3b4186f6b6457e090600090a3603380546001600160a01b0319166001600160a01b0392909216919091179055565b600082820183811015611a1f5760405162461bcd60e51b815260040161082990613339565b60008282111561272c5760405162461bcd60e51b8152600401610829906133cd565b50900390565b60008082116127535760405162461bcd60e51b81526004016108299061352b565b81838161275c57fe5b049392505050565b600082612773575060006107e0565b8282028284828161278057fe5b0414611a1f5760405162461bcd60e51b8152600401610829906136b3565b60006127a930612b10565b15905090565b600054610100900460ff16806127c857506127c861279e565b806127d6575060005460ff16155b6127f25760405162461bcd60e51b815260040161082990613608565b600054610100900460ff1615801561281d576000805460ff1961ff0019909116610100171660011790555b612825612b16565b61282d612b97565b801561283f576000805461ff00191690555b50565b600054610100900460ff168061285b575061285b61279e565b80612869575060005460ff16155b6128855760405162461bcd60e51b815260040161082990613608565b600054610100900460ff161580156128b0576000805460ff1961ff0019909116610100171660011790555b61282d612c71565b6000816128d757506000828152609d60205260409020600401546107e0565b6000838152609d602052604090206002810154600390910154611a1f916129179185916105df91670de0b6b3a76400009161165b9182906106098c612601565b6000858152609d6020526040902060040154906126e5565b6001600160a01b0384166000818152609f60209081526040808320878452825280832054938352609e825280832087845290915281205490916129939161166190670de0b6b3a7640000906105df9061298c906106098b8a6128b8565b8890612764565b95945050505050565b61091d846323b872dd60e01b8585856040516024016129bd93929190613135565b60408051601f198184030181529190526020810180516001600160e01b03166001600160e01b031990931692909217909152612cf8565b6000828152609d60205260409020600101544210612a3057612a198162093a80612732565b6000838152609d6020526040902060020155612a95565b6000828152609d6020526040812060010154612a4c904261270a565b6000848152609d602052604081206002015491925090612a6d908390612764565b9050612a8062093a806105df85846126e5565b6000858152609d602052604090206002015550505b6000828152609d60205260409020426003909101819055612ab99062093a806126e5565b6000928352609d60205260409092206001019190915550565b612af18363a9059cbb60e01b84846040516024016129bd929190613159565b505050565b3390565b6000818310612b095781611a1f565b5090919050565b3b151590565b600054610100900460ff1680612b2f5750612b2f61279e565b80612b3d575060005460ff16155b612b595760405162461bcd60e51b815260040161082990613608565b600054610100900460ff1615801561282d576000805460ff1961ff001990911661010017166001179055801561283f576000805461ff001916905550565b600054610100900460ff1680612bb05750612bb061279e565b80612bbe575060005460ff16155b612bda5760405162461bcd60e51b815260040161082990613608565b600054610100900460ff16158015612c05576000805460ff1961ff0019909116610100171660011790555b6000612c0f612af6565b603380546001600160a01b0319166001600160a01b038316908117909155604051919250906000907f8be0079c531659141344cd1fd0a4f28419497f9722a3daafe3b4186f6b6457e0908290a350801561283f576000805461ff001916905550565b600054610100900460ff1680612c8a5750612c8a61279e565b80612c98575060005460ff16155b612cb45760405162461bcd60e51b815260040161082990613608565b600054610100900460ff16158015612cdf576000805460ff1961ff0019909116610100171660011790555b6001606555801561283f576000805461ff001916905550565b6060612d4d826040518060400160405280602081526020017f5361666545524332303a206c6f772d6c6576656c2063616c6c206661696c6564815250856001600160a01b0316612d879092919063ffffffff16565b805190915015612af15780806020019051810190612d6b9190612fd9565b612af15760405162461bcd60e51b815260040161082990613865565b6060612d968484600085612d9e565b949350505050565b606082471015612dc05760405162461bcd60e51b815260040161082990613452565b612dc985612b10565b612de55760405162461bcd60e51b81526004016108299061382e565b60006060866001600160a01b03168587604051612e029190613105565b60006040518083038185875af1925050503d8060008114612e3f576040519150601f19603f3d011682016040523d82523d6000602084013e612e44565b606091505b5091509150612e54828286612e5f565b979650505050505050565b60608315612e6e575081611a1f565b825115612e7e5782518084602001fd5b8160405162461bcd60e51b81526004016108299190613203565b604051806040016040528060008152602001600081525090565b508054600082556002029060005260206000209081019061283f9190612eea565b604080518082019091526000808252602082015290565b5b80821115612f055760008082556001820155600201612eeb565b5090565b80356001600160a01b03811681146107e057600080fd5b600060208284031215612f31578081fd5b611a1f8383612f09565b60008060408385031215612f4d578081fd5b612f578484612f09565b9150612f668460208501612f09565b90509250929050565b600080600060608486031215612f83578081fd5b8335612f8e81613a16565b92506020840135612f9e81613a16565b929592945050506040919091013590565b60008060408385031215612fc1578182fd5b612fcb8484612f09565b946020939093013593505050565b600060208284031215612fea578081fd5b8151611a1f81613a2b565b600060208284031215613006578081fd5b5035919050565b6000806040838503121561301f578182fd5b82359150612f668460208501612f09565b600080600060608486031215613044578283fd5b833592506130558560208601612f09565b9150604084013561306581613a2b565b809150509250925092565b60008060408385031215613082578182fd5b82359150602083013561309481613a2b565b809150509250929050565b600080604083850312156130b1578182fd5b50508035926020909101359150565b6000815180845260208085019450808401835b838110156130fa5781518051885283015183880152604090960195908201906001016130d3565b509495945050505050565b600082516131178184602087016139ea565b9190910192915050565b6001600160a01b0391909116815260200190565b6001600160a01b039384168152919092166020820152604081019190915260600190565b6001600160a01b03929092168252602082015260400190565b6001600160a01b03959095168552602085019390935260408401919091526060830152608082015260a00190565b602080825282518282018190526000919060409081850190868401855b828110156131eb57815180516001600160a01b031685528601518685015292840192908501906001016131bd565b5091979650505050505050565b901515815260200190565b60006020825282518060208401526132228160408501602087016139ea565b601f01601f19169190910160400192915050565b60208082526022908201527f527562795374616b65723a20496e76616c6964207374616b696e6720616d6f756040820152611b9d60f21b606082015260800190565b60208082526024908201527f527562795374616b65723a20496e76616c696420776974686472617720616d6f6040820152633ab73a1760e11b606082015260800190565b6020808252601f908201527f527562795374616b65723a20496e76616c6964207275627920746f6b656e2e00604082015260600190565b60208082526026908201527f4f776e61626c653a206e6577206f776e657220697320746865207a65726f206160408201526564647265737360d01b606082015260800190565b6020808252601b908201527f536166654d6174683a206164646974696f6e206f766572666c6f770000000000604082015260600190565b60208082526037908201527f527562795374616b65723a20496e76616c69642072657761726420646973747260408201527f696275746f7220617070726f76616c2072657175657374000000000000000000606082015260800190565b6020808252601e908201527f536166654d6174683a207375627472616374696f6e206f766572666c6f770000604082015260600190565b6020808252602e908201527f527562795374616b65723a20496e73756666696369656e742062616c616e636560408201526d2061667465722070656e616c747960901b606082015260800190565b60208082526026908201527f416464726573733a20696e73756666696369656e742062616c616e636520666f6040820152651c8818d85b1b60d21b606082015260800190565b6020808252602d908201527f527562795374616b65723a205265776172647320746f6b656e20616c7265616460408201526c3c903932b3b4b9ba32b932b21760991b606082015260800190565b60208082526026908201527f527562795374616b65723a20496e76616c6964206e657720726577617264206d60408201526534b73a32b91760d11b606082015260800190565b6020808252601a908201527f536166654d6174683a206469766973696f6e206279207a65726f000000000000604082015260600190565b60208082526039908201527f527562795374616b65723a204d6178696d756d206e756d626572206f6620726560408201527f776172647320616c726561647920726567697374657265642e00000000000000606082015260800190565b60208082526029908201527f527562795374616b65723a20496e73756666696369656e7420756e6c6f636b65604082015268642062616c616e636560b81b606082015260800190565b6020808252602e908201527f496e697469616c697a61626c653a20636f6e747261637420697320616c72656160408201526d191e481a5b9a5d1a585b1a5e995960921b606082015260800190565b60208082526037908201527f527562795374616b65723a204f6e6c7920726577617264206d696e746572206360408201527f616e2065786563757465207468697320616374696f6e2e000000000000000000606082015260800190565b60208082526021908201527f536166654d6174683a206d756c7469706c69636174696f6e206f766572666c6f6040820152607760f81b606082015260800190565b6020808252818101527f4f776e61626c653a2063616c6c6572206973206e6f7420746865206f776e6572604082015260600190565b60208082526017908201527f527562795374616b696e673a204e6f207265776172642e000000000000000000604082015260600190565b60208082526029908201527f527562795374616b65723a2043616e6e6f74207769746864726177207374616b60408201526834b733903a37b5b2b760b91b606082015260800190565b6020808252601d908201527f527562795374616b65723a20496e76616c69642072657761726449642e000000604082015260600190565b6020808252602e908201527f527562795374616b65723a20496e76616c6964206d6178696d756d206e756d6260408201526d32b91037b3103932bbb0b932399760911b606082015260800190565b6020808252601d908201527f416464726573733a2063616c6c20746f206e6f6e2d636f6e7472616374000000604082015260600190565b6020808252602a908201527f5361666545524332303a204552433230206f7065726174696f6e20646964206e6040820152691bdd081cdd58d8d9595960b21b606082015260800190565b6020808252601f908201527f5265656e7472616e637947756172643a207265656e7472616e742063616c6c00604082015260600190565b60208082526028908201527f527562795374616b65723a2043616e6e6f7420776974686472617720726577616040820152673932103a37b5b2b760c11b606082015260800190565b6020808252603c908201527f527562795374616b65723a204f6e6c792072657761726420646973747269627560408201527f746f722063616e2065786563757465207468697320616374696f6e2e00000000606082015260800190565b90815260200190565b600083825260406020830152612d9660408301846130c0565b918252602082015260400190565b6000858252846020830152836040830152608060608301526139e060808301846130c0565b9695505050505050565b60005b83811015613a055781810151838201526020016139ed565b8381111561091d5750506000910152565b6001600160a01b038116811461283f57600080fd5b801515811461283f57600080fdfec5dc36ae4e7617e4c4d23ddfcde33c79e9ed64c300aed766a9288a6b9b31f641c5dc36ae4e7617e4c4d23ddfcde33c79e9ed64c300aed766a9288a6b9b31f640a264697066735822122065695adcebb9b64050db4a0fba0f7225231a2255260bacfb52f754d25739d6e164736f6c634300060c0033",
  "devdoc": {
    "kind": "dev",
    "methods": {
      "owner()": {
        "details": "Returns the address of the current owner."
      },
      "renounceOwnership()": {
        "details": "Leaves the contract without owner. It will not be possible to call `onlyOwner` functions anymore. Can only be called by the current owner. NOTE: Renouncing ownership will leave the contract without an owner, thereby removing any functionality that is only available to the owner."
      },
      "transferOwnership(address)": {
        "details": "Transfers ownership of the contract to a new account (`newOwner`). Can only be called by the current owner."
      }
    },
    "version": 1
  },
  "userdoc": {
    "kind": "user",
    "methods": {},
    "version": 1
  },
  "storageLayout": {
    "storage": [
      {
        "astId": 705,
        "contract": "contracts/RubyStaker.sol:RubyStaker",
        "label": "_initialized",
        "offset": 0,
        "slot": "0",
        "type": "t_bool"
      },
      {
        "astId": 708,
        "contract": "contracts/RubyStaker.sol:RubyStaker",
        "label": "_initializing",
        "offset": 1,
        "slot": "0",
        "type": "t_bool"
      },
      {
        "astId": 2910,
        "contract": "contracts/RubyStaker.sol:RubyStaker",
        "label": "__gap",
        "offset": 0,
        "slot": "1",
        "type": "t_array(t_uint256)50_storage"
      },
      {
        "astId": 136,
        "contract": "contracts/RubyStaker.sol:RubyStaker",
        "label": "_owner",
        "offset": 0,
        "slot": "51",
        "type": "t_address"
      },
      {
        "astId": 255,
        "contract": "contracts/RubyStaker.sol:RubyStaker",
        "label": "__gap",
        "offset": 0,
        "slot": "52",
        "type": "t_array(t_uint256)49_storage"
      },
      {
        "astId": 4090,
        "contract": "contracts/RubyStaker.sol:RubyStaker",
        "label": "_status",
        "offset": 0,
        "slot": "101",
        "type": "t_uint256"
      },
      {
        "astId": 4133,
        "contract": "contracts/RubyStaker.sol:RubyStaker",
        "label": "__gap",
        "offset": 0,
        "slot": "102",
        "type": "t_array(t_uint256)49_storage"
      },
      {
        "astId": 12154,
        "contract": "contracts/RubyStaker.sol:RubyStaker",
        "label": "rubyToken",
        "offset": 0,
        "slot": "151",
        "type": "t_contract(IERC20)6417"
      },
      {
        "astId": 12156,
        "contract": "contracts/RubyStaker.sol:RubyStaker",
        "label": "rewardMinter",
        "offset": 0,
        "slot": "152",
        "type": "t_address"
      },
      {
        "astId": 12162,
        "contract": "contracts/RubyStaker.sol:RubyStaker",
        "label": "rewardDistributors",
        "offset": 0,
        "slot": "153",
        "type": "t_mapping(t_uint256,t_mapping(t_address,t_bool))"
      },
      {
        "astId": 12166,
        "contract": "contracts/RubyStaker.sol:RubyStaker",
        "label": "registeredRewardTokens",
        "offset": 0,
        "slot": "154",
        "type": "t_mapping(t_address,t_bool)"
      },
      {
        "astId": 12168,
        "contract": "contracts/RubyStaker.sol:RubyStaker",
        "label": "maxNumRewards",
        "offset": 0,
        "slot": "155",
        "type": "t_uint256"
      },
      {
        "astId": 12170,
        "contract": "contracts/RubyStaker.sol:RubyStaker",
        "label": "numRewards",
        "offset": 0,
        "slot": "156",
        "type": "t_uint256"
      },
      {
        "astId": 12174,
        "contract": "contracts/RubyStaker.sol:RubyStaker",
        "label": "rewardData",
        "offset": 0,
        "slot": "157",
        "type": "t_mapping(t_uint256,t_struct(Reward)12133_storage)"
      },
      {
        "astId": 12190,
        "contract": "contracts/RubyStaker.sol:RubyStaker",
        "label": "userRewardPerTokenPaid",
        "offset": 0,
        "slot": "158",
        "type": "t_mapping(t_address,t_mapping(t_uint256,t_uint256))"
      },
      {
        "astId": 12196,
        "contract": "contracts/RubyStaker.sol:RubyStaker",
        "label": "rewards",
        "offset": 0,
        "slot": "159",
        "type": "t_mapping(t_address,t_mapping(t_uint256,t_uint256))"
      },
      {
        "astId": 12198,
        "contract": "contracts/RubyStaker.sol:RubyStaker",
        "label": "totalSupply",
        "offset": 0,
        "slot": "160",
        "type": "t_uint256"
      },
      {
        "astId": 12200,
        "contract": "contracts/RubyStaker.sol:RubyStaker",
        "label": "lockedSupply",
        "offset": 0,
        "slot": "161",
        "type": "t_uint256"
      },
      {
        "astId": 12204,
        "contract": "contracts/RubyStaker.sol:RubyStaker",
        "label": "balances",
        "offset": 0,
        "slot": "162",
        "type": "t_mapping(t_address,t_struct(Balances)12142_storage)"
      },
      {
        "astId": 12209,
        "contract": "contracts/RubyStaker.sol:RubyStaker",
        "label": "userLocks",
        "offset": 0,
        "slot": "163",
        "type": "t_mapping(t_address,t_array(t_struct(LockedBalance)12147_storage)dyn_storage)"
      },
      {
        "astId": 12214,
        "contract": "contracts/RubyStaker.sol:RubyStaker",
        "label": "userEarnings",
        "offset": 0,
        "slot": "164",
        "type": "t_mapping(t_address,t_array(t_struct(LockedBalance)12147_storage)dyn_storage)"
      }
    ],
    "types": {
      "t_address": {
        "encoding": "inplace",
        "label": "address",
        "numberOfBytes": "20"
      },
      "t_array(t_struct(LockedBalance)12147_storage)dyn_storage": {
        "base": "t_struct(LockedBalance)12147_storage",
        "encoding": "dynamic_array",
        "label": "struct RubyStaker.LockedBalance[]",
        "numberOfBytes": "32"
      },
      "t_array(t_uint256)49_storage": {
        "base": "t_uint256",
        "encoding": "inplace",
        "label": "uint256[49]",
        "numberOfBytes": "1568"
      },
      "t_array(t_uint256)50_storage": {
        "base": "t_uint256",
        "encoding": "inplace",
        "label": "uint256[50]",
        "numberOfBytes": "1600"
      },
      "t_bool": {
        "encoding": "inplace",
        "label": "bool",
        "numberOfBytes": "1"
      },
      "t_contract(IERC20)6417": {
        "encoding": "inplace",
        "label": "contract IERC20",
        "numberOfBytes": "20"
      },
      "t_mapping(t_address,t_array(t_struct(LockedBalance)12147_storage)dyn_storage)": {
        "encoding": "mapping",
        "key": "t_address",
        "label": "mapping(address => struct RubyStaker.LockedBalance[])",
        "numberOfBytes": "32",
        "value": "t_array(t_struct(LockedBalance)12147_storage)dyn_storage"
      },
      "t_mapping(t_address,t_bool)": {
        "encoding": "mapping",
        "key": "t_address",
        "label": "mapping(address => bool)",
        "numberOfBytes": "32",
        "value": "t_bool"
      },
      "t_mapping(t_address,t_mapping(t_uint256,t_uint256))": {
        "encoding": "mapping",
        "key": "t_address",
        "label": "mapping(address => mapping(uint256 => uint256))",
        "numberOfBytes": "32",
        "value": "t_mapping(t_uint256,t_uint256)"
      },
      "t_mapping(t_address,t_struct(Balances)12142_storage)": {
        "encoding": "mapping",
        "key": "t_address",
        "label": "mapping(address => struct RubyStaker.Balances)",
        "numberOfBytes": "32",
        "value": "t_struct(Balances)12142_storage"
      },
      "t_mapping(t_uint256,t_mapping(t_address,t_bool))": {
        "encoding": "mapping",
        "key": "t_uint256",
        "label": "mapping(uint256 => mapping(address => bool))",
        "numberOfBytes": "32",
        "value": "t_mapping(t_address,t_bool)"
      },
      "t_mapping(t_uint256,t_struct(Reward)12133_storage)": {
        "encoding": "mapping",
        "key": "t_uint256",
        "label": "mapping(uint256 => struct RubyStaker.Reward)",
        "numberOfBytes": "32",
        "value": "t_struct(Reward)12133_storage"
      },
      "t_mapping(t_uint256,t_uint256)": {
        "encoding": "mapping",
        "key": "t_uint256",
        "label": "mapping(uint256 => uint256)",
        "numberOfBytes": "32",
        "value": "t_uint256"
      },
      "t_struct(Balances)12142_storage": {
        "encoding": "inplace",
        "label": "struct RubyStaker.Balances",
        "members": [
          {
            "astId": 12135,
            "contract": "contracts/RubyStaker.sol:RubyStaker",
            "label": "total",
            "offset": 0,
            "slot": "0",
            "type": "t_uint256"
          },
          {
            "astId": 12137,
            "contract": "contracts/RubyStaker.sol:RubyStaker",
            "label": "unlocked",
            "offset": 0,
            "slot": "1",
            "type": "t_uint256"
          },
          {
            "astId": 12139,
            "contract": "contracts/RubyStaker.sol:RubyStaker",
            "label": "locked",
            "offset": 0,
            "slot": "2",
            "type": "t_uint256"
          },
          {
            "astId": 12141,
            "contract": "contracts/RubyStaker.sol:RubyStaker",
            "label": "earned",
            "offset": 0,
            "slot": "3",
            "type": "t_uint256"
          }
        ],
        "numberOfBytes": "128"
      },
      "t_struct(LockedBalance)12147_storage": {
        "encoding": "inplace",
        "label": "struct RubyStaker.LockedBalance",
        "members": [
          {
            "astId": 12144,
            "contract": "contracts/RubyStaker.sol:RubyStaker",
            "label": "amount",
            "offset": 0,
            "slot": "0",
            "type": "t_uint256"
          },
          {
            "astId": 12146,
            "contract": "contracts/RubyStaker.sol:RubyStaker",
            "label": "unlockTime",
            "offset": 0,
            "slot": "1",
            "type": "t_uint256"
          }
        ],
        "numberOfBytes": "64"
      },
      "t_struct(Reward)12133_storage": {
        "encoding": "inplace",
        "label": "struct RubyStaker.Reward",
        "members": [
          {
            "astId": 12124,
            "contract": "contracts/RubyStaker.sol:RubyStaker",
            "label": "rewardToken",
            "offset": 0,
            "slot": "0",
            "type": "t_address"
          },
          {
            "astId": 12126,
            "contract": "contracts/RubyStaker.sol:RubyStaker",
            "label": "periodFinish",
            "offset": 0,
            "slot": "1",
            "type": "t_uint256"
          },
          {
            "astId": 12128,
            "contract": "contracts/RubyStaker.sol:RubyStaker",
            "label": "rewardRate",
            "offset": 0,
            "slot": "2",
            "type": "t_uint256"
          },
          {
            "astId": 12130,
            "contract": "contracts/RubyStaker.sol:RubyStaker",
            "label": "lastUpdateTime",
            "offset": 0,
            "slot": "3",
            "type": "t_uint256"
          },
          {
            "astId": 12132,
            "contract": "contracts/RubyStaker.sol:RubyStaker",
            "label": "rewardPerTokenStored",
            "offset": 0,
            "slot": "4",
            "type": "t_uint256"
          }
        ],
        "numberOfBytes": "160"
      },
      "t_uint256": {
        "encoding": "inplace",
        "label": "uint256",
        "numberOfBytes": "32"
      }
    }
  }
}