{
  "address": "0x1497e9486A609cd241f057F7952b3BD9a2c8a149",
  "abi": [
    {
      "anonymous": false,
      "inputs": [
        {
          "indexed": false,
          "internalType": "address",
          "name": "newAmmRouter",
          "type": "address"
        }
      ],
      "name": "AmmRouterSet",
      "type": "event"
    },
    {
      "anonymous": false,
      "inputs": [
        {
          "indexed": false,
          "internalType": "uint256",
          "name": "maxSwapHops",
          "type": "uint256"
        }
      ],
      "name": "MaxHopsSet",
      "type": "event"
    },
    {
      "anonymous": false,
      "inputs": [
        {
          "indexed": false,
          "internalType": "address",
          "name": "newNftAdmin",
          "type": "address"
        }
      ],
      "name": "NftAdminSet",
      "type": "event"
    },
    {
      "anonymous": false,
      "inputs": [
        {
          "indexed": true,
          "internalType": "address",
          "name": "previousOwner",
          "type": "address"
        },
        {
          "indexed": true,
          "internalType": "address",
          "name": "newOwner",
          "type": "address"
        }
      ],
      "name": "OwnershipTransferred",
      "type": "event"
    },
    {
      "anonymous": false,
      "inputs": [
        {
          "indexed": false,
          "internalType": "address",
          "name": "stablePool",
          "type": "address"
        }
      ],
      "name": "StablePoolDisabled",
      "type": "event"
    },
    {
      "anonymous": false,
      "inputs": [
        {
          "indexed": false,
          "internalType": "address",
          "name": "stablePool",
          "type": "address"
        }
      ],
      "name": "StablePoolEnabled",
      "type": "event"
    },
    {
      "anonymous": false,
      "inputs": [
        {
          "indexed": true,
          "internalType": "address",
          "name": "sender",
          "type": "address"
        },
        {
          "indexed": false,
          "internalType": "uint256",
          "name": "amount0In",
          "type": "uint256"
        },
        {
          "indexed": false,
          "internalType": "uint256",
          "name": "amount1Out",
          "type": "uint256"
        },
        {
          "indexed": false,
          "internalType": "address",
          "name": "token0",
          "type": "address"
        },
        {
          "indexed": false,
          "internalType": "address",
          "name": "token1",
          "type": "address"
        },
        {
          "indexed": true,
          "internalType": "address",
          "name": "to",
          "type": "address"
        }
      ],
      "name": "Swap",
      "type": "event"
    },
    {
      "inputs": [],
      "name": "ammRouter",
      "outputs": [
        {
          "internalType": "contract IUniswapV2Router02",
          "name": "",
          "type": "address"
        }
      ],
      "stateMutability": "view",
      "type": "function"
    },
    {
      "inputs": [
        {
          "internalType": "contract ISwap",
          "name": "stablePool",
          "type": "address"
        }
      ],
      "name": "disableStablePool",
      "outputs": [],
      "stateMutability": "nonpayable",
      "type": "function"
    },
    {
      "inputs": [
        {
          "internalType": "contract ISwap",
          "name": "stablePool",
          "type": "address"
        }
      ],
      "name": "enableStablePool",
      "outputs": [],
      "stateMutability": "nonpayable",
      "type": "function"
    },
    {
      "inputs": [
        {
          "internalType": "contract ISwap",
          "name": "",
          "type": "address"
        }
      ],
      "name": "enabledStablePools",
      "outputs": [
        {
          "internalType": "bool",
          "name": "",
          "type": "bool"
        }
      ],
      "stateMutability": "view",
      "type": "function"
    },
    {
      "inputs": [
        {
          "internalType": "address",
          "name": "_owner",
          "type": "address"
        },
        {
          "internalType": "contract IUniswapV2Router02",
          "name": "_ammRouter",
          "type": "address"
        },
        {
          "internalType": "contract ISwap",
          "name": "_stablePool",
          "type": "address"
        },
        {
          "internalType": "contract IRubyNFTAdmin",
          "name": "_nftAdmin",
          "type": "address"
        },
        {
          "internalType": "uint256",
          "name": "maxSwapHops_",
          "type": "uint256"
        }
      ],
      "name": "initialize",
      "outputs": [],
      "stateMutability": "nonpayable",
      "type": "function"
    },
    {
      "inputs": [],
      "name": "nftAdmin",
      "outputs": [
        {
          "internalType": "contract IRubyNFTAdmin",
          "name": "",
          "type": "address"
        }
      ],
      "stateMutability": "view",
      "type": "function"
    },
    {
      "inputs": [],
      "name": "owner",
      "outputs": [
        {
          "internalType": "address",
          "name": "",
          "type": "address"
        }
      ],
      "stateMutability": "view",
      "type": "function"
    },
    {
      "inputs": [],
      "name": "renounceOwnership",
      "outputs": [],
      "stateMutability": "nonpayable",
      "type": "function"
    },
    {
      "inputs": [
        {
          "internalType": "contract IUniswapV2Router02",
          "name": "newAmmRouter",
          "type": "address"
        }
      ],
      "name": "setAmmRouter",
      "outputs": [],
      "stateMutability": "nonpayable",
      "type": "function"
    },
    {
      "inputs": [
        {
          "internalType": "uint256",
          "name": "maxSwapHops",
          "type": "uint256"
        }
      ],
      "name": "setMaxHops",
      "outputs": [],
      "stateMutability": "nonpayable",
      "type": "function"
    },
    {
      "inputs": [
        {
          "internalType": "contract IRubyNFTAdmin",
          "name": "newNftAdmin",
          "type": "address"
        }
      ],
      "name": "setNftAdmin",
      "outputs": [],
      "stateMutability": "nonpayable",
      "type": "function"
    },
    {
      "inputs": [
        {
          "components": [
            {
              "components": [
                {
                  "internalType": "enum AMMSwapType",
                  "name": "swapType",
                  "type": "uint8"
                },
                {
                  "internalType": "uint256",
                  "name": "amountIn",
                  "type": "uint256"
                },
                {
                  "internalType": "uint256",
                  "name": "amountOut",
                  "type": "uint256"
                },
                {
                  "internalType": "address[]",
                  "name": "path",
                  "type": "address[]"
                },
                {
                  "internalType": "address",
                  "name": "to",
                  "type": "address"
                },
                {
                  "internalType": "uint256",
                  "name": "deadline",
                  "type": "uint256"
                }
              ],
              "internalType": "struct AMMSwapDetails[]",
              "name": "ammSwaps",
              "type": "tuple[]"
            },
            {
              "components": [
                {
                  "internalType": "address",
                  "name": "stablePool",
                  "type": "address"
                },
                {
                  "internalType": "uint8",
                  "name": "tokenIndexFrom",
                  "type": "uint8"
                },
                {
                  "internalType": "uint8",
                  "name": "tokenIndexTo",
                  "type": "uint8"
                },
                {
                  "internalType": "uint256",
                  "name": "dx",
                  "type": "uint256"
                },
                {
                  "internalType": "uint256",
                  "name": "minDy",
                  "type": "uint256"
                },
                {
                  "internalType": "uint256",
                  "name": "deadline",
                  "type": "uint256"
                }
              ],
              "internalType": "struct StableSwapDetails[]",
              "name": "stableSwaps",
              "type": "tuple[]"
            },
            {
              "internalType": "enum SwapType[]",
              "name": "order",
              "type": "uint8[]"
            }
          ],
          "internalType": "struct SwapDetails",
          "name": "swapDetails",
          "type": "tuple"
        }
      ],
      "name": "swap",
      "outputs": [
        {
          "internalType": "uint256",
          "name": "outputAmount",
          "type": "uint256"
        }
      ],
      "stateMutability": "nonpayable",
      "type": "function"
    },
    {
      "inputs": [
        {
          "internalType": "address",
          "name": "newOwner",
          "type": "address"
        }
      ],
      "name": "transferOwnership",
      "outputs": [],
      "stateMutability": "nonpayable",
      "type": "function"
    }
  ],
  "transactionHash": "0xa9f4e5068d62165fbcdabac1d29c269bafd35e45813571762ca7d75421b201fb",
  "args": [],
  "numDeployments": 1,
  "solcInputHash": "8ca980d51c658bcb6e0b1d5c9f9ee0b7",
  "bytecode": "0x608060405234801561001057600080fd5b50612f17806100206000396000f3fe608060405234801561001057600080fd5b50600436106100cf5760003560e01c80639360bfad1161008c578063c39b2e9911610066578063c39b2e9914610185578063f2fde38b14610198578063f7013ef6146101ab578063fefcbe13146101be576100cf565b80639360bfad1461014a578063a26f579614610152578063b8af6a5314610172576100cf565b806339c6980b146100d457806362ea3db2146100e9578063715018a6146101125780637e29ca871461011a5780638da5cb5b1461012d57806390b3c4e714610142575b600080fd5b6100e76100e2366004612236565b6101d1565b005b6100fc6100f73660046123a2565b610295565b6040516101099190612cb8565b60405180910390f35b6100e76104f7565b6100e7610128366004612236565b610580565b610135610638565b6040516101099190612518565b610135610647565b610135610656565b610165610160366004612236565b610665565b6040516101099190612583565b6100e761018036600461242e565b61067a565b6100e7610193366004612236565b61070e565b6100e76101a6366004612236565b6107c3565b6100e76101b936600461226e565b610884565b6100e76101cc366004612236565b610a33565b6101d9610ae3565b6001600160a01b03166101ea610638565b6001600160a01b0316146102195760405162461bcd60e51b815260040161021090612a30565b60405180910390fd5b6001600160a01b03811661023f5760405162461bcd60e51b815260040161021090612c2f565b606580546001600160a01b0319166001600160a01b0383161790556040517fd02944e734a676af7bc6d3c180fcb9a5635972ee68667190d0ec9e1bcedde47b9061028a908390612518565b60405180910390a150565b6068546000906102a86040840184612d94565b905011156102c85760405162461bcd60e51b815260040161021090612b1d565b6000806102d484610ae7565b9150915060008060005b6102eb6040880188612d94565b905081101561043b5760006103036040890189612d94565b8381811061030d57fe5b90506020020160208101906103229190612386565b600181111561032d57fe5b148061036f575060016103436040890189612d94565b8381811061034d57fe5b90506020020160208101906103629190612386565b600181111561036d57fe5b145b61038b5760405162461bcd60e51b8152600401610210906125f0565b600061039a6040890189612d94565b838181106103a457fe5b90506020020160208101906103b99190612386565b60018111156103c457fe5b1415610405576103f86103d78880612d94565b858181106103e157fe5b90506020028101906103f39190612e22565b611073565b9550600190920191610433565b61042a6104156020890189612ddb565b8481811061041f57fe5b905060c002016112c6565b95506001909101905b6001016102de565b506000610448878761147f565b60665460405163818ef01960e01b81529192506001600160a01b03169063818ef01990610479903290600401612518565b600060405180830381600087803b15801561049357600080fd5b505af11580156104a7573d6000803e3d6000fd5b50506040513292503391507f1621cb2414b25cfb014ed2e1e8051310c0f691ac8d2ed92928e804595df0553b906104e59088908b908b908890612cc1565b60405180910390a35050505050919050565b6104ff610ae3565b6001600160a01b0316610510610638565b6001600160a01b0316146105365760405162461bcd60e51b815260040161021090612a30565b6033546040516000916001600160a01b0316907f8be0079c531659141344cd1fd0a4f28419497f9722a3daafe3b4186f6b6457e0908390a3603380546001600160a01b0319169055565b610588610ae3565b6001600160a01b0316610599610638565b6001600160a01b0316146105bf5760405162461bcd60e51b815260040161021090612a30565b6001600160a01b0381166105e55760405162461bcd60e51b8152600401610210906127a7565b6001600160a01b03811660009081526067602052604090819020805460ff19166001179055517f763ba138b73b63a43de614b1d4efd85711b3240cdb9c79a0a6a67647a95c4a319061028a908390612518565b6033546001600160a01b031690565b6065546001600160a01b031681565b6066546001600160a01b031681565b60676020526000908152604090205460ff1681565b610682610ae3565b6001600160a01b0316610693610638565b6001600160a01b0316146106b95760405162461bcd60e51b815260040161021090612a30565b600081116106d95760405162461bcd60e51b815260040161021090612c76565b60688190556040517f47db5040426af8ac88cc15012b2cf38e2bee85044b14306a1771c34636a8d2b29061028a908390612cb8565b610716610ae3565b6001600160a01b0316610727610638565b6001600160a01b03161461074d5760405162461bcd60e51b815260040161021090612a30565b6001600160a01b0381166107735760405162461bcd60e51b8152600401610210906127a7565b6001600160a01b03811660009081526067602052604090819020805460ff19169055517f62825d4e3dc47438cdd2a3014131db621a70e653474b90da2dd00d8ddb90bfca9061028a908390612518565b6107cb610ae3565b6001600160a01b03166107dc610638565b6001600160a01b0316146108025760405162461bcd60e51b815260040161021090612a30565b6001600160a01b0381166108285760405162461bcd60e51b815260040161021090612627565b6033546040516001600160a01b038084169216907f8be0079c531659141344cd1fd0a4f28419497f9722a3daafe3b4186f6b6457e090600090a3603380546001600160a01b0319166001600160a01b0392909216919091179055565b600054610100900460ff168061089d575061089d6116a0565b806108ab575060005460ff16155b6108c75760405162461bcd60e51b81526004016102109061299a565b600054610100900460ff161580156108f2576000805460ff1961ff0019909116610100171660011790555b6001600160a01b0386166109185760405162461bcd60e51b81526004016102109061292c565b6001600160a01b03851661093e5760405162461bcd60e51b815260040161021090612c2f565b6001600160a01b0384166109645760405162461bcd60e51b81526004016102109061266d565b6001600160a01b03831661098a5760405162461bcd60e51b815260040161021090612be9565b816109a75760405162461bcd60e51b81526004016102109061282a565b6109af6116b1565b6109b8866107c3565b606580546001600160a01b038088166001600160a01b031992831617909255606680549286169290911691909117905560688290556109f684610580565b6001600160a01b0384166000908152606760205260409020805460ff191660011790558015610a2b576000805461ff00191690555b505050505050565b610a3b610ae3565b6001600160a01b0316610a4c610638565b6001600160a01b031614610a725760405162461bcd60e51b815260040161021090612a30565b6001600160a01b038116610a985760405162461bcd60e51b815260040161021090612be9565b606680546001600160a01b0319166001600160a01b0383161790556040517f709a60e72bf092aafa932d3f93f26f1cc30afcdda76e5b1f24ccb06e79242edb9061028a908390612518565b3390565b60008080610af86040850185612d94565b6000818110610b0357fe5b9050602002016020810190610b189190612386565b6001811115610b2357fe5b1415610f195760606000610b378580612d94565b6000818110610b4257fe5b9050602002810190610b549190612e22565b610b62906020810190612386565b6001811115610b6d57fe5b1415610d0e576065546040805163c45a015560e01b81529051610d07926001600160a01b03169163c45a0155916004808301926020929190829003018186803b158015610bb957600080fd5b505afa158015610bcd573d6000803e3d6000fd5b505050506040513d601f19601f82011682018060405250810190610bf19190612252565b610bfb8680612d94565b6000818110610c0657fe5b9050602002810190610c189190612e22565b60200135610c268780612d94565b6000818110610c3157fe5b9050602002810190610c439190612e22565b610c51906060810190612d94565b808060200260200160405190810160405280939291908181526020018383602002808284376000920191909152505060665460405163ea60f36160e01b81526001600160a01b03909116925063ea60f3619150610cb2903290600401612518565b60206040518083038186803b158015610cca57600080fd5b505afa158015610cde573d6000803e3d6000fd5b505050506040513d601f19601f82011682018060405250810190610d029190612446565b611744565b9050610ea5565b6065546040805163c45a015560e01b81529051610ea2926001600160a01b03169163c45a0155916004808301926020929190829003018186803b158015610d5457600080fd5b505afa158015610d68573d6000803e3d6000fd5b505050506040513d601f19601f82011682018060405250810190610d8c9190612252565b610d968680612d94565b6000818110610da157fe5b9050602002810190610db39190612e22565b60400135610dc18780612d94565b6000818110610dcc57fe5b9050602002810190610dde9190612e22565b610dec906060810190612d94565b808060200260200160405190810160405280939291908181526020018383602002808284376000920191909152505060665460405163ea60f36160e01b81526001600160a01b03909116925063ea60f3619150610e4d903290600401612518565b60206040518083038186803b158015610e6557600080fd5b505afa158015610e79573d6000803e3d6000fd5b505050506040513d601f19601f82011682018060405250810190610e9d9190612446565b61185d565b90505b610eaf8480612d94565b6000818110610eba57fe5b9050602002810190610ecc9190612e22565b610eda906060810190612d94565b6000818110610ee557fe5b9050602002016020810190610efa9190612236565b925080600081518110610f0957fe5b6020026020010151915050611057565b6000610f286020850185612ddb565b6000818110610f3357fe5b610f4992602060c0909202019081019150612236565b6001600160a01b03811660009081526067602052604090205490915060ff16610f845760405162461bcd60e51b815260040161021090612a65565b6001600160a01b0381166382b86600610fa06020870187612ddb565b6000818110610fab57fe5b905060c002016020016020810190610fc3919061245e565b6040518263ffffffff1660e01b8152600401610fdf9190612d5b565b60206040518083038186803b158015610ff757600080fd5b505afa15801561100b573d6000803e3d6000fd5b505050506040513d601f19601f8201168201806040525081019061102f9190612252565b925061103e6020850185612ddb565b600081811061104957fe5b905060c00201606001359150505b8161106d6001600160a01b038216333085611961565b50915091565b6000806110836020840184612386565b600181111561108e57fe5b14806110b1575060016110a46020840184612386565b60018111156110af57fe5b145b6110cd5760405162461bcd60e51b81526004016102109061271a565b60606111146110de84830185612d94565b60008181106110e957fe5b90506020020160208101906110fe9190612236565b6065546001600160a01b031660208601356119bf565b60006111236020850185612386565b600181111561112e57fe5b14156111ef576065546001600160a01b03166338ed17396020850135604086013561115c6060880188612d94565b61116c60a08a0160808b01612236565b8960a001356040518763ffffffff1660e01b815260040161119296959493929190612ce8565b600060405180830381600087803b1580156111ac57600080fd5b505af11580156111c0573d6000803e3d6000fd5b505050506040513d6000823e601f3d908101601f191682016040526111e891908101906122d1565b90506112a6565b6065546001600160a01b0316638803dbee604085013560208601356112176060880188612d94565b61122760a08a0160808b01612236565b8960a001356040518763ffffffff1660e01b815260040161124d96959493929190612ce8565b600060405180830381600087803b15801561126757600080fd5b505af115801561127b573d6000803e3d6000fd5b505050506040513d6000823e601f3d908101601f191682016040526112a391908101906122d1565b90505b806001825103815181106112b657fe5b6020026020010151915050919050565b6000806112d66020840184612236565b6001600160a01b03811660009081526067602052604090205490915060ff166113115760405162461bcd60e51b815260040161021090612a65565b60006001600160a01b0382166382b86600611332604087016020880161245e565b6040518263ffffffff1660e01b815260040161134e9190612d5b565b60206040518083038186803b15801561136657600080fd5b505afa15801561137a573d6000803e3d6000fd5b505050506040513d601f19601f8201168201806040525081019061139e9190612252565b90506113bb816113b16020870187612236565b86606001356119bf565b6113c86020850185612236565b6001600160a01b031663916955866113e6604087016020880161245e565b6113f6606088016040890161245e565b876060013588608001358960a001356040518663ffffffff1660e01b8152600401611425959493929190612d69565b602060405180830381600087803b15801561143f57600080fd5b505af1158015611453573d6000803e3d6000fd5b505050506040513d601f19601f820116820180604052508101906114779190612446565b949350505050565b60008060016114916040860186612d94565b919091039150600090506114a86040860186612d94565b838181106114b257fe5b90506020020160208101906114c79190612386565b60018111156114d257fe5b141561158a57600060016114e68680612d94565b9190910391506000905060016114fc8780612d94565b8481811061150657fe5b90506020028101906115189190612e22565b611526906060810190612d94565b91909103915061153890508680612d94565b8381811061154257fe5b90506020028101906115549190612e22565b611562906060810190612d94565b8281811061156c57fe5b90506020020160208101906115819190612236565b93505050611683565b6000600161159b6020870187612ddb565b905003905060008580602001906115b29190612ddb565b838181106115bc57fe5b6115d292602060c0909202019081019150612236565b90506001600160a01b0381166382b866006115f06020890189612ddb565b858181106115fa57fe5b905060c002016040016020810190611612919061245e565b6040518263ffffffff1660e01b815260040161162e9190612d5b565b60206040518083038186803b15801561164657600080fd5b505afa15801561165a573d6000803e3d6000fd5b505050506040513d601f19601f8201168201806040525081019061167e9190612252565b935050505b816116986001600160a01b0382163386611a67565b505092915050565b60006116ab30611a8b565b15905090565b600054610100900460ff16806116ca57506116ca6116a0565b806116d8575060005460ff16155b6116f45760405162461bcd60e51b81526004016102109061299a565b600054610100900460ff1615801561171f576000805460ff1961ff0019909116610100171660011790555b611727611a91565b61172f611b12565b8015611741576000805461ff00191690555b50565b60606002835110156117685760405162461bcd60e51b815260040161021090612963565b825167ffffffffffffffff8111801561178057600080fd5b506040519080825280602002602001820160405280156117aa578160200160208202803683370190505b50905083816000815181106117bb57fe5b60200260200101818152505060005b60018451038110156118545760008061180d888785815181106117e957fe5b602002602001015188866001018151811061180057fe5b6020026020010151611bec565b9150915061183084848151811061182057fe5b6020026020010151838388611cc5565b84846001018151811061183f57fe5b602090810291909101015250506001016117ca565b50949350505050565b60606002835110156118815760405162461bcd60e51b815260040161021090612963565b825167ffffffffffffffff8111801561189957600080fd5b506040519080825280602002602001820160405280156118c3578160200160208202803683370190505b50905083816001835103815181106118d757fe5b60209081029190910101528251600019015b8015611854576000806119198887600186038151811061190557fe5b602002602001015188868151811061180057fe5b9150915061193c84848151811061192c57fe5b6020026020010151838388611d8e565b84600185038151811061194b57fe5b60209081029190910101525050600019016118e9565b6119b9846323b872dd60e01b85858560405160240161198293929190612546565b60408051601f198184030181529190526020810180516001600160e01b03166001600160e01b031990931692909217909152611e57565b50505050565b604051636eb1769f60e11b815283906000906001600160a01b0383169063dd62ed3e906119f2903090889060040161252c565b60206040518083038186803b158015611a0a57600080fd5b505afa158015611a1e573d6000803e3d6000fd5b505050506040513d601f19601f82011682018060405250810190611a429190612446565b905082811015611a6057611a606001600160a01b0383168585611ee6565b5050505050565b611a868363a9059cbb60e01b848460405160240161198292919061256a565b505050565b3b151590565b600054610100900460ff1680611aaa5750611aaa6116a0565b80611ab8575060005460ff16155b611ad45760405162461bcd60e51b81526004016102109061299a565b600054610100900460ff1615801561172f576000805460ff1961ff0019909116610100171660011790558015611741576000805461ff001916905550565b600054610100900460ff1680611b2b5750611b2b6116a0565b80611b39575060005460ff16155b611b555760405162461bcd60e51b81526004016102109061299a565b600054610100900460ff16158015611b80576000805460ff1961ff0019909116610100171660011790555b6000611b8a610ae3565b603380546001600160a01b0319166001600160a01b038316908117909155604051919250906000907f8be0079c531659141344cd1fd0a4f28419497f9722a3daafe3b4186f6b6457e0908290a3508015611741576000805461ff001916905550565b6000806000611bfb8585611f91565b509050600080611c0c88888861201b565b6001600160a01b0316630902f1ac6040518163ffffffff1660e01b815260040160606040518083038186803b158015611c4457600080fd5b505afa158015611c58573d6000803e3d6000fd5b505050506040513d601f19601f82011682018060405250810190611c7c91906123da565b506001600160701b031691506001600160701b03169150826001600160a01b0316876001600160a01b031614611cb3578082611cb6565b81815b90999098509650505050505050565b6000808511611ce65760405162461bcd60e51b815260040161021090612b9e565b600084118015611cf65750600083115b611d125760405162461bcd60e51b8152600401610210906129e8565b6103e58210158015611d2657506103e88211155b611d425760405162461bcd60e51b81526004016102109061286c565b6000611d4e868461208b565b90506000611d5c828661208b565b90506000611d7683611d70896103e861208b565b906120c8565b9050808281611d8157fe5b0498975050505050505050565b6000808511611daf5760405162461bcd60e51b81526004016102109061275b565b600084118015611dbf5750600083115b611ddb5760405162461bcd60e51b8152600401610210906129e8565b6103e58210158015611def57506103e88211155b611e0b5760405162461bcd60e51b81526004016102109061286c565b6000611e236103e8611e1d878961208b565b9061208b565b90506000611e3584611e1d878a6120eb565b9050611e4c6001828481611e4557fe5b04906120c8565b979650505050505050565b6060611eac826040518060400160405280602081526020017f5361666545524332303a206c6f772d6c6576656c2063616c6c206661696c6564815250856001600160a01b031661210e9092919063ffffffff16565b805190915015611a865780806020019051810190611eca9190612366565b611a865760405162461bcd60e51b815260040161021090612b54565b6000611f7082856001600160a01b031663dd62ed3e30876040518363ffffffff1660e01b8152600401611f1a92919061252c565b60206040518083038186803b158015611f3257600080fd5b505afa158015611f46573d6000803e3d6000fd5b505050506040513d601f19601f82011682018060405250810190611f6a9190612446565b90612127565b90506119b98463095ea7b360e01b858460405160240161198292919061256a565b600080826001600160a01b0316846001600160a01b03161415611fc65760405162461bcd60e51b8152600401610210906128a1565b826001600160a01b0316846001600160a01b031610611fe6578284611fe9565b83835b90925090506001600160a01b0382166120145760405162461bcd60e51b815260040161021090612ae6565b9250929050565b600080600061202a8585611f91565b9150915085828260405160200161204292919061247f565b604051602081830303815290604052805190602001206040516020016120699291906124c2565b60408051601f1981840301815291905280516020909101209695505050505050565b60008115806120a6575050808202828282816120a357fe5b04145b6120c25760405162461bcd60e51b8152600401610210906126b5565b92915050565b808201828110156120c25760405162461bcd60e51b8152600401610210906127fc565b808203828111156120c25760405162461bcd60e51b8152600401610210906125c1565b606061211d848460008561214c565b90505b9392505050565b6000828201838110156121205760405162461bcd60e51b8152600401610210906126e3565b60608247101561216e5760405162461bcd60e51b8152600401610210906128e6565b61217785611a8b565b6121935760405162461bcd60e51b815260040161021090612aaf565b60006060866001600160a01b031685876040516121b091906124a6565b60006040518083038185875af1925050503d80600081146121ed576040519150601f19603f3d011682016040523d82523d6000602084013e6121f2565b606091505b5091509150611e4c8282866060831561220c575081612120565b82511561221c5782518084602001fd5b8160405162461bcd60e51b8152600401610210919061258e565b600060208284031215612247578081fd5b813561212081612eaa565b600060208284031215612263578081fd5b815161212081612eaa565b600080600080600060a08688031215612285578081fd5b853561229081612eaa565b945060208601356122a081612eaa565b935060408601356122b081612eaa565b925060608601356122c081612eaa565b949793965091946080013592915050565b600060208083850312156122e3578182fd5b825167ffffffffffffffff8111156122f9578283fd5b8301601f81018513612309578283fd5b805161231c61231782612e5e565b612e37565b8181528381019083850185840285018601891015612338578687fd5b8694505b8385101561235a57805183526001949094019391850191850161233c565b50979650505050505050565b600060208284031215612377578081fd5b81518015158114612120578182fd5b600060208284031215612397578081fd5b813561212081612ebf565b6000602082840312156123b3578081fd5b813567ffffffffffffffff8111156123c9578182fd5b820160608185031215612120578182fd5b6000806000606084860312156123ee578283fd5b83516123f981612ecc565b602085015190935061240a81612ecc565b604085015190925063ffffffff81168114612423578182fd5b809150509250925092565b60006020828403121561243f578081fd5b5035919050565b600060208284031215612457578081fd5b5051919050565b60006020828403121561246f578081fd5b813560ff81168114612120578182fd5b6bffffffffffffffffffffffff19606093841b811682529190921b16601482015260280190565b600082516124b8818460208701612e7e565b9190910192915050565b6001600160f81b0319815260609290921b6bffffffffffffffffffffffff1916600183015260158201527fba9f7d123cf1f1b0f57891be300d90939d1a591af80a90cfb7e904a821927963603582015260550190565b6001600160a01b0391909116815260200190565b6001600160a01b0392831681529116602082015260400190565b6001600160a01b039384168152919092166020820152604081019190915260600190565b6001600160a01b03929092168252602082015260400190565b901515815260200190565b60006020825282518060208401526125ad816040850160208701612e7e565b601f01601f19169190910160400192915050565b60208082526015908201527464732d6d6174682d7375622d756e646572666c6f7760581b604082015260600190565b6020808252601d908201527f52756279526f757465723a20496e76616c696420737761702074797065000000604082015260600190565b60208082526026908201527f4f776e61626c653a206e6577206f776e657220697320746865207a65726f206160408201526564647265737360d01b606082015260800190565b60208082526028908201527f52756279526f757465723a20496e76616c696420537461626c6520506f6f6c2060408201526730b2323932b9b99760c11b606082015260800190565b60208082526014908201527364732d6d6174682d6d756c2d6f766572666c6f7760601b604082015260600190565b6020808252601b908201527f536166654d6174683a206164646974696f6e206f766572666c6f770000000000604082015260600190565b60208082526021908201527f52756279526f757465723a20496e76616c696420414d4d2073776170207479706040820152606560f81b606082015260800190565b6020808252602c908201527f556e697377617056324c6962726172793a20494e53554646494349454e545f4f60408201526b155514155517d05353d5539560a21b606082015260800190565b60208082526035908201527f52756279526f757465723a2054686520737461626c65506f6f6c2063616e6e6f6040820152747420626520746865207a65726f206164647265737360581b606082015260800190565b60208082526014908201527364732d6d6174682d6164642d6f766572666c6f7760601b604082015260600190565b60208082526022908201527f52756279526f757465723a20496e76616c6964206d6178207377617020686f70604082015261399760f11b606082015260800190565b6020808252818101527f556e697377617056324c6962726172793a204645455f4d554c5449504c494552604082015260600190565b60208082526025908201527f556e697377617056324c6962726172793a204944454e544943414c5f41444452604082015264455353455360d81b606082015260800190565b60208082526026908201527f416464726573733a20696e73756666696369656e742062616c616e636520666f6040820152651c8818d85b1b60d21b606082015260800190565b6020808252601a908201527f52756279526f757465723a20496e76616c6964206f776e65722e000000000000604082015260600190565b6020808252601e908201527f556e697377617056324c6962726172793a20494e56414c49445f504154480000604082015260600190565b6020808252602e908201527f496e697469616c697a61626c653a20636f6e747261637420697320616c72656160408201526d191e481a5b9a5d1a585b1a5e995960921b606082015260800190565b60208082526028908201527f556e697377617056324c6962726172793a20494e53554646494349454e545f4c604082015267495155494449545960c01b606082015260800190565b6020808252818101527f4f776e61626c653a2063616c6c6572206973206e6f7420746865206f776e6572604082015260600190565b6020808252602a908201527f52756279526f757465723a2054686520737461626c6520706f6f6c206973206e6040820152691bdd08195b98589b195960b21b606082015260800190565b6020808252601d908201527f416464726573733a2063616c6c20746f206e6f6e2d636f6e7472616374000000604082015260600190565b6020808252601e908201527f556e697377617056324c6962726172793a205a45524f5f414444524553530000604082015260600190565b6020808252601c908201527f496e76616c6964206e756d626572206f6620737761702063616c6c7300000000604082015260600190565b6020808252602a908201527f5361666545524332303a204552433230206f7065726174696f6e20646964206e6040820152691bdd081cdd58d8d9595960b21b606082015260800190565b6020808252602b908201527f556e697377617056324c6962726172793a20494e53554646494349454e545f4960408201526a1394155517d05353d5539560aa1b606082015260800190565b60208082526026908201527f52756279526f757465723a20496e76616c6964204e46542061646d696e206164604082015265323932b9b99760d11b606082015260800190565b60208082526027908201527f52756279526f757465723a20496e76616c696420414d4d20726f75746572206160408201526632323932b9b99760c91b606082015260800190565b60208082526022908201527f52756279526f757465723a20496e76616c6964206d6178207377617020686f70604082015261733b60f01b606082015260800190565b90815260200190565b93845260208401929092526001600160a01b03908116604084015216606082015260800190565b868152602080820187905260a0604083018190528201859052600090869060c08401835b88811015612d3a578335612d1f81612eaa565b6001600160a01b031682529282019290820190600101612d0c565b506001600160a01b0396909616606085015250505060800152949350505050565b60ff91909116815260200190565b60ff958616815293909416602084015260408301919091526060820152608081019190915260a00190565b6000808335601e19843603018112612daa578283fd5b83018035915067ffffffffffffffff821115612dc4578283fd5b602090810192508102360382131561201457600080fd5b6000808335601e19843603018112612df1578283fd5b83018035915067ffffffffffffffff821115612e0b578283fd5b602001915060c08102360382131561201457600080fd5b6000823560be198336030181126124b8578182fd5b60405181810167ffffffffffffffff81118282101715612e5657600080fd5b604052919050565b600067ffffffffffffffff821115612e74578081fd5b5060209081020190565b60005b83811015612e99578181015183820152602001612e81565b838111156119b95750506000910152565b6001600160a01b038116811461174157600080fd5b6002811061174157600080fd5b6001600160701b038116811461174157600080fdfea2646970667358221220344c68e38c5b8e7101989a353cfb314e0f6468f85e6c9940059cc012c9c8ba1864736f6c634300060c0033",
  "devdoc": {
    "kind": "dev",
    "methods": {
      "owner()": {
        "details": "Returns the address of the current owner."
      },
      "renounceOwnership()": {
        "details": "Leaves the contract without owner. It will not be possible to call `onlyOwner` functions anymore. Can only be called by the current owner. NOTE: Renouncing ownership will leave the contract without an owner, thereby removing any functionality that is only available to the owner."
      },
      "transferOwnership(address)": {
        "details": "Transfers ownership of the contract to a new account (`newOwner`). Can only be called by the current owner."
      }
    },
    "version": 1
  },
  "userdoc": {
    "kind": "user",
    "methods": {},
    "version": 1
  },
  "storageLayout": {
    "storage": [
      {
        "astId": 705,
        "contract": "contracts/ruby_router/RubyRouter.sol:RubyRouter",
        "label": "_initialized",
        "offset": 0,
        "slot": "0",
        "type": "t_bool"
      },
      {
        "astId": 708,
        "contract": "contracts/ruby_router/RubyRouter.sol:RubyRouter",
        "label": "_initializing",
        "offset": 1,
        "slot": "0",
        "type": "t_bool"
      },
      {
        "astId": 2910,
        "contract": "contracts/ruby_router/RubyRouter.sol:RubyRouter",
        "label": "__gap",
        "offset": 0,
        "slot": "1",
        "type": "t_array(t_uint256)50_storage"
      },
      {
        "astId": 136,
        "contract": "contracts/ruby_router/RubyRouter.sol:RubyRouter",
        "label": "_owner",
        "offset": 0,
        "slot": "51",
        "type": "t_address"
      },
      {
        "astId": 255,
        "contract": "contracts/ruby_router/RubyRouter.sol:RubyRouter",
        "label": "__gap",
        "offset": 0,
        "slot": "52",
        "type": "t_array(t_uint256)49_storage"
      },
      {
        "astId": 24407,
        "contract": "contracts/ruby_router/RubyRouter.sol:RubyRouter",
        "label": "ammRouter",
        "offset": 0,
        "slot": "101",
        "type": "t_contract(IUniswapV2Router02)18070"
      },
      {
        "astId": 24409,
        "contract": "contracts/ruby_router/RubyRouter.sol:RubyRouter",
        "label": "nftAdmin",
        "offset": 0,
        "slot": "102",
        "type": "t_contract(IRubyNFTAdmin)19946"
      },
      {
        "astId": 24413,
        "contract": "contracts/ruby_router/RubyRouter.sol:RubyRouter",
        "label": "enabledStablePools",
        "offset": 0,
        "slot": "103",
        "type": "t_mapping(t_contract(ISwap)30352,t_bool)"
      },
      {
        "astId": 24415,
        "contract": "contracts/ruby_router/RubyRouter.sol:RubyRouter",
        "label": "_maxSwapHops",
        "offset": 0,
        "slot": "104",
        "type": "t_uint256"
      }
    ],
    "types": {
      "t_address": {
        "encoding": "inplace",
        "label": "address",
        "numberOfBytes": "20"
      },
      "t_array(t_uint256)49_storage": {
        "base": "t_uint256",
        "encoding": "inplace",
        "label": "uint256[49]",
        "numberOfBytes": "1568"
      },
      "t_array(t_uint256)50_storage": {
        "base": "t_uint256",
        "encoding": "inplace",
        "label": "uint256[50]",
        "numberOfBytes": "1600"
      },
      "t_bool": {
        "encoding": "inplace",
        "label": "bool",
        "numberOfBytes": "1"
      },
      "t_contract(IRubyNFTAdmin)19946": {
        "encoding": "inplace",
        "label": "contract IRubyNFTAdmin",
        "numberOfBytes": "20"
      },
      "t_contract(ISwap)30352": {
        "encoding": "inplace",
        "label": "contract ISwap",
        "numberOfBytes": "20"
      },
      "t_contract(IUniswapV2Router02)18070": {
        "encoding": "inplace",
        "label": "contract IUniswapV2Router02",
        "numberOfBytes": "20"
      },
      "t_mapping(t_contract(ISwap)30352,t_bool)": {
        "encoding": "mapping",
        "key": "t_contract(ISwap)30352",
        "label": "mapping(contract ISwap => bool)",
        "numberOfBytes": "32",
        "value": "t_bool"
      },
      "t_uint256": {
        "encoding": "inplace",
        "label": "uint256",
        "numberOfBytes": "32"
      }
    }
  }
}