{
  "address": "0xC22Fa5821D8f36dF8cce51180FE70a825bdC76CB",
  "abi": [
    {
      "anonymous": false,
      "inputs": [
        {
          "indexed": false,
          "internalType": "address",
          "name": "factory",
          "type": "address"
        }
      ],
      "name": "AmmFactorySet",
      "type": "event"
    },
    {
      "anonymous": false,
      "inputs": [
        {
          "indexed": false,
          "internalType": "uint256",
          "name": "newBurnPercent",
          "type": "uint256"
        }
      ],
      "name": "BurnPercentSet",
      "type": "event"
    },
    {
      "anonymous": false,
      "inputs": [
        {
          "indexed": true,
          "internalType": "address",
          "name": "server",
          "type": "address"
        },
        {
          "indexed": true,
          "internalType": "address",
          "name": "token0",
          "type": "address"
        },
        {
          "indexed": true,
          "internalType": "address",
          "name": "token1",
          "type": "address"
        },
        {
          "indexed": false,
          "internalType": "uint256",
          "name": "amount0",
          "type": "uint256"
        },
        {
          "indexed": false,
          "internalType": "uint256",
          "name": "amount1",
          "type": "uint256"
        },
        {
          "indexed": false,
          "internalType": "uint256",
          "name": "amountRubyDistributed",
          "type": "uint256"
        },
        {
          "indexed": false,
          "internalType": "uint256",
          "name": "amountRubyBurned",
          "type": "uint256"
        }
      ],
      "name": "Convert",
      "type": "event"
    },
    {
      "anonymous": false,
      "inputs": [
        {
          "indexed": true,
          "internalType": "address",
          "name": "previousOwner",
          "type": "address"
        },
        {
          "indexed": true,
          "internalType": "address",
          "name": "newOwner",
          "type": "address"
        }
      ],
      "name": "OwnershipTransferred",
      "type": "event"
    },
    {
      "anonymous": false,
      "inputs": [
        {
          "indexed": true,
          "internalType": "address",
          "name": "pair",
          "type": "address"
        },
        {
          "indexed": false,
          "internalType": "uint256",
          "name": "amountWithdrawn",
          "type": "uint256"
        }
      ],
      "name": "PairWithdrawn",
      "type": "event"
    },
    {
      "anonymous": false,
      "inputs": [
        {
          "indexed": false,
          "internalType": "address",
          "name": "rubyStaker",
          "type": "address"
        }
      ],
      "name": "RubyStakerSet",
      "type": "event"
    },
    {
      "anonymous": false,
      "inputs": [
        {
          "indexed": false,
          "internalType": "address",
          "name": "rubyToken",
          "type": "address"
        }
      ],
      "name": "RubyTokenSet",
      "type": "event"
    },
    {
      "anonymous": false,
      "inputs": [
        {
          "indexed": false,
          "internalType": "address",
          "name": "usdToken",
          "type": "address"
        }
      ],
      "name": "UsdTokenSet",
      "type": "event"
    },
    {
      "inputs": [],
      "name": "burnPercent",
      "outputs": [
        {
          "internalType": "uint256",
          "name": "",
          "type": "uint256"
        }
      ],
      "stateMutability": "view",
      "type": "function"
    },
    {
      "inputs": [
        {
          "internalType": "address",
          "name": "token0",
          "type": "address"
        },
        {
          "internalType": "address",
          "name": "token1",
          "type": "address"
        }
      ],
      "name": "convert",
      "outputs": [],
      "stateMutability": "nonpayable",
      "type": "function"
    },
    {
      "inputs": [
        {
          "internalType": "address[]",
          "name": "token0",
          "type": "address[]"
        },
        {
          "internalType": "address[]",
          "name": "token1",
          "type": "address[]"
        }
      ],
      "name": "convertMultiple",
      "outputs": [],
      "stateMutability": "nonpayable",
      "type": "function"
    },
    {
      "inputs": [],
      "name": "factory",
      "outputs": [
        {
          "internalType": "contract IUniswapV2Factory",
          "name": "",
          "type": "address"
        }
      ],
      "stateMutability": "view",
      "type": "function"
    },
    {
      "inputs": [
        {
          "internalType": "address",
          "name": "_owner",
          "type": "address"
        },
        {
          "internalType": "address",
          "name": "_factory",
          "type": "address"
        },
        {
          "internalType": "address",
          "name": "_rubyStaker",
          "type": "address"
        },
        {
          "internalType": "address",
          "name": "_rubyToken",
          "type": "address"
        },
        {
          "internalType": "address",
          "name": "_usdToken",
          "type": "address"
        },
        {
          "internalType": "uint256",
          "name": "_burnPercent",
          "type": "uint256"
        }
      ],
      "name": "initialize",
      "outputs": [],
      "stateMutability": "nonpayable",
      "type": "function"
    },
    {
      "inputs": [],
      "name": "owner",
      "outputs": [
        {
          "internalType": "address",
          "name": "",
          "type": "address"
        }
      ],
      "stateMutability": "view",
      "type": "function"
    },
    {
      "inputs": [],
      "name": "renounceOwnership",
      "outputs": [],
      "stateMutability": "nonpayable",
      "type": "function"
    },
    {
      "inputs": [],
      "name": "rubyStaker",
      "outputs": [
        {
          "internalType": "contract IRubyStaker",
          "name": "",
          "type": "address"
        }
      ],
      "stateMutability": "view",
      "type": "function"
    },
    {
      "inputs": [],
      "name": "rubyToken",
      "outputs": [
        {
          "internalType": "address",
          "name": "",
          "type": "address"
        }
      ],
      "stateMutability": "view",
      "type": "function"
    },
    {
      "inputs": [
        {
          "internalType": "address",
          "name": "newFactory",
          "type": "address"
        }
      ],
      "name": "setAmmFactory",
      "outputs": [],
      "stateMutability": "nonpayable",
      "type": "function"
    },
    {
      "inputs": [
        {
          "internalType": "uint256",
          "name": "newBurnPercent",
          "type": "uint256"
        }
      ],
      "name": "setBurnPercent",
      "outputs": [],
      "stateMutability": "nonpayable",
      "type": "function"
    },
    {
      "inputs": [
        {
          "internalType": "address",
          "name": "newRubyStaker",
          "type": "address"
        }
      ],
      "name": "setRubyStaker",
      "outputs": [],
      "stateMutability": "nonpayable",
      "type": "function"
    },
    {
      "inputs": [
        {
          "internalType": "address",
          "name": "newRubyToken",
          "type": "address"
        }
      ],
      "name": "setRubyToken",
      "outputs": [],
      "stateMutability": "nonpayable",
      "type": "function"
    },
    {
      "inputs": [
        {
          "internalType": "address",
          "name": "newUsdToken",
          "type": "address"
        }
      ],
      "name": "setUsdToken",
      "outputs": [],
      "stateMutability": "nonpayable",
      "type": "function"
    },
    {
      "inputs": [
        {
          "internalType": "address",
          "name": "newOwner",
          "type": "address"
        }
      ],
      "name": "transferOwnership",
      "outputs": [],
      "stateMutability": "nonpayable",
      "type": "function"
    },
    {
      "inputs": [],
      "name": "usdToken",
      "outputs": [
        {
          "internalType": "address",
          "name": "",
          "type": "address"
        }
      ],
      "stateMutability": "view",
      "type": "function"
    },
    {
      "inputs": [
        {
          "internalType": "address",
          "name": "pair",
          "type": "address"
        }
      ],
      "name": "withdrawLP",
      "outputs": [],
      "stateMutability": "nonpayable",
      "type": "function"
    }
  ],
  "transactionHash": "0x10b644ae6cb6a6280a9578676bfcb691b6ae89c4a208f3c78a8918fb3ea5479e",
  "args": [],
  "numDeployments": 1,
  "solcInputHash": "8ca980d51c658bcb6e0b1d5c9f9ee0b7",
  "bytecode": "0x608060405234801561001057600080fd5b506124de806100206000396000f3fe608060405234801561001057600080fd5b506004361061010b5760003560e01c806395b6ef0c116100a2578063c45a015511610071578063c45a015514610333578063c579535a1461033b578063da80559014610361578063f2fde38b14610387578063f897a22b146103ad5761010b565b806395b6ef0c14610294578063bb1570da146102e0578063bd1b820c146102fd578063c0a0a5a21461032b5761010b565b80634dbc5143116100de5780634dbc51431461023a578063620db60914610260578063715018a6146102845780638da5cb5b1461028c5761010b565b806303807ee51461011057806306b66e1f1461012a57806312c09a3a14610152578063303e6aa414610178575b600080fd5b6101186103b5565b60408051918252519081900360200190f35b6101506004803603602081101561014057600080fd5b50356001600160a01b03166103bb565b005b6101506004803603602081101561016857600080fd5b50356001600160a01b03166104fa565b6101506004803603604081101561018e57600080fd5b8101906020810181356401000000008111156101a957600080fd5b8201836020820111156101bb57600080fd5b803590602001918460208302840111640100000000831117156101dd57600080fd5b9193909290916020810190356401000000008111156101fb57600080fd5b82018360208201111561020d57600080fd5b8035906020019184602083028401116401000000008311171561022f57600080fd5b509092509050610639565b6101506004803603602081101561025057600080fd5b50356001600160a01b03166106e3565b610268610822565b604080516001600160a01b039092168252519081900360200190f35b610150610831565b6102686108dd565b610150600480360360c08110156102aa57600080fd5b506001600160a01b0381358116916020810135821691604082013581169160608101358216916080820135169060a001356108ec565b610150600480360360208110156102f657600080fd5b5035610c3b565b6101506004803603604081101561031357600080fd5b506001600160a01b0381358116916020013516610d2e565b610268610d8a565b610268610d99565b6101506004803603602081101561035157600080fd5b50356001600160a01b0316610da8565b6101506004803603602081101561037757600080fd5b50356001600160a01b0316610f82565b6101506004803603602081101561039d57600080fd5b50356001600160a01b03166110c1565b6102686111c4565b60695481565b6103c36111d3565b6001600160a01b03166103d46108dd565b6001600160a01b03161461041d576040805162461bcd60e51b81526020600482018190526024820152600080516020612363833981519152604482015290519081900360640190fd5b6001600160a01b0381166104625760405162461bcd60e51b815260040180806020018281038252602b815260200180612383602b913960400191505060405180910390fd5b61046b816111d7565b6104a65760405162461bcd60e51b81526004018080602001828103825260328152602001806122036032913960400191505060405180910390fd5b606780546001600160a01b0383166001600160a01b0319909116811790915560408051918252517f3f79f689c41dad6c265b494bfae4ada38fde4b1dad2b6519bc633102a0c34de39181900360200190a150565b6105026111d3565b6001600160a01b03166105136108dd565b6001600160a01b03161461055c576040805162461bcd60e51b81526020600482018190526024820152600080516020612363833981519152604482015290519081900360640190fd5b6001600160a01b0381166105a15760405162461bcd60e51b81526004018080602001828103825260268152602001806124066026913960400191505060405180910390fd5b6105aa816111d7565b6105e55760405162461bcd60e51b81526004018080602001828103825260338152602001806124766033913960400191505060405180910390fd5b606680546001600160a01b0383166001600160a01b0319909116811790915560408051918252517fe414845b06f7832c1b8e0804a5e88918b156356e937af3cfdcb231b77569dc279181900360200190a150565b333214610687576040805162461bcd60e51b8152602060048201526017602482015276527562794d616b65723a206d7573742075736520454f4160481b604482015290519081900360640190fd5b8260005b818110156106db576106d38686838181106106a257fe5b905060200201356001600160a01b03168585848181106106be57fe5b905060200201356001600160a01b03166111dd565b60010161068b565b505050505050565b6106eb6111d3565b6001600160a01b03166106fc6108dd565b6001600160a01b031614610745576040805162461bcd60e51b81526020600482018190526024820152600080516020612363833981519152604482015290519081900360640190fd5b6001600160a01b03811661078a5760405162461bcd60e51b81526004018080602001828103825260278152602001806123ae6027913960400191505060405180910390fd5b610793816111d7565b6107ce5760405162461bcd60e51b81526004018080602001828103825260308152602001806122f06030913960400191505060405180910390fd5b606580546001600160a01b0383166001600160a01b0319909116811790915560408051918252517fdf44881239f7d76ca6a96b057bbc86ae4043591ab2e7f5aaec0a55aec0deb7469181900360200190a150565b6067546001600160a01b031681565b6108396111d3565b6001600160a01b031661084a6108dd565b6001600160a01b031614610893576040805162461bcd60e51b81526020600482018190526024820152600080516020612363833981519152604482015290519081900360640190fd5b6033546040516000916001600160a01b0316907f8be0079c531659141344cd1fd0a4f28419497f9722a3daafe3b4186f6b6457e0908390a3603380546001600160a01b0319169055565b6033546001600160a01b031690565b600054610100900460ff16806109055750610905611745565b80610913575060005460ff16155b61094e5760405162461bcd60e51b815260040180806020018281038252602e8152602001806122c2602e913960400191505060405180910390fd5b600054610100900460ff16158015610979576000805460ff1961ff0019909116610100171660011790555b6001600160a01b0387166109d4576040805162461bcd60e51b815260206004820181905260248201527f527562794d616b65723a20496e76616c6964206f776e65722061646472657373604482015290519081900360640190fd5b6001600160a01b038616610a195760405162461bcd60e51b81526004018080602001828103825260278152602001806123ae6027913960400191505060405180910390fd5b6001600160a01b038516610a5e5760405162461bcd60e51b81526004018080602001828103825260268152602001806124066026913960400191505060405180910390fd5b6001600160a01b038416610aa35760405162461bcd60e51b815260040180806020018281038252602581526020018061242c6025913960400191505060405180910390fd5b6001600160a01b038316610ae85760405162461bcd60e51b81526004018080602001828103825260258152602001806124516025913960400191505060405180910390fd5b6064821115610b3e576040805162461bcd60e51b815260206004820181905260248201527f527562794d616b65723a20496e76616c6964206275726e2070657263656e742e604482015290519081900360640190fd5b610b46611756565b610b4f876110c1565b606580546001600160a01b038089166001600160a01b031992831617909255606680548884169083168117909155606780549388169390921683179091556040805163095ea7b360e01b8152600481019290925260001960248301525163095ea7b3916044808201926020929091908290030181600087803b158015610bd457600080fd5b505af1158015610be8573d6000803e3d6000fd5b505050506040513d6020811015610bfe57600080fd5b5050606880546001600160a01b0319166001600160a01b03851617905560698290558015610c32576000805461ff00191690555b50505050505050565b610c436111d3565b6001600160a01b0316610c546108dd565b6001600160a01b031614610c9d576040805162461bcd60e51b81526020600482018190526024820152600080516020612363833981519152604482015290519081900360640190fd5b6064811115610cf3576040805162461bcd60e51b815260206004820181905260248201527f527562794d616b65723a20496e76616c6964206275726e2070657263656e742e604482015290519081900360640190fd5b60698190556040805182815290517fee42bd92f0c3b2684d1735f2870c3ebd2885672887d86233c03f317cefddb8979181900360200190a150565b333214610d7c576040805162461bcd60e51b8152602060048201526017602482015276527562794d616b65723a206d7573742075736520454f4160481b604482015290519081900360640190fd5b610d8682826111dd565b5050565b6066546001600160a01b031681565b6065546001600160a01b031681565b610db06111d3565b6001600160a01b0316610dc16108dd565b6001600160a01b031614610e0a576040805162461bcd60e51b81526020600482018190526024820152600080516020612363833981519152604482015290519081900360640190fd5b6001600160a01b038116610e65576040805162461bcd60e51b815260206004820181905260248201527f527562794d616b65723a20496e76616c6964207061697220616464726573732e604482015290519081900360640190fd5b610e6e816111d7565b610ea95760405162461bcd60e51b815260040180806020018281038252602a81526020018061226b602a913960400191505060405180910390fd5b604080516370a0823160e01b8152306004820152905182916000916001600160a01b038416916370a08231916024808301926020929190829003018186803b158015610ef457600080fd5b505afa158015610f08573d6000803e3d6000fd5b505050506040513d6020811015610f1e57600080fd5b50519050610f3e610f2d6108dd565b6001600160a01b0384169083611808565b6040805182815290516001600160a01b038516917f45599e12043a66b48a020f458d7f322c64972a0f3515a4d38820db6338011227919081900360200190a2505050565b610f8a6111d3565b6001600160a01b0316610f9b6108dd565b6001600160a01b031614610fe4576040805162461bcd60e51b81526020600482018190526024820152600080516020612363833981519152604482015290519081900360640190fd5b6001600160a01b0381166110295760405162461bcd60e51b81526004018080602001828103825260258152602001806124516025913960400191505060405180910390fd5b611032816111d7565b61106d5760405162461bcd60e51b81526004018080602001828103825260318152602001806123d56031913960400191505060405180910390fd5b606880546001600160a01b0383166001600160a01b0319909116811790915560408051918252517ff1ced7f5ac117635a33b1d3d5a87abaf646fb70da4f180ae4b78d90700cab4689181900360200190a150565b6110c96111d3565b6001600160a01b03166110da6108dd565b6001600160a01b031614611123576040805162461bcd60e51b81526020600482018190526024820152600080516020612363833981519152604482015290519081900360640190fd5b6001600160a01b0381166111685760405162461bcd60e51b81526004018080602001828103825260268152602001806121dd6026913960400191505060405180910390fd5b6033546040516001600160a01b038084169216907f8be0079c531659141344cd1fd0a4f28419497f9722a3daafe3b4186f6b6457e090600090a3603380546001600160a01b0319166001600160a01b0392909216919091179055565b6068546001600160a01b031681565b3390565b3b151590565b6001600160a01b0382166112225760405162461bcd60e51b815260040180806020018281038252602d815260200180612295602d913960400191505060405180910390fd5b6001600160a01b0381166112675760405162461bcd60e51b815260040180806020018281038252602d8152602001806121b0602d913960400191505060405180910390fd5b806001600160a01b0316826001600160a01b031614156112b85760405162461bcd60e51b81526004018080602001828103825260368152602001806122356036913960400191505060405180910390fd5b6068546000906001600160a01b03848116911614806112e457506067546001600160a01b038481169116145b6068549091506000906001600160a01b038481169116148061131357506067546001600160a01b038481169116145b9050818061131e5750805b6113595760405162461bcd60e51b81526004018080602001828103825260228152602001806123206022913960400191505060405180910390fd5b6065546040805163e6a4390560e01b81526001600160a01b03878116600483015286811660248301529151600093929092169163e6a4390591604480820192602092909190829003018186803b1580156113b257600080fd5b505afa1580156113c6573d6000803e3d6000fd5b505050506040513d60208110156113dc57600080fd5b505190506001600160a01b038116611436576040805162461bcd60e51b8152602060048201526018602482015277293ab13ca6b0b5b2b91d1024b73b30b634b2103830b4b91760411b604482015290519081900360640190fd5b6114c481826001600160a01b03166370a08231306040518263ffffffff1660e01b815260040180826001600160a01b0316815260200191505060206040518083038186803b15801561148757600080fd5b505afa15801561149b573d6000803e3d6000fd5b505050506040513d60208110156114b157600080fd5b50516001600160a01b0384169190611808565b600080826001600160a01b03166389afcb44306040518263ffffffff1660e01b815260040180826001600160a01b031681526020019150506040805180830381600087803b15801561151557600080fd5b505af1158015611529573d6000803e3d6000fd5b505050506040513d604081101561153f57600080fd5b50805160209182015160408051630dfe168160e01b815290519295509093506001600160a01b03861692630dfe168192600480840193829003018186803b15801561158957600080fd5b505afa15801561159d573d6000803e3d6000fd5b505050506040513d60208110156115b357600080fd5b50516001600160a01b038881169116146115c957905b60006115d788888585611972565b905060006115fb60646115f560695485611a7c90919063ffffffff16565b90611ade565b9050808203811561166c5760675460408051630852cd8d60e31b81526004810185905290516001600160a01b03909216916342966c689160248082019260009290919082900301818387803b15801561165357600080fd5b505af1158015611667573d6000803e3d6000fd5b505050505b80156116df576066546040805163246132f960e01b8152600160048201526024810184905290516001600160a01b039092169163246132f99160448082019260009290919082900301818387803b1580156116c657600080fd5b505af11580156116da573d6000803e3d6000fd5b505050505b60408051868152602081018690528082018390526060810184905290516001600160a01b03808c1692908d169133917f1d70b0ff9f689b827aeb5bee551ae4004c61b5877163c7a19656dbbdef836e9c919081900360800190a450505050505050505050565b6000611750306111d7565b15905090565b600054610100900460ff168061176f575061176f611745565b8061177d575060005460ff16155b6117b85760405162461bcd60e51b815260040180806020018281038252602e8152602001806122c2602e913960400191505060405180910390fd5b600054610100900460ff161580156117e3576000805460ff1961ff0019909116610100171660011790555b6117eb611b45565b6117f3611be5565b8015611805576000805461ff00191690555b50565b604080516001600160a01b038481166024830152604480830185905283518084039091018152606490920183526020820180516001600160e01b031663a9059cbb60e01b178152925182516000946060949389169392918291908083835b602083106118855780518252601f199092019160209182019101611866565b6001836020036101000a0380198251168184511680821785525050505050509050019150506000604051808303816000865af19150503d80600081146118e7576040519150601f19603f3d011682016040523d82523d6000602084013e6118ec565b606091505b509150915081801561191a57508051158061191a575080806020019051602081101561191757600080fd5b50515b61196b576040805162461bcd60e51b815260206004820152601a60248201527f5361666545524332303a205472616e73666572206661696c6564000000000000604482015290519081900360640190fd5b5050505050565b6067546000906001600160a01b03868116911614156119a65761199f836119998685611cde565b90611d01565b9050611a74565b6067546001600160a01b03858116911614156119ca5761199f826119998786611cde565b6068546001600160a01b0386811691161415611a2c576068546000906119fc9086906001600160a01b03168530611d5b565b90506000611a0a8286611d01565b606854909150611a23906001600160a01b031682611cde565b92505050611a74565b606854600090611a489087906001600160a01b03168630611d5b565b90506000611a568285611d01565b606854909150611a6f906001600160a01b031682611cde565b925050505b949350505050565b600082611a8b57506000611ad8565b82820282848281611a9857fe5b0414611ad55760405162461bcd60e51b81526004018080602001828103825260218152602001806123426021913960400191505060405180910390fd5b90505b92915050565b6000808211611b34576040805162461bcd60e51b815260206004820152601a60248201527f536166654d6174683a206469766973696f6e206279207a65726f000000000000604482015290519081900360640190fd5b818381611b3d57fe5b049392505050565b600054610100900460ff1680611b5e5750611b5e611745565b80611b6c575060005460ff16155b611ba75760405162461bcd60e51b815260040180806020018281038252602e8152602001806122c2602e913960400191505060405180910390fd5b600054610100900460ff161580156117f3576000805460ff1961ff0019909116610100171660011790558015611805576000805461ff001916905550565b600054610100900460ff1680611bfe5750611bfe611745565b80611c0c575060005460ff16155b611c475760405162461bcd60e51b815260040180806020018281038252602e8152602001806122c2602e913960400191505060405180910390fd5b600054610100900460ff16158015611c72576000805460ff1961ff0019909116610100171660011790555b6000611c7c6111d3565b603380546001600160a01b0319166001600160a01b038316908117909155604051919250906000907f8be0079c531659141344cd1fd0a4f28419497f9722a3daafe3b4186f6b6457e0908290a3508015611805576000805461ff001916905550565b606754600090611cfa9084906001600160a01b03168430611d5b565b9392505050565b600082820183811015611ad5576040805162461bcd60e51b815260206004820152601b60248201527f536166654d6174683a206164646974696f6e206f766572666c6f770000000000604482015290519081900360640190fd5b6065546040805163e6a4390560e01b81526001600160a01b038781166004830152868116602483015291516000938493169163e6a43905916044808301926020929190829003018186803b158015611db257600080fd5b505afa158015611dc6573d6000803e3d6000fd5b505050506040513d6020811015611ddc57600080fd5b505190506001600160a01b038116611e36576040805162461bcd60e51b8152602060048201526018602482015277293ab13ca6b0b5b2b91d1024b73b30b634b2103830b4b91760411b604482015290519081900360640190fd5b600080826001600160a01b0316630902f1ac6040518163ffffffff1660e01b815260040160606040518083038186803b158015611e7257600080fd5b505afa158015611e86573d6000803e3d6000fd5b505050506040513d6060811015611e9c57600080fd5b5080516020909101516dffffffffffffffffffffffffffff91821693501690506000611eca876103e5611a7c565b9050836001600160a01b0316630dfe16816040518163ffffffff1660e01b815260040160206040518083038186803b158015611f0557600080fd5b505afa158015611f19573d6000803e3d6000fd5b505050506040513d6020811015611f2f57600080fd5b50516001600160a01b038a81169116141561207557611f5481611999856103e8611a7c565b611f5e8284611a7c565b81611f6557fe5b049450611f7c6001600160a01b038a168589611808565b60408051600080825260208201928390526316d6989160e31b835260248201818152604483018990526001600160a01b038a811660648501526103e56084850181905260a060a48601908152855160c48701819052928b169663b6b4c488968d958f9591939092909160e4850191908083838c5b83811015612008578181015183820152602001611ff0565b50505050905090810190601f1680156120355780820380516001836020036101000a031916815260200191505b509650505050505050600060405180830381600087803b15801561205857600080fd5b505af115801561206c573d6000803e3d6000fd5b505050506121a3565b61208581611999846103e8611a7c565b61208f8285611a7c565b8161209657fe5b0494506120ad6001600160a01b038a168589611808565b60408051600080825260208201928390526316d6989160e31b835260248201888152604483018290526001600160a01b038a811660648501526103e56084850181905260a060a48601908152855160c48701819052928b169663b6b4c488968d96958f9591939092909160e4850191908083838b5b8381101561213a578181015183820152602001612122565b50505050905090810190601f1680156121675780820380516001836020036101000a031916815260200191505b509650505050505050600060405180830381600087803b15801561218a57600080fd5b505af115801561219e573d6000803e3d6000fd5b505050505b5050505094935050505056fe527562794d616b65723a20746f6b656e312063616e6e6f7420626520746865207a65726f20616464726573732e4f776e61626c653a206e6577206f776e657220697320746865207a65726f2061646472657373527562794d616b65723a206e657752756279546f6b656e206973206e6f74206120636f6e747261637420616464726573732e527562794d616b65723a20746f6b656e3020616e6420746f6b656e312063616e6e6f74206265207468652073616d6520746f6b656e2e527562794d616b65723a2070616972206973206e6f74206120636f6e747261637420616464726573732e527562794d616b65723a20746f6b656e302063616e6e6f7420626520746865207a65726f20616464726573732e496e697469616c697a61626c653a20636f6e747261637420697320616c726561647920696e697469616c697a6564527562794d616b65723a206e6577466163746f7279206973206e6f74206120636f6e747261637420616464726573732e527562794d616b65723a20436f6e76657273696f6e20756e737570706f727465642e536166654d6174683a206d756c7469706c69636174696f6e206f766572666c6f774f776e61626c653a2063616c6c6572206973206e6f7420746865206f776e6572527562794d616b65723a20496e76616c69642072756279546f6b656e20746f6b656e20616464726573732e527562794d616b65723a20496e76616c696420414d4d20666163746f727920616464726573732e527562794d616b65723a206e6577557364546f6b656e206973206e6f74206120636f6e747261637420616464726573732e527562794d616b65723a20496e76616c696420727562795374616b657220616464726573732e527562794d616b65723a20496e76616c69642072756279546f6b656e20616464726573732e527562794d616b65723a20496e76616c69642055534420746f6b656e20616464726573732e527562794d616b65723a206e6577527562795374616b6572206973206e6f74206120636f6e747261637420616464726573732ea26469706673582212204c1d8c989cca369689576c737265f6e0442748cc271ca172b43e54b86ec5e43d64736f6c634300060c0033",
  "devdoc": {
    "kind": "dev",
    "methods": {
      "owner()": {
        "details": "Returns the address of the current owner."
      },
      "renounceOwnership()": {
        "details": "Leaves the contract without owner. It will not be possible to call `onlyOwner` functions anymore. Can only be called by the current owner. NOTE: Renouncing ownership will leave the contract without an owner, thereby removing any functionality that is only available to the owner."
      },
      "transferOwnership(address)": {
        "details": "Transfers ownership of the contract to a new account (`newOwner`). Can only be called by the current owner."
      }
    },
    "version": 1
  },
  "userdoc": {
    "kind": "user",
    "methods": {},
    "version": 1
  },
  "storageLayout": {
    "storage": [
      {
        "astId": 705,
        "contract": "contracts/RubyMaker.sol:RubyMaker",
        "label": "_initialized",
        "offset": 0,
        "slot": "0",
        "type": "t_bool"
      },
      {
        "astId": 708,
        "contract": "contracts/RubyMaker.sol:RubyMaker",
        "label": "_initializing",
        "offset": 1,
        "slot": "0",
        "type": "t_bool"
      },
      {
        "astId": 2910,
        "contract": "contracts/RubyMaker.sol:RubyMaker",
        "label": "__gap",
        "offset": 0,
        "slot": "1",
        "type": "t_array(t_uint256)50_storage"
      },
      {
        "astId": 136,
        "contract": "contracts/RubyMaker.sol:RubyMaker",
        "label": "_owner",
        "offset": 0,
        "slot": "51",
        "type": "t_address"
      },
      {
        "astId": 255,
        "contract": "contracts/RubyMaker.sol:RubyMaker",
        "label": "__gap",
        "offset": 0,
        "slot": "52",
        "type": "t_array(t_uint256)49_storage"
      },
      {
        "astId": 9415,
        "contract": "contracts/RubyMaker.sol:RubyMaker",
        "label": "factory",
        "offset": 0,
        "slot": "101",
        "type": "t_contract(IUniswapV2Factory)17602"
      },
      {
        "astId": 9417,
        "contract": "contracts/RubyMaker.sol:RubyMaker",
        "label": "rubyStaker",
        "offset": 0,
        "slot": "102",
        "type": "t_contract(IRubyStaker)19965"
      },
      {
        "astId": 9419,
        "contract": "contracts/RubyMaker.sol:RubyMaker",
        "label": "rubyToken",
        "offset": 0,
        "slot": "103",
        "type": "t_address"
      },
      {
        "astId": 9421,
        "contract": "contracts/RubyMaker.sol:RubyMaker",
        "label": "usdToken",
        "offset": 0,
        "slot": "104",
        "type": "t_address"
      },
      {
        "astId": 9423,
        "contract": "contracts/RubyMaker.sol:RubyMaker",
        "label": "burnPercent",
        "offset": 0,
        "slot": "105",
        "type": "t_uint256"
      }
    ],
    "types": {
      "t_address": {
        "encoding": "inplace",
        "label": "address",
        "numberOfBytes": "20"
      },
      "t_array(t_uint256)49_storage": {
        "base": "t_uint256",
        "encoding": "inplace",
        "label": "uint256[49]",
        "numberOfBytes": "1568"
      },
      "t_array(t_uint256)50_storage": {
        "base": "t_uint256",
        "encoding": "inplace",
        "label": "uint256[50]",
        "numberOfBytes": "1600"
      },
      "t_bool": {
        "encoding": "inplace",
        "label": "bool",
        "numberOfBytes": "1"
      },
      "t_contract(IRubyStaker)19965": {
        "encoding": "inplace",
        "label": "contract IRubyStaker",
        "numberOfBytes": "20"
      },
      "t_contract(IUniswapV2Factory)17602": {
        "encoding": "inplace",
        "label": "contract IUniswapV2Factory",
        "numberOfBytes": "20"
      },
      "t_uint256": {
        "encoding": "inplace",
        "label": "uint256",
        "numberOfBytes": "32"
      }
    }
  }
}