{
  "address": "0x6Aa76bfEcbD6d45e082424f5c109DDbB89C91F76",
  "abi": [
    {
      "anonymous": false,
      "inputs": [
        {
          "indexed": true,
          "internalType": "address",
          "name": "freeSwapNFT",
          "type": "address"
        }
      ],
      "name": "FreeSwapNFTSet",
      "type": "event"
    },
    {
      "anonymous": false,
      "inputs": [
        {
          "indexed": true,
          "internalType": "address",
          "name": "minter",
          "type": "address"
        },
        {
          "indexed": false,
          "internalType": "bool",
          "name": "allowance",
          "type": "bool"
        }
      ],
      "name": "MinterSet",
      "type": "event"
    },
    {
      "anonymous": false,
      "inputs": [
        {
          "indexed": true,
          "internalType": "address",
          "name": "previousOwner",
          "type": "address"
        },
        {
          "indexed": true,
          "internalType": "address",
          "name": "newOwner",
          "type": "address"
        }
      ],
      "name": "OwnershipTransferred",
      "type": "event"
    },
    {
      "anonymous": false,
      "inputs": [
        {
          "indexed": true,
          "internalType": "address",
          "name": "profileNFT",
          "type": "address"
        }
      ],
      "name": "RubyProfileNFTset",
      "type": "event"
    },
    {
      "inputs": [
        {
          "internalType": "address",
          "name": "user",
          "type": "address"
        }
      ],
      "name": "calculateAmmSwapFeeDeduction",
      "outputs": [
        {
          "internalType": "uint256",
          "name": "feeMultiplier",
          "type": "uint256"
        }
      ],
      "stateMutability": "view",
      "type": "function"
    },
    {
      "inputs": [],
      "name": "freeSwapNFT",
      "outputs": [
        {
          "internalType": "address",
          "name": "",
          "type": "address"
        }
      ],
      "stateMutability": "view",
      "type": "function"
    },
    {
      "inputs": [
        {
          "internalType": "address",
          "name": "_owner",
          "type": "address"
        },
        {
          "internalType": "address",
          "name": "_profileNFT",
          "type": "address"
        },
        {
          "internalType": "address",
          "name": "_freeSwapNFT",
          "type": "address"
        }
      ],
      "name": "initialize",
      "outputs": [],
      "stateMutability": "nonpayable",
      "type": "function"
    },
    {
      "inputs": [
        {
          "internalType": "address",
          "name": "user",
          "type": "address"
        }
      ],
      "name": "mintProfileNFT",
      "outputs": [],
      "stateMutability": "nonpayable",
      "type": "function"
    },
    {
      "inputs": [
        {
          "internalType": "address",
          "name": "",
          "type": "address"
        }
      ],
      "name": "minters",
      "outputs": [
        {
          "internalType": "bool",
          "name": "",
          "type": "bool"
        }
      ],
      "stateMutability": "view",
      "type": "function"
    },
    {
      "inputs": [],
      "name": "owner",
      "outputs": [
        {
          "internalType": "address",
          "name": "",
          "type": "address"
        }
      ],
      "stateMutability": "view",
      "type": "function"
    },
    {
      "inputs": [],
      "name": "profileNFT",
      "outputs": [
        {
          "internalType": "address",
          "name": "",
          "type": "address"
        }
      ],
      "stateMutability": "view",
      "type": "function"
    },
    {
      "inputs": [],
      "name": "renounceOwnership",
      "outputs": [],
      "stateMutability": "nonpayable",
      "type": "function"
    },
    {
      "inputs": [
        {
          "internalType": "address",
          "name": "newFreeSwapNFT",
          "type": "address"
        }
      ],
      "name": "setFreeSwapNFT",
      "outputs": [],
      "stateMutability": "nonpayable",
      "type": "function"
    },
    {
      "inputs": [
        {
          "internalType": "address",
          "name": "minter",
          "type": "address"
        },
        {
          "internalType": "bool",
          "name": "allowance",
          "type": "bool"
        }
      ],
      "name": "setMinter",
      "outputs": [],
      "stateMutability": "nonpayable",
      "type": "function"
    },
    {
      "inputs": [
        {
          "internalType": "address",
          "name": "newProfileNFT",
          "type": "address"
        }
      ],
      "name": "setProfileNFT",
      "outputs": [],
      "stateMutability": "nonpayable",
      "type": "function"
    },
    {
      "inputs": [
        {
          "internalType": "address",
          "name": "newOwner",
          "type": "address"
        }
      ],
      "name": "transferOwnership",
      "outputs": [],
      "stateMutability": "nonpayable",
      "type": "function"
    }
  ],
  "transactionHash": "0x3b6f386b6e9ed2112289c99895a032d3562187ab35d62519112c14e434148eca",
  "args": [],
  "numDeployments": 1,
  "solcInputHash": "72d52cc06dbd34938e7b46122e9e590a",
  "bytecode": "0x608060405234801561001057600080fd5b50610ed4806100206000396000f3fe608060405234801561001057600080fd5b50600436106100b45760003560e01c8063c0c53b8b11610071578063c0c53b8b14610161578063c9639e0314610199578063cf456ae7146101a1578063ea60f361146101cf578063f2fde38b14610207578063f46eccc41461022d576100b4565b8063066d986e146100b9578063715018a6146100e1578063818ef019146100e95780638da5cb5b1461010f578063949675e914610133578063a8fe3f7f1461013b575b600080fd5b6100df600480360360208110156100cf57600080fd5b50356001600160a01b0316610267565b005b6100df61035e565b6100df600480360360208110156100ff57600080fd5b50356001600160a01b031661040a565b61011761053f565b604080516001600160a01b039092168252519081900360200190f35b61011761054e565b6100df6004803603602081101561015157600080fd5b50356001600160a01b031661055d565b6100df6004803603606081101561017757600080fd5b506001600160a01b038135811691602081013582169160409091013516610654565b610117610809565b6100df600480360360408110156101b757600080fd5b506001600160a01b0381351690602001351515610818565b6101f5600480360360208110156101e557600080fd5b50356001600160a01b031661091f565b60408051918252519081900360200190f35b6100df6004803603602081101561021d57600080fd5b50356001600160a01b03166109b3565b6102536004803603602081101561024357600080fd5b50356001600160a01b0316610ab6565b604080519115158252519081900360200190f35b61026f610acb565b6001600160a01b031661028061053f565b6001600160a01b0316146102c9576040805162461bcd60e51b81526020600482018190526024820152600080516020610e38833981519152604482015290519081900360640190fd5b6001600160a01b03811661030e5760405162461bcd60e51b8152600401808060200182810382526021815260200180610d576021913960400191505060405180910390fd5b606580546001600160a01b0319166001600160a01b0383811691909117918290556040519116907fa8e6108a6e0ee73d53714103402eaec9eef1928bb34cf74d940a3916327c84f190600090a250565b610366610acb565b6001600160a01b031661037761053f565b6001600160a01b0316146103c0576040805162461bcd60e51b81526020600482018190526024820152600080516020610e38833981519152604482015290519081900360640190fd5b6033546040516000916001600160a01b0316907f8be0079c531659141344cd1fd0a4f28419497f9722a3daafe3b4186f6b6457e0908390a3603380546001600160a01b0319169055565b3360009081526067602052604090205460ff166104585760405162461bcd60e51b8152600401808060200182810382526021815260200180610d786021913960400191505060405180910390fd5b606554604080516370a0823160e01b81526001600160a01b038481166004830152915191909216916370a08231916024808301926020929190829003018186803b1580156104a557600080fd5b505afa1580156104b9573d6000803e3d6000fd5b505050506040513d60208110156104cf57600080fd5b505161053c57606554604080516335313c2160e11b81526001600160a01b03848116600483015291519190921691636a62784291602480830192600092919082900301818387803b15801561052357600080fd5b505af1158015610537573d6000803e3d6000fd5b505050505b50565b6033546001600160a01b031690565b6065546001600160a01b031681565b610565610acb565b6001600160a01b031661057661053f565b6001600160a01b0316146105bf576040805162461bcd60e51b81526020600482018190526024820152600080516020610e38833981519152604482015290519081900360640190fd5b6001600160a01b0381166106045760405162461bcd60e51b8152600401808060200182810382526023815260200180610dc76023913960400191505060405180910390fd5b606680546001600160a01b0319166001600160a01b0383811691909117918290556040519116907f2d54e452ca6ca79092fb13d6b5a5b9b607136f0e944665e8a1927d4b8961922190600090a250565b600054610100900460ff168061066d575061066d610acf565b8061067b575060005460ff16155b6106b65760405162461bcd60e51b815260040180806020018281038252602e815260200180610d99602e913960400191505060405180910390fd5b600054610100900460ff161580156106e1576000805460ff1961ff0019909116610100171660011790555b6001600160a01b0384166107265760405162461bcd60e51b8152600401808060200182810382526023815260200180610e7c6023913960400191505060405180910390fd5b6001600160a01b03831661076b5760405162461bcd60e51b8152600401808060200182810382526026815260200180610e126026913960400191505060405180910390fd5b6001600160a01b0382166107b05760405162461bcd60e51b8152600401808060200182810382526028815260200180610dea6028913960400191505060405180910390fd5b606580546001600160a01b038086166001600160a01b03199283161790925560668054928516929091169190911790556107e8610ae0565b6107f1846109b3565b8015610803576000805461ff00191690555b50505050565b6066546001600160a01b031681565b610820610acb565b6001600160a01b031661083161053f565b6001600160a01b03161461087a576040805162461bcd60e51b81526020600482018190526024820152600080516020610e38833981519152604482015290519081900360640190fd5b6001600160a01b0382166108bf5760405162461bcd60e51b8152600401808060200182810382526024815260200180610e586024913960400191505060405180910390fd5b6001600160a01b038216600081815260676020908152604091829020805460ff1916851515908117909155825190815291517f583b0aa0e528532caf4b907c11d7a8158a122fe2a6fb80cd9b09776ebea8d92d9281900390910190a25050565b606654604080516370a0823160e01b81526001600160a01b0384811660048301529151600093849316916370a08231916024808301926020929190829003018186803b15801561096e57600080fd5b505afa158015610982573d6000803e3d6000fd5b505050506040513d602081101561099857600080fd5b505111156109a957506103e86109ae565b506103e55b919050565b6109bb610acb565b6001600160a01b03166109cc61053f565b6001600160a01b031614610a15576040805162461bcd60e51b81526020600482018190526024820152600080516020610e38833981519152604482015290519081900360640190fd5b6001600160a01b038116610a5a5760405162461bcd60e51b8152600401808060200182810382526026815260200180610d316026913960400191505060405180910390fd5b6033546040516001600160a01b038084169216907f8be0079c531659141344cd1fd0a4f28419497f9722a3daafe3b4186f6b6457e090600090a3603380546001600160a01b0319166001600160a01b0392909216919091179055565b60676020526000908152604090205460ff1681565b3390565b6000610ada30610b91565b15905090565b600054610100900460ff1680610af95750610af9610acf565b80610b07575060005460ff16155b610b425760405162461bcd60e51b815260040180806020018281038252602e815260200180610d99602e913960400191505060405180910390fd5b600054610100900460ff16158015610b6d576000805460ff1961ff0019909116610100171660011790555b610b75610b97565b610b7d610c37565b801561053c576000805461ff001916905550565b3b151590565b600054610100900460ff1680610bb05750610bb0610acf565b80610bbe575060005460ff16155b610bf95760405162461bcd60e51b815260040180806020018281038252602e815260200180610d99602e913960400191505060405180910390fd5b600054610100900460ff16158015610b7d576000805460ff1961ff001990911661010017166001179055801561053c576000805461ff001916905550565b600054610100900460ff1680610c505750610c50610acf565b80610c5e575060005460ff16155b610c995760405162461bcd60e51b815260040180806020018281038252602e815260200180610d99602e913960400191505060405180910390fd5b600054610100900460ff16158015610cc4576000805460ff1961ff0019909116610100171660011790555b6000610cce610acb565b603380546001600160a01b0319166001600160a01b038316908117909155604051919250906000907f8be0079c531659141344cd1fd0a4f28419497f9722a3daafe3b4186f6b6457e0908290a350801561053c576000805461ff00191690555056fe4f776e61626c653a206e6577206f776e657220697320746865207a65726f2061646472657373527562794e465441646d696e3a20496e76616c69642070726f66696c65204e4654527562794e465441646d696e3a204d696e74696e67206e6f7420616c6c6f776564496e697469616c697a61626c653a20636f6e747261637420697320616c726561647920696e697469616c697a6564527562794e465441646d696e3a20496e76616c696420667265652073776170204e4654527562794e465441646d696e3a20496e76616c6964205255425920667265652073776170204e4654527562794e465441646d696e3a20496e76616c696420525542592070726f66696c65204e46544f776e61626c653a2063616c6c6572206973206e6f7420746865206f776e6572527562794e465441646d696e3a20496e76616c6964206d696e7465722061646472657373527562794e465441646d696e3a20496e76616c6964206f776e65722061646472657373a2646970667358221220296b4951bc424e4878659416b8b4bcd260b7d650320542423214a4c882ba1ece64736f6c634300060c0033",
  "devdoc": {
    "kind": "dev",
    "methods": {
      "calculateAmmSwapFeeDeduction(address)": {
        "params": {
          "user": "- the address of the user"
        }
      },
      "owner()": {
        "details": "Returns the address of the current owner."
      },
      "renounceOwnership()": {
        "details": "Leaves the contract without owner. It will not be possible to call `onlyOwner` functions anymore. Can only be called by the current owner. NOTE: Renouncing ownership will leave the contract without an owner, thereby removing any functionality that is only available to the owner."
      },
      "transferOwnership(address)": {
        "details": "Transfers ownership of the contract to a new account (`newOwner`). Can only be called by the current owner."
      }
    },
    "version": 1
  },
  "userdoc": {
    "kind": "user",
    "methods": {
      "calculateAmmSwapFeeDeduction(address)": {
        "notice": "Calculate the fee multiplier that needs to be applied in the  AMM swapping calculations. The fee deduction is dependent on the `user`. The fee multiplier is determined by internal rules. Currently the  single rule is having balance of at least 1 at the RubyProfileNFT contract. In the future more rules should be added. The `feeMultiplier` is in range of [997, 1000]:  - 997 means fee of 30 basis points - 1000 means fee of 0 basis points"
      }
    },
    "version": 1
  },
  "storageLayout": {
    "storage": [
      {
        "astId": 705,
        "contract": "contracts/RubyNFTAdmin.sol:RubyNFTAdmin",
        "label": "_initialized",
        "offset": 0,
        "slot": "0",
        "type": "t_bool"
      },
      {
        "astId": 708,
        "contract": "contracts/RubyNFTAdmin.sol:RubyNFTAdmin",
        "label": "_initializing",
        "offset": 1,
        "slot": "0",
        "type": "t_bool"
      },
      {
        "astId": 2910,
        "contract": "contracts/RubyNFTAdmin.sol:RubyNFTAdmin",
        "label": "__gap",
        "offset": 0,
        "slot": "1",
        "type": "t_array(t_uint256)50_storage"
      },
      {
        "astId": 136,
        "contract": "contracts/RubyNFTAdmin.sol:RubyNFTAdmin",
        "label": "_owner",
        "offset": 0,
        "slot": "51",
        "type": "t_address"
      },
      {
        "astId": 255,
        "contract": "contracts/RubyNFTAdmin.sol:RubyNFTAdmin",
        "label": "__gap",
        "offset": 0,
        "slot": "52",
        "type": "t_array(t_uint256)49_storage"
      },
      {
        "astId": 11721,
        "contract": "contracts/RubyNFTAdmin.sol:RubyNFTAdmin",
        "label": "profileNFT",
        "offset": 0,
        "slot": "101",
        "type": "t_address"
      },
      {
        "astId": 11724,
        "contract": "contracts/RubyNFTAdmin.sol:RubyNFTAdmin",
        "label": "freeSwapNFT",
        "offset": 0,
        "slot": "102",
        "type": "t_address"
      },
      {
        "astId": 11729,
        "contract": "contracts/RubyNFTAdmin.sol:RubyNFTAdmin",
        "label": "minters",
        "offset": 0,
        "slot": "103",
        "type": "t_mapping(t_address,t_bool)"
      }
    ],
    "types": {
      "t_address": {
        "encoding": "inplace",
        "label": "address",
        "numberOfBytes": "20"
      },
      "t_array(t_uint256)49_storage": {
        "base": "t_uint256",
        "encoding": "inplace",
        "label": "uint256[49]",
        "numberOfBytes": "1568"
      },
      "t_array(t_uint256)50_storage": {
        "base": "t_uint256",
        "encoding": "inplace",
        "label": "uint256[50]",
        "numberOfBytes": "1600"
      },
      "t_bool": {
        "encoding": "inplace",
        "label": "bool",
        "numberOfBytes": "1"
      },
      "t_mapping(t_address,t_bool)": {
        "encoding": "mapping",
        "key": "t_address",
        "label": "mapping(address => bool)",
        "numberOfBytes": "32",
        "value": "t_bool"
      },
      "t_uint256": {
        "encoding": "inplace",
        "label": "uint256",
        "numberOfBytes": "32"
      }
    }
  }
}