{
  "address": "0xB0bEC0f70Eed52C551252377e529D8140EDA059D",
  "abi": [
    {
      "anonymous": false,
      "inputs": [
        {
          "indexed": true,
          "internalType": "address",
          "name": "owner",
          "type": "address"
        },
        {
          "indexed": true,
          "internalType": "address",
          "name": "approved",
          "type": "address"
        },
        {
          "indexed": true,
          "internalType": "uint256",
          "name": "tokenId",
          "type": "uint256"
        }
      ],
      "name": "Approval",
      "type": "event"
    },
    {
      "anonymous": false,
      "inputs": [
        {
          "indexed": true,
          "internalType": "address",
          "name": "owner",
          "type": "address"
        },
        {
          "indexed": true,
          "internalType": "address",
          "name": "operator",
          "type": "address"
        },
        {
          "indexed": false,
          "internalType": "bool",
          "name": "approved",
          "type": "bool"
        }
      ],
      "name": "ApprovalForAll",
      "type": "event"
    },
    {
      "anonymous": false,
      "inputs": [
        {
          "indexed": false,
          "internalType": "string",
          "name": "newDescription",
          "type": "string"
        }
      ],
      "name": "DescriptionSet",
      "type": "event"
    },
    {
      "anonymous": false,
      "inputs": [
        {
          "indexed": true,
          "internalType": "address",
          "name": "minter",
          "type": "address"
        },
        {
          "indexed": false,
          "internalType": "bool",
          "name": "allowance",
          "type": "bool"
        }
      ],
      "name": "MinterSet",
      "type": "event"
    },
    {
      "anonymous": false,
      "inputs": [
        {
          "indexed": true,
          "internalType": "address",
          "name": "previousOwner",
          "type": "address"
        },
        {
          "indexed": true,
          "internalType": "address",
          "name": "newOwner",
          "type": "address"
        }
      ],
      "name": "OwnershipTransferred",
      "type": "event"
    },
    {
      "anonymous": false,
      "inputs": [
        {
          "indexed": true,
          "internalType": "address",
          "name": "from",
          "type": "address"
        },
        {
          "indexed": true,
          "internalType": "address",
          "name": "to",
          "type": "address"
        },
        {
          "indexed": true,
          "internalType": "uint256",
          "name": "tokenId",
          "type": "uint256"
        }
      ],
      "name": "Transfer",
      "type": "event"
    },
    {
      "anonymous": false,
      "inputs": [
        {
          "indexed": false,
          "internalType": "string",
          "name": "newVisualAppearance",
          "type": "string"
        }
      ],
      "name": "VisualAppearanceSet",
      "type": "event"
    },
    {
      "inputs": [
        {
          "internalType": "address",
          "name": "to",
          "type": "address"
        },
        {
          "internalType": "uint256",
          "name": "tokenId",
          "type": "uint256"
        }
      ],
      "name": "approve",
      "outputs": [],
      "stateMutability": "nonpayable",
      "type": "function"
    },
    {
      "inputs": [
        {
          "internalType": "address",
          "name": "owner",
          "type": "address"
        }
      ],
      "name": "balanceOf",
      "outputs": [
        {
          "internalType": "uint256",
          "name": "",
          "type": "uint256"
        }
      ],
      "stateMutability": "view",
      "type": "function"
    },
    {
      "inputs": [],
      "name": "baseURI",
      "outputs": [
        {
          "internalType": "string",
          "name": "",
          "type": "string"
        }
      ],
      "stateMutability": "view",
      "type": "function"
    },
    {
      "inputs": [],
      "name": "description",
      "outputs": [
        {
          "internalType": "string",
          "name": "",
          "type": "string"
        }
      ],
      "stateMutability": "view",
      "type": "function"
    },
    {
      "inputs": [
        {
          "internalType": "uint256",
          "name": "tokenId",
          "type": "uint256"
        }
      ],
      "name": "getApproved",
      "outputs": [
        {
          "internalType": "address",
          "name": "",
          "type": "address"
        }
      ],
      "stateMutability": "view",
      "type": "function"
    },
    {
      "inputs": [
        {
          "internalType": "address",
          "name": "_owner",
          "type": "address"
        },
        {
          "internalType": "string",
          "name": "_name",
          "type": "string"
        },
        {
          "internalType": "string",
          "name": "_symbol",
          "type": "string"
        },
        {
          "internalType": "string",
          "name": "_description",
          "type": "string"
        },
        {
          "internalType": "string",
          "name": "_visualAppearance",
          "type": "string"
        }
      ],
      "name": "initialize",
      "outputs": [],
      "stateMutability": "nonpayable",
      "type": "function"
    },
    {
      "inputs": [
        {
          "internalType": "address",
          "name": "owner",
          "type": "address"
        },
        {
          "internalType": "address",
          "name": "operator",
          "type": "address"
        }
      ],
      "name": "isApprovedForAll",
      "outputs": [
        {
          "internalType": "bool",
          "name": "",
          "type": "bool"
        }
      ],
      "stateMutability": "view",
      "type": "function"
    },
    {
      "inputs": [
        {
          "internalType": "address",
          "name": "to",
          "type": "address"
        }
      ],
      "name": "mint",
      "outputs": [],
      "stateMutability": "nonpayable",
      "type": "function"
    },
    {
      "inputs": [
        {
          "internalType": "address",
          "name": "",
          "type": "address"
        }
      ],
      "name": "minters",
      "outputs": [
        {
          "internalType": "bool",
          "name": "",
          "type": "bool"
        }
      ],
      "stateMutability": "view",
      "type": "function"
    },
    {
      "inputs": [],
      "name": "name",
      "outputs": [
        {
          "internalType": "string",
          "name": "",
          "type": "string"
        }
      ],
      "stateMutability": "view",
      "type": "function"
    },
    {
      "inputs": [],
      "name": "nftIds",
      "outputs": [
        {
          "internalType": "uint256",
          "name": "",
          "type": "uint256"
        }
      ],
      "stateMutability": "view",
      "type": "function"
    },
    {
      "inputs": [],
      "name": "owner",
      "outputs": [
        {
          "internalType": "address",
          "name": "",
          "type": "address"
        }
      ],
      "stateMutability": "view",
      "type": "function"
    },
    {
      "inputs": [
        {
          "internalType": "uint256",
          "name": "tokenId",
          "type": "uint256"
        }
      ],
      "name": "ownerOf",
      "outputs": [
        {
          "internalType": "address",
          "name": "",
          "type": "address"
        }
      ],
      "stateMutability": "view",
      "type": "function"
    },
    {
      "inputs": [],
      "name": "renounceOwnership",
      "outputs": [],
      "stateMutability": "nonpayable",
      "type": "function"
    },
    {
      "inputs": [
        {
          "internalType": "address",
          "name": "from",
          "type": "address"
        },
        {
          "internalType": "address",
          "name": "to",
          "type": "address"
        },
        {
          "internalType": "uint256",
          "name": "tokenId",
          "type": "uint256"
        }
      ],
      "name": "safeTransferFrom",
      "outputs": [],
      "stateMutability": "nonpayable",
      "type": "function"
    },
    {
      "inputs": [
        {
          "internalType": "address",
          "name": "from",
          "type": "address"
        },
        {
          "internalType": "address",
          "name": "to",
          "type": "address"
        },
        {
          "internalType": "uint256",
          "name": "tokenId",
          "type": "uint256"
        },
        {
          "internalType": "bytes",
          "name": "_data",
          "type": "bytes"
        }
      ],
      "name": "safeTransferFrom",
      "outputs": [],
      "stateMutability": "nonpayable",
      "type": "function"
    },
    {
      "inputs": [
        {
          "internalType": "address",
          "name": "operator",
          "type": "address"
        },
        {
          "internalType": "bool",
          "name": "approved",
          "type": "bool"
        }
      ],
      "name": "setApprovalForAll",
      "outputs": [],
      "stateMutability": "nonpayable",
      "type": "function"
    },
    {
      "inputs": [
        {
          "internalType": "string",
          "name": "_description",
          "type": "string"
        }
      ],
      "name": "setDescription",
      "outputs": [],
      "stateMutability": "nonpayable",
      "type": "function"
    },
    {
      "inputs": [
        {
          "internalType": "address",
          "name": "minter",
          "type": "address"
        },
        {
          "internalType": "bool",
          "name": "allowance",
          "type": "bool"
        }
      ],
      "name": "setMinter",
      "outputs": [],
      "stateMutability": "nonpayable",
      "type": "function"
    },
    {
      "inputs": [
        {
          "internalType": "string",
          "name": "_visualAppearance",
          "type": "string"
        }
      ],
      "name": "setVisualAppearance",
      "outputs": [],
      "stateMutability": "nonpayable",
      "type": "function"
    },
    {
      "inputs": [
        {
          "internalType": "bytes4",
          "name": "interfaceId",
          "type": "bytes4"
        }
      ],
      "name": "supportsInterface",
      "outputs": [
        {
          "internalType": "bool",
          "name": "",
          "type": "bool"
        }
      ],
      "stateMutability": "view",
      "type": "function"
    },
    {
      "inputs": [],
      "name": "symbol",
      "outputs": [
        {
          "internalType": "string",
          "name": "",
          "type": "string"
        }
      ],
      "stateMutability": "view",
      "type": "function"
    },
    {
      "inputs": [
        {
          "internalType": "uint256",
          "name": "index",
          "type": "uint256"
        }
      ],
      "name": "tokenByIndex",
      "outputs": [
        {
          "internalType": "uint256",
          "name": "",
          "type": "uint256"
        }
      ],
      "stateMutability": "view",
      "type": "function"
    },
    {
      "inputs": [
        {
          "internalType": "address",
          "name": "owner",
          "type": "address"
        },
        {
          "internalType": "uint256",
          "name": "index",
          "type": "uint256"
        }
      ],
      "name": "tokenOfOwnerByIndex",
      "outputs": [
        {
          "internalType": "uint256",
          "name": "",
          "type": "uint256"
        }
      ],
      "stateMutability": "view",
      "type": "function"
    },
    {
      "inputs": [
        {
          "internalType": "uint256",
          "name": "tokenId",
          "type": "uint256"
        }
      ],
      "name": "tokenURI",
      "outputs": [
        {
          "internalType": "string",
          "name": "",
          "type": "string"
        }
      ],
      "stateMutability": "view",
      "type": "function"
    },
    {
      "inputs": [],
      "name": "totalSupply",
      "outputs": [
        {
          "internalType": "uint256",
          "name": "",
          "type": "uint256"
        }
      ],
      "stateMutability": "view",
      "type": "function"
    },
    {
      "inputs": [
        {
          "internalType": "address",
          "name": "from",
          "type": "address"
        },
        {
          "internalType": "address",
          "name": "to",
          "type": "address"
        },
        {
          "internalType": "uint256",
          "name": "tokenId",
          "type": "uint256"
        }
      ],
      "name": "transferFrom",
      "outputs": [],
      "stateMutability": "nonpayable",
      "type": "function"
    },
    {
      "inputs": [
        {
          "internalType": "address",
          "name": "newOwner",
          "type": "address"
        }
      ],
      "name": "transferOwnership",
      "outputs": [],
      "stateMutability": "nonpayable",
      "type": "function"
    },
    {
      "inputs": [],
      "name": "visualAppearance",
      "outputs": [
        {
          "internalType": "string",
          "name": "",
          "type": "string"
        }
      ],
      "stateMutability": "view",
      "type": "function"
    }
  ],
  "transactionHash": "0x37131d55ac4afec7ff330976652dbdc11ba9f1ef7fffe79945a48e298df8e802",
  "args": [],
  "numDeployments": 1,
  "solcInputHash": "72d52cc06dbd34938e7b46122e9e590a",
  "bytecode": "0x608060405234801561001057600080fd5b50612fb7806100206000396000f3fe608060405234801561001057600080fd5b50600436106101cf5760003560e01c8063715018a611610104578063b6dbcae5116100a2578063ddfe867f11610071578063ddfe867f14610923578063e985e9c51461092b578063f2fde38b14610959578063f46eccc41461097f576101cf565b8063b6dbcae5146105d1578063b88d4fde14610814578063c87b56dd146108d8578063cf456ae7146108f5576101cf565b806390c3f38f116100de57806390c3f38f146104ef57806395d89b4114610593578063a22cb4651461059b578063ab6167d3146105c9576101cf565b8063715018a6146104d75780637284e416146104df5780638da5cb5b146104e7576101cf565b806342842e0e116101715780636a6278421161014b5780636a627842146103df5780636c0360eb146104055780636d63a0071461040d57806370a08231146104b1576101cf565b806342842e0e1461036f5780634f6ccce7146103a55780636352211e146103c2576101cf565b8063095ea7b3116101ad578063095ea7b3146102c557806318160ddd146102f357806323b872dd1461030d5780632f745c5914610343576101cf565b806301ffc9a7146101d457806306fdde031461020f578063081812fc1461028c575b600080fd5b6101fb600480360360208110156101ea57600080fd5b50356001600160e01b0319166109a5565b604080519115158252519081900360200190f35b6102176109c8565b6040805160208082528351818301528351919283929083019185019080838360005b83811015610251578181015183820152602001610239565b50505050905090810190601f16801561027e5780820380516001836020036101000a031916815260200191505b509250505060405180910390f35b6102a9600480360360208110156102a257600080fd5b5035610a5e565b604080516001600160a01b039092168252519081900360200190f35b6102f1600480360360408110156102db57600080fd5b506001600160a01b038135169060200135610ac0565b005b6102fb610b9b565b60408051918252519081900360200190f35b6102f16004803603606081101561032357600080fd5b506001600160a01b03813581169160208101359091169060400135610bac565b6102fb6004803603604081101561035957600080fd5b506001600160a01b038135169060200135610c03565b6102f16004803603606081101561038557600080fd5b506001600160a01b03813581169160208101359091169060400135610c2e565b6102fb600480360360208110156103bb57600080fd5b5035610c49565b6102a9600480360360208110156103d857600080fd5b5035610c5f565b6102f1600480360360208110156103f557600080fd5b50356001600160a01b0316610c87565b610217610d5c565b6102f16004803603602081101561042357600080fd5b810190602081018135600160201b81111561043d57600080fd5b82018360208201111561044f57600080fd5b803590602001918460018302840111600160201b8311171561047057600080fd5b91908080601f016020809104026020016040519081016040528093929190818152602001838380828437600092019190915250929550610dbd945050505050565b6102fb600480360360208110156104c757600080fd5b50356001600160a01b0316610f20565b6102f1610f88565b610217611034565b6102a96110c2565b6102f16004803603602081101561050557600080fd5b810190602081018135600160201b81111561051f57600080fd5b82018360208201111561053157600080fd5b803590602001918460018302840111600160201b8311171561055257600080fd5b91908080601f0160208091040260200160405190810160405280939291908181526020018383808284376000920191909152509295506110d1945050505050565b61021761120e565b6102f1600480360360408110156105b157600080fd5b506001600160a01b038135169060200135151561126f565b610217611374565b6102f1600480360360a08110156105e757600080fd5b6001600160a01b038235169190810190604081016020820135600160201b81111561061157600080fd5b82018360208201111561062357600080fd5b803590602001918460018302840111600160201b8311171561064457600080fd5b91908080601f0160208091040260200160405190810160405280939291908181526020018383808284376000920191909152509295949360208101935035915050600160201b81111561069657600080fd5b8201836020820111156106a857600080fd5b803590602001918460018302840111600160201b831117156106c957600080fd5b91908080601f0160208091040260200160405190810160405280939291908181526020018383808284376000920191909152509295949360208101935035915050600160201b81111561071b57600080fd5b82018360208201111561072d57600080fd5b803590602001918460018302840111600160201b8311171561074e57600080fd5b91908080601f0160208091040260200160405190810160405280939291908181526020018383808284376000920191909152509295949360208101935035915050600160201b8111156107a057600080fd5b8201836020820111156107b257600080fd5b803590602001918460018302840111600160201b831117156107d357600080fd5b91908080601f0160208091040260200160405190810160405280939291908181526020018383808284376000920191909152509295506113cf945050505050565b6102f16004803603608081101561082a57600080fd5b6001600160a01b03823581169260208101359091169160408201359190810190608081016060820135600160201b81111561086457600080fd5b82018360208201111561087657600080fd5b803590602001918460018302840111600160201b8311171561089757600080fd5b91908080601f0160208091040260200160405190810160405280939291908181526020018383808284376000920191909152509295506115a4945050505050565b610217600480360360208110156108ee57600080fd5b5035611602565b6102f16004803603604081101561090b57600080fd5b506001600160a01b0381351690602001351515611885565b6102fb6119a2565b6101fb6004803603604081101561094157600080fd5b506001600160a01b03813581169160200135166119a8565b6102f16004803603602081101561096f57600080fd5b50356001600160a01b03166119d6565b6101fb6004803603602081101561099557600080fd5b50356001600160a01b0316611ad9565b6001600160e01b0319811660009081526033602052604090205460ff165b919050565b606a8054604080516020601f6002600019610100600188161502019095169490940493840181900481028201810190925282815260609390929091830182828015610a545780601f10610a2957610100808354040283529160200191610a54565b820191906000526020600020905b815481529060010190602001808311610a3757829003601f168201915b5050505050905090565b6000610a6982611aee565b610aa45760405162461bcd60e51b815260040180806020018281038252602c815260200180612e8c602c913960400191505060405180910390fd5b506000908152606860205260409020546001600160a01b031690565b6000610acb82610c5f565b9050806001600160a01b0316836001600160a01b03161415610b1e5760405162461bcd60e51b8152600401808060200182810382526021815260200180612f306021913960400191505060405180910390fd5b806001600160a01b0316610b30611afb565b6001600160a01b03161480610b515750610b5181610b4c611afb565b6119a8565b610b8c5760405162461bcd60e51b8152600401808060200182810382526038815260200180612d8f6038913960400191505060405180910390fd5b610b968383611aff565b505050565b6000610ba76066611b6d565b905090565b610bbd610bb7611afb565b82611b78565b610bf85760405162461bcd60e51b8152600401808060200182810382526031815260200180612f516031913960400191505060405180910390fd5b610b96838383611c1c565b6001600160a01b0382166000908152606560205260408120610c259083611d68565b90505b92915050565b610b96838383604051806020016040528060008152506115a4565b600080610c57606684611d74565b509392505050565b6000610c2882604051806060016040528060298152602001612e136029913960669190611d90565b33600090815260cc602052604090205460ff16610ceb576040805162461bcd60e51b815260206004820152601c60248201527f527562794e46543a204d696e74696e67206e6f7420616c6c6f77656400000000604482015290519081900360640190fd5b6001600160a01b038116610d46576040805162461bcd60e51b815260206004820152601960248201527f527562794e46543a20496e76616c696420526563656976657200000000000000604482015290519081900360640190fd5b60c954610d538282611da7565b60010160c95550565b606d8054604080516020601f6002600019610100600188161502019095169490940493840181900481028201810190925282815260609390929091830182828015610a545780601f10610a2957610100808354040283529160200191610a54565b610dc5611afb565b6001600160a01b0316610dd66110c2565b6001600160a01b031614610e1f576040805162461bcd60e51b81526020600482018190526024820152600080516020612eb8833981519152604482015290519081900360640190fd5b8051610e5c5760405162461bcd60e51b8152600401808060200182810382526022815260200180612dc76022913960400191505060405180910390fd5b8051610e6f9060cb906020840190612c31565b5060408051602080825260cb8054600260001961010060018416150201909116049183018290527faebfd07b0b82c43a94f98fb0e4796a63206582be32a04a27986d08949dad52a893909291829182019084908015610f0f5780601f10610ee457610100808354040283529160200191610f0f565b820191906000526020600020905b815481529060010190602001808311610ef257829003601f168201915b50509250505060405180910390a150565b60006001600160a01b038216610f675760405162461bcd60e51b815260040180806020018281038252602a815260200180612de9602a913960400191505060405180910390fd5b6001600160a01b0382166000908152606560205260409020610c2890611b6d565b610f90611afb565b6001600160a01b0316610fa16110c2565b6001600160a01b031614610fea576040805162461bcd60e51b81526020600482018190526024820152600080516020612eb8833981519152604482015290519081900360640190fd5b6097546040516000916001600160a01b0316907f8be0079c531659141344cd1fd0a4f28419497f9722a3daafe3b4186f6b6457e0908390a3609780546001600160a01b0319169055565b60ca805460408051602060026001851615610100026000190190941693909304601f810184900484028201840190925281815292918301828280156110ba5780601f1061108f576101008083540402835291602001916110ba565b820191906000526020600020905b81548152906001019060200180831161109d57829003601f168201915b505050505081565b6097546001600160a01b031690565b6110d9611afb565b6001600160a01b03166110ea6110c2565b6001600160a01b031614611133576040805162461bcd60e51b81526020600482018190526024820152600080516020612eb8833981519152604482015290519081900360640190fd5b8051611186576040805162461bcd60e51b815260206004820152601c60248201527f527562794e46543a20496e76616c6964206465736372697074696f6e00000000604482015290519081900360640190fd5b80516111999060ca906020840190612c31565b5060408051602080825260ca8054600260001961010060018416150201909116049183018290527f3e901d580d416311e4d68918afffe82b58f06885f6fcf1b2d3b34b35b238ef5f93909291829182019084908015610f0f5780601f10610ee457610100808354040283529160200191610f0f565b606b8054604080516020601f6002600019610100600188161502019095169490940493840181900481028201810190925282815260609390929091830182828015610a545780601f10610a2957610100808354040283529160200191610a54565b611277611afb565b6001600160a01b0316826001600160a01b031614156112dd576040805162461bcd60e51b815260206004820152601960248201527f4552433732313a20617070726f766520746f2063616c6c657200000000000000604482015290519081900360640190fd5b80606960006112ea611afb565b6001600160a01b03908116825260208083019390935260409182016000908120918716808252919093529120805460ff19169215159290921790915561132e611afb565b6001600160a01b03167f17307eab39ab6107e8899845ad3d59bd9653f200f220920489ca2b5937696c318360405180821515815260200191505060405180910390a35050565b60cb805460408051602060026001851615610100026000190190941693909304601f810184900484028201840190925281815292918301828280156110ba5780601f1061108f576101008083540402835291602001916110ba565b600054610100900460ff16806113e857506113e8611dc5565b806113f6575060005460ff16155b6114315760405162461bcd60e51b815260040180806020018281038252602e815260200180612e3c602e913960400191505060405180910390fd5b600054610100900460ff1615801561145c576000805460ff1961ff0019909116610100171660011790555b6001600160a01b0386166114b7576040805162461bcd60e51b815260206004820152601e60248201527f527562794e46543a20496e76616c6964206f776e657220616464726573730000604482015290519081900360640190fd5b825161150a576040805162461bcd60e51b815260206004820152601c60248201527f527562794e46543a20496e76616c6964206465736372697074696f6e00000000604482015290519081900360640190fd5b81516115475760405162461bcd60e51b8152600401808060200182810382526022815260200180612dc76022913960400191505060405180910390fd5b6115518585611dd6565b611559611e93565b611562866119d6565b82516115759060ca906020860190612c31565b5081516115899060cb906020850190612c31565b50801561159c576000805461ff00191690555b505050505050565b6115b56115af611afb565b83611b78565b6115f05760405162461bcd60e51b8152600401808060200182810382526031815260200180612f516031913960400191505060405180910390fd5b6115fc84848484611f45565b50505050565b606061160d82611aee565b6116485760405162461bcd60e51b815260040180806020018281038252602f815260200180612f01602f913960400191505060405180910390fd5b6000828152606c602090815260409182902080548351601f60026000196101006001861615020190931692909204918201849004840281018401909452808452606093928301828280156116dd5780601f106116b2576101008083540402835291602001916116dd565b820191906000526020600020905b8154815290600101906020018083116116c057829003601f168201915b5050505050905060606116ee610d5c565b9050805160001415611702575090506109c3565b8151156117c35780826040516020018083805190602001908083835b6020831061173d5780518252601f19909201916020918201910161171e565b51815160209384036101000a600019018019909216911617905285519190930192850191508083835b602083106117855780518252601f199092019160209182019101611766565b6001836020036101000a03801982511681845116808217855250505050505090500192505050604051602081830303815290604052925050506109c3565b806117cd85611f97565b6040516020018083805190602001908083835b602083106117ff5780518252601f1990920191602091820191016117e0565b51815160209384036101000a600019018019909216911617905285519190930192850191508083835b602083106118475780518252601f199092019160209182019101611828565b6001836020036101000a0380198251168184511680821785525050505050509050019250505060405160208183030381529060405292505050919050565b61188d611afb565b6001600160a01b031661189e6110c2565b6001600160a01b0316146118e7576040805162461bcd60e51b81526020600482018190526024820152600080516020612eb8833981519152604482015290519081900360640190fd5b6001600160a01b038216611942576040805162461bcd60e51b815260206004820152601f60248201527f527562794e46543a20496e76616c6964206d696e746572206164647265737300604482015290519081900360640190fd5b6001600160a01b038216600081815260cc6020908152604091829020805460ff1916851515908117909155825190815291517f583b0aa0e528532caf4b907c11d7a8158a122fe2a6fb80cd9b09776ebea8d92d9281900390910190a25050565b60c95481565b6001600160a01b03918216600090815260696020908152604080832093909416825291909152205460ff1690565b6119de611afb565b6001600160a01b03166119ef6110c2565b6001600160a01b031614611a38576040805162461bcd60e51b81526020600482018190526024820152600080516020612eb8833981519152604482015290519081900360640190fd5b6001600160a01b038116611a7d5760405162461bcd60e51b8152600401808060200182810382526026815260200180612d196026913960400191505060405180910390fd5b6097546040516001600160a01b038084169216907f8be0079c531659141344cd1fd0a4f28419497f9722a3daafe3b4186f6b6457e090600090a3609780546001600160a01b0319166001600160a01b0392909216919091179055565b60cc6020526000908152604090205460ff1681565b6000610c28606683612072565b3390565b600081815260686020526040902080546001600160a01b0319166001600160a01b0384169081179091558190611b3482610c5f565b6001600160a01b03167f8c5be1e5ebec7d5bd14f71427d1e84f3dd0314c0f7b2291e5b200ac8c7c3b92560405160405180910390a45050565b6000610c288261207e565b6000611b8382611aee565b611bbe5760405162461bcd60e51b815260040180806020018281038252602c815260200180612d63602c913960400191505060405180910390fd5b6000611bc983610c5f565b9050806001600160a01b0316846001600160a01b03161480611c045750836001600160a01b0316611bf984610a5e565b6001600160a01b0316145b80611c145750611c1481856119a8565b949350505050565b826001600160a01b0316611c2f82610c5f565b6001600160a01b031614611c745760405162461bcd60e51b8152600401808060200182810382526029815260200180612ed86029913960400191505060405180910390fd5b6001600160a01b038216611cb95760405162461bcd60e51b8152600401808060200182810382526024815260200180612d3f6024913960400191505060405180910390fd5b611cc4838383610b96565b611ccf600082611aff565b6001600160a01b0383166000908152606560205260409020611cf19082612082565b506001600160a01b0382166000908152606560205260409020611d14908261208e565b50611d216066828461209a565b5080826001600160a01b0316846001600160a01b03167fddf252ad1be2c89b69c2b068fc378daa952ba7f163c4a11628f55a4df523b3ef60405160405180910390a4505050565b6000610c2583836120b0565b6000808080611d838686612114565b9097909650945050505050565b6000611d9d84848461218f565b90505b9392505050565b611dc1828260405180602001604052806000815250612259565b5050565b6000611dd0306122ab565b15905090565b600054610100900460ff1680611def5750611def611dc5565b80611dfd575060005460ff16155b611e385760405162461bcd60e51b815260040180806020018281038252602e815260200180612e3c602e913960400191505060405180910390fd5b600054610100900460ff16158015611e63576000805460ff1961ff0019909116610100171660011790555b611e6b6122b1565b611e73612351565b611e7d83836123ee565b8015610b96576000805461ff0019169055505050565b600054610100900460ff1680611eac5750611eac611dc5565b80611eba575060005460ff16155b611ef55760405162461bcd60e51b815260040180806020018281038252602e815260200180612e3c602e913960400191505060405180910390fd5b600054610100900460ff16158015611f20576000805460ff1961ff0019909116610100171660011790555b611f286122b1565b611f306124d3565b8015611f42576000805461ff00191690555b50565b611f50848484611c1c565b611f5c848484846125cc565b6115fc5760405162461bcd60e51b8152600401808060200182810382526032815260200180612ce76032913960400191505060405180910390fd5b606081611fbc57506040805180820190915260018152600360fc1b60208201526109c3565b8160005b8115611fd457600101600a82049150611fc0565b60608167ffffffffffffffff81118015611fed57600080fd5b506040519080825280601f01601f191660200182016040528015612018576020820181803683370190505b50859350905060001982015b831561206957600a840660300160f81b8282806001900393508151811061204757fe5b60200101906001600160f81b031916908160001a905350600a84049350612024565b50949350505050565b6000610c258383612734565b5490565b6000610c25838361274c565b6000610c258383612812565b6000611d9d84846001600160a01b03851661285c565b815460009082106120f25760405162461bcd60e51b8152600401808060200182810382526022815260200180612cc56022913960400191505060405180910390fd5b82600001828154811061210157fe5b9060005260206000200154905092915050565b8154600090819083106121585760405162461bcd60e51b8152600401808060200182810382526022815260200180612e6a6022913960400191505060405180910390fd5b600084600001848154811061216957fe5b906000526020600020906002020190508060000154816001015492509250509250929050565b6000828152600184016020526040812054828161222a5760405162461bcd60e51b81526004018080602001828103825283818151815260200191508051906020019080838360005b838110156121ef5781810151838201526020016121d7565b50505050905090810190601f16801561221c5780820380516001836020036101000a031916815260200191505b509250505060405180910390fd5b5084600001600182038154811061223d57fe5b9060005260206000209060020201600101549150509392505050565b61226383836128f3565b61227060008484846125cc565b610b965760405162461bcd60e51b8152600401808060200182810382526032815260200180612ce76032913960400191505060405180910390fd5b3b151590565b600054610100900460ff16806122ca57506122ca611dc5565b806122d8575060005460ff16155b6123135760405162461bcd60e51b815260040180806020018281038252602e815260200180612e3c602e913960400191505060405180910390fd5b600054610100900460ff16158015611f30576000805460ff1961ff0019909116610100171660011790558015611f42576000805461ff001916905550565b600054610100900460ff168061236a575061236a611dc5565b80612378575060005460ff16155b6123b35760405162461bcd60e51b815260040180806020018281038252602e815260200180612e3c602e913960400191505060405180910390fd5b600054610100900460ff161580156123de576000805460ff1961ff0019909116610100171660011790555b611f306301ffc9a760e01b612a21565b600054610100900460ff16806124075750612407611dc5565b80612415575060005460ff16155b6124505760405162461bcd60e51b815260040180806020018281038252602e815260200180612e3c602e913960400191505060405180910390fd5b600054610100900460ff1615801561247b576000805460ff1961ff0019909116610100171660011790555b825161248e90606a906020860190612c31565b5081516124a290606b906020850190612c31565b506124b36380ac58cd60e01b612a21565b6124c3635b5e139f60e01b612a21565b611e7d63780e9d6360e01b612a21565b600054610100900460ff16806124ec57506124ec611dc5565b806124fa575060005460ff16155b6125355760405162461bcd60e51b815260040180806020018281038252602e815260200180612e3c602e913960400191505060405180910390fd5b600054610100900460ff16158015612560576000805460ff1961ff0019909116610100171660011790555b600061256a611afb565b609780546001600160a01b0319166001600160a01b038316908117909155604051919250906000907f8be0079c531659141344cd1fd0a4f28419497f9722a3daafe3b4186f6b6457e0908290a3508015611f42576000805461ff001916905550565b60006125e0846001600160a01b03166122ab565b6125ec57506001611c14565b60606126fa630a85bd0160e11b612601611afb565b88878760405160240180856001600160a01b03168152602001846001600160a01b0316815260200183815260200180602001828103825283818151815260200191508051906020019080838360005b83811015612668578181015183820152602001612650565b50505050905090810190601f1680156126955780820380516001836020036101000a031916815260200191505b5095505050505050604051602081830303815290604052906001600160e01b0319166020820180516001600160e01b038381831617835250505050604051806060016040528060328152602001612ce7603291396001600160a01b0388169190612aa5565b9050600081806020019051602081101561271357600080fd5b50516001600160e01b031916630a85bd0160e11b1492505050949350505050565b60009081526001919091016020526040902054151590565b60008181526001830160205260408120548015612808578354600019808301919081019060009087908390811061277f57fe5b906000526020600020015490508087600001848154811061279c57fe5b6000918252602080832090910192909255828152600189810190925260409020908401905586548790806127cc57fe5b60019003818190600052602060002001600090559055866001016000878152602001908152602001600020600090556001945050505050610c28565b6000915050610c28565b600061281e8383612734565b61285457508154600181810184556000848152602080822090930184905584548482528286019093526040902091909155610c28565b506000610c28565b6000828152600184016020526040812054806128c1575050604080518082018252838152602080820184815286546001818101895560008981528481209551600290930290950191825591519082015586548684528188019092529290912055611da0565b828560000160018303815481106128d457fe5b9060005260206000209060020201600101819055506000915050611da0565b6001600160a01b03821661294e576040805162461bcd60e51b815260206004820181905260248201527f4552433732313a206d696e7420746f20746865207a65726f2061646472657373604482015290519081900360640190fd5b61295781611aee565b156129a9576040805162461bcd60e51b815260206004820152601c60248201527f4552433732313a20746f6b656e20616c7265616479206d696e74656400000000604482015290519081900360640190fd5b6129b560008383610b96565b6001600160a01b03821660009081526065602052604090206129d7908261208e565b506129e46066828461209a565b5060405181906001600160a01b038416906000907fddf252ad1be2c89b69c2b068fc378daa952ba7f163c4a11628f55a4df523b3ef908290a45050565b6001600160e01b03198082161415612a80576040805162461bcd60e51b815260206004820152601c60248201527f4552433136353a20696e76616c696420696e7465726661636520696400000000604482015290519081900360640190fd5b6001600160e01b0319166000908152603360205260409020805460ff19166001179055565b6060611d9d848460008585612ab9856122ab565b612b0a576040805162461bcd60e51b815260206004820152601d60248201527f416464726573733a2063616c6c20746f206e6f6e2d636f6e7472616374000000604482015290519081900360640190fd5b60006060866001600160a01b031685876040518082805190602001908083835b60208310612b495780518252601f199092019160209182019101612b2a565b6001836020036101000a03801982511681845116808217855250505050505090500191505060006040518083038185875af1925050503d8060008114612bab576040519150601f19603f3d011682016040523d82523d6000602084013e612bb0565b606091505b5091509150612bc0828286612bcb565b979650505050505050565b60608315612bda575081611da0565b825115612bea5782518084602001fd5b60405162461bcd60e51b81526020600482018181528451602484015284518593919283926044019190850190808383600083156121ef5781810151838201526020016121d7565b828054600181600116156101000203166002900490600052602060002090601f016020900481019282601f10612c7257805160ff1916838001178555612c9f565b82800160010185558215612c9f579182015b82811115612c9f578251825591602001919060010190612c84565b50612cab929150612caf565b5090565b5b80821115612cab5760008155600101612cb056fe456e756d657261626c655365743a20696e646578206f7574206f6620626f756e64734552433732313a207472616e7366657220746f206e6f6e20455243373231526563656976657220696d706c656d656e7465724f776e61626c653a206e6577206f776e657220697320746865207a65726f20616464726573734552433732313a207472616e7366657220746f20746865207a65726f20616464726573734552433732313a206f70657261746f7220717565727920666f72206e6f6e6578697374656e7420746f6b656e4552433732313a20617070726f76652063616c6c6572206973206e6f74206f776e6572206e6f7220617070726f76656420666f7220616c6c527562794e46543a20496e76616c69642076697375616c20617070656172616e63654552433732313a2062616c616e636520717565727920666f7220746865207a65726f20616464726573734552433732313a206f776e657220717565727920666f72206e6f6e6578697374656e7420746f6b656e496e697469616c697a61626c653a20636f6e747261637420697320616c726561647920696e697469616c697a6564456e756d657261626c654d61703a20696e646578206f7574206f6620626f756e64734552433732313a20617070726f76656420717565727920666f72206e6f6e6578697374656e7420746f6b656e4f776e61626c653a2063616c6c6572206973206e6f7420746865206f776e65724552433732313a207472616e73666572206f6620746f6b656e2074686174206973206e6f74206f776e4552433732314d657461646174613a2055524920717565727920666f72206e6f6e6578697374656e7420746f6b656e4552433732313a20617070726f76616c20746f2063757272656e74206f776e65724552433732313a207472616e736665722063616c6c6572206973206e6f74206f776e6572206e6f7220617070726f766564a264697066735822122049c14ac30cd18d8c72d4f0e25f6eefc5ff79038ccb267079c9e1a1041348484f64736f6c634300060c0033",
  "devdoc": {
    "kind": "dev",
    "methods": {
      "approve(address,uint256)": {
        "details": "See {IERC721-approve}."
      },
      "balanceOf(address)": {
        "details": "See {IERC721-balanceOf}."
      },
      "baseURI()": {
        "details": "Returns the base URI set via {_setBaseURI}. This will be automatically added as a prefix in {tokenURI} to each token's URI, or to the token ID if no specific URI is set for that token ID."
      },
      "getApproved(uint256)": {
        "details": "See {IERC721-getApproved}."
      },
      "isApprovedForAll(address,address)": {
        "details": "See {IERC721-isApprovedForAll}."
      },
      "name()": {
        "details": "See {IERC721Metadata-name}."
      },
      "owner()": {
        "details": "Returns the address of the current owner."
      },
      "ownerOf(uint256)": {
        "details": "See {IERC721-ownerOf}."
      },
      "renounceOwnership()": {
        "details": "Leaves the contract without owner. It will not be possible to call `onlyOwner` functions anymore. Can only be called by the current owner. NOTE: Renouncing ownership will leave the contract without an owner, thereby removing any functionality that is only available to the owner."
      },
      "safeTransferFrom(address,address,uint256)": {
        "details": "See {IERC721-safeTransferFrom}."
      },
      "safeTransferFrom(address,address,uint256,bytes)": {
        "details": "See {IERC721-safeTransferFrom}."
      },
      "setApprovalForAll(address,bool)": {
        "details": "See {IERC721-setApprovalForAll}."
      },
      "supportsInterface(bytes4)": {
        "details": "See {IERC165-supportsInterface}. Time complexity O(1), guaranteed to always use less than 30 000 gas."
      },
      "symbol()": {
        "details": "See {IERC721Metadata-symbol}."
      },
      "tokenByIndex(uint256)": {
        "details": "See {IERC721Enumerable-tokenByIndex}."
      },
      "tokenOfOwnerByIndex(address,uint256)": {
        "details": "See {IERC721Enumerable-tokenOfOwnerByIndex}."
      },
      "tokenURI(uint256)": {
        "details": "See {IERC721Metadata-tokenURI}."
      },
      "totalSupply()": {
        "details": "See {IERC721Enumerable-totalSupply}."
      },
      "transferFrom(address,address,uint256)": {
        "details": "See {IERC721-transferFrom}."
      },
      "transferOwnership(address)": {
        "details": "Transfers ownership of the contract to a new account (`newOwner`). Can only be called by the current owner."
      }
    },
    "version": 1
  },
  "userdoc": {
    "kind": "user",
    "methods": {},
    "version": 1
  },
  "storageLayout": {
    "storage": [
      {
        "astId": 705,
        "contract": "contracts/nfts/RubyProfileNFT.sol:RubyProfileNFT",
        "label": "_initialized",
        "offset": 0,
        "slot": "0",
        "type": "t_bool"
      },
      {
        "astId": 708,
        "contract": "contracts/nfts/RubyProfileNFT.sol:RubyProfileNFT",
        "label": "_initializing",
        "offset": 1,
        "slot": "0",
        "type": "t_bool"
      },
      {
        "astId": 2910,
        "contract": "contracts/nfts/RubyProfileNFT.sol:RubyProfileNFT",
        "label": "__gap",
        "offset": 0,
        "slot": "1",
        "type": "t_array(t_uint256)50_storage"
      },
      {
        "astId": 273,
        "contract": "contracts/nfts/RubyProfileNFT.sol:RubyProfileNFT",
        "label": "_supportedInterfaces",
        "offset": 0,
        "slot": "51",
        "type": "t_mapping(t_bytes4,t_bool)"
      },
      {
        "astId": 330,
        "contract": "contracts/nfts/RubyProfileNFT.sol:RubyProfileNFT",
        "label": "__gap",
        "offset": 0,
        "slot": "52",
        "type": "t_array(t_uint256)49_storage"
      },
      {
        "astId": 1505,
        "contract": "contracts/nfts/RubyProfileNFT.sol:RubyProfileNFT",
        "label": "_holderTokens",
        "offset": 0,
        "slot": "101",
        "type": "t_mapping(t_address,t_struct(UintSet)3868_storage)"
      },
      {
        "astId": 1507,
        "contract": "contracts/nfts/RubyProfileNFT.sol:RubyProfileNFT",
        "label": "_tokenOwners",
        "offset": 0,
        "slot": "102",
        "type": "t_struct(UintToAddressMap)3245_storage"
      },
      {
        "astId": 1511,
        "contract": "contracts/nfts/RubyProfileNFT.sol:RubyProfileNFT",
        "label": "_tokenApprovals",
        "offset": 0,
        "slot": "104",
        "type": "t_mapping(t_uint256,t_address)"
      },
      {
        "astId": 1517,
        "contract": "contracts/nfts/RubyProfileNFT.sol:RubyProfileNFT",
        "label": "_operatorApprovals",
        "offset": 0,
        "slot": "105",
        "type": "t_mapping(t_address,t_mapping(t_address,t_bool))"
      },
      {
        "astId": 1519,
        "contract": "contracts/nfts/RubyProfileNFT.sol:RubyProfileNFT",
        "label": "_name",
        "offset": 0,
        "slot": "106",
        "type": "t_string_storage"
      },
      {
        "astId": 1521,
        "contract": "contracts/nfts/RubyProfileNFT.sol:RubyProfileNFT",
        "label": "_symbol",
        "offset": 0,
        "slot": "107",
        "type": "t_string_storage"
      },
      {
        "astId": 1525,
        "contract": "contracts/nfts/RubyProfileNFT.sol:RubyProfileNFT",
        "label": "_tokenURIs",
        "offset": 0,
        "slot": "108",
        "type": "t_mapping(t_uint256,t_string_storage)"
      },
      {
        "astId": 1527,
        "contract": "contracts/nfts/RubyProfileNFT.sol:RubyProfileNFT",
        "label": "_baseURI",
        "offset": 0,
        "slot": "109",
        "type": "t_string_storage"
      },
      {
        "astId": 2429,
        "contract": "contracts/nfts/RubyProfileNFT.sol:RubyProfileNFT",
        "label": "__gap",
        "offset": 0,
        "slot": "110",
        "type": "t_array(t_uint256)41_storage"
      },
      {
        "astId": 136,
        "contract": "contracts/nfts/RubyProfileNFT.sol:RubyProfileNFT",
        "label": "_owner",
        "offset": 0,
        "slot": "151",
        "type": "t_address"
      },
      {
        "astId": 255,
        "contract": "contracts/nfts/RubyProfileNFT.sol:RubyProfileNFT",
        "label": "__gap",
        "offset": 0,
        "slot": "152",
        "type": "t_array(t_uint256)49_storage"
      },
      {
        "astId": 21366,
        "contract": "contracts/nfts/RubyProfileNFT.sol:RubyProfileNFT",
        "label": "nftIds",
        "offset": 0,
        "slot": "201",
        "type": "t_uint256"
      },
      {
        "astId": 21369,
        "contract": "contracts/nfts/RubyProfileNFT.sol:RubyProfileNFT",
        "label": "description",
        "offset": 0,
        "slot": "202",
        "type": "t_string_storage"
      },
      {
        "astId": 21372,
        "contract": "contracts/nfts/RubyProfileNFT.sol:RubyProfileNFT",
        "label": "visualAppearance",
        "offset": 0,
        "slot": "203",
        "type": "t_string_storage"
      },
      {
        "astId": 21377,
        "contract": "contracts/nfts/RubyProfileNFT.sol:RubyProfileNFT",
        "label": "minters",
        "offset": 0,
        "slot": "204",
        "type": "t_mapping(t_address,t_bool)"
      },
      {
        "astId": 21587,
        "contract": "contracts/nfts/RubyProfileNFT.sol:RubyProfileNFT",
        "label": "__gap",
        "offset": 0,
        "slot": "205",
        "type": "t_array(t_uint256)46_storage"
      }
    ],
    "types": {
      "t_address": {
        "encoding": "inplace",
        "label": "address",
        "numberOfBytes": "20"
      },
      "t_array(t_bytes32)dyn_storage": {
        "base": "t_bytes32",
        "encoding": "dynamic_array",
        "label": "bytes32[]",
        "numberOfBytes": "32"
      },
      "t_array(t_struct(MapEntry)2919_storage)dyn_storage": {
        "base": "t_struct(MapEntry)2919_storage",
        "encoding": "dynamic_array",
        "label": "struct EnumerableMapUpgradeable.MapEntry[]",
        "numberOfBytes": "32"
      },
      "t_array(t_uint256)41_storage": {
        "base": "t_uint256",
        "encoding": "inplace",
        "label": "uint256[41]",
        "numberOfBytes": "1312"
      },
      "t_array(t_uint256)46_storage": {
        "base": "t_uint256",
        "encoding": "inplace",
        "label": "uint256[46]",
        "numberOfBytes": "1472"
      },
      "t_array(t_uint256)49_storage": {
        "base": "t_uint256",
        "encoding": "inplace",
        "label": "uint256[49]",
        "numberOfBytes": "1568"
      },
      "t_array(t_uint256)50_storage": {
        "base": "t_uint256",
        "encoding": "inplace",
        "label": "uint256[50]",
        "numberOfBytes": "1600"
      },
      "t_bool": {
        "encoding": "inplace",
        "label": "bool",
        "numberOfBytes": "1"
      },
      "t_bytes32": {
        "encoding": "inplace",
        "label": "bytes32",
        "numberOfBytes": "32"
      },
      "t_bytes4": {
        "encoding": "inplace",
        "label": "bytes4",
        "numberOfBytes": "4"
      },
      "t_mapping(t_address,t_bool)": {
        "encoding": "mapping",
        "key": "t_address",
        "label": "mapping(address => bool)",
        "numberOfBytes": "32",
        "value": "t_bool"
      },
      "t_mapping(t_address,t_mapping(t_address,t_bool))": {
        "encoding": "mapping",
        "key": "t_address",
        "label": "mapping(address => mapping(address => bool))",
        "numberOfBytes": "32",
        "value": "t_mapping(t_address,t_bool)"
      },
      "t_mapping(t_address,t_struct(UintSet)3868_storage)": {
        "encoding": "mapping",
        "key": "t_address",
        "label": "mapping(address => struct EnumerableSetUpgradeable.UintSet)",
        "numberOfBytes": "32",
        "value": "t_struct(UintSet)3868_storage"
      },
      "t_mapping(t_bytes32,t_uint256)": {
        "encoding": "mapping",
        "key": "t_bytes32",
        "label": "mapping(bytes32 => uint256)",
        "numberOfBytes": "32",
        "value": "t_uint256"
      },
      "t_mapping(t_bytes4,t_bool)": {
        "encoding": "mapping",
        "key": "t_bytes4",
        "label": "mapping(bytes4 => bool)",
        "numberOfBytes": "32",
        "value": "t_bool"
      },
      "t_mapping(t_uint256,t_address)": {
        "encoding": "mapping",
        "key": "t_uint256",
        "label": "mapping(uint256 => address)",
        "numberOfBytes": "32",
        "value": "t_address"
      },
      "t_mapping(t_uint256,t_string_storage)": {
        "encoding": "mapping",
        "key": "t_uint256",
        "label": "mapping(uint256 => string)",
        "numberOfBytes": "32",
        "value": "t_string_storage"
      },
      "t_string_storage": {
        "encoding": "bytes",
        "label": "string",
        "numberOfBytes": "32"
      },
      "t_struct(Map)2927_storage": {
        "encoding": "inplace",
        "label": "struct EnumerableMapUpgradeable.Map",
        "members": [
          {
            "astId": 2922,
            "contract": "contracts/nfts/RubyProfileNFT.sol:RubyProfileNFT",
            "label": "_entries",
            "offset": 0,
            "slot": "0",
            "type": "t_array(t_struct(MapEntry)2919_storage)dyn_storage"
          },
          {
            "astId": 2926,
            "contract": "contracts/nfts/RubyProfileNFT.sol:RubyProfileNFT",
            "label": "_indexes",
            "offset": 0,
            "slot": "1",
            "type": "t_mapping(t_bytes32,t_uint256)"
          }
        ],
        "numberOfBytes": "64"
      },
      "t_struct(MapEntry)2919_storage": {
        "encoding": "inplace",
        "label": "struct EnumerableMapUpgradeable.MapEntry",
        "members": [
          {
            "astId": 2916,
            "contract": "contracts/nfts/RubyProfileNFT.sol:RubyProfileNFT",
            "label": "_key",
            "offset": 0,
            "slot": "0",
            "type": "t_bytes32"
          },
          {
            "astId": 2918,
            "contract": "contracts/nfts/RubyProfileNFT.sol:RubyProfileNFT",
            "label": "_value",
            "offset": 0,
            "slot": "1",
            "type": "t_bytes32"
          }
        ],
        "numberOfBytes": "64"
      },
      "t_struct(Set)3482_storage": {
        "encoding": "inplace",
        "label": "struct EnumerableSetUpgradeable.Set",
        "members": [
          {
            "astId": 3477,
            "contract": "contracts/nfts/RubyProfileNFT.sol:RubyProfileNFT",
            "label": "_values",
            "offset": 0,
            "slot": "0",
            "type": "t_array(t_bytes32)dyn_storage"
          },
          {
            "astId": 3481,
            "contract": "contracts/nfts/RubyProfileNFT.sol:RubyProfileNFT",
            "label": "_indexes",
            "offset": 0,
            "slot": "1",
            "type": "t_mapping(t_bytes32,t_uint256)"
          }
        ],
        "numberOfBytes": "64"
      },
      "t_struct(UintSet)3868_storage": {
        "encoding": "inplace",
        "label": "struct EnumerableSetUpgradeable.UintSet",
        "members": [
          {
            "astId": 3867,
            "contract": "contracts/nfts/RubyProfileNFT.sol:RubyProfileNFT",
            "label": "_inner",
            "offset": 0,
            "slot": "0",
            "type": "t_struct(Set)3482_storage"
          }
        ],
        "numberOfBytes": "64"
      },
      "t_struct(UintToAddressMap)3245_storage": {
        "encoding": "inplace",
        "label": "struct EnumerableMapUpgradeable.UintToAddressMap",
        "members": [
          {
            "astId": 3244,
            "contract": "contracts/nfts/RubyProfileNFT.sol:RubyProfileNFT",
            "label": "_inner",
            "offset": 0,
            "slot": "0",
            "type": "t_struct(Map)2927_storage"
          }
        ],
        "numberOfBytes": "64"
      },
      "t_uint256": {
        "encoding": "inplace",
        "label": "uint256",
        "numberOfBytes": "32"
      }
    }
  }
}