{
  "address": "0x2B4e4899b53E8b7958c4591a6d02f9C0b5c50F8f",
  "abi": [
    {
      "inputs": [],
      "stateMutability": "nonpayable",
      "type": "constructor"
    },
    {
      "anonymous": false,
      "inputs": [
        {
          "indexed": true,
          "internalType": "address",
          "name": "owner",
          "type": "address"
        },
        {
          "indexed": true,
          "internalType": "address",
          "name": "spender",
          "type": "address"
        },
        {
          "indexed": false,
          "internalType": "uint256",
          "name": "value",
          "type": "uint256"
        }
      ],
      "name": "Approval",
      "type": "event"
    },
    {
      "anonymous": false,
      "inputs": [
        {
          "indexed": true,
          "internalType": "bytes32",
          "name": "role",
          "type": "bytes32"
        },
        {
          "indexed": true,
          "internalType": "bytes32",
          "name": "previousAdminRole",
          "type": "bytes32"
        },
        {
          "indexed": true,
          "internalType": "bytes32",
          "name": "newAdminRole",
          "type": "bytes32"
        }
      ],
      "name": "RoleAdminChanged",
      "type": "event"
    },
    {
      "anonymous": false,
      "inputs": [
        {
          "indexed": true,
          "internalType": "bytes32",
          "name": "role",
          "type": "bytes32"
        },
        {
          "indexed": true,
          "internalType": "address",
          "name": "account",
          "type": "address"
        },
        {
          "indexed": true,
          "internalType": "address",
          "name": "sender",
          "type": "address"
        }
      ],
      "name": "RoleGranted",
      "type": "event"
    },
    {
      "anonymous": false,
      "inputs": [
        {
          "indexed": true,
          "internalType": "bytes32",
          "name": "role",
          "type": "bytes32"
        },
        {
          "indexed": true,
          "internalType": "address",
          "name": "account",
          "type": "address"
        },
        {
          "indexed": true,
          "internalType": "address",
          "name": "sender",
          "type": "address"
        }
      ],
      "name": "RoleRevoked",
      "type": "event"
    },
    {
      "anonymous": false,
      "inputs": [
        {
          "indexed": true,
          "internalType": "address",
          "name": "from",
          "type": "address"
        },
        {
          "indexed": true,
          "internalType": "address",
          "name": "to",
          "type": "address"
        },
        {
          "indexed": false,
          "internalType": "uint256",
          "name": "value",
          "type": "uint256"
        }
      ],
      "name": "Transfer",
      "type": "event"
    },
    {
      "inputs": [],
      "name": "BURNER_ROLE",
      "outputs": [
        {
          "internalType": "bytes32",
          "name": "",
          "type": "bytes32"
        }
      ],
      "stateMutability": "view",
      "type": "function"
    },
    {
      "inputs": [],
      "name": "DEFAULT_ADMIN_ROLE",
      "outputs": [
        {
          "internalType": "bytes32",
          "name": "",
          "type": "bytes32"
        }
      ],
      "stateMutability": "view",
      "type": "function"
    },
    {
      "inputs": [],
      "name": "MAX_SUPPLY",
      "outputs": [
        {
          "internalType": "uint256",
          "name": "",
          "type": "uint256"
        }
      ],
      "stateMutability": "view",
      "type": "function"
    },
    {
      "inputs": [],
      "name": "MINTER_ROLE",
      "outputs": [
        {
          "internalType": "bytes32",
          "name": "",
          "type": "bytes32"
        }
      ],
      "stateMutability": "view",
      "type": "function"
    },
    {
      "inputs": [
        {
          "internalType": "address",
          "name": "owner",
          "type": "address"
        },
        {
          "internalType": "address",
          "name": "spender",
          "type": "address"
        }
      ],
      "name": "allowance",
      "outputs": [
        {
          "internalType": "uint256",
          "name": "",
          "type": "uint256"
        }
      ],
      "stateMutability": "view",
      "type": "function"
    },
    {
      "inputs": [
        {
          "internalType": "address",
          "name": "spender",
          "type": "address"
        },
        {
          "internalType": "uint256",
          "name": "amount",
          "type": "uint256"
        }
      ],
      "name": "approve",
      "outputs": [
        {
          "internalType": "bool",
          "name": "",
          "type": "bool"
        }
      ],
      "stateMutability": "nonpayable",
      "type": "function"
    },
    {
      "inputs": [
        {
          "internalType": "address",
          "name": "account",
          "type": "address"
        }
      ],
      "name": "balanceOf",
      "outputs": [
        {
          "internalType": "uint256",
          "name": "",
          "type": "uint256"
        }
      ],
      "stateMutability": "view",
      "type": "function"
    },
    {
      "inputs": [
        {
          "internalType": "uint256",
          "name": "amount",
          "type": "uint256"
        }
      ],
      "name": "burn",
      "outputs": [],
      "stateMutability": "nonpayable",
      "type": "function"
    },
    {
      "inputs": [],
      "name": "burnedAmount",
      "outputs": [
        {
          "internalType": "uint256",
          "name": "",
          "type": "uint256"
        }
      ],
      "stateMutability": "view",
      "type": "function"
    },
    {
      "inputs": [],
      "name": "cap",
      "outputs": [
        {
          "internalType": "uint256",
          "name": "",
          "type": "uint256"
        }
      ],
      "stateMutability": "view",
      "type": "function"
    },
    {
      "inputs": [],
      "name": "decimals",
      "outputs": [
        {
          "internalType": "uint8",
          "name": "",
          "type": "uint8"
        }
      ],
      "stateMutability": "view",
      "type": "function"
    },
    {
      "inputs": [
        {
          "internalType": "address",
          "name": "spender",
          "type": "address"
        },
        {
          "internalType": "uint256",
          "name": "subtractedValue",
          "type": "uint256"
        }
      ],
      "name": "decreaseAllowance",
      "outputs": [
        {
          "internalType": "bool",
          "name": "",
          "type": "bool"
        }
      ],
      "stateMutability": "nonpayable",
      "type": "function"
    },
    {
      "inputs": [
        {
          "internalType": "bytes32",
          "name": "role",
          "type": "bytes32"
        }
      ],
      "name": "getRoleAdmin",
      "outputs": [
        {
          "internalType": "bytes32",
          "name": "",
          "type": "bytes32"
        }
      ],
      "stateMutability": "view",
      "type": "function"
    },
    {
      "inputs": [
        {
          "internalType": "bytes32",
          "name": "role",
          "type": "bytes32"
        },
        {
          "internalType": "uint256",
          "name": "index",
          "type": "uint256"
        }
      ],
      "name": "getRoleMember",
      "outputs": [
        {
          "internalType": "address",
          "name": "",
          "type": "address"
        }
      ],
      "stateMutability": "view",
      "type": "function"
    },
    {
      "inputs": [
        {
          "internalType": "bytes32",
          "name": "role",
          "type": "bytes32"
        }
      ],
      "name": "getRoleMemberCount",
      "outputs": [
        {
          "internalType": "uint256",
          "name": "",
          "type": "uint256"
        }
      ],
      "stateMutability": "view",
      "type": "function"
    },
    {
      "inputs": [
        {
          "internalType": "bytes32",
          "name": "role",
          "type": "bytes32"
        },
        {
          "internalType": "address",
          "name": "account",
          "type": "address"
        }
      ],
      "name": "grantRole",
      "outputs": [],
      "stateMutability": "nonpayable",
      "type": "function"
    },
    {
      "inputs": [
        {
          "internalType": "bytes32",
          "name": "role",
          "type": "bytes32"
        },
        {
          "internalType": "address",
          "name": "account",
          "type": "address"
        }
      ],
      "name": "hasRole",
      "outputs": [
        {
          "internalType": "bool",
          "name": "",
          "type": "bool"
        }
      ],
      "stateMutability": "view",
      "type": "function"
    },
    {
      "inputs": [
        {
          "internalType": "address",
          "name": "spender",
          "type": "address"
        },
        {
          "internalType": "uint256",
          "name": "addedValue",
          "type": "uint256"
        }
      ],
      "name": "increaseAllowance",
      "outputs": [
        {
          "internalType": "bool",
          "name": "",
          "type": "bool"
        }
      ],
      "stateMutability": "nonpayable",
      "type": "function"
    },
    {
      "inputs": [
        {
          "internalType": "address",
          "name": "to",
          "type": "address"
        },
        {
          "internalType": "uint256",
          "name": "amount",
          "type": "uint256"
        }
      ],
      "name": "mint",
      "outputs": [],
      "stateMutability": "nonpayable",
      "type": "function"
    },
    {
      "inputs": [],
      "name": "name",
      "outputs": [
        {
          "internalType": "string",
          "name": "",
          "type": "string"
        }
      ],
      "stateMutability": "view",
      "type": "function"
    },
    {
      "inputs": [
        {
          "internalType": "bytes32",
          "name": "role",
          "type": "bytes32"
        },
        {
          "internalType": "address",
          "name": "account",
          "type": "address"
        }
      ],
      "name": "renounceRole",
      "outputs": [],
      "stateMutability": "nonpayable",
      "type": "function"
    },
    {
      "inputs": [
        {
          "internalType": "bytes32",
          "name": "role",
          "type": "bytes32"
        },
        {
          "internalType": "address",
          "name": "account",
          "type": "address"
        }
      ],
      "name": "revokeRole",
      "outputs": [],
      "stateMutability": "nonpayable",
      "type": "function"
    },
    {
      "inputs": [],
      "name": "symbol",
      "outputs": [
        {
          "internalType": "string",
          "name": "",
          "type": "string"
        }
      ],
      "stateMutability": "view",
      "type": "function"
    },
    {
      "inputs": [],
      "name": "totalSupply",
      "outputs": [
        {
          "internalType": "uint256",
          "name": "",
          "type": "uint256"
        }
      ],
      "stateMutability": "view",
      "type": "function"
    },
    {
      "inputs": [
        {
          "internalType": "address",
          "name": "recipient",
          "type": "address"
        },
        {
          "internalType": "uint256",
          "name": "amount",
          "type": "uint256"
        }
      ],
      "name": "transfer",
      "outputs": [
        {
          "internalType": "bool",
          "name": "",
          "type": "bool"
        }
      ],
      "stateMutability": "nonpayable",
      "type": "function"
    },
    {
      "inputs": [
        {
          "internalType": "address",
          "name": "sender",
          "type": "address"
        },
        {
          "internalType": "address",
          "name": "recipient",
          "type": "address"
        },
        {
          "internalType": "uint256",
          "name": "amount",
          "type": "uint256"
        }
      ],
      "name": "transferFrom",
      "outputs": [
        {
          "internalType": "bool",
          "name": "",
          "type": "bool"
        }
      ],
      "stateMutability": "nonpayable",
      "type": "function"
    }
  ],
  "transactionHash": "0xa00701b9ae132c1dd065667af4f2bc26ad8e514d88332c40631f5114199fd111",
  "args": [],
  "numDeployments": 1,
  "solcInputHash": "a047580d6376c01e4867ca25cd1f55c2",
  "bytecode": "0x60806040523480156200001157600080fd5b506040805180820182526009815268293ab13caa37b5b2b760b91b6020808301918252835180850190945260048452635255425960e01b9084015281516aa56fa5b99019a5c800000093916200006b916003919062000210565b5080516200008190600490602084019062000210565b50506005805460ff191660121790555080620000e4576040805162461bcd60e51b815260206004820152601560248201527f45524332304361707065643a2063617020697320300000000000000000000000604482015290519081900360640190fd5b600655620000f4600033620000fa565b620002ac565b6200010682826200010a565b5050565b60008281526007602090815260409091206200013191839062000ad762000185821b17901c565b15620001065762000141620001a5565b6001600160a01b0316816001600160a01b0316837f2f8788117e7eff1d82e926ec794901d17c78024a50270940304540a733656f0d60405160405180910390a45050565b60006200019c836001600160a01b038416620001a9565b90505b92915050565b3390565b6000620001b78383620001f8565b620001ef575081546001818101845560008481526020808220909301849055845484825282860190935260409020919091556200019f565b5060006200019f565b60009081526001919091016020526040902054151590565b828054600181600116156101000203166002900490600052602060002090601f016020900481019282601f106200025357805160ff191683800117855562000283565b8280016001018555821562000283579182015b828111156200028357825182559160200191906001019062000266565b506200029192915062000295565b5090565b5b8082111562000291576000815560010162000296565b61160d80620002bc6000396000f3fe608060405234801561001057600080fd5b506004361061018e5760003560e01c806342966c68116100de578063a217fddf11610097578063ca15c87311610071578063ca15c873146104c3578063d5391393146104e0578063d547741f146104e8578063dd62ed3e146105145761018e565b8063a217fddf14610463578063a457c2d71461046b578063a9059cbb146104975761018e565b806342966c68146103a557806350e15fdd146103c257806370a08231146103ca5780639010d07c146103f057806391d148541461042f57806395d89b411461045b5761018e565b80632f2ff15d1161014b578063355274ea11610125578063355274ea1461031957806336568abe14610321578063395093511461034d57806340c10f19146103795761018e565b80632f2ff15d146102c5578063313ce567146102f357806332cb6b0c146103115761018e565b806306fdde0314610193578063095ea7b31461021057806318160ddd1461025057806323b872dd1461026a578063248a9ca3146102a0578063282c51f3146102bd575b600080fd5b61019b610542565b6040805160208082528351818301528351919283929083019185019080838360005b838110156101d55781810151838201526020016101bd565b50505050905090810190601f1680156102025780820380516001836020036101000a031916815260200191505b509250505060405180910390f35b61023c6004803603604081101561022657600080fd5b506001600160a01b0381351690602001356105d8565b604080519115158252519081900360200190f35b6102586105f6565b60408051918252519081900360200190f35b61023c6004803603606081101561028057600080fd5b506001600160a01b038135811691602081013590911690604001356105fc565b610258600480360360208110156102b657600080fd5b5035610683565b610258610698565b6102f1600480360360408110156102db57600080fd5b50803590602001356001600160a01b03166106bc565b005b6102fb610728565b6040805160ff9092168252519081900360200190f35b610258610731565b610258610740565b6102f16004803603604081101561033757600080fd5b50803590602001356001600160a01b0316610746565b61023c6004803603604081101561036357600080fd5b506001600160a01b0381351690602001356107a7565b6102f16004803603604081101561038f57600080fd5b506001600160a01b0381351690602001356107f5565b6102f1600480360360208110156103bb57600080fd5b5035610864565b6102586108de565b610258600480360360208110156103e057600080fd5b50356001600160a01b03166108e4565b6104136004803603604081101561040657600080fd5b50803590602001356108ff565b604080516001600160a01b039092168252519081900360200190f35b61023c6004803603604081101561044557600080fd5b50803590602001356001600160a01b031661091e565b61019b610936565b610258610997565b61023c6004803603604081101561048157600080fd5b506001600160a01b03813516906020013561099c565b61023c600480360360408110156104ad57600080fd5b506001600160a01b038135169060200135610a04565b610258600480360360208110156104d957600080fd5b5035610a18565b610258610a2f565b6102f1600480360360408110156104fe57600080fd5b50803590602001356001600160a01b0316610a53565b6102586004803603604081101561052a57600080fd5b506001600160a01b0381358116916020013516610aac565b60038054604080516020601f60026000196101006001881615020190951694909404938401819004810282018101909252828152606093909290918301828280156105ce5780601f106105a3576101008083540402835291602001916105ce565b820191906000526020600020905b8154815290600101906020018083116105b157829003601f168201915b5050505050905090565b60006105ec6105e5610aec565b8484610af0565b5060015b92915050565b60025490565b6000610609848484610bdc565b61067984610615610aec565b610674856040518060600160405280602881526020016114d0602891396001600160a01b038a16600090815260016020526040812090610653610aec565b6001600160a01b031681526020810191909152604001600020549190610d37565b610af0565b5060019392505050565b60009081526007602052604090206002015490565b7f3c11d16cbaffd01df69ce1c404f6340ee057498f5f00246190ea54220576a84881565b6000828152600760205260409020600201546106df906106da610aec565b61091e565b61071a5760405162461bcd60e51b815260040180806020018281038252602f8152602001806113e5602f913960400191505060405180910390fd5b6107248282610dce565b5050565b60055460ff1690565b6aa56fa5b99019a5c800000081565b60065490565b61074e610aec565b6001600160a01b0316816001600160a01b03161461079d5760405162461bcd60e51b815260040180806020018281038252602f8152602001806115a9602f913960400191505060405180910390fd5b6107248282610e37565b60006105ec6107b4610aec565b8461067485600160006107c5610aec565b6001600160a01b03908116825260208083019390935260409182016000908120918c168152925290205490610ea0565b61081f7f9f2df0fed2c77648de5860a4cc508cd0818c85b8b8a1ab4ceeef8d981c8956a63361091e565b61085a5760405162461bcd60e51b815260040180806020018281038252602281526020018061147e6022913960400191505060405180910390fd5b6107248282610efa565b61088e7f3c11d16cbaffd01df69ce1c404f6340ee057498f5f00246190ea54220576a8483361091e565b6108c95760405162461bcd60e51b81526004018080602001828103825260228152602001806114f86022913960400191505060405180910390fd5b6108d33382610fea565b600880549091019055565b60085481565b6001600160a01b031660009081526020819052604090205490565b600082815260076020526040812061091790836110e6565b9392505050565b600082815260076020526040812061091790836110f2565b60048054604080516020601f60026000196101006001881615020190951694909404938401819004810282018101909252828152606093909290918301828280156105ce5780601f106105a3576101008083540402835291602001916105ce565b600081565b60006105ec6109a9610aec565b846106748560405180606001604052806025815260200161158460259139600160006109d3610aec565b6001600160a01b03908116825260208083019390935260409182016000908120918d16815292529020549190610d37565b60006105ec610a11610aec565b8484610bdc565b60008181526007602052604081206105f090611107565b7f9f2df0fed2c77648de5860a4cc508cd0818c85b8b8a1ab4ceeef8d981c8956a681565b600082815260076020526040902060020154610a71906106da610aec565b61079d5760405162461bcd60e51b81526004018080602001828103825260308152602001806114a06030913960400191505060405180910390fd5b6001600160a01b03918216600090815260016020908152604080832093909416825291909152205490565b6000610917836001600160a01b038416611112565b3390565b6001600160a01b038316610b355760405162461bcd60e51b81526004018080602001828103825260248152602001806115606024913960400191505060405180910390fd5b6001600160a01b038216610b7a5760405162461bcd60e51b81526004018080602001828103825260228152602001806114366022913960400191505060405180910390fd5b6001600160a01b03808416600081815260016020908152604080832094871680845294825291829020859055815185815291517f8c5be1e5ebec7d5bd14f71427d1e84f3dd0314c0f7b2291e5b200ac8c7c3b9259281900390910190a3505050565b6001600160a01b038316610c215760405162461bcd60e51b815260040180806020018281038252602581526020018061153b6025913960400191505060405180910390fd5b6001600160a01b038216610c665760405162461bcd60e51b81526004018080602001828103825260238152602001806113c26023913960400191505060405180910390fd5b610c7183838361115c565b610cae81604051806060016040528060268152602001611458602691396001600160a01b0386166000908152602081905260409020549190610d37565b6001600160a01b038085166000908152602081905260408082209390935590841681522054610cdd9082610ea0565b6001600160a01b038084166000818152602081815260409182902094909455805185815290519193928716927fddf252ad1be2c89b69c2b068fc378daa952ba7f163c4a11628f55a4df523b3ef92918290030190a3505050565b60008184841115610dc65760405162461bcd60e51b81526004018080602001828103825283818151815260200191508051906020019080838360005b83811015610d8b578181015183820152602001610d73565b50505050905090810190601f168015610db85780820380516001836020036101000a031916815260200191505b509250505060405180910390fd5b505050900390565b6000828152600760205260409020610de69082610ad7565b1561072457610df3610aec565b6001600160a01b0316816001600160a01b0316837f2f8788117e7eff1d82e926ec794901d17c78024a50270940304540a733656f0d60405160405180910390a45050565b6000828152600760205260409020610e4f90826111e7565b1561072457610e5c610aec565b6001600160a01b0316816001600160a01b0316837ff6391f5c32d9c69d2a47ea670b442974b53935d1edc7fd64eb21e047a839171b60405160405180910390a45050565b600082820183811015610917576040805162461bcd60e51b815260206004820152601b60248201527f536166654d6174683a206164646974696f6e206f766572666c6f770000000000604482015290519081900360640190fd5b6001600160a01b038216610f55576040805162461bcd60e51b815260206004820152601f60248201527f45524332303a206d696e7420746f20746865207a65726f206164647265737300604482015290519081900360640190fd5b610f616000838361115c565b600254610f6e9082610ea0565b6002556001600160a01b038216600090815260208190526040902054610f949082610ea0565b6001600160a01b0383166000818152602081815260408083209490945583518581529351929391927fddf252ad1be2c89b69c2b068fc378daa952ba7f163c4a11628f55a4df523b3ef9281900390910190a35050565b6001600160a01b03821661102f5760405162461bcd60e51b815260040180806020018281038252602181526020018061151a6021913960400191505060405180910390fd5b61103b8260008361115c565b61107881604051806060016040528060228152602001611414602291396001600160a01b0385166000908152602081905260409020549190610d37565b6001600160a01b03831660009081526020819052604090205560025461109e90826111fc565b6002556040805182815290516000916001600160a01b038516917fddf252ad1be2c89b69c2b068fc378daa952ba7f163c4a11628f55a4df523b3ef9181900360200190a35050565b60006109178383611259565b6000610917836001600160a01b0384166112bd565b60006105f0826112d5565b600061111e83836112bd565b611154575081546001818101845560008481526020808220909301849055845484825282860190935260409020919091556105f0565b5060006105f0565b6111678383836111e2565b6001600160a01b0383166111e25761117d610740565b61118f826111896105f6565b90610ea0565b11156111e2576040805162461bcd60e51b815260206004820152601960248201527f45524332304361707065643a2063617020657863656564656400000000000000604482015290519081900360640190fd5b505050565b6000610917836001600160a01b0384166112d9565b600082821115611253576040805162461bcd60e51b815260206004820152601e60248201527f536166654d6174683a207375627472616374696f6e206f766572666c6f770000604482015290519081900360640190fd5b50900390565b8154600090821061129b5760405162461bcd60e51b81526004018080602001828103825260228152602001806113a06022913960400191505060405180910390fd5b8260000182815481106112aa57fe5b9060005260206000200154905092915050565b60009081526001919091016020526040902054151590565b5490565b60008181526001830160205260408120548015611395578354600019808301919081019060009087908390811061130c57fe5b906000526020600020015490508087600001848154811061132957fe5b60009182526020808320909101929092558281526001898101909252604090209084019055865487908061135957fe5b600190038181906000526020600020016000905590558660010160008781526020019081526020016000206000905560019450505050506105f0565b60009150506105f056fe456e756d657261626c655365743a20696e646578206f7574206f6620626f756e647345524332303a207472616e7366657220746f20746865207a65726f2061646472657373416363657373436f6e74726f6c3a2073656e646572206d75737420626520616e2061646d696e20746f206772616e7445524332303a206275726e20616d6f756e7420657863656564732062616c616e636545524332303a20617070726f766520746f20746865207a65726f206164647265737345524332303a207472616e7366657220616d6f756e7420657863656564732062616c616e6365525542593a3a6d696e743a2043616c6c6572206973206e6f742061206d696e746572416363657373436f6e74726f6c3a2073656e646572206d75737420626520616e2061646d696e20746f207265766f6b6545524332303a207472616e7366657220616d6f756e74206578636565647320616c6c6f77616e6365525542593a3a6275726e3a2043616c6c6572206973206e6f742061206275726e657245524332303a206275726e2066726f6d20746865207a65726f206164647265737345524332303a207472616e736665722066726f6d20746865207a65726f206164647265737345524332303a20617070726f76652066726f6d20746865207a65726f206164647265737345524332303a2064656372656173656420616c6c6f77616e63652062656c6f77207a65726f416363657373436f6e74726f6c3a2063616e206f6e6c792072656e6f756e636520726f6c657320666f722073656c66a26469706673582212206c7787e30e1d193a27e0969ab3e5fadb4458d298b8665e59f722c25e45fc6b6c64736f6c634300060c0033",
  "devdoc": {
    "kind": "dev",
    "methods": {
      "allowance(address,address)": {
        "details": "See {IERC20-allowance}."
      },
      "approve(address,uint256)": {
        "details": "See {IERC20-approve}. Requirements: - `spender` cannot be the zero address."
      },
      "balanceOf(address)": {
        "details": "See {IERC20-balanceOf}."
      },
      "cap()": {
        "details": "Returns the cap on the token's total supply."
      },
      "decimals()": {
        "details": "Returns the number of decimals used to get its user representation. For example, if `decimals` equals `2`, a balance of `505` tokens should be displayed to a user as `5,05` (`505 / 10 ** 2`). Tokens usually opt for a value of 18, imitating the relationship between Ether and Wei. This is the value {ERC20} uses, unless {_setupDecimals} is called. NOTE: This information is only used for _display_ purposes: it in no way affects any of the arithmetic of the contract, including {IERC20-balanceOf} and {IERC20-transfer}."
      },
      "decreaseAllowance(address,uint256)": {
        "details": "Atomically decreases the allowance granted to `spender` by the caller. This is an alternative to {approve} that can be used as a mitigation for problems described in {IERC20-approve}. Emits an {Approval} event indicating the updated allowance. Requirements: - `spender` cannot be the zero address. - `spender` must have allowance for the caller of at least `subtractedValue`."
      },
      "getRoleAdmin(bytes32)": {
        "details": "Returns the admin role that controls `role`. See {grantRole} and {revokeRole}. To change a role's admin, use {_setRoleAdmin}."
      },
      "getRoleMember(bytes32,uint256)": {
        "details": "Returns one of the accounts that have `role`. `index` must be a value between 0 and {getRoleMemberCount}, non-inclusive. Role bearers are not sorted in any particular way, and their ordering may change at any point. WARNING: When using {getRoleMember} and {getRoleMemberCount}, make sure you perform all queries on the same block. See the following https://forum.openzeppelin.com/t/iterating-over-elements-on-enumerableset-in-openzeppelin-contracts/2296[forum post] for more information."
      },
      "getRoleMemberCount(bytes32)": {
        "details": "Returns the number of accounts that have `role`. Can be used together with {getRoleMember} to enumerate all bearers of a role."
      },
      "grantRole(bytes32,address)": {
        "details": "Grants `role` to `account`. If `account` had not been already granted `role`, emits a {RoleGranted} event. Requirements: - the caller must have ``role``'s admin role."
      },
      "hasRole(bytes32,address)": {
        "details": "Returns `true` if `account` has been granted `role`."
      },
      "increaseAllowance(address,uint256)": {
        "details": "Atomically increases the allowance granted to `spender` by the caller. This is an alternative to {approve} that can be used as a mitigation for problems described in {IERC20-approve}. Emits an {Approval} event indicating the updated allowance. Requirements: - `spender` cannot be the zero address."
      },
      "name()": {
        "details": "Returns the name of the token."
      },
      "renounceRole(bytes32,address)": {
        "details": "Revokes `role` from the calling account. Roles are often managed via {grantRole} and {revokeRole}: this function's purpose is to provide a mechanism for accounts to lose their privileges if they are compromised (such as when a trusted device is misplaced). If the calling account had been granted `role`, emits a {RoleRevoked} event. Requirements: - the caller must be `account`."
      },
      "revokeRole(bytes32,address)": {
        "details": "Revokes `role` from `account`. If `account` had been granted `role`, emits a {RoleRevoked} event. Requirements: - the caller must have ``role``'s admin role."
      },
      "symbol()": {
        "details": "Returns the symbol of the token, usually a shorter version of the name."
      },
      "totalSupply()": {
        "details": "See {IERC20-totalSupply}."
      },
      "transfer(address,uint256)": {
        "details": "See {IERC20-transfer}. Requirements: - `recipient` cannot be the zero address. - the caller must have a balance of at least `amount`."
      },
      "transferFrom(address,address,uint256)": {
        "details": "See {IERC20-transferFrom}. Emits an {Approval} event indicating the updated allowance. This is not required by the EIP. See the note at the beginning of {ERC20}. Requirements: - `sender` and `recipient` cannot be the zero address. - `sender` must have a balance of at least `amount`. - the caller must have allowance for ``sender``'s tokens of at least `amount`."
      }
    },
    "title": "RubyToken with Governance",
    "version": 1
  },
  "userdoc": {
    "kind": "user",
    "methods": {
      "MAX_SUPPLY()": {
        "notice": "Total number of tokens"
      },
      "MINTER_ROLE()": {
        "notice": "Access control roles for the IMA TokenManager"
      },
      "burn(uint256)": {
        "notice": "Destroys `amount` of RUBY tokens from the msg.sender.  Must only be called by the IMA TokenManager contract and the RubyMaker contract"
      },
      "burnedAmount()": {
        "notice": "The total amount of burned Ruby tokens"
      },
      "mint(address,uint256)": {
        "notice": "Creates `amount` token to `to`. Must only be called by the IMA TokenManager contract"
      }
    },
    "notice": "This version of the RubyToken is to be used on the SChain It features access control needed for the IMA TokenManager contract (bridging), and also for the RubyMaker contract (distribute and burn mechanism)",
    "version": 1
  },
  "storageLayout": {
    "storage": [
      {
        "astId": 5774,
        "contract": "contracts/token_mappings/RubyToken.sol:RubyToken",
        "label": "_balances",
        "offset": 0,
        "slot": "0",
        "type": "t_mapping(t_address,t_uint256)"
      },
      {
        "astId": 5780,
        "contract": "contracts/token_mappings/RubyToken.sol:RubyToken",
        "label": "_allowances",
        "offset": 0,
        "slot": "1",
        "type": "t_mapping(t_address,t_mapping(t_address,t_uint256))"
      },
      {
        "astId": 5782,
        "contract": "contracts/token_mappings/RubyToken.sol:RubyToken",
        "label": "_totalSupply",
        "offset": 0,
        "slot": "2",
        "type": "t_uint256"
      },
      {
        "astId": 5784,
        "contract": "contracts/token_mappings/RubyToken.sol:RubyToken",
        "label": "_name",
        "offset": 0,
        "slot": "3",
        "type": "t_string_storage"
      },
      {
        "astId": 5786,
        "contract": "contracts/token_mappings/RubyToken.sol:RubyToken",
        "label": "_symbol",
        "offset": 0,
        "slot": "4",
        "type": "t_string_storage"
      },
      {
        "astId": 5788,
        "contract": "contracts/token_mappings/RubyToken.sol:RubyToken",
        "label": "_decimals",
        "offset": 0,
        "slot": "5",
        "type": "t_uint8"
      },
      {
        "astId": 6271,
        "contract": "contracts/token_mappings/RubyToken.sol:RubyToken",
        "label": "_cap",
        "offset": 0,
        "slot": "6",
        "type": "t_uint256"
      },
      {
        "astId": 4244,
        "contract": "contracts/token_mappings/RubyToken.sol:RubyToken",
        "label": "_roles",
        "offset": 0,
        "slot": "7",
        "type": "t_mapping(t_bytes32,t_struct(RoleData)4240_storage)"
      },
      {
        "astId": 28095,
        "contract": "contracts/token_mappings/RubyToken.sol:RubyToken",
        "label": "burnedAmount",
        "offset": 0,
        "slot": "8",
        "type": "t_uint256"
      }
    ],
    "types": {
      "t_address": {
        "encoding": "inplace",
        "label": "address",
        "numberOfBytes": "20"
      },
      "t_array(t_bytes32)dyn_storage": {
        "base": "t_bytes32",
        "encoding": "dynamic_array",
        "label": "bytes32[]",
        "numberOfBytes": "32"
      },
      "t_bytes32": {
        "encoding": "inplace",
        "label": "bytes32",
        "numberOfBytes": "32"
      },
      "t_mapping(t_address,t_mapping(t_address,t_uint256))": {
        "encoding": "mapping",
        "key": "t_address",
        "label": "mapping(address => mapping(address => uint256))",
        "numberOfBytes": "32",
        "value": "t_mapping(t_address,t_uint256)"
      },
      "t_mapping(t_address,t_uint256)": {
        "encoding": "mapping",
        "key": "t_address",
        "label": "mapping(address => uint256)",
        "numberOfBytes": "32",
        "value": "t_uint256"
      },
      "t_mapping(t_bytes32,t_struct(RoleData)4240_storage)": {
        "encoding": "mapping",
        "key": "t_bytes32",
        "label": "mapping(bytes32 => struct AccessControl.RoleData)",
        "numberOfBytes": "32",
        "value": "t_struct(RoleData)4240_storage"
      },
      "t_mapping(t_bytes32,t_uint256)": {
        "encoding": "mapping",
        "key": "t_bytes32",
        "label": "mapping(bytes32 => uint256)",
        "numberOfBytes": "32",
        "value": "t_uint256"
      },
      "t_string_storage": {
        "encoding": "bytes",
        "label": "string",
        "numberOfBytes": "32"
      },
      "t_struct(AddressSet)9001_storage": {
        "encoding": "inplace",
        "label": "struct EnumerableSet.AddressSet",
        "members": [
          {
            "astId": 9000,
            "contract": "contracts/token_mappings/RubyToken.sol:RubyToken",
            "label": "_inner",
            "offset": 0,
            "slot": "0",
            "type": "t_struct(Set)8736_storage"
          }
        ],
        "numberOfBytes": "64"
      },
      "t_struct(RoleData)4240_storage": {
        "encoding": "inplace",
        "label": "struct AccessControl.RoleData",
        "members": [
          {
            "astId": 4237,
            "contract": "contracts/token_mappings/RubyToken.sol:RubyToken",
            "label": "members",
            "offset": 0,
            "slot": "0",
            "type": "t_struct(AddressSet)9001_storage"
          },
          {
            "astId": 4239,
            "contract": "contracts/token_mappings/RubyToken.sol:RubyToken",
            "label": "adminRole",
            "offset": 0,
            "slot": "2",
            "type": "t_bytes32"
          }
        ],
        "numberOfBytes": "96"
      },
      "t_struct(Set)8736_storage": {
        "encoding": "inplace",
        "label": "struct EnumerableSet.Set",
        "members": [
          {
            "astId": 8731,
            "contract": "contracts/token_mappings/RubyToken.sol:RubyToken",
            "label": "_values",
            "offset": 0,
            "slot": "0",
            "type": "t_array(t_bytes32)dyn_storage"
          },
          {
            "astId": 8735,
            "contract": "contracts/token_mappings/RubyToken.sol:RubyToken",
            "label": "_indexes",
            "offset": 0,
            "slot": "1",
            "type": "t_mapping(t_bytes32,t_uint256)"
          }
        ],
        "numberOfBytes": "64"
      },
      "t_uint256": {
        "encoding": "inplace",
        "label": "uint256",
        "numberOfBytes": "32"
      },
      "t_uint8": {
        "encoding": "inplace",
        "label": "uint8",
        "numberOfBytes": "1"
      }
    }
  }
}