{
  "address": "0x2083DC14A38D1E21FA92D9Bd0Aa29Fb64319816D",
  "abi": [
    {
      "anonymous": false,
      "inputs": [
        {
          "indexed": true,
          "internalType": "address",
          "name": "provider",
          "type": "address"
        },
        {
          "indexed": false,
          "internalType": "uint256[]",
          "name": "tokenAmounts",
          "type": "uint256[]"
        },
        {
          "indexed": false,
          "internalType": "uint256[]",
          "name": "fees",
          "type": "uint256[]"
        },
        {
          "indexed": false,
          "internalType": "uint256",
          "name": "invariant",
          "type": "uint256"
        },
        {
          "indexed": false,
          "internalType": "uint256",
          "name": "lpTokenSupply",
          "type": "uint256"
        }
      ],
      "name": "AddLiquidity",
      "type": "event"
    },
    {
      "anonymous": false,
      "inputs": [
        {
          "indexed": false,
          "internalType": "uint256",
          "name": "newAdminFee",
          "type": "uint256"
        }
      ],
      "name": "NewAdminFee",
      "type": "event"
    },
    {
      "anonymous": false,
      "inputs": [
        {
          "indexed": false,
          "internalType": "uint256",
          "name": "newSwapFee",
          "type": "uint256"
        }
      ],
      "name": "NewSwapFee",
      "type": "event"
    },
    {
      "anonymous": false,
      "inputs": [
        {
          "indexed": false,
          "internalType": "uint256",
          "name": "newWithdrawFee",
          "type": "uint256"
        }
      ],
      "name": "NewWithdrawFee",
      "type": "event"
    },
    {
      "anonymous": false,
      "inputs": [
        {
          "indexed": true,
          "internalType": "address",
          "name": "previousOwner",
          "type": "address"
        },
        {
          "indexed": true,
          "internalType": "address",
          "name": "newOwner",
          "type": "address"
        }
      ],
      "name": "OwnershipTransferred",
      "type": "event"
    },
    {
      "anonymous": false,
      "inputs": [
        {
          "indexed": false,
          "internalType": "address",
          "name": "account",
          "type": "address"
        }
      ],
      "name": "Paused",
      "type": "event"
    },
    {
      "anonymous": false,
      "inputs": [
        {
          "indexed": false,
          "internalType": "uint256",
          "name": "oldA",
          "type": "uint256"
        },
        {
          "indexed": false,
          "internalType": "uint256",
          "name": "newA",
          "type": "uint256"
        },
        {
          "indexed": false,
          "internalType": "uint256",
          "name": "initialTime",
          "type": "uint256"
        },
        {
          "indexed": false,
          "internalType": "uint256",
          "name": "futureTime",
          "type": "uint256"
        }
      ],
      "name": "RampA",
      "type": "event"
    },
    {
      "anonymous": false,
      "inputs": [
        {
          "indexed": true,
          "internalType": "address",
          "name": "provider",
          "type": "address"
        },
        {
          "indexed": false,
          "internalType": "uint256[]",
          "name": "tokenAmounts",
          "type": "uint256[]"
        },
        {
          "indexed": false,
          "internalType": "uint256",
          "name": "lpTokenSupply",
          "type": "uint256"
        }
      ],
      "name": "RemoveLiquidity",
      "type": "event"
    },
    {
      "anonymous": false,
      "inputs": [
        {
          "indexed": true,
          "internalType": "address",
          "name": "provider",
          "type": "address"
        },
        {
          "indexed": false,
          "internalType": "uint256[]",
          "name": "tokenAmounts",
          "type": "uint256[]"
        },
        {
          "indexed": false,
          "internalType": "uint256[]",
          "name": "fees",
          "type": "uint256[]"
        },
        {
          "indexed": false,
          "internalType": "uint256",
          "name": "invariant",
          "type": "uint256"
        },
        {
          "indexed": false,
          "internalType": "uint256",
          "name": "lpTokenSupply",
          "type": "uint256"
        }
      ],
      "name": "RemoveLiquidityImbalance",
      "type": "event"
    },
    {
      "anonymous": false,
      "inputs": [
        {
          "indexed": true,
          "internalType": "address",
          "name": "provider",
          "type": "address"
        },
        {
          "indexed": false,
          "internalType": "uint256",
          "name": "lpTokenAmount",
          "type": "uint256"
        },
        {
          "indexed": false,
          "internalType": "uint256",
          "name": "lpTokenSupply",
          "type": "uint256"
        },
        {
          "indexed": false,
          "internalType": "uint256",
          "name": "boughtId",
          "type": "uint256"
        },
        {
          "indexed": false,
          "internalType": "uint256",
          "name": "tokensBought",
          "type": "uint256"
        }
      ],
      "name": "RemoveLiquidityOne",
      "type": "event"
    },
    {
      "anonymous": false,
      "inputs": [
        {
          "indexed": false,
          "internalType": "uint256",
          "name": "currentA",
          "type": "uint256"
        },
        {
          "indexed": false,
          "internalType": "uint256",
          "name": "time",
          "type": "uint256"
        }
      ],
      "name": "StopRampA",
      "type": "event"
    },
    {
      "anonymous": false,
      "inputs": [
        {
          "indexed": true,
          "internalType": "address",
          "name": "buyer",
          "type": "address"
        },
        {
          "indexed": false,
          "internalType": "uint256",
          "name": "tokensSold",
          "type": "uint256"
        },
        {
          "indexed": false,
          "internalType": "uint256",
          "name": "tokensBought",
          "type": "uint256"
        },
        {
          "indexed": false,
          "internalType": "uint128",
          "name": "soldId",
          "type": "uint128"
        },
        {
          "indexed": false,
          "internalType": "uint128",
          "name": "boughtId",
          "type": "uint128"
        }
      ],
      "name": "TokenSwap",
      "type": "event"
    },
    {
      "anonymous": false,
      "inputs": [
        {
          "indexed": false,
          "internalType": "address",
          "name": "account",
          "type": "address"
        }
      ],
      "name": "Unpaused",
      "type": "event"
    },
    {
      "inputs": [
        {
          "internalType": "uint256[]",
          "name": "amounts",
          "type": "uint256[]"
        },
        {
          "internalType": "uint256",
          "name": "minToMint",
          "type": "uint256"
        },
        {
          "internalType": "uint256",
          "name": "deadline",
          "type": "uint256"
        }
      ],
      "name": "addLiquidity",
      "outputs": [
        {
          "internalType": "uint256",
          "name": "",
          "type": "uint256"
        }
      ],
      "stateMutability": "nonpayable",
      "type": "function"
    },
    {
      "inputs": [
        {
          "internalType": "uint256",
          "name": "amount",
          "type": "uint256"
        }
      ],
      "name": "calculateRemoveLiquidity",
      "outputs": [
        {
          "internalType": "uint256[]",
          "name": "",
          "type": "uint256[]"
        }
      ],
      "stateMutability": "view",
      "type": "function"
    },
    {
      "inputs": [
        {
          "internalType": "uint256",
          "name": "tokenAmount",
          "type": "uint256"
        },
        {
          "internalType": "uint8",
          "name": "tokenIndex",
          "type": "uint8"
        }
      ],
      "name": "calculateRemoveLiquidityOneToken",
      "outputs": [
        {
          "internalType": "uint256",
          "name": "availableTokenAmount",
          "type": "uint256"
        }
      ],
      "stateMutability": "view",
      "type": "function"
    },
    {
      "inputs": [
        {
          "internalType": "uint8",
          "name": "tokenIndexFrom",
          "type": "uint8"
        },
        {
          "internalType": "uint8",
          "name": "tokenIndexTo",
          "type": "uint8"
        },
        {
          "internalType": "uint256",
          "name": "dx",
          "type": "uint256"
        }
      ],
      "name": "calculateSwap",
      "outputs": [
        {
          "internalType": "uint256",
          "name": "",
          "type": "uint256"
        }
      ],
      "stateMutability": "view",
      "type": "function"
    },
    {
      "inputs": [
        {
          "internalType": "uint256[]",
          "name": "amounts",
          "type": "uint256[]"
        },
        {
          "internalType": "bool",
          "name": "deposit",
          "type": "bool"
        }
      ],
      "name": "calculateTokenAmount",
      "outputs": [
        {
          "internalType": "uint256",
          "name": "",
          "type": "uint256"
        }
      ],
      "stateMutability": "view",
      "type": "function"
    },
    {
      "inputs": [],
      "name": "getA",
      "outputs": [
        {
          "internalType": "uint256",
          "name": "",
          "type": "uint256"
        }
      ],
      "stateMutability": "view",
      "type": "function"
    },
    {
      "inputs": [],
      "name": "getAPrecise",
      "outputs": [
        {
          "internalType": "uint256",
          "name": "",
          "type": "uint256"
        }
      ],
      "stateMutability": "view",
      "type": "function"
    },
    {
      "inputs": [
        {
          "internalType": "uint256",
          "name": "index",
          "type": "uint256"
        }
      ],
      "name": "getAdminBalance",
      "outputs": [
        {
          "internalType": "uint256",
          "name": "",
          "type": "uint256"
        }
      ],
      "stateMutability": "view",
      "type": "function"
    },
    {
      "inputs": [
        {
          "internalType": "uint8",
          "name": "index",
          "type": "uint8"
        }
      ],
      "name": "getToken",
      "outputs": [
        {
          "internalType": "contract IERC20",
          "name": "",
          "type": "address"
        }
      ],
      "stateMutability": "view",
      "type": "function"
    },
    {
      "inputs": [
        {
          "internalType": "uint8",
          "name": "index",
          "type": "uint8"
        }
      ],
      "name": "getTokenBalance",
      "outputs": [
        {
          "internalType": "uint256",
          "name": "",
          "type": "uint256"
        }
      ],
      "stateMutability": "view",
      "type": "function"
    },
    {
      "inputs": [
        {
          "internalType": "address",
          "name": "tokenAddress",
          "type": "address"
        }
      ],
      "name": "getTokenIndex",
      "outputs": [
        {
          "internalType": "uint8",
          "name": "",
          "type": "uint8"
        }
      ],
      "stateMutability": "view",
      "type": "function"
    },
    {
      "inputs": [],
      "name": "getVirtualPrice",
      "outputs": [
        {
          "internalType": "uint256",
          "name": "",
          "type": "uint256"
        }
      ],
      "stateMutability": "view",
      "type": "function"
    },
    {
      "inputs": [
        {
          "internalType": "contract IERC20[]",
          "name": "_pooledTokens",
          "type": "address[]"
        },
        {
          "internalType": "uint8[]",
          "name": "decimals",
          "type": "uint8[]"
        },
        {
          "internalType": "string",
          "name": "lpTokenName",
          "type": "string"
        },
        {
          "internalType": "string",
          "name": "lpTokenSymbol",
          "type": "string"
        },
        {
          "internalType": "uint256",
          "name": "_a",
          "type": "uint256"
        },
        {
          "internalType": "uint256",
          "name": "_fee",
          "type": "uint256"
        },
        {
          "internalType": "uint256",
          "name": "_adminFee",
          "type": "uint256"
        },
        {
          "internalType": "address",
          "name": "lpTokenTargetAddress",
          "type": "address"
        }
      ],
      "name": "initialize",
      "outputs": [],
      "stateMutability": "nonpayable",
      "type": "function"
    },
    {
      "inputs": [],
      "name": "owner",
      "outputs": [
        {
          "internalType": "address",
          "name": "",
          "type": "address"
        }
      ],
      "stateMutability": "view",
      "type": "function"
    },
    {
      "inputs": [],
      "name": "pause",
      "outputs": [],
      "stateMutability": "nonpayable",
      "type": "function"
    },
    {
      "inputs": [],
      "name": "paused",
      "outputs": [
        {
          "internalType": "bool",
          "name": "",
          "type": "bool"
        }
      ],
      "stateMutability": "view",
      "type": "function"
    },
    {
      "inputs": [
        {
          "internalType": "uint256",
          "name": "futureA",
          "type": "uint256"
        },
        {
          "internalType": "uint256",
          "name": "futureTime",
          "type": "uint256"
        }
      ],
      "name": "rampA",
      "outputs": [],
      "stateMutability": "nonpayable",
      "type": "function"
    },
    {
      "inputs": [
        {
          "internalType": "uint256",
          "name": "amount",
          "type": "uint256"
        },
        {
          "internalType": "uint256[]",
          "name": "minAmounts",
          "type": "uint256[]"
        },
        {
          "internalType": "uint256",
          "name": "deadline",
          "type": "uint256"
        }
      ],
      "name": "removeLiquidity",
      "outputs": [
        {
          "internalType": "uint256[]",
          "name": "",
          "type": "uint256[]"
        }
      ],
      "stateMutability": "nonpayable",
      "type": "function"
    },
    {
      "inputs": [
        {
          "internalType": "uint256[]",
          "name": "amounts",
          "type": "uint256[]"
        },
        {
          "internalType": "uint256",
          "name": "maxBurnAmount",
          "type": "uint256"
        },
        {
          "internalType": "uint256",
          "name": "deadline",
          "type": "uint256"
        }
      ],
      "name": "removeLiquidityImbalance",
      "outputs": [
        {
          "internalType": "uint256",
          "name": "",
          "type": "uint256"
        }
      ],
      "stateMutability": "nonpayable",
      "type": "function"
    },
    {
      "inputs": [
        {
          "internalType": "uint256",
          "name": "tokenAmount",
          "type": "uint256"
        },
        {
          "internalType": "uint8",
          "name": "tokenIndex",
          "type": "uint8"
        },
        {
          "internalType": "uint256",
          "name": "minAmount",
          "type": "uint256"
        },
        {
          "internalType": "uint256",
          "name": "deadline",
          "type": "uint256"
        }
      ],
      "name": "removeLiquidityOneToken",
      "outputs": [
        {
          "internalType": "uint256",
          "name": "",
          "type": "uint256"
        }
      ],
      "stateMutability": "nonpayable",
      "type": "function"
    },
    {
      "inputs": [],
      "name": "renounceOwnership",
      "outputs": [],
      "stateMutability": "nonpayable",
      "type": "function"
    },
    {
      "inputs": [
        {
          "internalType": "uint256",
          "name": "newAdminFee",
          "type": "uint256"
        }
      ],
      "name": "setAdminFee",
      "outputs": [],
      "stateMutability": "nonpayable",
      "type": "function"
    },
    {
      "inputs": [
        {
          "internalType": "uint256",
          "name": "newSwapFee",
          "type": "uint256"
        }
      ],
      "name": "setSwapFee",
      "outputs": [],
      "stateMutability": "nonpayable",
      "type": "function"
    },
    {
      "inputs": [],
      "name": "stopRampA",
      "outputs": [],
      "stateMutability": "nonpayable",
      "type": "function"
    },
    {
      "inputs": [
        {
          "internalType": "uint8",
          "name": "tokenIndexFrom",
          "type": "uint8"
        },
        {
          "internalType": "uint8",
          "name": "tokenIndexTo",
          "type": "uint8"
        },
        {
          "internalType": "uint256",
          "name": "dx",
          "type": "uint256"
        },
        {
          "internalType": "uint256",
          "name": "minDy",
          "type": "uint256"
        },
        {
          "internalType": "uint256",
          "name": "deadline",
          "type": "uint256"
        }
      ],
      "name": "swap",
      "outputs": [
        {
          "internalType": "uint256",
          "name": "",
          "type": "uint256"
        }
      ],
      "stateMutability": "nonpayable",
      "type": "function"
    },
    {
      "inputs": [],
      "name": "swapStorage",
      "outputs": [
        {
          "internalType": "uint256",
          "name": "initialA",
          "type": "uint256"
        },
        {
          "internalType": "uint256",
          "name": "futureA",
          "type": "uint256"
        },
        {
          "internalType": "uint256",
          "name": "initialATime",
          "type": "uint256"
        },
        {
          "internalType": "uint256",
          "name": "futureATime",
          "type": "uint256"
        },
        {
          "internalType": "uint256",
          "name": "swapFee",
          "type": "uint256"
        },
        {
          "internalType": "uint256",
          "name": "adminFee",
          "type": "uint256"
        },
        {
          "internalType": "contract LPToken",
          "name": "lpToken",
          "type": "address"
        }
      ],
      "stateMutability": "view",
      "type": "function"
    },
    {
      "inputs": [
        {
          "internalType": "address",
          "name": "newOwner",
          "type": "address"
        }
      ],
      "name": "transferOwnership",
      "outputs": [],
      "stateMutability": "nonpayable",
      "type": "function"
    },
    {
      "inputs": [],
      "name": "unpause",
      "outputs": [],
      "stateMutability": "nonpayable",
      "type": "function"
    },
    {
      "inputs": [],
      "name": "withdrawAdminFees",
      "outputs": [],
      "stateMutability": "nonpayable",
      "type": "function"
    }
  ],
  "transactionHash": "0xf9b104bc879fa3fa4bf0e65a84803a0cc2ef5febf47803ae517c9ed6021fcf09",
  "args": [],
  "numDeployments": 1,
  "solcInputHash": "8ca980d51c658bcb6e0b1d5c9f9ee0b7",
  "bytecode": "0x608060405234801561001057600080fd5b50612e5a806100206000396000f3fe608060405234801561001057600080fd5b50600436106101cf5760003560e01c80638456cb5911610104578063b28cb6dc116100a2578063e6ab280611610071578063e6ab280614610843578063ef0a712f146108b3578063f2fad2b6146108d0578063f2fde38b146108ed576101cf565b8063b28cb6dc146105e3578063c4db7fa01461082b578063d46300fd14610833578063e25aa5fa1461083b576101cf565b80638da5cb5b116100de5780638da5cb5b1461054f578063916955861461055757806391ceb3eb14610593578063a95b089f146105b3576101cf565b80638456cb59146104b657806384cdd9bc146104be5780638beb60b614610532576101cf565b80634d49e87d116101715780635fd65f0f1161014b5780635fd65f0f146103ed57806366c0bd2414610436578063715018a61461047257806382b866001461047a576101cf565b80634d49e87d1461033a578063593d132c146103ae5780635c975abb146103d1576101cf565b8063342a87a1116101ad578063342a87a1146102bd57806334e19907146102e35780633e3a1560146103005780633f4ba83a14610332576101cf565b80630419b45a146101d45780630ba81959146101de57806331cd52b0146101f8575b600080fd5b6101dc610913565b005b6101e66109f7565b60408051918252519081900360200190f35b61026d6004803603606081101561020e57600080fd5b81359190810190604081016020820135600160201b81111561022f57600080fd5b82018360208201111561024157600080fd5b803590602001918460208302840111600160201b8311171561026257600080fd5b919350915035610a7c565b60408051602080825283518183015283519192839290830191858101910280838360005b838110156102a9578181015183820152602001610291565b505050509050019250505060405180910390f35b6101e6600480360360408110156102d357600080fd5b508035906020013560ff16610c7a565b6101dc600480360360208110156102f957600080fd5b5035610d15565b6101e66004803603608081101561031657600080fd5b5080359060ff6020820135169060408101359060600135610deb565b6101dc610f72565b6101e66004803603606081101561035057600080fd5b810190602081018135600160201b81111561036a57600080fd5b82018360208201111561037c57600080fd5b803590602001918460208302840111600160201b8311171561039d57600080fd5b919350915080359060200135610fde565b6101dc600480360360408110156103c457600080fd5b5080359060200135611152565b6103d9611230565b604080519115158252519081900360200190f35b6103f5611239565b604080519788526020880196909652868601949094526060860192909252608085015260a08401526001600160a01b031660c0830152519081900360e00190f35b61045c6004803603602081101561044c57600080fd5b50356001600160a01b031661125a565b6040805160ff9092168252519081900360200190f35b6101dc6112de565b61049a6004803603602081101561049057600080fd5b503560ff1661138a565b604080516001600160a01b039092168252519081900360200190f35b6101dc611401565b6101e6600480360360608110156104d457600080fd5b810190602081018135600160201b8111156104ee57600080fd5b82018360208201111561050057600080fd5b803590602001918460208302840111600160201b8311171561052157600080fd5b91935091508035906020013561146b565b6101dc6004803603602081101561054857600080fd5b50356115df565b61049a61169a565b6101e6600480360360a081101561056d57600080fd5b5060ff8135811691602081013590911690604081013590606081013590608001356116a9565b6101e6600480360360208110156105a957600080fd5b503560ff16611839565b6101e6600480360360608110156105c957600080fd5b5060ff8135811691602081013590911690604001356118ad565b6101dc60048036036101008110156105fa57600080fd5b810190602081018135600160201b81111561061457600080fd5b82018360208201111561062657600080fd5b803590602001918460208302840111600160201b8311171561064757600080fd5b9190808060200260200160405190810160405280939291908181526020018383602002808284376000920191909152509295949360208101935035915050600160201b81111561069657600080fd5b8201836020820111156106a857600080fd5b803590602001918460208302840111600160201b831117156106c957600080fd5b9190808060200260200160405190810160405280939291908181526020018383602002808284376000920191909152509295949360208101935035915050600160201b81111561071857600080fd5b82018360208201111561072a57600080fd5b803590602001918460018302840111600160201b8311171561074b57600080fd5b91908080601f0160208091040260200160405190810160405280939291908181526020018383808284376000920191909152509295949360208101935035915050600160201b81111561079d57600080fd5b8201836020820111156107af57600080fd5b803590602001918460018302840111600160201b831117156107d057600080fd5b91908080601f01602080910402602001604051908101604052809392919081815260200183838082843760009201919091525092955050823593505050602081013590604081013590606001356001600160a01b031661194f565b6101dc612112565b6101e66121c6565b6101e661221a565b6101e66004803603604081101561085957600080fd5b810190602081018135600160201b81111561087357600080fd5b82018360208201111561088557600080fd5b803590602001918460208302840111600160201b831117156108a657600080fd5b919350915035151561226e565b6101e6600480360360208110156108c957600080fd5b5035612303565b61026d600480360360208110156108e657600080fd5b5035612391565b6101dc6004803603602081101561090357600080fd5b50356001600160a01b03166124bb565b61091b6125be565b6001600160a01b031661092c61169a565b6001600160a01b031614610975576040805162461bcd60e51b81526020600482018190526024820152600080516020612e05833981519152604482015290519081900360640190fd5b73993cA61eb2569219c6794b6714f2F86cEa26a3526324c5c75160c961099961169a565b6040518363ffffffff1660e01b815260040180838152602001826001600160a01b031681526020019250505060006040518083038186803b1580156109dd57600080fd5b505af41580156109f1573d6000803e3d6000fd5b50505050565b600060c9736A6d40bA25574b482507944FBA38c1E3BCc4C29b63c9b64dcb90916040518263ffffffff1660e01b81526004018082815260200191505060206040518083038186803b158015610a4b57600080fd5b505af4158015610a5f573d6000803e3d6000fd5b505050506040513d6020811015610a7557600080fd5b5051905090565b606060026097541415610ac4576040805162461bcd60e51b815260206004820152601f6024820152600080516020612d70833981519152604482015290519081900360640190fd5b60026097558142811015610b12576040805162461bcd60e51b815260206004820152601060248201526f111958591b1a5b99481b9bdd081b595d60821b604482015290519081900360640190fd5b60c973993cA61eb2569219c6794b6714f2F86cEa26a3526373fd6b3e90918888886040518563ffffffff1660e01b815260040180858152602001848152602001806020018281038252848482818152602001925060200280828437600081840152601f19601f8201169050808301925050509550505050505060006040518083038186803b158015610ba357600080fd5b505af4158015610bb7573d6000803e3d6000fd5b505050506040513d6000823e601f3d908101601f191682016040526020811015610be057600080fd5b8101908080516040519392919084600160201b821115610bff57600080fd5b908301906020820185811115610c1457600080fd5b82518660208202830111600160201b82111715610c3057600080fd5b82525081516020918201928201910280838360005b83811015610c5d578181015183820152602001610c45565b505050509050016040525050509150506001609755949350505050565b6040805163703493a160e11b815260c960048201526024810184905260ff83166044820152905160009173993cA61eb2569219c6794b6714f2F86cEa26a3529163e069274291606480820192602092909190829003018186803b158015610ce057600080fd5b505af4158015610cf4573d6000803e3d6000fd5b505050506040513d6020811015610d0a57600080fd5b505190505b92915050565b610d1d6125be565b6001600160a01b0316610d2e61169a565b6001600160a01b031614610d77576040805162461bcd60e51b81526020600482018190526024820152600080516020612e05833981519152604482015290519081900360640190fd5b6040805163119f861b60e21b815260c9600482015260248101839052905173993cA61eb2569219c6794b6714f2F86cEa26a3529163467e186c916044808301926000929190829003018186803b158015610dd057600080fd5b505af4158015610de4573d6000803e3d6000fd5b5050505050565b600060026097541415610e33576040805162461bcd60e51b815260206004820152601f6024820152600080516020612d70833981519152604482015290519081900360640190fd5b6002609755610e40611230565b15610e85576040805162461bcd60e51b815260206004820152601060248201526f14185d5cd8589b194e881c185d5cd95960821b604482015290519081900360640190fd5b8180421115610ece576040805162461bcd60e51b815260206004820152601060248201526f111958591b1a5b99481b9bdd081b595d60821b604482015290519081900360640190fd5b6040805163e7a4db8160e01b815260c960048201526024810188905260ff8716604482015260648101869052905173993cA61eb2569219c6794b6714f2F86cEa26a3529163e7a4db81916084808301926020929190829003018186803b158015610f3757600080fd5b505af4158015610f4b573d6000803e3d6000fd5b505050506040513d6020811015610f6157600080fd5b505160016097559695505050505050565b610f7a6125be565b6001600160a01b0316610f8b61169a565b6001600160a01b031614610fd4576040805162461bcd60e51b81526020600482018190526024820152600080516020612e05833981519152604482015290519081900360640190fd5b610fdc6125c2565b565b600060026097541415611026576040805162461bcd60e51b815260206004820152601f6024820152600080516020612d70833981519152604482015290519081900360640190fd5b6002609755611033611230565b15611078576040805162461bcd60e51b815260206004820152601060248201526f14185d5cd8589b194e881c185d5cd95960821b604482015290519081900360640190fd5b81804211156110c1576040805162461bcd60e51b815260206004820152601060248201526f111958591b1a5b99481b9bdd081b595d60821b604482015290519081900360640190fd5b60c973993cA61eb2569219c6794b6714f2F86cEa26a3526340370edf90918888886040518563ffffffff1660e01b815260040180858152602001806020018381526020018281038252858582818152602001925060200280828437600081840152601f19601f8201169050808301925050509550505050505060206040518083038186803b158015610f3757600080fd5b61115a6125be565b6001600160a01b031661116b61169a565b6001600160a01b0316146111b4576040805162461bcd60e51b81526020600482018190526024820152600080516020612e05833981519152604482015290519081900360640190fd5b604080516358fdd79b60e01b815260c9600482015260248101849052604481018390529051736A6d40bA25574b482507944FBA38c1E3BCc4C29b916358fdd79b916064808301926000929190829003018186803b15801561121457600080fd5b505af4158015611228573d6000803e3d6000fd5b505050505050565b60655460ff1690565b60c95460ca5460cb5460cc5460cd5460ce5460cf546001600160a01b031687565b6001600160a01b038116600081815260d36020526040812054909160ff909116906112848261138a565b6001600160a01b0316146112d6576040805162461bcd60e51b8152602060048201526014602482015273151bdad95b88191bd95cc81b9bdd08195e1a5cdd60621b604482015290519081900360640190fd5b90505b919050565b6112e66125be565b6001600160a01b03166112f761169a565b6001600160a01b031614611340576040805162461bcd60e51b81526020600482018190526024820152600080516020612e05833981519152604482015290519081900360640190fd5b6033546040516000916001600160a01b0316907f8be0079c531659141344cd1fd0a4f28419497f9722a3daafe3b4186f6b6457e0908390a3603380546001600160a01b0319169055565b60d05460009060ff8316106113d5576040805162461bcd60e51b815260206004820152600c60248201526b4f7574206f662072616e676560a01b604482015290519081900360640190fd5b60d0805460ff84169081106113e657fe5b6000918252602090912001546001600160a01b031692915050565b6114096125be565b6001600160a01b031661141a61169a565b6001600160a01b031614611463576040805162461bcd60e51b81526020600482018190526024820152600080516020612e05833981519152604482015290519081900360640190fd5b610fdc612662565b6000600260975414156114b3576040805162461bcd60e51b815260206004820152601f6024820152600080516020612d70833981519152604482015290519081900360640190fd5b60026097556114c0611230565b15611505576040805162461bcd60e51b815260206004820152601060248201526f14185d5cd8589b194e881c185d5cd95960821b604482015290519081900360640190fd5b818042111561154e576040805162461bcd60e51b815260206004820152601060248201526f111958591b1a5b99481b9bdd081b595d60821b604482015290519081900360640190fd5b60c973993cA61eb2569219c6794b6714f2F86cEa26a3526341b91c2690918888886040518563ffffffff1660e01b815260040180858152602001806020018381526020018281038252858582818152602001925060200280828437600081840152601f19601f8201169050808301925050509550505050505060206040518083038186803b158015610f3757600080fd5b6115e76125be565b6001600160a01b03166115f861169a565b6001600160a01b031614611641576040805162461bcd60e51b81526020600482018190526024820152600080516020612e05833981519152604482015290519081900360640190fd5b60408051633823393b60e11b815260c9600482015260248101839052905173993cA61eb2569219c6794b6714f2F86cEa26a352916370467276916044808301926000929190829003018186803b158015610dd057600080fd5b6033546001600160a01b031690565b6000600260975414156116f1576040805162461bcd60e51b815260206004820152601f6024820152600080516020612d70833981519152604482015290519081900360640190fd5b60026097556116fe611230565b15611743576040805162461bcd60e51b815260206004820152601060248201526f14185d5cd8589b194e881c185d5cd95960821b604482015290519081900360640190fd5b818042111561178c576040805162461bcd60e51b815260206004820152601060248201526f111958591b1a5b99481b9bdd081b595d60821b604482015290519081900360640190fd5b6040805163529cbd9160e11b815260c9600482015260ff808a166024830152881660448201526064810187905260848101869052905173993cA61eb2569219c6794b6714f2F86cEa26a3529163a5397b229160a4808301926020929190829003018186803b1580156117fd57600080fd5b505af4158015611811573d6000803e3d6000fd5b505050506040513d602081101561182757600080fd5b50516001609755979650505050505050565b60d05460009060ff83161061188a576040805162461bcd60e51b8152602060048201526012602482015271496e646578206f7574206f662072616e676560701b604482015290519081900360640190fd5b60d2805460ff841690811061189b57fe5b90600052602060002001549050919050565b604080516312c8d80f60e21b815260c9600482015260ff80861660248301528416604482015260648101839052905160009173993cA61eb2569219c6794b6714f2F86cEa26a35291634b23603c91608480820192602092909190829003018186803b15801561191b57600080fd5b505af415801561192f573d6000803e3d6000fd5b505050506040513d602081101561194557600080fd5b5051949350505050565b600054610100900460ff168061196857506119686126e5565b80611976575060005460ff16155b6119b15760405162461bcd60e51b815260040180806020018281038252602e815260200180612db6602e913960400191505060405180910390fd5b600054610100900460ff161580156119dc576000805460ff1961ff0019909116610100171660011790555b6119e46126f6565b6119ec6127b0565b6001895111611a42576040805162461bcd60e51b815260206004820152601960248201527f5f706f6f6c6564546f6b656e732e6c656e677468203c3d203100000000000000604482015290519081900360640190fd5b602089511115611a99576040805162461bcd60e51b815260206004820152601960248201527f5f706f6f6c6564546f6b656e732e6c656e677468203e20333200000000000000604482015290519081900360640190fd5b8751895114611aef576040805162461bcd60e51b815260206004820152601f60248201527f5f706f6f6c6564546f6b656e7320646563696d616c73206d69736d6174636800604482015290519081900360640190fd5b6060885167ffffffffffffffff81118015611b0957600080fd5b50604051908082528060200260200182016040528015611b33578160200160208202803683370190505b50905060005b8a518160ff161015611da45760ff811615611c155760d360008c8360ff1681518110611b6157fe5b6020908102919091018101516001600160a01b031682528101919091526040016000205460ff16158015611bd157508a8160ff1681518110611b9f57fe5b60200260200101516001600160a01b03168b600081518110611bbd57fe5b60200260200101516001600160a01b031614155b611c15576040805162461bcd60e51b815260206004820152601060248201526f4475706c696361746520746f6b656e7360801b604482015290519081900360640190fd5b60006001600160a01b03168b8260ff1681518110611c2f57fe5b60200260200101516001600160a01b03161415611c93576040805162461bcd60e51b815260206004820152601d60248201527f546865203020616464726573732069736e277420616e204552432d3230000000604482015290519081900360640190fd5b601260ff168a8260ff1681518110611ca757fe5b602002602001015160ff161115611d05576040805162461bcd60e51b815260206004820152601a60248201527f546f6b656e20646563696d616c732065786365656473206d6178000000000000604482015290519081900360640190fd5b611d358a8260ff1681518110611d1757fe5b602002602001015160ff16601260ff1661284590919063ffffffff16565b600a0a828260ff1681518110611d4757fe5b6020026020010181815250508060d360008d8460ff1681518110611d6757fe5b6020908102919091018101516001600160a01b03168252810191909152604001600020805460ff191660ff92909216919091179055600101611b39565b50620f42408610611df1576040805162461bcd60e51b81526020600482015260126024820152715f612065786365656473206d6178696d756d60701b604482015290519081900360640190fd5b6305f5e1008510611e40576040805162461bcd60e51b81526020600482015260146024820152735f6665652065786365656473206d6178696d756d60601b604482015290519081900360640190fd5b6402540be4008410611e99576040805162461bcd60e51b815260206004820152601960248201527f5f61646d696e4665652065786365656473206d6178696d756d00000000000000604482015290519081900360640190fd5b6000611ea4846128a2565b9050806001600160a01b0316634cd88b768a8a6040518363ffffffff1660e01b8152600401808060200180602001838103835285818151815260200191508051906020019080838360005b83811015611f07578181015183820152602001611eef565b50505050905090810190601f168015611f345780820380516001836020036101000a031916815260200191505b50838103825284518152845160209182019186019080838360005b83811015611f67578181015183820152602001611f4f565b50505050905090810190601f168015611f945780820380516001836020036101000a031916815260200191505b50945050505050602060405180830381600087803b158015611fb557600080fd5b505af1158015611fc9573d6000803e3d6000fd5b505050506040513d6020811015611fdf57600080fd5b5051612032576040805162461bcd60e51b815260206004820152601c60248201527f636f756c64206e6f7420696e6974206c70546f6b656e20636c6f6e6500000000604482015290519081900360640190fd5b60cf80546001600160a01b0319166001600160a01b0383161790558a516120609060d09060208e0190612c8f565b5081516120749060d1906020850190612cf4565b508a5167ffffffffffffffff8111801561208d57600080fd5b506040519080825280602002602001820160405280156120b7578160200160208202803683370190505b5080516120cc9160d291602090910190612cf4565b506120d887606461293f565b60c9556120e687606461293f565b60ca55505060cd84905560ce8390558015612107576000805461ff00191690555b505050505050505050565b61211a6125be565b6001600160a01b031661212b61169a565b6001600160a01b031614612174576040805162461bcd60e51b81526020600482018190526024820152600080516020612e05833981519152604482015290519081900360640190fd5b604080516378a7108f60e11b815260c960048201529051736A6d40bA25574b482507944FBA38c1E3BCc4C29b9163f14e211e916024808301926000929190829003018186803b1580156109dd57600080fd5b600060c9736A6d40bA25574b482507944FBA38c1E3BCc4C29b63b0a14cfc90916040518263ffffffff1660e01b81526004018082815260200191505060206040518083038186803b158015610a4b57600080fd5b600060c973993cA61eb2569219c6794b6714f2F86cEa26a3526371906c2c90916040518263ffffffff1660e01b81526004018082815260200191505060206040518083038186803b158015610a4b57600080fd5b600060c973993cA61eb2569219c6794b6714f2F86cEa26a35263834b491090918686866040518563ffffffff1660e01b8152600401808581526020018060200183151581526020018281038252858582818152602001925060200280828437600081840152601f19601f8201169050808301925050509550505050505060206040518083038186803b15801561191b57600080fd5b600060c973993cA61eb2569219c6794b6714f2F86cEa26a352637d0481609091846040518363ffffffff1660e01b8152600401808381526020018281526020019250505060206040518083038186803b15801561235f57600080fd5b505af4158015612373573d6000803e3d6000fd5b505050506040513d602081101561238957600080fd5b505192915050565b606060c973993cA61eb2569219c6794b6714f2F86cEa26a3526370703e4a9091846040518363ffffffff1660e01b8152600401808381526020018281526020019250505060006040518083038186803b1580156123ed57600080fd5b505af4158015612401573d6000803e3d6000fd5b505050506040513d6000823e601f3d908101601f19168201604052602081101561242a57600080fd5b8101908080516040519392919084600160201b82111561244957600080fd5b90830190602082018581111561245e57600080fd5b82518660208202830111600160201b8211171561247a57600080fd5b82525081516020918201928201910280838360005b838110156124a757818101518382015260200161248f565b505050509050016040525050509050919050565b6124c36125be565b6001600160a01b03166124d461169a565b6001600160a01b03161461251d576040805162461bcd60e51b81526020600482018190526024820152600080516020612e05833981519152604482015290519081900360640190fd5b6001600160a01b0381166125625760405162461bcd60e51b8152600401808060200182810382526026815260200180612d906026913960400191505060405180910390fd5b6033546040516001600160a01b038084169216907f8be0079c531659141344cd1fd0a4f28419497f9722a3daafe3b4186f6b6457e090600090a3603380546001600160a01b0319166001600160a01b0392909216919091179055565b3390565b6125ca611230565b612612576040805162461bcd60e51b815260206004820152601460248201527314185d5cd8589b194e881b9bdd081c185d5cd95960621b604482015290519081900360640190fd5b6065805460ff191690557f5db9ee0a495bf2e6ff9c91a7834c1ba4fdd244a5e8aa4e537bd38aeae4b073aa6126456125be565b604080516001600160a01b039092168252519081900360200190a1565b61266a611230565b156126af576040805162461bcd60e51b815260206004820152601060248201526f14185d5cd8589b194e881c185d5cd95960821b604482015290519081900360640190fd5b6065805460ff191660011790557f62e78cea01bee320cd4e420270b5ea74000d11b0c9f74754ebdbfc544b05a2586126456125be565b60006126f03061299f565b15905090565b600054610100900460ff168061270f575061270f6126e5565b8061271d575060005460ff16155b6127585760405162461bcd60e51b815260040180806020018281038252602e815260200180612db6602e913960400191505060405180910390fd5b600054610100900460ff16158015612783576000805460ff1961ff0019909116610100171660011790555b61278b6129a5565b612793612a45565b61279b612b3e565b80156127ad576000805461ff00191690555b50565b600054610100900460ff16806127c957506127c96126e5565b806127d7575060005460ff16155b6128125760405162461bcd60e51b815260040180806020018281038252602e815260200180612db6602e913960400191505060405180910390fd5b600054610100900460ff1615801561283d576000805460ff1961ff0019909116610100171660011790555b61279b612be9565b60008282111561289c576040805162461bcd60e51b815260206004820152601e60248201527f536166654d6174683a207375627472616374696f6e206f766572666c6f770000604482015290519081900360640190fd5b50900390565b6000604051733d602d80600a3d3981f3363d3d373d3d3d363d7360601b81528260601b60148201526e5af43d82803e903d91602b57fd5bf360881b60288201526037816000f09150506001600160a01b0381166112d9576040805162461bcd60e51b8152602060048201526016602482015275115490cc4c4d8dce8818dc99585d194819985a5b195960521b604482015290519081900360640190fd5b60008261294e57506000610d0f565b8282028284828161295b57fe5b04146129985760405162461bcd60e51b8152600401808060200182810382526021815260200180612de46021913960400191505060405180910390fd5b9392505050565b3b151590565b600054610100900460ff16806129be57506129be6126e5565b806129cc575060005460ff16155b612a075760405162461bcd60e51b815260040180806020018281038252602e815260200180612db6602e913960400191505060405180910390fd5b600054610100900460ff1615801561279b576000805460ff1961ff00199091166101001716600117905580156127ad576000805461ff001916905550565b600054610100900460ff1680612a5e5750612a5e6126e5565b80612a6c575060005460ff16155b612aa75760405162461bcd60e51b815260040180806020018281038252602e815260200180612db6602e913960400191505060405180910390fd5b600054610100900460ff16158015612ad2576000805460ff1961ff0019909116610100171660011790555b6000612adc6125be565b603380546001600160a01b0319166001600160a01b038316908117909155604051919250906000907f8be0079c531659141344cd1fd0a4f28419497f9722a3daafe3b4186f6b6457e0908290a35080156127ad576000805461ff001916905550565b600054610100900460ff1680612b575750612b576126e5565b80612b65575060005460ff16155b612ba05760405162461bcd60e51b815260040180806020018281038252602e815260200180612db6602e913960400191505060405180910390fd5b600054610100900460ff16158015612bcb576000805460ff1961ff0019909116610100171660011790555b6065805460ff1916905580156127ad576000805461ff001916905550565b600054610100900460ff1680612c025750612c026126e5565b80612c10575060005460ff16155b612c4b5760405162461bcd60e51b815260040180806020018281038252602e815260200180612db6602e913960400191505060405180910390fd5b600054610100900460ff16158015612c76576000805460ff1961ff0019909116610100171660011790555b600160975580156127ad576000805461ff001916905550565b828054828255906000526020600020908101928215612ce4579160200282015b82811115612ce457825182546001600160a01b0319166001600160a01b03909116178255602090920191600190910190612caf565b50612cf0929150612d3b565b5090565b828054828255906000526020600020908101928215612d2f579160200282015b82811115612d2f578251825591602001919060010190612d14565b50612cf0929150612d5a565b5b80821115612cf05780546001600160a01b0319168155600101612d3c565b5b80821115612cf05760008155600101612d5b56fe5265656e7472616e637947756172643a207265656e7472616e742063616c6c004f776e61626c653a206e6577206f776e657220697320746865207a65726f2061646472657373496e697469616c697a61626c653a20636f6e747261637420697320616c726561647920696e697469616c697a6564536166654d6174683a206d756c7469706c69636174696f6e206f766572666c6f774f776e61626c653a2063616c6c6572206973206e6f7420746865206f776e6572a26469706673582212204e103d91d779f87ade77263cab8c27811b71bbada8e4473f30af73869147d64064736f6c634300060c0033",
  "deployedBytecode": "0x608060405234801561001057600080fd5b50600436106101cf5760003560e01c80638456cb5911610104578063b28cb6dc116100a2578063e6ab280611610071578063e6ab280614610843578063ef0a712f146108b3578063f2fad2b6146108d0578063f2fde38b146108ed576101cf565b8063b28cb6dc146105e3578063c4db7fa01461082b578063d46300fd14610833578063e25aa5fa1461083b576101cf565b80638da5cb5b116100de5780638da5cb5b1461054f578063916955861461055757806391ceb3eb14610593578063a95b089f146105b3576101cf565b80638456cb59146104b657806384cdd9bc146104be5780638beb60b614610532576101cf565b80634d49e87d116101715780635fd65f0f1161014b5780635fd65f0f146103ed57806366c0bd2414610436578063715018a61461047257806382b866001461047a576101cf565b80634d49e87d1461033a578063593d132c146103ae5780635c975abb146103d1576101cf565b8063342a87a1116101ad578063342a87a1146102bd57806334e19907146102e35780633e3a1560146103005780633f4ba83a14610332576101cf565b80630419b45a146101d45780630ba81959146101de57806331cd52b0146101f8575b600080fd5b6101dc610913565b005b6101e66109f7565b60408051918252519081900360200190f35b61026d6004803603606081101561020e57600080fd5b81359190810190604081016020820135600160201b81111561022f57600080fd5b82018360208201111561024157600080fd5b803590602001918460208302840111600160201b8311171561026257600080fd5b919350915035610a7c565b60408051602080825283518183015283519192839290830191858101910280838360005b838110156102a9578181015183820152602001610291565b505050509050019250505060405180910390f35b6101e6600480360360408110156102d357600080fd5b508035906020013560ff16610c7a565b6101dc600480360360208110156102f957600080fd5b5035610d15565b6101e66004803603608081101561031657600080fd5b5080359060ff6020820135169060408101359060600135610deb565b6101dc610f72565b6101e66004803603606081101561035057600080fd5b810190602081018135600160201b81111561036a57600080fd5b82018360208201111561037c57600080fd5b803590602001918460208302840111600160201b8311171561039d57600080fd5b919350915080359060200135610fde565b6101dc600480360360408110156103c457600080fd5b5080359060200135611152565b6103d9611230565b604080519115158252519081900360200190f35b6103f5611239565b604080519788526020880196909652868601949094526060860192909252608085015260a08401526001600160a01b031660c0830152519081900360e00190f35b61045c6004803603602081101561044c57600080fd5b50356001600160a01b031661125a565b6040805160ff9092168252519081900360200190f35b6101dc6112de565b61049a6004803603602081101561049057600080fd5b503560ff1661138a565b604080516001600160a01b039092168252519081900360200190f35b6101dc611401565b6101e6600480360360608110156104d457600080fd5b810190602081018135600160201b8111156104ee57600080fd5b82018360208201111561050057600080fd5b803590602001918460208302840111600160201b8311171561052157600080fd5b91935091508035906020013561146b565b6101dc6004803603602081101561054857600080fd5b50356115df565b61049a61169a565b6101e6600480360360a081101561056d57600080fd5b5060ff8135811691602081013590911690604081013590606081013590608001356116a9565b6101e6600480360360208110156105a957600080fd5b503560ff16611839565b6101e6600480360360608110156105c957600080fd5b5060ff8135811691602081013590911690604001356118ad565b6101dc60048036036101008110156105fa57600080fd5b810190602081018135600160201b81111561061457600080fd5b82018360208201111561062657600080fd5b803590602001918460208302840111600160201b8311171561064757600080fd5b9190808060200260200160405190810160405280939291908181526020018383602002808284376000920191909152509295949360208101935035915050600160201b81111561069657600080fd5b8201836020820111156106a857600080fd5b803590602001918460208302840111600160201b831117156106c957600080fd5b9190808060200260200160405190810160405280939291908181526020018383602002808284376000920191909152509295949360208101935035915050600160201b81111561071857600080fd5b82018360208201111561072a57600080fd5b803590602001918460018302840111600160201b8311171561074b57600080fd5b91908080601f0160208091040260200160405190810160405280939291908181526020018383808284376000920191909152509295949360208101935035915050600160201b81111561079d57600080fd5b8201836020820111156107af57600080fd5b803590602001918460018302840111600160201b831117156107d057600080fd5b91908080601f01602080910402602001604051908101604052809392919081815260200183838082843760009201919091525092955050823593505050602081013590604081013590606001356001600160a01b031661194f565b6101dc612112565b6101e66121c6565b6101e661221a565b6101e66004803603604081101561085957600080fd5b810190602081018135600160201b81111561087357600080fd5b82018360208201111561088557600080fd5b803590602001918460208302840111600160201b831117156108a657600080fd5b919350915035151561226e565b6101e6600480360360208110156108c957600080fd5b5035612303565b61026d600480360360208110156108e657600080fd5b5035612391565b6101dc6004803603602081101561090357600080fd5b50356001600160a01b03166124bb565b61091b6125be565b6001600160a01b031661092c61169a565b6001600160a01b031614610975576040805162461bcd60e51b81526020600482018190526024820152600080516020612e05833981519152604482015290519081900360640190fd5b73__$89ca2303b3625bc4995b3bafbd0b3031da$__6324c5c75160c961099961169a565b6040518363ffffffff1660e01b815260040180838152602001826001600160a01b031681526020019250505060006040518083038186803b1580156109dd57600080fd5b505af41580156109f1573d6000803e3d6000fd5b50505050565b600060c973__$26a88cba1669b3945bf5228d74cfccd4b5$__63c9b64dcb90916040518263ffffffff1660e01b81526004018082815260200191505060206040518083038186803b158015610a4b57600080fd5b505af4158015610a5f573d6000803e3d6000fd5b505050506040513d6020811015610a7557600080fd5b5051905090565b606060026097541415610ac4576040805162461bcd60e51b815260206004820152601f6024820152600080516020612d70833981519152604482015290519081900360640190fd5b60026097558142811015610b12576040805162461bcd60e51b815260206004820152601060248201526f111958591b1a5b99481b9bdd081b595d60821b604482015290519081900360640190fd5b60c973__$89ca2303b3625bc4995b3bafbd0b3031da$__6373fd6b3e90918888886040518563ffffffff1660e01b815260040180858152602001848152602001806020018281038252848482818152602001925060200280828437600081840152601f19601f8201169050808301925050509550505050505060006040518083038186803b158015610ba357600080fd5b505af4158015610bb7573d6000803e3d6000fd5b505050506040513d6000823e601f3d908101601f191682016040526020811015610be057600080fd5b8101908080516040519392919084600160201b821115610bff57600080fd5b908301906020820185811115610c1457600080fd5b82518660208202830111600160201b82111715610c3057600080fd5b82525081516020918201928201910280838360005b83811015610c5d578181015183820152602001610c45565b505050509050016040525050509150506001609755949350505050565b6040805163703493a160e11b815260c960048201526024810184905260ff83166044820152905160009173__$89ca2303b3625bc4995b3bafbd0b3031da$__9163e069274291606480820192602092909190829003018186803b158015610ce057600080fd5b505af4158015610cf4573d6000803e3d6000fd5b505050506040513d6020811015610d0a57600080fd5b505190505b92915050565b610d1d6125be565b6001600160a01b0316610d2e61169a565b6001600160a01b031614610d77576040805162461bcd60e51b81526020600482018190526024820152600080516020612e05833981519152604482015290519081900360640190fd5b6040805163119f861b60e21b815260c9600482015260248101839052905173__$89ca2303b3625bc4995b3bafbd0b3031da$__9163467e186c916044808301926000929190829003018186803b158015610dd057600080fd5b505af4158015610de4573d6000803e3d6000fd5b5050505050565b600060026097541415610e33576040805162461bcd60e51b815260206004820152601f6024820152600080516020612d70833981519152604482015290519081900360640190fd5b6002609755610e40611230565b15610e85576040805162461bcd60e51b815260206004820152601060248201526f14185d5cd8589b194e881c185d5cd95960821b604482015290519081900360640190fd5b8180421115610ece576040805162461bcd60e51b815260206004820152601060248201526f111958591b1a5b99481b9bdd081b595d60821b604482015290519081900360640190fd5b6040805163e7a4db8160e01b815260c960048201526024810188905260ff8716604482015260648101869052905173__$89ca2303b3625bc4995b3bafbd0b3031da$__9163e7a4db81916084808301926020929190829003018186803b158015610f3757600080fd5b505af4158015610f4b573d6000803e3d6000fd5b505050506040513d6020811015610f6157600080fd5b505160016097559695505050505050565b610f7a6125be565b6001600160a01b0316610f8b61169a565b6001600160a01b031614610fd4576040805162461bcd60e51b81526020600482018190526024820152600080516020612e05833981519152604482015290519081900360640190fd5b610fdc6125c2565b565b600060026097541415611026576040805162461bcd60e51b815260206004820152601f6024820152600080516020612d70833981519152604482015290519081900360640190fd5b6002609755611033611230565b15611078576040805162461bcd60e51b815260206004820152601060248201526f14185d5cd8589b194e881c185d5cd95960821b604482015290519081900360640190fd5b81804211156110c1576040805162461bcd60e51b815260206004820152601060248201526f111958591b1a5b99481b9bdd081b595d60821b604482015290519081900360640190fd5b60c973__$89ca2303b3625bc4995b3bafbd0b3031da$__6340370edf90918888886040518563ffffffff1660e01b815260040180858152602001806020018381526020018281038252858582818152602001925060200280828437600081840152601f19601f8201169050808301925050509550505050505060206040518083038186803b158015610f3757600080fd5b61115a6125be565b6001600160a01b031661116b61169a565b6001600160a01b0316146111b4576040805162461bcd60e51b81526020600482018190526024820152600080516020612e05833981519152604482015290519081900360640190fd5b604080516358fdd79b60e01b815260c960048201526024810184905260448101839052905173__$26a88cba1669b3945bf5228d74cfccd4b5$__916358fdd79b916064808301926000929190829003018186803b15801561121457600080fd5b505af4158015611228573d6000803e3d6000fd5b505050505050565b60655460ff1690565b60c95460ca5460cb5460cc5460cd5460ce5460cf546001600160a01b031687565b6001600160a01b038116600081815260d36020526040812054909160ff909116906112848261138a565b6001600160a01b0316146112d6576040805162461bcd60e51b8152602060048201526014602482015273151bdad95b88191bd95cc81b9bdd08195e1a5cdd60621b604482015290519081900360640190fd5b90505b919050565b6112e66125be565b6001600160a01b03166112f761169a565b6001600160a01b031614611340576040805162461bcd60e51b81526020600482018190526024820152600080516020612e05833981519152604482015290519081900360640190fd5b6033546040516000916001600160a01b0316907f8be0079c531659141344cd1fd0a4f28419497f9722a3daafe3b4186f6b6457e0908390a3603380546001600160a01b0319169055565b60d05460009060ff8316106113d5576040805162461bcd60e51b815260206004820152600c60248201526b4f7574206f662072616e676560a01b604482015290519081900360640190fd5b60d0805460ff84169081106113e657fe5b6000918252602090912001546001600160a01b031692915050565b6114096125be565b6001600160a01b031661141a61169a565b6001600160a01b031614611463576040805162461bcd60e51b81526020600482018190526024820152600080516020612e05833981519152604482015290519081900360640190fd5b610fdc612662565b6000600260975414156114b3576040805162461bcd60e51b815260206004820152601f6024820152600080516020612d70833981519152604482015290519081900360640190fd5b60026097556114c0611230565b15611505576040805162461bcd60e51b815260206004820152601060248201526f14185d5cd8589b194e881c185d5cd95960821b604482015290519081900360640190fd5b818042111561154e576040805162461bcd60e51b815260206004820152601060248201526f111958591b1a5b99481b9bdd081b595d60821b604482015290519081900360640190fd5b60c973__$89ca2303b3625bc4995b3bafbd0b3031da$__6341b91c2690918888886040518563ffffffff1660e01b815260040180858152602001806020018381526020018281038252858582818152602001925060200280828437600081840152601f19601f8201169050808301925050509550505050505060206040518083038186803b158015610f3757600080fd5b6115e76125be565b6001600160a01b03166115f861169a565b6001600160a01b031614611641576040805162461bcd60e51b81526020600482018190526024820152600080516020612e05833981519152604482015290519081900360640190fd5b60408051633823393b60e11b815260c9600482015260248101839052905173__$89ca2303b3625bc4995b3bafbd0b3031da$__916370467276916044808301926000929190829003018186803b158015610dd057600080fd5b6033546001600160a01b031690565b6000600260975414156116f1576040805162461bcd60e51b815260206004820152601f6024820152600080516020612d70833981519152604482015290519081900360640190fd5b60026097556116fe611230565b15611743576040805162461bcd60e51b815260206004820152601060248201526f14185d5cd8589b194e881c185d5cd95960821b604482015290519081900360640190fd5b818042111561178c576040805162461bcd60e51b815260206004820152601060248201526f111958591b1a5b99481b9bdd081b595d60821b604482015290519081900360640190fd5b6040805163529cbd9160e11b815260c9600482015260ff808a166024830152881660448201526064810187905260848101869052905173__$89ca2303b3625bc4995b3bafbd0b3031da$__9163a5397b229160a4808301926020929190829003018186803b1580156117fd57600080fd5b505af4158015611811573d6000803e3d6000fd5b505050506040513d602081101561182757600080fd5b50516001609755979650505050505050565b60d05460009060ff83161061188a576040805162461bcd60e51b8152602060048201526012602482015271496e646578206f7574206f662072616e676560701b604482015290519081900360640190fd5b60d2805460ff841690811061189b57fe5b90600052602060002001549050919050565b604080516312c8d80f60e21b815260c9600482015260ff80861660248301528416604482015260648101839052905160009173__$89ca2303b3625bc4995b3bafbd0b3031da$__91634b23603c91608480820192602092909190829003018186803b15801561191b57600080fd5b505af415801561192f573d6000803e3d6000fd5b505050506040513d602081101561194557600080fd5b5051949350505050565b600054610100900460ff168061196857506119686126e5565b80611976575060005460ff16155b6119b15760405162461bcd60e51b815260040180806020018281038252602e815260200180612db6602e913960400191505060405180910390fd5b600054610100900460ff161580156119dc576000805460ff1961ff0019909116610100171660011790555b6119e46126f6565b6119ec6127b0565b6001895111611a42576040805162461bcd60e51b815260206004820152601960248201527f5f706f6f6c6564546f6b656e732e6c656e677468203c3d203100000000000000604482015290519081900360640190fd5b602089511115611a99576040805162461bcd60e51b815260206004820152601960248201527f5f706f6f6c6564546f6b656e732e6c656e677468203e20333200000000000000604482015290519081900360640190fd5b8751895114611aef576040805162461bcd60e51b815260206004820152601f60248201527f5f706f6f6c6564546f6b656e7320646563696d616c73206d69736d6174636800604482015290519081900360640190fd5b6060885167ffffffffffffffff81118015611b0957600080fd5b50604051908082528060200260200182016040528015611b33578160200160208202803683370190505b50905060005b8a518160ff161015611da45760ff811615611c155760d360008c8360ff1681518110611b6157fe5b6020908102919091018101516001600160a01b031682528101919091526040016000205460ff16158015611bd157508a8160ff1681518110611b9f57fe5b60200260200101516001600160a01b03168b600081518110611bbd57fe5b60200260200101516001600160a01b031614155b611c15576040805162461bcd60e51b815260206004820152601060248201526f4475706c696361746520746f6b656e7360801b604482015290519081900360640190fd5b60006001600160a01b03168b8260ff1681518110611c2f57fe5b60200260200101516001600160a01b03161415611c93576040805162461bcd60e51b815260206004820152601d60248201527f546865203020616464726573732069736e277420616e204552432d3230000000604482015290519081900360640190fd5b601260ff168a8260ff1681518110611ca757fe5b602002602001015160ff161115611d05576040805162461bcd60e51b815260206004820152601a60248201527f546f6b656e20646563696d616c732065786365656473206d6178000000000000604482015290519081900360640190fd5b611d358a8260ff1681518110611d1757fe5b602002602001015160ff16601260ff1661284590919063ffffffff16565b600a0a828260ff1681518110611d4757fe5b6020026020010181815250508060d360008d8460ff1681518110611d6757fe5b6020908102919091018101516001600160a01b03168252810191909152604001600020805460ff191660ff92909216919091179055600101611b39565b50620f42408610611df1576040805162461bcd60e51b81526020600482015260126024820152715f612065786365656473206d6178696d756d60701b604482015290519081900360640190fd5b6305f5e1008510611e40576040805162461bcd60e51b81526020600482015260146024820152735f6665652065786365656473206d6178696d756d60601b604482015290519081900360640190fd5b6402540be4008410611e99576040805162461bcd60e51b815260206004820152601960248201527f5f61646d696e4665652065786365656473206d6178696d756d00000000000000604482015290519081900360640190fd5b6000611ea4846128a2565b9050806001600160a01b0316634cd88b768a8a6040518363ffffffff1660e01b8152600401808060200180602001838103835285818151815260200191508051906020019080838360005b83811015611f07578181015183820152602001611eef565b50505050905090810190601f168015611f345780820380516001836020036101000a031916815260200191505b50838103825284518152845160209182019186019080838360005b83811015611f67578181015183820152602001611f4f565b50505050905090810190601f168015611f945780820380516001836020036101000a031916815260200191505b50945050505050602060405180830381600087803b158015611fb557600080fd5b505af1158015611fc9573d6000803e3d6000fd5b505050506040513d6020811015611fdf57600080fd5b5051612032576040805162461bcd60e51b815260206004820152601c60248201527f636f756c64206e6f7420696e6974206c70546f6b656e20636c6f6e6500000000604482015290519081900360640190fd5b60cf80546001600160a01b0319166001600160a01b0383161790558a516120609060d09060208e0190612c8f565b5081516120749060d1906020850190612cf4565b508a5167ffffffffffffffff8111801561208d57600080fd5b506040519080825280602002602001820160405280156120b7578160200160208202803683370190505b5080516120cc9160d291602090910190612cf4565b506120d887606461293f565b60c9556120e687606461293f565b60ca55505060cd84905560ce8390558015612107576000805461ff00191690555b505050505050505050565b61211a6125be565b6001600160a01b031661212b61169a565b6001600160a01b031614612174576040805162461bcd60e51b81526020600482018190526024820152600080516020612e05833981519152604482015290519081900360640190fd5b604080516378a7108f60e11b815260c96004820152905173__$26a88cba1669b3945bf5228d74cfccd4b5$__9163f14e211e916024808301926000929190829003018186803b1580156109dd57600080fd5b600060c973__$26a88cba1669b3945bf5228d74cfccd4b5$__63b0a14cfc90916040518263ffffffff1660e01b81526004018082815260200191505060206040518083038186803b158015610a4b57600080fd5b600060c973__$89ca2303b3625bc4995b3bafbd0b3031da$__6371906c2c90916040518263ffffffff1660e01b81526004018082815260200191505060206040518083038186803b158015610a4b57600080fd5b600060c973__$89ca2303b3625bc4995b3bafbd0b3031da$__63834b491090918686866040518563ffffffff1660e01b8152600401808581526020018060200183151581526020018281038252858582818152602001925060200280828437600081840152601f19601f8201169050808301925050509550505050505060206040518083038186803b15801561191b57600080fd5b600060c973__$89ca2303b3625bc4995b3bafbd0b3031da$__637d0481609091846040518363ffffffff1660e01b8152600401808381526020018281526020019250505060206040518083038186803b15801561235f57600080fd5b505af4158015612373573d6000803e3d6000fd5b505050506040513d602081101561238957600080fd5b505192915050565b606060c973__$89ca2303b3625bc4995b3bafbd0b3031da$__6370703e4a9091846040518363ffffffff1660e01b8152600401808381526020018281526020019250505060006040518083038186803b1580156123ed57600080fd5b505af4158015612401573d6000803e3d6000fd5b505050506040513d6000823e601f3d908101601f19168201604052602081101561242a57600080fd5b8101908080516040519392919084600160201b82111561244957600080fd5b90830190602082018581111561245e57600080fd5b82518660208202830111600160201b8211171561247a57600080fd5b82525081516020918201928201910280838360005b838110156124a757818101518382015260200161248f565b505050509050016040525050509050919050565b6124c36125be565b6001600160a01b03166124d461169a565b6001600160a01b03161461251d576040805162461bcd60e51b81526020600482018190526024820152600080516020612e05833981519152604482015290519081900360640190fd5b6001600160a01b0381166125625760405162461bcd60e51b8152600401808060200182810382526026815260200180612d906026913960400191505060405180910390fd5b6033546040516001600160a01b038084169216907f8be0079c531659141344cd1fd0a4f28419497f9722a3daafe3b4186f6b6457e090600090a3603380546001600160a01b0319166001600160a01b0392909216919091179055565b3390565b6125ca611230565b612612576040805162461bcd60e51b815260206004820152601460248201527314185d5cd8589b194e881b9bdd081c185d5cd95960621b604482015290519081900360640190fd5b6065805460ff191690557f5db9ee0a495bf2e6ff9c91a7834c1ba4fdd244a5e8aa4e537bd38aeae4b073aa6126456125be565b604080516001600160a01b039092168252519081900360200190a1565b61266a611230565b156126af576040805162461bcd60e51b815260206004820152601060248201526f14185d5cd8589b194e881c185d5cd95960821b604482015290519081900360640190fd5b6065805460ff191660011790557f62e78cea01bee320cd4e420270b5ea74000d11b0c9f74754ebdbfc544b05a2586126456125be565b60006126f03061299f565b15905090565b600054610100900460ff168061270f575061270f6126e5565b8061271d575060005460ff16155b6127585760405162461bcd60e51b815260040180806020018281038252602e815260200180612db6602e913960400191505060405180910390fd5b600054610100900460ff16158015612783576000805460ff1961ff0019909116610100171660011790555b61278b6129a5565b612793612a45565b61279b612b3e565b80156127ad576000805461ff00191690555b50565b600054610100900460ff16806127c957506127c96126e5565b806127d7575060005460ff16155b6128125760405162461bcd60e51b815260040180806020018281038252602e815260200180612db6602e913960400191505060405180910390fd5b600054610100900460ff1615801561283d576000805460ff1961ff0019909116610100171660011790555b61279b612be9565b60008282111561289c576040805162461bcd60e51b815260206004820152601e60248201527f536166654d6174683a207375627472616374696f6e206f766572666c6f770000604482015290519081900360640190fd5b50900390565b6000604051733d602d80600a3d3981f3363d3d373d3d3d363d7360601b81528260601b60148201526e5af43d82803e903d91602b57fd5bf360881b60288201526037816000f09150506001600160a01b0381166112d9576040805162461bcd60e51b8152602060048201526016602482015275115490cc4c4d8dce8818dc99585d194819985a5b195960521b604482015290519081900360640190fd5b60008261294e57506000610d0f565b8282028284828161295b57fe5b04146129985760405162461bcd60e51b8152600401808060200182810382526021815260200180612de46021913960400191505060405180910390fd5b9392505050565b3b151590565b600054610100900460ff16806129be57506129be6126e5565b806129cc575060005460ff16155b612a075760405162461bcd60e51b815260040180806020018281038252602e815260200180612db6602e913960400191505060405180910390fd5b600054610100900460ff1615801561279b576000805460ff1961ff00199091166101001716600117905580156127ad576000805461ff001916905550565b600054610100900460ff1680612a5e5750612a5e6126e5565b80612a6c575060005460ff16155b612aa75760405162461bcd60e51b815260040180806020018281038252602e815260200180612db6602e913960400191505060405180910390fd5b600054610100900460ff16158015612ad2576000805460ff1961ff0019909116610100171660011790555b6000612adc6125be565b603380546001600160a01b0319166001600160a01b038316908117909155604051919250906000907f8be0079c531659141344cd1fd0a4f28419497f9722a3daafe3b4186f6b6457e0908290a35080156127ad576000805461ff001916905550565b600054610100900460ff1680612b575750612b576126e5565b80612b65575060005460ff16155b612ba05760405162461bcd60e51b815260040180806020018281038252602e815260200180612db6602e913960400191505060405180910390fd5b600054610100900460ff16158015612bcb576000805460ff1961ff0019909116610100171660011790555b6065805460ff1916905580156127ad576000805461ff001916905550565b600054610100900460ff1680612c025750612c026126e5565b80612c10575060005460ff16155b612c4b5760405162461bcd60e51b815260040180806020018281038252602e815260200180612db6602e913960400191505060405180910390fd5b600054610100900460ff16158015612c76576000805460ff1961ff0019909116610100171660011790555b600160975580156127ad576000805461ff001916905550565b828054828255906000526020600020908101928215612ce4579160200282015b82811115612ce457825182546001600160a01b0319166001600160a01b03909116178255602090920191600190910190612caf565b50612cf0929150612d3b565b5090565b828054828255906000526020600020908101928215612d2f579160200282015b82811115612d2f578251825591602001919060010190612d14565b50612cf0929150612d5a565b5b80821115612cf05780546001600160a01b0319168155600101612d3c565b5b80821115612cf05760008155600101612d5b56fe5265656e7472616e637947756172643a207265656e7472616e742063616c6c004f776e61626c653a206e6577206f776e657220697320746865207a65726f2061646472657373496e697469616c697a61626c653a20636f6e747261637420697320616c726561647920696e697469616c697a6564536166654d6174683a206d756c7469706c69636174696f6e206f766572666c6f774f776e61626c653a2063616c6c6572206973206e6f7420746865206f776e6572a26469706673582212204e103d91d779f87ade77263cab8c27811b71bbada8e4473f30af73869147d64064736f6c634300060c0033",
  "libraries": {
    "SwapUtils": "0x993cA61eb2569219c6794b6714f2F86cEa26a352",
    "AmplificationUtils": "0x6A6d40bA25574b482507944FBA38c1E3BCc4C29b"
  },
  "devdoc": {
    "details": "Most of the logic is stored as a library `SwapUtils` for the sake of reducing contract's deployment size.",
    "kind": "dev",
    "methods": {
      "addLiquidity(uint256[],uint256,uint256)": {
        "params": {
          "amounts": "the amounts of each token to add, in their native precision",
          "deadline": "latest timestamp to accept this transaction",
          "minToMint": "the minimum LP tokens adding this amount of liquidity should mint, otherwise revert. Handy for front-running mitigation"
        },
        "returns": {
          "_0": "amount of LP token user minted and received"
        }
      },
      "calculateRemoveLiquidity(uint256)": {
        "params": {
          "amount": "the amount of LP tokens that would be burned on withdrawal"
        },
        "returns": {
          "_0": "array of token balances that the user will receive"
        }
      },
      "calculateRemoveLiquidityOneToken(uint256,uint8)": {
        "params": {
          "tokenAmount": "the amount of LP token to burn",
          "tokenIndex": "index of which token will be withdrawn"
        },
        "returns": {
          "availableTokenAmount": "calculated amount of underlying token available to withdraw"
        }
      },
      "calculateSwap(uint8,uint8,uint256)": {
        "params": {
          "dx": "the amount of tokens the user wants to sell. If the token charges a fee on transfers, use the amount that gets transferred after the fee.",
          "tokenIndexFrom": "the token the user wants to sell",
          "tokenIndexTo": "the token the user wants to buy"
        },
        "returns": {
          "_0": "amount of tokens the user will receive"
        }
      },
      "calculateTokenAmount(uint256[],bool)": {
        "details": "This shouldn't be used outside frontends for user estimates.",
        "params": {
          "amounts": "an array of token amounts to deposit or withdrawal, corresponding to pooledTokens. The amount should be in each pooled token's native precision. If a token charges a fee on transfers, use the amount that gets transferred after the fee.",
          "deposit": "whether this is a deposit or a withdrawal"
        },
        "returns": {
          "_0": "token amount the user will receive"
        }
      },
      "getA()": {
        "details": "See the StableSwap paper for details",
        "returns": {
          "_0": "A parameter"
        }
      },
      "getAPrecise()": {
        "details": "See the StableSwap paper for details",
        "returns": {
          "_0": "A parameter in its raw precision form"
        }
      },
      "getAdminBalance(uint256)": {
        "params": {
          "index": "Index of the pooled token"
        },
        "returns": {
          "_0": "admin's token balance in the token's precision"
        }
      },
      "getToken(uint8)": {
        "params": {
          "index": "the index of the token"
        },
        "returns": {
          "_0": "address of the token at given index"
        }
      },
      "getTokenBalance(uint8)": {
        "params": {
          "index": "the index of the token"
        },
        "returns": {
          "_0": "current balance of the pooled token at given index with token's native precision"
        }
      },
      "getTokenIndex(address)": {
        "params": {
          "tokenAddress": "address of the token"
        },
        "returns": {
          "_0": "the index of the given token address"
        }
      },
      "getVirtualPrice()": {
        "returns": {
          "_0": "the virtual price, scaled to the POOL_PRECISION_DECIMALS"
        }
      },
      "initialize(address[],uint8[],string,string,uint256,uint256,uint256,address)": {
        "params": {
          "_a": "the amplification coefficient * n * (n - 1). See the StableSwap paper for details",
          "_adminFee": "default adminFee to be initialized with",
          "_fee": "default swap fee to be initialized with",
          "_pooledTokens": "an array of ERC20s this pool will accept",
          "decimals": "the decimals to use for each pooled token, eg 8 for WBTC. Cannot be larger than POOL_PRECISION_DECIMALS",
          "lpTokenName": "the long-form name of the token to be deployed",
          "lpTokenSymbol": "the short symbol for the token to be deployed",
          "lpTokenTargetAddress": "the address of an existing LPToken contract to use as a target"
        }
      },
      "owner()": {
        "details": "Returns the address of the current owner."
      },
      "paused()": {
        "details": "Returns true if the contract is paused, and false otherwise."
      },
      "rampA(uint256,uint256)": {
        "params": {
          "futureA": "the new A to ramp towards",
          "futureTime": "timestamp when the new A should be reached"
        }
      },
      "removeLiquidity(uint256,uint256[],uint256)": {
        "details": "Liquidity can always be removed, even when the pool is paused.",
        "params": {
          "amount": "the amount of LP tokens to burn",
          "deadline": "latest timestamp to accept this transaction",
          "minAmounts": "the minimum amounts of each token in the pool        acceptable for this burn. Useful as a front-running mitigation"
        },
        "returns": {
          "_0": "amounts of tokens user received"
        }
      },
      "removeLiquidityImbalance(uint256[],uint256,uint256)": {
        "params": {
          "amounts": "how much of each token to withdraw",
          "deadline": "latest timestamp to accept this transaction",
          "maxBurnAmount": "the max LP token provider is willing to pay to remove liquidity. Useful as a front-running mitigation."
        },
        "returns": {
          "_0": "amount of LP tokens burned"
        }
      },
      "removeLiquidityOneToken(uint256,uint8,uint256,uint256)": {
        "params": {
          "deadline": "latest timestamp to accept this transaction",
          "minAmount": "the minimum amount to withdraw, otherwise revert",
          "tokenAmount": "the amount of the token you want to receive",
          "tokenIndex": "the index of the token you want to receive"
        },
        "returns": {
          "_0": "amount of chosen token user received"
        }
      },
      "renounceOwnership()": {
        "details": "Leaves the contract without owner. It will not be possible to call `onlyOwner` functions anymore. Can only be called by the current owner. NOTE: Renouncing ownership will leave the contract without an owner, thereby removing any functionality that is only available to the owner."
      },
      "setAdminFee(uint256)": {
        "params": {
          "newAdminFee": "new admin fee to be applied on future transactions"
        }
      },
      "setSwapFee(uint256)": {
        "params": {
          "newSwapFee": "new swap fee to be applied on future transactions"
        }
      },
      "swap(uint8,uint8,uint256,uint256,uint256)": {
        "params": {
          "deadline": "latest timestamp to accept this transaction",
          "dx": "the amount of tokens the user wants to swap from",
          "minDy": "the min amount the user would like to receive, or revert.",
          "tokenIndexFrom": "the token the user wants to swap from",
          "tokenIndexTo": "the token the user wants to swap to"
        }
      },
      "transferOwnership(address)": {
        "details": "Transfers ownership of the contract to a new account (`newOwner`). Can only be called by the current owner."
      }
    },
    "title": "Swap - A StableSwap implementation in solidity.",
    "version": 1
  },
  "userdoc": {
    "kind": "user",
    "methods": {
      "addLiquidity(uint256[],uint256,uint256)": {
        "notice": "Add liquidity to the pool with the given amounts of tokens"
      },
      "calculateRemoveLiquidity(uint256)": {
        "notice": "A simple method to calculate amount of each underlying tokens that is returned upon burning given amount of LP tokens"
      },
      "calculateRemoveLiquidityOneToken(uint256,uint8)": {
        "notice": "Calculate the amount of underlying token available to withdraw when withdrawing via only single token"
      },
      "calculateSwap(uint8,uint8,uint256)": {
        "notice": "Calculate amount of tokens you receive on swap"
      },
      "calculateTokenAmount(uint256[],bool)": {
        "notice": "A simple method to calculate prices from deposits or withdrawals, excluding fees but including slippage. This is helpful as an input into the various \"min\" parameters on calls to fight front-running"
      },
      "getA()": {
        "notice": "Return A, the amplification coefficient * n * (n - 1)"
      },
      "getAPrecise()": {
        "notice": "Return A in its raw precision form"
      },
      "getAdminBalance(uint256)": {
        "notice": "This function reads the accumulated amount of admin fees of the token with given index"
      },
      "getToken(uint8)": {
        "notice": "Return address of the pooled token at given index. Reverts if tokenIndex is out of range."
      },
      "getTokenBalance(uint8)": {
        "notice": "Return current balance of the pooled token at given index"
      },
      "getTokenIndex(address)": {
        "notice": "Return the index of the given token address. Reverts if no matching token is found."
      },
      "getVirtualPrice()": {
        "notice": "Get the virtual price, to help calculate profit"
      },
      "initialize(address[],uint8[],string,string,uint256,uint256,uint256,address)": {
        "notice": "Initializes this Swap contract with the given parameters. This will also clone a LPToken contract that represents users' LP positions. The owner of LPToken will be this contract - which means only this contract is allowed to mint/burn tokens."
      },
      "pause()": {
        "notice": "Pause the contract. Revert if already paused."
      },
      "rampA(uint256,uint256)": {
        "notice": "Start ramping up or down A parameter towards given futureA and futureTime Checks if the change is too rapid, and commits the new A value only when it falls under the limit range."
      },
      "removeLiquidity(uint256,uint256[],uint256)": {
        "notice": "Burn LP tokens to remove liquidity from the pool. Withdraw fee that decays linearly over period of 4 weeks since last deposit will apply."
      },
      "removeLiquidityImbalance(uint256[],uint256,uint256)": {
        "notice": "Remove liquidity from the pool, weighted differently than the pool's current balances. Withdraw fee that decays linearly over period of 4 weeks since last deposit will apply."
      },
      "removeLiquidityOneToken(uint256,uint8,uint256,uint256)": {
        "notice": "Remove liquidity from the pool all in one token. Withdraw fee that decays linearly over period of 4 weeks since last deposit will apply."
      },
      "setAdminFee(uint256)": {
        "notice": "Update the admin fee. Admin fee takes portion of the swap fee."
      },
      "setSwapFee(uint256)": {
        "notice": "Update the swap fee to be applied on swaps"
      },
      "stopRampA()": {
        "notice": "Stop ramping A immediately. Reverts if ramp A is already stopped."
      },
      "swap(uint8,uint8,uint256,uint256,uint256)": {
        "notice": "Swap two tokens using this pool"
      },
      "unpause()": {
        "notice": "Unpause the contract. Revert if already unpaused."
      },
      "withdrawAdminFees()": {
        "notice": "Withdraw all admin fees to the contract owner"
      }
    },
    "notice": "This contract is responsible for custody of closely pegged assets (eg. group of stablecoins) and automatic market making system. Users become an LP (Liquidity Provider) by depositing their tokens in desired ratios for an exchange of the pool token that represents their share of the pool. Users can burn pool tokens and withdraw their share of token(s). Each time a swap between the pooled tokens happens, a set fee incurs which effectively gets distributed to the LPs. In case of emergencies, admin can pause additional deposits, swaps, or single-asset withdraws - which stops the ratio of the tokens in the pool from changing. Users can always withdraw their tokens via multi-asset withdraws.",
    "version": 1
  },
  "storageLayout": {
    "storage": [
      {
        "astId": 705,
        "contract": "contracts/stable_swap/Swap.sol:Swap",
        "label": "_initialized",
        "offset": 0,
        "slot": "0",
        "type": "t_bool"
      },
      {
        "astId": 708,
        "contract": "contracts/stable_swap/Swap.sol:Swap",
        "label": "_initializing",
        "offset": 1,
        "slot": "0",
        "type": "t_bool"
      },
      {
        "astId": 2910,
        "contract": "contracts/stable_swap/Swap.sol:Swap",
        "label": "__gap",
        "offset": 0,
        "slot": "1",
        "type": "t_array(t_uint256)50_storage"
      },
      {
        "astId": 136,
        "contract": "contracts/stable_swap/Swap.sol:Swap",
        "label": "_owner",
        "offset": 0,
        "slot": "51",
        "type": "t_address"
      },
      {
        "astId": 255,
        "contract": "contracts/stable_swap/Swap.sol:Swap",
        "label": "__gap",
        "offset": 0,
        "slot": "52",
        "type": "t_array(t_uint256)49_storage"
      },
      {
        "astId": 3984,
        "contract": "contracts/stable_swap/Swap.sol:Swap",
        "label": "_paused",
        "offset": 0,
        "slot": "101",
        "type": "t_bool"
      },
      {
        "astId": 4075,
        "contract": "contracts/stable_swap/Swap.sol:Swap",
        "label": "__gap",
        "offset": 0,
        "slot": "102",
        "type": "t_array(t_uint256)49_storage"
      },
      {
        "astId": 4090,
        "contract": "contracts/stable_swap/Swap.sol:Swap",
        "label": "_status",
        "offset": 0,
        "slot": "151",
        "type": "t_uint256"
      },
      {
        "astId": 4133,
        "contract": "contracts/stable_swap/Swap.sol:Swap",
        "label": "__gap",
        "offset": 0,
        "slot": "152",
        "type": "t_array(t_uint256)49_storage"
      },
      {
        "astId": 25826,
        "contract": "contracts/stable_swap/Swap.sol:Swap",
        "label": "swapStorage",
        "offset": 0,
        "slot": "201",
        "type": "t_struct(Swap)26912_storage"
      },
      {
        "astId": 25830,
        "contract": "contracts/stable_swap/Swap.sol:Swap",
        "label": "tokenIndexes",
        "offset": 0,
        "slot": "211",
        "type": "t_mapping(t_address,t_uint8)"
      }
    ],
    "types": {
      "t_address": {
        "encoding": "inplace",
        "label": "address",
        "numberOfBytes": "20"
      },
      "t_array(t_contract(IERC20)6417)dyn_storage": {
        "base": "t_contract(IERC20)6417",
        "encoding": "dynamic_array",
        "label": "contract IERC20[]",
        "numberOfBytes": "32"
      },
      "t_array(t_uint256)49_storage": {
        "base": "t_uint256",
        "encoding": "inplace",
        "label": "uint256[49]",
        "numberOfBytes": "1568"
      },
      "t_array(t_uint256)50_storage": {
        "base": "t_uint256",
        "encoding": "inplace",
        "label": "uint256[50]",
        "numberOfBytes": "1600"
      },
      "t_array(t_uint256)dyn_storage": {
        "base": "t_uint256",
        "encoding": "dynamic_array",
        "label": "uint256[]",
        "numberOfBytes": "32"
      },
      "t_bool": {
        "encoding": "inplace",
        "label": "bool",
        "numberOfBytes": "1"
      },
      "t_contract(IERC20)6417": {
        "encoding": "inplace",
        "label": "contract IERC20",
        "numberOfBytes": "20"
      },
      "t_contract(LPToken)25701": {
        "encoding": "inplace",
        "label": "contract LPToken",
        "numberOfBytes": "20"
      },
      "t_mapping(t_address,t_uint8)": {
        "encoding": "mapping",
        "key": "t_address",
        "label": "mapping(address => uint8)",
        "numberOfBytes": "32",
        "value": "t_uint8"
      },
      "t_struct(Swap)26912_storage": {
        "encoding": "inplace",
        "label": "struct SwapUtils.Swap",
        "members": [
          {
            "astId": 26890,
            "contract": "contracts/stable_swap/Swap.sol:Swap",
            "label": "initialA",
            "offset": 0,
            "slot": "0",
            "type": "t_uint256"
          },
          {
            "astId": 26892,
            "contract": "contracts/stable_swap/Swap.sol:Swap",
            "label": "futureA",
            "offset": 0,
            "slot": "1",
            "type": "t_uint256"
          },
          {
            "astId": 26894,
            "contract": "contracts/stable_swap/Swap.sol:Swap",
            "label": "initialATime",
            "offset": 0,
            "slot": "2",
            "type": "t_uint256"
          },
          {
            "astId": 26896,
            "contract": "contracts/stable_swap/Swap.sol:Swap",
            "label": "futureATime",
            "offset": 0,
            "slot": "3",
            "type": "t_uint256"
          },
          {
            "astId": 26898,
            "contract": "contracts/stable_swap/Swap.sol:Swap",
            "label": "swapFee",
            "offset": 0,
            "slot": "4",
            "type": "t_uint256"
          },
          {
            "astId": 26900,
            "contract": "contracts/stable_swap/Swap.sol:Swap",
            "label": "adminFee",
            "offset": 0,
            "slot": "5",
            "type": "t_uint256"
          },
          {
            "astId": 26902,
            "contract": "contracts/stable_swap/Swap.sol:Swap",
            "label": "lpToken",
            "offset": 0,
            "slot": "6",
            "type": "t_contract(LPToken)25701"
          },
          {
            "astId": 26905,
            "contract": "contracts/stable_swap/Swap.sol:Swap",
            "label": "pooledTokens",
            "offset": 0,
            "slot": "7",
            "type": "t_array(t_contract(IERC20)6417)dyn_storage"
          },
          {
            "astId": 26908,
            "contract": "contracts/stable_swap/Swap.sol:Swap",
            "label": "tokenPrecisionMultipliers",
            "offset": 0,
            "slot": "8",
            "type": "t_array(t_uint256)dyn_storage"
          },
          {
            "astId": 26911,
            "contract": "contracts/stable_swap/Swap.sol:Swap",
            "label": "balances",
            "offset": 0,
            "slot": "9",
            "type": "t_array(t_uint256)dyn_storage"
          }
        ],
        "numberOfBytes": "320"
      },
      "t_uint256": {
        "encoding": "inplace",
        "label": "uint256",
        "numberOfBytes": "32"
      },
      "t_uint8": {
        "encoding": "inplace",
        "label": "uint8",
        "numberOfBytes": "1"
      }
    }
  }
}