{
  "address": "0x993cA61eb2569219c6794b6714f2F86cEa26a352",
  "abi": [
    {
      "anonymous": false,
      "inputs": [
        {
          "indexed": true,
          "internalType": "address",
          "name": "provider",
          "type": "address"
        },
        {
          "indexed": false,
          "internalType": "uint256[]",
          "name": "tokenAmounts",
          "type": "uint256[]"
        },
        {
          "indexed": false,
          "internalType": "uint256[]",
          "name": "fees",
          "type": "uint256[]"
        },
        {
          "indexed": false,
          "internalType": "uint256",
          "name": "invariant",
          "type": "uint256"
        },
        {
          "indexed": false,
          "internalType": "uint256",
          "name": "lpTokenSupply",
          "type": "uint256"
        }
      ],
      "name": "AddLiquidity",
      "type": "event"
    },
    {
      "anonymous": false,
      "inputs": [
        {
          "indexed": false,
          "internalType": "uint256",
          "name": "newAdminFee",
          "type": "uint256"
        }
      ],
      "name": "NewAdminFee",
      "type": "event"
    },
    {
      "anonymous": false,
      "inputs": [
        {
          "indexed": false,
          "internalType": "uint256",
          "name": "newSwapFee",
          "type": "uint256"
        }
      ],
      "name": "NewSwapFee",
      "type": "event"
    },
    {
      "anonymous": false,
      "inputs": [
        {
          "indexed": true,
          "internalType": "address",
          "name": "provider",
          "type": "address"
        },
        {
          "indexed": false,
          "internalType": "uint256[]",
          "name": "tokenAmounts",
          "type": "uint256[]"
        },
        {
          "indexed": false,
          "internalType": "uint256",
          "name": "lpTokenSupply",
          "type": "uint256"
        }
      ],
      "name": "RemoveLiquidity",
      "type": "event"
    },
    {
      "anonymous": false,
      "inputs": [
        {
          "indexed": true,
          "internalType": "address",
          "name": "provider",
          "type": "address"
        },
        {
          "indexed": false,
          "internalType": "uint256[]",
          "name": "tokenAmounts",
          "type": "uint256[]"
        },
        {
          "indexed": false,
          "internalType": "uint256[]",
          "name": "fees",
          "type": "uint256[]"
        },
        {
          "indexed": false,
          "internalType": "uint256",
          "name": "invariant",
          "type": "uint256"
        },
        {
          "indexed": false,
          "internalType": "uint256",
          "name": "lpTokenSupply",
          "type": "uint256"
        }
      ],
      "name": "RemoveLiquidityImbalance",
      "type": "event"
    },
    {
      "anonymous": false,
      "inputs": [
        {
          "indexed": true,
          "internalType": "address",
          "name": "provider",
          "type": "address"
        },
        {
          "indexed": false,
          "internalType": "uint256",
          "name": "lpTokenAmount",
          "type": "uint256"
        },
        {
          "indexed": false,
          "internalType": "uint256",
          "name": "lpTokenSupply",
          "type": "uint256"
        },
        {
          "indexed": false,
          "internalType": "uint256",
          "name": "boughtId",
          "type": "uint256"
        },
        {
          "indexed": false,
          "internalType": "uint256",
          "name": "tokensBought",
          "type": "uint256"
        }
      ],
      "name": "RemoveLiquidityOne",
      "type": "event"
    },
    {
      "anonymous": false,
      "inputs": [
        {
          "indexed": true,
          "internalType": "address",
          "name": "buyer",
          "type": "address"
        },
        {
          "indexed": false,
          "internalType": "uint256",
          "name": "tokensSold",
          "type": "uint256"
        },
        {
          "indexed": false,
          "internalType": "uint256",
          "name": "tokensBought",
          "type": "uint256"
        },
        {
          "indexed": false,
          "internalType": "uint128",
          "name": "soldId",
          "type": "uint128"
        },
        {
          "indexed": false,
          "internalType": "uint128",
          "name": "boughtId",
          "type": "uint128"
        }
      ],
      "name": "TokenSwap",
      "type": "event"
    },
    {
      "inputs": [],
      "name": "MAX_ADMIN_FEE",
      "outputs": [
        {
          "internalType": "uint256",
          "name": "",
          "type": "uint256"
        }
      ],
      "stateMutability": "view",
      "type": "function"
    },
    {
      "inputs": [],
      "name": "MAX_SWAP_FEE",
      "outputs": [
        {
          "internalType": "uint256",
          "name": "",
          "type": "uint256"
        }
      ],
      "stateMutability": "view",
      "type": "function"
    },
    {
      "inputs": [],
      "name": "POOL_PRECISION_DECIMALS",
      "outputs": [
        {
          "internalType": "uint8",
          "name": "",
          "type": "uint8"
        }
      ],
      "stateMutability": "view",
      "type": "function"
    }
  ],
  "transactionHash": "0x861b9cc03420157f8959e0de955d9d8c2fa21f413e1a8a519e5048c5fa236eff",
  "args": [],
  "numDeployments": 1,
  "solcInputHash": "8ca980d51c658bcb6e0b1d5c9f9ee0b7",
  "bytecode": "0x613f1c610026600b82828239805160001a60731461001957fe5b30600052607381538281f3fe73000000000000000000000000000000000000000030146080604052600436106101155760003560e01c806371906c2c116100ac578063a5397b221161007b578063a5397b221461053a578063ab3d854414610583578063e06927421461058b578063e7a4db81146105b7578063f3de0362146105f657610115565b806371906c2c146103fc57806373fd6b3e146104195780637d048160146104a0578063834b4910146104c357610115565b8063467e186c116100e8578063467e186c146102f35780634b23603c14610323578063704672761461035957806370703e4a1461038957610115565b80630296ab501461011a57806324c5c7511461013857806340370edf1461017357806341b91c261461023c575b600080fd5b6101226105fe565b6040805160ff9092168252519081900360200190f35b81801561014457600080fd5b506101716004803603604081101561015b57600080fd5b50803590602001356001600160a01b0316610603565b005b81801561017f57600080fd5b5061022a6004803603606081101561019657600080fd5b81359190810190604081016020820135600160201b8111156101b757600080fd5b8201836020820111156101c957600080fd5b803590602001918460208302840111600160201b831117156101ea57600080fd5b9190808060200260200160405190810160405280939291908181526020018383602002808284376000920191909152509295505091359250610752915050565b60408051918252519081900360200190f35b81801561024857600080fd5b5061022a6004803603606081101561025f57600080fd5b81359190810190604081016020820135600160201b81111561028057600080fd5b82018360208201111561029257600080fd5b803590602001918460208302840111600160201b831117156102b357600080fd5b91908080602002602001604051908101604052809392919081815260200183836020028082843760009201919091525092955050913592506110c6915050565b8180156102ff57600080fd5b506101716004803603604081101561031657600080fd5b5080359060200135611852565b61022a6004803603608081101561033957600080fd5b5080359060ff6020820135811691604081013590911690606001356118db565b81801561036557600080fd5b506101716004803603604081101561037c57600080fd5b5080359060200135611946565b6103ac6004803603604081101561039f57600080fd5b50803590602001356119d0565b60408051602080825283518183015283519192839290830191858101910280838360005b838110156103e85781810151838201526020016103d0565b505050509050019250505060405180910390f35b61022a6004803603602081101561041257600080fd5b5035611ab3565b81801561042557600080fd5b506103ac6004803603606081101561043c57600080fd5b813591602081013591810190606081016040820135600160201b81111561046257600080fd5b82018360208201111561047457600080fd5b803590602001918460208302840111600160201b8311171561049557600080fd5b509092509050611b8a565b61022a600480360360408110156104b657600080fd5b5080359060200135611fbb565b61022a600480360360608110156104d957600080fd5b81359190810190604081016020820135600160201b8111156104fa57600080fd5b82018360208201111561050c57600080fd5b803590602001918460208302840111600160201b8311171561052d57600080fd5b919350915035151561208c565b81801561054657600080fd5b5061022a600480360360a081101561055d57600080fd5b5080359060ff6020820135811691604081013590911690606081013590608001356122db565b61022a6126ae565b61022a600480360360608110156105a157600080fd5b508035906020810135906040013560ff166126b6565b8180156105c357600080fd5b5061022a600480360360808110156105da57600080fd5b5080359060208101359060ff6040820135169060600135612740565b61022a612ac3565b601281565b60608260070180548060200260200160405190810160405280929190818152602001828054801561065d57602002820191906000526020600020905b81546001600160a01b0316815260019091019060200180831161063f575b5050505050905060005b815181101561074c57600082828151811061067e57fe5b60200260200101519050600061072686600901848154811061069c57fe5b9060005260206000200154836001600160a01b03166370a08231306040518263ffffffff1660e01b815260040180826001600160a01b0316815260200191505060206040518083038186803b1580156106f457600080fd5b505afa158015610708573d6000803e3d6000fd5b505050506040513d602081101561071e57600080fd5b505190612acc565b90508015610742576107426001600160a01b0383168683612b29565b5050600101610667565b50505050565b60006060846007018054806020026020016040519081016040528092919081815260200182805480156107ae57602002820191906000526020600020905b81546001600160a01b03168152600190910190602001808311610790575b50505050509050805184511461080b576040805162461bcd60e51b815260206004820181905260248201527f416d6f756e7473206d757374206d6174636820706f6f6c656420746f6b656e73604482015290519081900360640190fd5b610813613d75565b60405180610100016040528060008152602001600081526020016000815260200161083d88612b80565b81526020018760060160009054906101000a90046001600160a01b03166001600160a01b0316815260200160008152602001876009018054806020026020016040519081016040528092919081815260200182805480156108bd57602002820191906000526020600020905b8154815260200190600101908083116108a9575b505050505081526020018760080180548060200260200160405190810160405280929190818152602001828054801561091557602002820191906000526020600020905b815481526020019060010190808311610901575b5050505050815250905080608001516001600160a01b03166318160ddd6040518163ffffffff1660e01b815260040160206040518083038186803b15801561095c57600080fd5b505afa158015610970573d6000803e3d6000fd5b505050506040513d602081101561098657600080fd5b505160a08201819052156109b6576109b36109a98260c001518360e00151612b8b565b8260600151612c82565b81525b6060825167ffffffffffffffff811180156109d057600080fd5b506040519080825280602002602001820160405280156109fa578160200160208202803683370190505b50905060005b8351811015610c505760a0830151151580610a2e57506000878281518110610a2457fe5b6020026020010151115b610a7f576040805162461bcd60e51b815260206004820152601e60248201527f4d75737420737570706c7920616c6c20746f6b656e7320696e20706f6f6c0000604482015290519081900360640190fd5b868181518110610a8b57fe5b6020026020010151600014610bf4576000848281518110610aa857fe5b60200260200101516001600160a01b03166370a08231306040518263ffffffff1660e01b815260040180826001600160a01b0316815260200191505060206040518083038186803b158015610afc57600080fd5b505afa158015610b10573d6000803e3d6000fd5b505050506040513d6020811015610b2657600080fd5b50518851909150610b7690339030908b9086908110610b4157fe5b6020026020010151888681518110610b5557fe5b60200260200101516001600160a01b0316612de4909392919063ffffffff16565b610bda81868481518110610b8657fe5b60200260200101516001600160a01b03166370a08231306040518263ffffffff1660e01b815260040180826001600160a01b0316815260200191505060206040518083038186803b1580156106f457600080fd5b888381518110610be657fe5b602002602001018181525050505b610c31878281518110610c0357fe5b60200260200101518460c001518381518110610c1b57fe5b6020026020010151612e3e90919063ffffffff16565b828281518110610c3d57fe5b6020908102919091010152600101610a00565b50610c6c610c62828460e00151612b8b565b8360600151612c82565b60208301819052825110610cbb576040805162461bcd60e51b8152602060048201526011602482015270442073686f756c6420696e63726561736560781b604482015290519081900360640190fd5b60208201516040830152825160609067ffffffffffffffff81118015610ce057600080fd5b50604051908082528060200260200182016040528015610d0a578160200160208202803683370190505b5090508260a00151600014610ea8576000610d2a89600401548651612e98565b905060005b8551811015610e81576000610d768660000151610d708860c001518581518110610d5557fe5b60200260200101518960200151612eb390919063ffffffff16565b90612f0c565b9050610db16402540be400610d70610daa888681518110610d9357fe5b602002602001015185612f7390919063ffffffff16565b8690612eb3565b848381518110610dbd57fe5b602002602001018181525050610e21610dff6402540be400610d708e60050154888781518110610de957fe5b6020026020010151612eb390919063ffffffff16565b868481518110610e0b57fe5b6020026020010151612acc90919063ffffffff16565b8b6009018381548110610e3057fe5b9060005260206000200181905550610e61848381518110610e4d57fe5b6020026020010151868481518110610e0b57fe5b858381518110610e6d57fe5b602090810291909101015250600101610d2f565b50610e9d610e93848660e00151612b8b565b8560600151612c82565b604085015250610ebf565b8151610ebd9060098a01906020850190613dc3565b505b60008360a0015160001415610ed957506020830151610f01565b835160a08501516040860151610efe9291610d7091610ef89084612acc565b90612eb3565b90505b86811015610f56576040805162461bcd60e51b815260206004820152601b60248201527f436f756c646e2774206d696e74206d696e207265717565737465640000000000604482015290519081900360640190fd5b83608001516001600160a01b03166340c10f1933836040518363ffffffff1660e01b815260040180836001600160a01b0316815260200182815260200192505050600060405180830381600087803b158015610fb157600080fd5b505af1158015610fc5573d6000803e3d6000fd5b50505050336001600160a01b03167f189c623b666b1b45b83d7178f39b8c087cb09774317ca2f53c2d3c3726f222a289848760200151611012868a60a00151612e3e90919063ffffffff16565b604051808060200180602001858152602001848152602001838103835287818151815260200191508051906020019060200280838360005b8381101561106257818101518382015260200161104a565b50505050905001838103825286818151815260200191508051906020019060200280838360005b838110156110a1578181015183820152602001611089565b50505050905001965050505050505060405180910390a29450505050505b9392505050565b60006110d0613d75565b6040518061010001604052806000815260200160008152602001600081526020016110fa87612b80565b81526020018660060160009054906101000a90046001600160a01b03166001600160a01b03168152602001600081526020018660090180548060200260200160405190810160405280929190818152602001828054801561117a57602002820191906000526020600020905b815481526020019060010190808311611166575b50505050508152602001866008018054806020026020016040519081016040528092919081815260200182805480156111d257602002820191906000526020600020905b8154815260200190600101908083116111be575b5050505050815250905080608001516001600160a01b03166318160ddd6040518163ffffffff1660e01b815260040160206040518083038186803b15801561121957600080fd5b505afa15801561122d573d6000803e3d6000fd5b505050506040513d602081101561124357600080fd5b505160a082015260078501805460408051602083810282018101909252828152606093909290918301828280156112a357602002820191906000526020600020905b81546001600160a01b03168152600190910190602001808311611285575b505050505090508051855114611300576040805162461bcd60e51b815260206004820181905260248201527f416d6f756e74732073686f756c64206d6174636820706f6f6c20746f6b656e73604482015290519081900360640190fd5b81608001516001600160a01b03166370a08231336040518263ffffffff1660e01b815260040180826001600160a01b0316815260200191505060206040518083038186803b15801561135157600080fd5b505afa158015611365573d6000803e3d6000fd5b505050506040513d602081101561137b57600080fd5b5051841180159061138b57508315155b6113cc576040805162461bcd60e51b815260206004820152600d60248201526c1f2628173130b630b731b2a7b360991b604482015290519081900360640190fd5b60006113dd87600401548351612e98565b90506060825167ffffffffffffffff811180156113f957600080fd5b50604051908082528060200260200182016040528015611423578160200160208202803683370190505b5090506060835167ffffffffffffffff8111801561144057600080fd5b5060405190808252806020026020018201604052801561146a578160200160208202803683370190505b50905061148c6114828660c001518760e00151612b8b565b8660600151612c82565b855260005b8451811015611510576114f18982815181106114a957fe5b6020026020010151604051806060016040528060238152602001613ec4602391398860c0015184815181106114da57fe5b6020026020010151612f8b9092919063ffffffff16565b8282815181106114fd57fe5b6020908102919091010152600101611491565b50611522611482828760e00151612b8b565b602086015260005b845181101561164f57600061156b8760000151610d708960c00151858151811061155057fe5b60200260200101518a60200151612eb390919063ffffffff16565b9050600061159584848151811061157e57fe5b602002602001015183612f7390919063ffffffff16565b90506115aa6402540be400610d708884612eb3565b8584815181106115b657fe5b6020026020010181815250506115ee6115e26402540be400610d708f60050154898881518110610de957fe5b858581518110610e0b57fe5b8c60090184815481106115fd57fe5b906000526020600020018190555061162e85848151811061161a57fe5b6020026020010151858581518110610e0b57fe5b84848151811061163a57fe5b6020908102919091010152505060010161152a565b50611661611482828760e00151612b8b565b60408601819052855160a08701516000935061168792610d709190610ef8908490612acc565b9050806116db576040805162461bcd60e51b815260206004820152601b60248201527f4275726e7420616d6f756e742063616e6e6f74206265207a65726f0000000000604482015290519081900360640190fd5b6116e6816001612e3e565b90508681111561173d576040805162461bcd60e51b815260206004820152601b60248201527f746f6b656e416d6f756e74203e206d61784275726e416d6f756e740000000000604482015290519081900360640190fd5b84608001516001600160a01b03166379cc679033836040518363ffffffff1660e01b815260040180836001600160a01b0316815260200182815260200192505050600060405180830381600087803b15801561179857600080fd5b505af11580156117ac573d6000803e3d6000fd5b5050505060005b845181101561180857611800338a83815181106117cc57fe5b60200260200101518784815181106117e057fe5b60200260200101516001600160a01b0316612b299092919063ffffffff16565b6001016117b3565b50336001600160a01b03167f3631c28b1f9dd213e0319fb167b554d76b6c283a41143eb400a0d1adb1af175589848860200151611012868b60a00151612acc90919063ffffffff16565b6305f5e10081111561189d576040805162461bcd60e51b815260206004820152600f60248201526e08ccaca40d2e640e8dede40d0d2ced608b1b604482015290519081900360640190fd5b600482018190556040805182815290517fd88ea5155021c6f8dafa1a741e173f595cdf77ce7c17d43342131d7f06afdfe59181900360200190a15050565b600061193c858585858960090180548060200260200160405190810160405280929190818152602001828054801561193257602002820191906000526020600020905b81548152602001906001019080831161191e575b5050505050613022565b5095945050505050565b6402540be400811115611992576040805162461bcd60e51b815260206004820152600f60248201526e08ccaca40d2e640e8dede40d0d2ced608b1b604482015290519081900360640190fd5b600582018190556040805182815290517fab599d640ca80cde2b09b128a4154a8dfe608cb80f4c9399c8b954b01fd35f389181900360200190a15050565b6060611aaa83600901805480602002602001604051908101604052809291908181526020018280548015611a2357602002820191906000526020600020905b815481526020019060010190808311611a0f575b5050505050838560060160009054906101000a90046001600160a01b03166001600160a01b03166318160ddd6040518163ffffffff1660e01b815260040160206040518083038186803b158015611a7957600080fd5b505afa158015611a8d573d6000803e3d6000fd5b505050506040513d6020811015611aa357600080fd5b50516131c5565b90505b92915050565b600080611ad0611ac2846132a2565b611acb85612b80565b612c82565b905060008360060160009054906101000a90046001600160a01b031690506000816001600160a01b03166318160ddd6040518163ffffffff1660e01b815260040160206040518083038186803b158015611b2957600080fd5b505afa158015611b3d573d6000803e3d6000fd5b505050506040513d6020811015611b5357600080fd5b505190508015611b7d57611b7381610d7085670de0b6b3a7640000612eb3565b9350505050611b85565b600093505050505b919050565b6006840154600785018054604080516020808402820181019092528281526060946001600160a01b03169385939192909190830182828015611bf557602002820191906000526020600020905b81546001600160a01b03168152600190910190602001808311611bd7575b50505050509050816001600160a01b03166370a08231336040518263ffffffff1660e01b815260040180826001600160a01b0316815260200191505060206040518083038186803b158015611c4957600080fd5b505afa158015611c5d573d6000803e3d6000fd5b505050506040513d6020811015611c7357600080fd5b5051861115611cb9576040805162461bcd60e51b815260206004820152600d60248201526c1f2628173130b630b731b2a7b360991b604482015290519081900360640190fd5b80518414611d0e576040805162461bcd60e51b815260206004820181905260248201527f6d696e416d6f756e7473206d757374206d6174636820706f6f6c546f6b656e73604482015290519081900360640190fd5b606087600901805480602002602001604051908101604052809291908181526020018280548015611d5e57602002820191906000526020600020905b815481526020019060010190808311611d4a575b505050505090506000836001600160a01b03166318160ddd6040518163ffffffff1660e01b815260040160206040518083038186803b158015611da057600080fd5b505afa158015611db4573d6000803e3d6000fd5b505050506040513d6020811015611dca57600080fd5b505190506060611ddb838a846131c5565b905060005b8151811015611ebb57888882818110611df557fe5b90506020020135828281518110611e0857fe5b60200260200101511015611e63576040805162461bcd60e51b815260206004820152601a60248201527f616d6f756e74735b695d203c206d696e416d6f756e74735b695d000000000000604482015290519081900360640190fd5b611e86828281518110611e7257fe5b6020026020010151858381518110610e0b57fe5b8b6009018281548110611e9557fe5b9060005260206000200181905550611eb3338383815181106117cc57fe5b600101611de0565b506040805163079cc67960e41b8152336004820152602481018b905290516001600160a01b038716916379cc679091604480830192600092919082900301818387803b158015611f0a57600080fd5b505af1158015611f1e573d6000803e3d6000fd5b503392507f88d38ed598fdd809c2bf01ee49cd24b7fdabf379a83d29567952b60324d58cef9150839050611f52858d612acc565b6040518080602001838152602001828103825284818151815260200191508051906020019060200280838360005b83811015611f98578181015183820152602001611f80565b50505050905001935050505060405180910390a29450505050505b949350505050565b60078201546000908210612011576040805162461bcd60e51b8152602060048201526018602482015277546f6b656e20696e646578206f7574206f662072616e676560401b604482015290519081900360640190fd5b611aaa83600901838154811061202357fe5b906000526020600020015484600701848154811061203d57fe5b60009182526020918290200154604080516370a0823160e01b815230600482015290516001600160a01b03909216926370a0823192602480840193829003018186803b1580156106f457600080fd5b60008061209886612b80565b90506060866009018054806020026020016040519081016040528092919081815260200182805480156120ea57602002820191906000526020600020905b8154815260200190600101908083116120d6575b5050505050905060608760080180548060200260200160405190810160405280929190818152602001828054801561214157602002820191906000526020600020905b81548152602001906001019080831161212d575b50505050509050600061215d6121578484612b8b565b85612c82565b905060005b835181101561220c5786156121b05761219389898381811061218057fe5b90506020020135858381518110610c1b57fe5b84828151811061219f57fe5b602002602001018181525050612204565b6121eb8989838181106121bf57fe5b90506020020135604051806060016040528060238152602001613ec4602391398684815181106114da57fe5b8482815181106121f757fe5b6020026020010181815250505b600101612162565b50600061222261221c8585612b8b565b86612c82565b905060008a60060160009054906101000a90046001600160a01b03166001600160a01b03166318160ddd6040518163ffffffff1660e01b815260040160206040518083038186803b15801561227657600080fd5b505afa15801561228a573d6000803e3d6000fd5b505050506040513d60208110156122a057600080fd5b5051905087156122c9576122bc83610d7083610ef88684612acc565b9650505050505050611fb3565b6122bc83610d7083610ef88387612acc565b600080866007018660ff16815481106122f057fe5b60009182526020918290200154604080516370a0823160e01b815233600482015290516001600160a01b03909216935083926370a0823192602480840193829003018186803b15801561234257600080fd5b505afa158015612356573d6000803e3d6000fd5b505050506040513d602081101561236c57600080fd5b50518411156123c2576040805162461bcd60e51b815260206004820152601d60248201527f43616e6e6f742073776170206d6f7265207468616e20796f75206f776e000000604482015290519081900360640190fd5b6000816001600160a01b03166370a08231306040518263ffffffff1660e01b815260040180826001600160a01b0316815260200191505060206040518083038186803b15801561241157600080fd5b505afa158015612425573d6000803e3d6000fd5b505050506040513d602081101561243b57600080fd5b505190506124546001600160a01b038316333088612de4565b6124a581836001600160a01b03166370a08231306040518263ffffffff1660e01b815260040180826001600160a01b0316815260200191505060206040518083038186803b1580156106f457600080fd5b945050506000806060886009018054806020026020016040519081016040528092919081815260200182805480156124fc57602002820191906000526020600020905b8154815260200190600101908083116124e8575b505050505090506125108989898985613022565b90935091508483101561256a576040805162461bcd60e51b815260206004820181905260248201527f53776170206469646e277420726573756c7420696e206d696e20746f6b656e73604482015290519081900360640190fd5b60006125ac8a6008018960ff168154811061258157fe5b9060005260206000200154610d706402540be400610d708e6005015488612eb390919063ffffffff16565b90506125c187838b60ff1681518110610c1b57fe5b8a6009018a60ff16815481106125d357fe5b90600052602060002001819055506125fe816125f886858c60ff1681518110610e0b57fe5b90612acc565b8a6009018960ff168154811061261057fe5b906000526020600020018190555061265133858c6007018b60ff168154811061263557fe5b6000918252602090912001546001600160a01b03169190612b29565b604080518881526020810186905260ff808c16828401528a166060820152905133917fc6c1e0630dbe9130cc068028486c0d118ddcea348550819defd5cb8c257f8a38919081900360800190a25091925050505b95945050505050565b6305f5e10081565b60008061193c8585858860060160009054906101000a90046001600160a01b03166001600160a01b03166318160ddd6040518163ffffffff1660e01b815260040160206040518083038186803b15801561270f57600080fd5b505afa158015612723573d6000803e3d6000fd5b505050506040513d602081101561273957600080fd5b5051613352565b6006840154600785018054604080516020808402820181019092528281526000946001600160a01b03169360609391929091908301828280156127ac57602002820191906000526020600020905b81546001600160a01b0316815260019091019060200180831161278e575b50505050509050816001600160a01b03166370a08231336040518263ffffffff1660e01b815260040180826001600160a01b0316815260200191505060206040518083038186803b15801561280057600080fd5b505afa158015612814573d6000803e3d6000fd5b505050506040513d602081101561282a57600080fd5b5051861115612870576040805162461bcd60e51b815260206004820152600d60248201526c1f2628173130b630b731b2a7b360991b604482015290519081900360640190fd5b80518560ff16106128ba576040805162461bcd60e51b815260206004820152600f60248201526e151bdad95b881b9bdd08199bdd5b99608a1b604482015290519081900360640190fd5b6000826001600160a01b03166318160ddd6040518163ffffffff1660e01b815260040160206040518083038186803b1580156128f557600080fd5b505afa158015612909573d6000803e3d6000fd5b505050506040513d602081101561291f57600080fd5b505190506000806129328a8a8a86613352565b915091508682101561297c576040805162461bcd60e51b815260206004820152600e60248201526d191e480f081b5a5b905b5bdd5b9d60921b604482015290519081900360640190fd5b6129d46129a96129a26402540be400610d708e6005015486612eb390919063ffffffff16565b8490612e3e565b8b6009018a60ff16815481106129bb57fe5b9060005260206000200154612acc90919063ffffffff16565b8a6009018960ff16815481106129e657fe5b60009182526020822001919091556040805163079cc67960e41b8152336004820152602481018c905290516001600160a01b038816926379cc6790926044808201939182900301818387803b158015612a3e57600080fd5b505af1158015612a52573d6000803e3d6000fd5b50505050612a6a3383868b60ff16815181106117e057fe5b604080518a81526020810185905260ff8a168183015260608101849052905133917f43fb02998f4e03da2e0e6fff53fdbf0c40a9f45f145dc377fc30615d7d7a8a64919081900360800190a25098975050505050505050565b6402540be40081565b600082821115612b23576040805162461bcd60e51b815260206004820152601e60248201527f536166654d6174683a207375627472616374696f6e206f766572666c6f770000604482015290519081900360640190fd5b50900390565b604080516001600160a01b038416602482015260448082018490528251808303909101815260649091019091526020810180516001600160e01b031663a9059cbb60e01b179052612b7b9084906133b4565b505050565b6000611aad82613465565b81518151606091908114612be6576040805162461bcd60e51b815260206004820152601f60248201527f42616c616e636573206d757374206d61746368206d756c7469706c6965727300604482015290519081900360640190fd5b60608167ffffffffffffffff81118015612bff57600080fd5b50604051908082528060200260200182016040528015612c29578160200160208202803683370190505b50905060005b82811015612c7957612c5a858281518110612c4657fe5b6020026020010151878381518110610de957fe5b828281518110612c6657fe5b6020908102919091010152600101612c2f565b50949350505050565b815160009081805b82811015612cc257612cb8868281518110612ca157fe5b602002602001015183612e3e90919063ffffffff16565b9150600101612c8a565b5080612cd357600092505050611aad565b60008181612ce18786612eb3565b905060005b610100811015612da0578260005b87811015612d2357612d19612d0f898d8481518110610de957fe5b610d708488612eb3565b9150600101612cf4565b509293508392612d77612d57612d3e83610ef88b6001612e3e565b612d516064610d7089610ef88a84612acc565b90612e3e565b610d7086610ef8612d68868d612eb3565b612d516064610d708b8f612eb3565b9350612d8384866134fa565b15612d975783975050505050505050611aad565b50600101612ce6565b506040805162461bcd60e51b81526020600482015260136024820152724420646f6573206e6f7420636f6e766572676560681b604482015290519081900360640190fd5b604080516001600160a01b0380861660248301528416604482015260648082018490528251808303909101815260849091019091526020810180516001600160e01b03166323b872dd60e01b17905261074c9085906133b4565b600082820183811015611aaa576040805162461bcd60e51b815260206004820152601b60248201527f536166654d6174683a206164646974696f6e206f766572666c6f770000000000604482015290519081900360640190fd5b6000611aaa612ead6004610ef8856001612acc565b610d7085855b600082612ec257506000611aad565b82820282848281612ecf57fe5b0414611aaa5760405162461bcd60e51b8152600401808060200182810382526021815260200180613e796021913960400191505060405180910390fd5b6000808211612f62576040805162461bcd60e51b815260206004820152601a60248201527f536166654d6174683a206469766973696f6e206279207a65726f000000000000604482015290519081900360640190fd5b818381612f6b57fe5b049392505050565b600081831115612f865750808203611aad565b500390565b6000818484111561301a5760405162461bcd60e51b81526004018080602001828103825283818151815260200191508051906020019080838360005b83811015612fdf578181015183820152602001612fc7565b50505050905090810190601f16801561300c5780820380516001836020036101000a031916815260200191505b509250505060405180910390fd5b505050900390565b60008060608760080180548060200260200160405190810160405280929190818152602001828054801561307557602002820191906000526020600020905b815481526020019060010190808311613061575b5050505050905060606130888583612b8b565b905080518860ff161080156130a0575080518760ff16105b6130ec576040805162461bcd60e51b8152602060048201526018602482015277546f6b656e20696e646578206f7574206f662072616e676560401b604482015290519081900360640190fd5b6000613131828a60ff168151811061310057fe5b6020026020010151612d51858c60ff168151811061311a57fe5b60200260200101518a612eb390919063ffffffff16565b9050600061314a6131418c612b80565b8b8b8587613511565b905061316460016125f883868d60ff1681518110610e0b57fe5b95506131866402540be400610d708d6004015489612eb390919063ffffffff16565b94506131b5848a60ff168151811061319a57fe5b6020026020010151610d708789612acc90919063ffffffff16565b9550505050509550959350505050565b60608183111561321c576040805162461bcd60e51b815260206004820152601a60248201527f43616e6e6f742065786365656420746f74616c20737570706c79000000000000604482015290519081900360640190fd5b6060845167ffffffffffffffff8111801561323657600080fd5b50604051908082528060200260200182016040528015613260578160200160208202803683370190505b50905060005b8551811015612c795761328384610d7087898581518110610de957fe5b82828151811061328f57fe5b6020908102919091010152600101613266565b6060611aad826009018054806020026020016040519081016040528092919081815260200182805480156132f557602002820191906000526020600020905b8154815260200190600101908083116132e1575b50505050508360080180548060200260200160405190810160405280929190818152602001828054801561334857602002820191906000526020600020905b815481526020019060010190808311613334575b5050505050612b8b565b600080600080600061336689888a89613750565b80935081945082955050505060006133a3846125f88c6008018b60ff168154811061338d57fe5b600091825260209091200154610d708688612acc565b939a93995092975050505050505050565b6060613409826040518060400160405280602081526020017f5361666545524332303a206c6f772d6c6576656c2063616c6c206661696c6564815250856001600160a01b0316613a469092919063ffffffff16565b805190915015612b7b5780806020019051602081101561342857600080fd5b5051612b7b5760405162461bcd60e51b815260040180806020018281038252602a815260200180613e9a602a913960400191505060405180910390fd5b6003810154600182015460009190428211156134f15760028401548454808311156134c3576134b86134b161349a8685612acc565b610d706134a74287612acc565b610ef88887612acc565b8290612e3e565b945050505050611b85565b6134b86134ea6134d38685612acc565b610d706134e04287612acc565b610ef88689612acc565b8290612acc565b9150611b859050565b600060016135088484612f73565b11159392505050565b805160009060ff8681169086161415613571576040805162461bcd60e51b815260206004820152601d60248201527f43616e277420636f6d7061726520746f6b656e20746f20697473656c66000000604482015290519081900360640190fd5b808660ff161080156135855750808560ff16105b6135cf576040805162461bcd60e51b8152602060048201526016602482015275151bdad95b9cc81b5d5cdd081899481a5b881c1bdbdb60521b604482015290519081900360640190fd5b60006135db8489612c82565b9050806000806135eb858c612eb3565b90506000805b86811015613664578b60ff1681141561360c57899150613636565b8a60ff1681146136315788818151811061362257fe5b60200260200101519150613636565b61365c565b6136408483612e3e565b935061365961364f8389612eb3565b610d708789612eb3565b94505b6001016135f1565b506136816136728388612eb3565b610d706064610ef8888a612eb3565b9350600061369e61369784610d70896064612eb3565b8590612e3e565b9050600086815b6101008110156137025790915081906136d86136ca8a6125f887612d51876002612eb3565b610d708a612d518680612eb3565b91506136e482846134fa565b156136fa575098506126a5975050505050505050565b6001016136a5565b506040805162461bcd60e51b815260206004820152601e60248201527f417070726f78696d6174696f6e20646964206e6f7420636f6e76657267650000604482015290519081900360640190fd5b60008060006060613760886132a2565b905080518760ff16106137b5576040805162461bcd60e51b8152602060048201526018602482015277546f6b656e20696e646578206f7574206f662072616e676560401b604482015290519081900360640190fd5b6137bd613e0e565b6040518060a0016040528060008152602001600081526020016000815260200160008152602001600081525090506137f489612b80565b60808201819052613806908390612c82565b8082526138269061381e908890610d70908b90612eb3565b825190612acc565b60208201528151829060ff8a1690811061383c57fe5b6020026020010151871115613898576040805162461bcd60e51b815260206004820152601a60248201527f5769746864726177206578636565647320617661696c61626c65000000000000604482015290519081900360640190fd5b6138ac816080015189848460200151613a55565b6040820152815160609067ffffffffffffffff811180156138cc57600080fd5b506040519080825280602002602001820160405280156138f6578160200160208202803683370190505b5090506139088a600401548451612e98565b606083015260005b83518110156139bc57600084828151811061392757fe5b6020026020010151905061399c6134ea6402540be400610d7087606001518f60ff16871461397557885160208a01516139709161396991610d70908a90612eb3565b8790612acc565b610ef8565b610ef889604001516125f88b60000151610d708d602001518b612eb390919063ffffffff16565b8383815181106139a857fe5b602090810291909101015250600101613910565b5060006139e56139d684608001518c858760200151613a55565b838c60ff1681518110610e0b57fe5b9050613a138b6008018b60ff16815481106139fc57fe5b600091825260209091200154610d70836001612acc565b9050808360400151858c60ff1681518110613a2a57fe5b6020026020010151965096509650505050509450945094915050565b6060611fb38484600085613bad565b815160009060ff85168111613aa3576040805162461bcd60e51b815260206004820152600f60248201526e151bdad95b881b9bdd08199bdd5b99608a1b604482015290519081900360640190fd5b82600080613ab18985612eb3565b905060005b84811015613b18578860ff168114613b1057613aee888281518110613ad757fe5b602002602001015184612e3e90919063ffffffff16565b9250613b0d613b03868a8481518110610de957fe5b610d70868a612eb3565b93505b600101613ab6565b50613b35613b268286612eb3565b610d706064610ef8878b612eb3565b92506000613b4b6129a283610d708a6064612eb3565b9050600087815b610100811015613702579091508190613b85613b778b6125f887612d51876002612eb3565b610d7089612d518680612eb3565b9150613b9182846134fa565b15613ba557509650611fb395505050505050565b600101613b52565b606082471015613bee5760405162461bcd60e51b8152600401808060200182810382526026815260200180613e536026913960400191505060405180910390fd5b613bf785613d09565b613c48576040805162461bcd60e51b815260206004820152601d60248201527f416464726573733a2063616c6c20746f206e6f6e2d636f6e7472616374000000604482015290519081900360640190fd5b60006060866001600160a01b031685876040518082805190602001908083835b60208310613c875780518252601f199092019160209182019101613c68565b6001836020036101000a03801982511681845116808217855250505050505090500191505060006040518083038185875af1925050503d8060008114613ce9576040519150601f19603f3d011682016040523d82523d6000602084013e613cee565b606091505b5091509150613cfe828286613d0f565b979650505050505050565b3b151590565b60608315613d1e5750816110bf565b825115613d2e5782518084602001fd5b60405162461bcd60e51b8152602060048201818152845160248401528451859391928392604401919085019080838360008315612fdf578181015183820152602001612fc7565b6040518061010001604052806000815260200160008152602001600081526020016000815260200160006001600160a01b031681526020016000815260200160608152602001606081525090565b828054828255906000526020600020908101928215613dfe579160200282015b82811115613dfe578251825591602001919060010190613de3565b50613e0a929150613e3d565b5090565b6040518060a0016040528060008152602001600081526020016000815260200160008152602001600081525090565b5b80821115613e0a5760008155600101613e3e56fe416464726573733a20696e73756666696369656e742062616c616e636520666f722063616c6c536166654d6174683a206d756c7469706c69636174696f6e206f766572666c6f775361666545524332303a204552433230206f7065726174696f6e20646964206e6f74207375636365656443616e6e6f74207769746864726177206d6f7265207468616e20617661696c61626c65a26469706673582212200f2f2d135232459bdae7c6256a3b03e07bc0b7d09d2e855422069659b7cf535264736f6c634300060c0033",
  "devdoc": {
    "details": "Contracts relying on this library must initialize SwapUtils.Swap struct then use this library for SwapUtils.Swap struct. Note that this library contains both functions called by users and admins. Admin functions should be protected within contracts using this library.",
    "kind": "dev",
    "methods": {
      "addLiquidity(SwapUtils.Swap storage,uint256[],uint256)": {
        "params": {
          "amounts": "the amounts of each token to add, in their native precision",
          "minToMint": "the minimum LP tokens adding this amount of liquidity should mint, otherwise revert. Handy for front-running mitigation allowed addresses. If the pool is not in the guarded launch phase, this parameter will be ignored.",
          "self": "Swap struct to read from and write to"
        },
        "returns": {
          "_0": "amount of LP token user received"
        }
      },
      "calculateRemoveLiquidity(SwapUtils.Swap storage,uint256)": {
        "params": {
          "amount": "the amount of LP tokens that would to be burned on withdrawal"
        },
        "returns": {
          "_0": "array of amounts of tokens user will receive"
        }
      },
      "calculateSwap(SwapUtils.Swap storage,uint8,uint8,uint256)": {
        "params": {
          "dx": "the number of tokens to sell. If the token charges a fee on transfers, use the amount that gets transferred after the fee.",
          "self": "Swap struct to read from",
          "tokenIndexFrom": "the token to sell",
          "tokenIndexTo": "the token to buy"
        },
        "returns": {
          "dy": "the number of tokens the user will get"
        }
      },
      "calculateTokenAmount(SwapUtils.Swap storage,uint256[],bool)": {
        "details": "This shouldn't be used outside frontends for user estimates.",
        "params": {
          "amounts": "an array of token amounts to deposit or withdrawal, corresponding to pooledTokens. The amount should be in each pooled token's native precision. If a token charges a fee on transfers, use the amount that gets transferred after the fee.",
          "deposit": "whether this is a deposit or a withdrawal",
          "self": "Swap struct to read from"
        },
        "returns": {
          "_0": "if deposit was true, total amount of lp token that will be minted and if deposit was false, total amount of lp token that will be burned"
        }
      },
      "calculateWithdrawOneToken(SwapUtils.Swap storage,uint256,uint8)": {
        "params": {
          "self": "Swap struct to read from",
          "tokenAmount": "the amount to withdraw in the pool's precision",
          "tokenIndex": "which token will be withdrawn"
        },
        "returns": {
          "_0": "the amount of token user will receive"
        }
      },
      "getAdminBalance(SwapUtils.Swap storage,uint256)": {
        "params": {
          "index": "Index of the pooled token",
          "self": "Swap struct to read from"
        },
        "returns": {
          "_0": "admin balance in the token's precision"
        }
      },
      "getVirtualPrice(SwapUtils.Swap storage)": {
        "params": {
          "self": "Swap struct to read from"
        },
        "returns": {
          "_0": "the virtual price, scaled to precision of POOL_PRECISION_DECIMALS"
        }
      },
      "removeLiquidity(SwapUtils.Swap storage,uint256,uint256[])": {
        "details": "Liquidity can always be removed, even when the pool is paused.",
        "params": {
          "amount": "the amount of LP tokens to burn",
          "minAmounts": "the minimum amounts of each token in the pool acceptable for this burn. Useful as a front-running mitigation",
          "self": "Swap struct to read from and write to"
        },
        "returns": {
          "_0": "amounts of tokens the user received"
        }
      },
      "removeLiquidityImbalance(SwapUtils.Swap storage,uint256[],uint256)": {
        "params": {
          "amounts": "how much of each token to withdraw",
          "maxBurnAmount": "the max LP token provider is willing to pay to remove liquidity. Useful as a front-running mitigation.",
          "self": "Swap struct to read from and write to"
        },
        "returns": {
          "_0": "actual amount of LP tokens burned in the withdrawal"
        }
      },
      "removeLiquidityOneToken(SwapUtils.Swap storage,uint256,uint8,uint256)": {
        "params": {
          "minAmount": "the minimum amount to withdraw, otherwise revert",
          "self": "Swap struct to read from and write to",
          "tokenAmount": "the amount of the lp tokens to burn",
          "tokenIndex": "the index of the token you want to receive"
        },
        "returns": {
          "_0": "amount chosen token that user received"
        }
      },
      "setAdminFee(SwapUtils.Swap storage,uint256)": {
        "details": "adminFee cannot be higher than 100% of the swap fee",
        "params": {
          "newAdminFee": "new admin fee to be applied on future transactions",
          "self": "Swap struct to update"
        }
      },
      "setSwapFee(SwapUtils.Swap storage,uint256)": {
        "details": "fee cannot be higher than 1% of each swap",
        "params": {
          "newSwapFee": "new swap fee to be applied on future transactions",
          "self": "Swap struct to update"
        }
      },
      "swap(SwapUtils.Swap storage,uint8,uint8,uint256,uint256)": {
        "params": {
          "dx": "the amount of tokens the user wants to sell",
          "minDy": "the min amount the user would like to receive, or revert.",
          "self": "Swap struct to read from and write to",
          "tokenIndexFrom": "the token the user wants to sell",
          "tokenIndexTo": "the token the user wants to buy"
        },
        "returns": {
          "_0": "amount of token user received on swap"
        }
      },
      "withdrawAdminFees(SwapUtils.Swap storage,address)": {
        "params": {
          "self": "Swap struct to withdraw fees from",
          "to": "Address to send the fees to"
        }
      }
    },
    "title": "SwapUtils library",
    "version": 1
  },
  "userdoc": {
    "kind": "user",
    "methods": {
      "addLiquidity(SwapUtils.Swap storage,uint256[],uint256)": {
        "notice": "Add liquidity to the pool"
      },
      "calculateRemoveLiquidity(SwapUtils.Swap storage,uint256)": {
        "notice": "A simple method to calculate amount of each underlying tokens that is returned upon burning given amount of LP tokens"
      },
      "calculateSwap(SwapUtils.Swap storage,uint8,uint8,uint256)": {
        "notice": "Externally calculates a swap between two tokens."
      },
      "calculateTokenAmount(SwapUtils.Swap storage,uint256[],bool)": {
        "notice": "A simple method to calculate prices from deposits or withdrawals, excluding fees but including slippage. This is helpful as an input into the various \"min\" parameters on calls to fight front-running"
      },
      "calculateWithdrawOneToken(SwapUtils.Swap storage,uint256,uint8)": {
        "notice": "Calculate the dy, the amount of selected token that user receives and the fee of withdrawing in one token"
      },
      "getAdminBalance(SwapUtils.Swap storage,uint256)": {
        "notice": "return accumulated amount of admin fees of the token with given index"
      },
      "getVirtualPrice(SwapUtils.Swap storage)": {
        "notice": "Get the virtual price, to help calculate profit"
      },
      "removeLiquidity(SwapUtils.Swap storage,uint256,uint256[])": {
        "notice": "Burn LP tokens to remove liquidity from the pool."
      },
      "removeLiquidityImbalance(SwapUtils.Swap storage,uint256[],uint256)": {
        "notice": "Remove liquidity from the pool, weighted differently than the pool's current balances."
      },
      "removeLiquidityOneToken(SwapUtils.Swap storage,uint256,uint8,uint256)": {
        "notice": "Remove liquidity from the pool all in one token."
      },
      "setAdminFee(SwapUtils.Swap storage,uint256)": {
        "notice": "Sets the admin fee"
      },
      "setSwapFee(SwapUtils.Swap storage,uint256)": {
        "notice": "update the swap fee"
      },
      "swap(SwapUtils.Swap storage,uint8,uint8,uint256,uint256)": {
        "notice": "swap two tokens in the pool"
      },
      "withdrawAdminFees(SwapUtils.Swap storage,address)": {
        "notice": "withdraw all admin fees to a given address"
      }
    },
    "notice": "A library to be used within Swap.sol. Contains functions responsible for custody and AMM functionalities.",
    "version": 1
  },
  "storageLayout": {
    "storage": [],
    "types": null
  }
}